{
  "fileName": "MinerCards.sol",
  "contractName": "MinerCards",
  "source": "// SPDX-License-Identifier: MIT\n\npragma solidity ^0.6.0;\n\nimport \"@openzeppelin/contracts/token/ERC1155/ERC1155.sol\";\nimport \"@openzeppelin/contracts/math/SafeMath.sol\";\n\ncontract MinerCards is ERC1155 {\n    using SafeMath for uint256;\n\n    uint256 public constant MINERCARD_1 = 25;\n    uint256 public constant MINERCARD_2 = 50;\n    uint256 public constant MINERCARD_3 = 100;\n    uint256 public constant MINERCARD_4 = 250;\n    uint256 public constant MINERCARD_5 = 1000;\n\n    address private owner;\n\n    // Mapping from token ID to total supply\n    mapping(uint256 => uint256) public _totalSupply;\n\n    /**\n     * @dev Require msg.sender to be an admin\n     */\n    modifier onlyOwner() {\n        require(msg.sender == owner, \"Sender is not authorized!\");\n        _;\n    }\n\n    constructor() public ERC1155(\"\") {\n        owner = msg.sender;\n    }\n\n    /**\n     * @dev Creates `amount` tokens of token type `id`, and assigns them to `_account`.\n     * It updates the token supply for the token type.\n     * Emits a {TransferSingle} event.\n     *\n     * - `_account`      cannot be the zero address.\n     * - `_id`          must be between 0 and 4.\n     * - `_quantity`    quantity of tokens to mint.\n     */\n    function mint(\n        address _account,\n        uint256 _id,\n        uint256 _quantity\n    ) public onlyOwner {\n        require(\n            validateTokenType(_id) == true,\n            \"MinerCards.mint: Invalid Token Type.\"\n        );\n\n        _mint(_account, _id, _quantity, \"\");\n        _totalSupply[_id] = _totalSupply[_id].add(_quantity);\n    }\n\n    function getowner() public view returns (address) {\n        return owner;\n    }\n\n    /**\n     * @dev mints a batch ot tokens of different types and assigns them to `_account`\n     *\n     * Requirements:\n     *\n     * - `ids` and `amounts` must have the same length.\n     * - If `_account` refers to a smart contract, it must implement {IERC1155Receiver-onERC1155BatchReceived} and return the\n     * acceptance magic value.\n     */\n    function mintBatch(\n        address _account,\n        uint256[] memory _ids,\n        uint256[] memory _amounts\n    ) public onlyOwner {\n        for (uint256 i = 0; i < _ids.length; i++) {\n            require(\n                validateTokenType(_ids[i]) == true,\n                \"MinerCards.mintBatch: Invalid Token Type.\"\n            );\n        }\n        _mintBatch(_account, _ids, _amounts, \"\");\n\n        for (uint256 i = 0; i < _amounts.length; i++) {\n            _totalSupply[_ids[i]] = _totalSupply[_ids[i]].add(_amounts[i]);\n        }\n    }\n\n    // checks if `_id` is a valid token type\n    function validateTokenType(uint256 _id) internal returns (bool) {\n        if (\n            _id == MINERCARD_1 ||\n            _id == MINERCARD_2 ||\n            _id == MINERCARD_3 ||\n            _id == MINERCARD_4 ||\n            _id == MINERCARD_5\n        ) {\n            return true;\n        }\n\n        return false;\n    }\n\n    // get the total supply for a token type `_id`\n    function totalSupply(uint256 _id) public view returns (uint256) {\n        return _totalSupply[_id];\n    }\n}\n",
  "sourcePath": "contracts/MinerCards.sol",
  "abi": [
    {
      "inputs": [],
      "stateMutability": "nonpayable",
      "type": "constructor"
    },
    {
      "anonymous": false,
      "inputs": [
        {
          "indexed": true,
          "internalType": "address",
          "name": "account",
          "type": "address"
        },
        {
          "indexed": true,
          "internalType": "address",
          "name": "operator",
          "type": "address"
        },
        {
          "indexed": false,
          "internalType": "bool",
          "name": "approved",
          "type": "bool"
        }
      ],
      "name": "ApprovalForAll",
      "type": "event"
    },
    {
      "anonymous": false,
      "inputs": [
        {
          "indexed": true,
          "internalType": "address",
          "name": "operator",
          "type": "address"
        },
        {
          "indexed": true,
          "internalType": "address",
          "name": "from",
          "type": "address"
        },
        {
          "indexed": true,
          "internalType": "address",
          "name": "to",
          "type": "address"
        },
        {
          "indexed": false,
          "internalType": "uint256[]",
          "name": "ids",
          "type": "uint256[]"
        },
        {
          "indexed": false,
          "internalType": "uint256[]",
          "name": "values",
          "type": "uint256[]"
        }
      ],
      "name": "TransferBatch",
      "type": "event"
    },
    {
      "anonymous": false,
      "inputs": [
        {
          "indexed": true,
          "internalType": "address",
          "name": "operator",
          "type": "address"
        },
        {
          "indexed": true,
          "internalType": "address",
          "name": "from",
          "type": "address"
        },
        {
          "indexed": true,
          "internalType": "address",
          "name": "to",
          "type": "address"
        },
        {
          "indexed": false,
          "internalType": "uint256",
          "name": "id",
          "type": "uint256"
        },
        {
          "indexed": false,
          "internalType": "uint256",
          "name": "value",
          "type": "uint256"
        }
      ],
      "name": "TransferSingle",
      "type": "event"
    },
    {
      "anonymous": false,
      "inputs": [
        {
          "indexed": false,
          "internalType": "string",
          "name": "value",
          "type": "string"
        },
        {
          "indexed": true,
          "internalType": "uint256",
          "name": "id",
          "type": "uint256"
        }
      ],
      "name": "URI",
      "type": "event"
    },
    {
      "inputs": [],
      "name": "MINERCARD_1",
      "outputs": [
        {
          "internalType": "uint256",
          "name": "",
          "type": "uint256"
        }
      ],
      "stateMutability": "view",
      "type": "function"
    },
    {
      "inputs": [],
      "name": "MINERCARD_2",
      "outputs": [
        {
          "internalType": "uint256",
          "name": "",
          "type": "uint256"
        }
      ],
      "stateMutability": "view",
      "type": "function"
    },
    {
      "inputs": [],
      "name": "MINERCARD_3",
      "outputs": [
        {
          "internalType": "uint256",
          "name": "",
          "type": "uint256"
        }
      ],
      "stateMutability": "view",
      "type": "function"
    },
    {
      "inputs": [],
      "name": "MINERCARD_4",
      "outputs": [
        {
          "internalType": "uint256",
          "name": "",
          "type": "uint256"
        }
      ],
      "stateMutability": "view",
      "type": "function"
    },
    {
      "inputs": [],
      "name": "MINERCARD_5",
      "outputs": [
        {
          "internalType": "uint256",
          "name": "",
          "type": "uint256"
        }
      ],
      "stateMutability": "view",
      "type": "function"
    },
    {
      "inputs": [
        {
          "internalType": "uint256",
          "name": "",
          "type": "uint256"
        }
      ],
      "name": "_totalSupply",
      "outputs": [
        {
          "internalType": "uint256",
          "name": "",
          "type": "uint256"
        }
      ],
      "stateMutability": "view",
      "type": "function"
    },
    {
      "inputs": [
        {
          "internalType": "address",
          "name": "account",
          "type": "address"
        },
        {
          "internalType": "uint256",
          "name": "id",
          "type": "uint256"
        }
      ],
      "name": "balanceOf",
      "outputs": [
        {
          "internalType": "uint256",
          "name": "",
          "type": "uint256"
        }
      ],
      "stateMutability": "view",
      "type": "function"
    },
    {
      "inputs": [
        {
          "internalType": "address[]",
          "name": "accounts",
          "type": "address[]"
        },
        {
          "internalType": "uint256[]",
          "name": "ids",
          "type": "uint256[]"
        }
      ],
      "name": "balanceOfBatch",
      "outputs": [
        {
          "internalType": "uint256[]",
          "name": "",
          "type": "uint256[]"
        }
      ],
      "stateMutability": "view",
      "type": "function"
    },
    {
      "inputs": [],
      "name": "getowner",
      "outputs": [
        {
          "internalType": "address",
          "name": "",
          "type": "address"
        }
      ],
      "stateMutability": "view",
      "type": "function"
    },
    {
      "inputs": [
        {
          "internalType": "address",
          "name": "account",
          "type": "address"
        },
        {
          "internalType": "address",
          "name": "operator",
          "type": "address"
        }
      ],
      "name": "isApprovedForAll",
      "outputs": [
        {
          "internalType": "bool",
          "name": "",
          "type": "bool"
        }
      ],
      "stateMutability": "view",
      "type": "function"
    },
    {
      "inputs": [
        {
          "internalType": "address",
          "name": "_account",
          "type": "address"
        },
        {
          "internalType": "uint256",
          "name": "_id",
          "type": "uint256"
        },
        {
          "internalType": "uint256",
          "name": "_quantity",
          "type": "uint256"
        }
      ],
      "name": "mint",
      "outputs": [],
      "stateMutability": "nonpayable",
      "type": "function"
    },
    {
      "inputs": [
        {
          "internalType": "address",
          "name": "_account",
          "type": "address"
        },
        {
          "internalType": "uint256[]",
          "name": "_ids",
          "type": "uint256[]"
        },
        {
          "internalType": "uint256[]",
          "name": "_amounts",
          "type": "uint256[]"
        }
      ],
      "name": "mintBatch",
      "outputs": [],
      "stateMutability": "nonpayable",
      "type": "function"
    },
    {
      "inputs": [
        {
          "internalType": "address",
          "name": "from",
          "type": "address"
        },
        {
          "internalType": "address",
          "name": "to",
          "type": "address"
        },
        {
          "internalType": "uint256[]",
          "name": "ids",
          "type": "uint256[]"
        },
        {
          "internalType": "uint256[]",
          "name": "amounts",
          "type": "uint256[]"
        },
        {
          "internalType": "bytes",
          "name": "data",
          "type": "bytes"
        }
      ],
      "name": "safeBatchTransferFrom",
      "outputs": [],
      "stateMutability": "nonpayable",
      "type": "function"
    },
    {
      "inputs": [
        {
          "internalType": "address",
          "name": "from",
          "type": "address"
        },
        {
          "internalType": "address",
          "name": "to",
          "type": "address"
        },
        {
          "internalType": "uint256",
          "name": "id",
          "type": "uint256"
        },
        {
          "internalType": "uint256",
          "name": "amount",
          "type": "uint256"
        },
        {
          "internalType": "bytes",
          "name": "data",
          "type": "bytes"
        }
      ],
      "name": "safeTransferFrom",
      "outputs": [],
      "stateMutability": "nonpayable",
      "type": "function"
    },
    {
      "inputs": [
        {
          "internalType": "address",
          "name": "operator",
          "type": "address"
        },
        {
          "internalType": "bool",
          "name": "approved",
          "type": "bool"
        }
      ],
      "name": "setApprovalForAll",
      "outputs": [],
      "stateMutability": "nonpayable",
      "type": "function"
    },
    {
      "inputs": [
        {
          "internalType": "bytes4",
          "name": "interfaceId",
          "type": "bytes4"
        }
      ],
      "name": "supportsInterface",
      "outputs": [
        {
          "internalType": "bool",
          "name": "",
          "type": "bool"
        }
      ],
      "stateMutability": "view",
      "type": "function"
    },
    {
      "inputs": [
        {
          "internalType": "uint256",
          "name": "_id",
          "type": "uint256"
        }
      ],
      "name": "totalSupply",
      "outputs": [
        {
          "internalType": "uint256",
          "name": "",
          "type": "uint256"
        }
      ],
      "stateMutability": "view",
      "type": "function"
    },
    {
      "inputs": [
        {
          "internalType": "uint256",
          "name": "",
          "type": "uint256"
        }
      ],
      "name": "uri",
      "outputs": [
        {
          "internalType": "string",
          "name": "",
          "type": "string"
        }
      ],
      "stateMutability": "view",
      "type": "function"
    }
  ],
  "bytecode": "0x60806040523480156200001157600080fd5b50604051806020016040528060008152506200003a6301ffc9a760e01b620000c360201b60201c565b6200004b81620001cc60201b60201c565b6200006363d9b67a2660e01b620000c360201b60201c565b6200007b630e89341c60e01b620000c360201b60201c565b5033600460006101000a81548173ffffffffffffffffffffffffffffffffffffffff021916908373ffffffffffffffffffffffffffffffffffffffff1602179055506200028e565b63ffffffff60e01b817bffffffffffffffffffffffffffffffffffffffffffffffffffffffff1916141562000160576040517f08c379a000000000000000000000000000000000000000000000000000000000815260040180806020018281038252601c8152602001807f4552433136353a20696e76616c696420696e746572666163652069640000000081525060200191505060405180910390fd5b6001600080837bffffffffffffffffffffffffffffffffffffffffffffffffffffffff19167bffffffffffffffffffffffffffffffffffffffffffffffffffffffff1916815260200190815260200160002060006101000a81548160ff02191690831515021790555050565b8060039080519060200190620001e4929190620001e8565b5050565b828054600181600116156101000203166002900490600052602060002090601f016020900481019282601f106200022b57805160ff19168380011785556200025c565b828001600101855582156200025c579182015b828111156200025b5782518255916020019190600101906200023e565b5b5090506200026b91906200026f565b5090565b5b808211156200028a57600081600090555060010162000270565b5090565b612e7d806200029e6000396000f3fe608060405234801561001057600080fd5b50600436106101155760003560e01c8063a1849e60116100a2578063d81d0a1511610071578063d81d0a15146107ee578063e985e9c51461095a578063f242432a146109d4578063fe0174bd14610ae3578063fee45c7e14610b1757610115565b8063a1849e6014610720578063a22cb4651461073e578063bd85b0391461078e578063ced9ae40146107d057610115565b80632eb2c2d6116100e95780632eb2c2d6146102de57806349f1147d146105015780634e1273f41461051f5780635977e82a146106c0578063922fa5521461070257610115565b8062fdd58e1461011a57806301ffc9a71461017c5780630e89341c146101df578063156e29f614610286575b600080fd5b6101666004803603604081101561013057600080fd5b81019080803573ffffffffffffffffffffffffffffffffffffffff16906020019092919080359060200190929190505050610b35565b6040518082815260200191505060405180910390f35b6101c76004803603602081101561019257600080fd5b8101908080357bffffffffffffffffffffffffffffffffffffffffffffffffffffffff19169060200190929190505050610c15565b60405180821515815260200191505060405180910390f35b61020b600480360360208110156101f557600080fd5b8101908080359060200190929190505050610c7c565b6040518080602001828103825283818151815260200191508051906020019080838360005b8381101561024b578082015181840152602081019050610230565b50505050905090810190601f1680156102785780820380516001836020036101000a031916815260200191505b509250505060405180910390f35b6102dc6004803603606081101561029c57600080fd5b81019080803573ffffffffffffffffffffffffffffffffffffffff1690602001909291908035906020019092919080359060200190929190505050610d20565b005b6104ff600480360360a08110156102f457600080fd5b81019080803573ffffffffffffffffffffffffffffffffffffffff169060200190929190803573ffffffffffffffffffffffffffffffffffffffff1690602001909291908035906020019064010000000081111561035157600080fd5b82018360208201111561036357600080fd5b8035906020019184602083028401116401000000008311171561038557600080fd5b919080806020026020016040519081016040528093929190818152602001838360200280828437600081840152601f19601f820116905080830192505050505050509192919290803590602001906401000000008111156103e557600080fd5b8201836020820111156103f757600080fd5b8035906020019184602083028401116401000000008311171561041957600080fd5b919080806020026020016040519081016040528093929190818152602001838360200280828437600081840152601f19601f8201169050808301925050505050505091929192908035906020019064010000000081111561047957600080fd5b82018360208201111561048b57600080fd5b803590602001918460018302840111640100000000831117156104ad57600080fd5b91908080601f016020809104026020016040519081016040528093929190818152602001838380828437600081840152601f19601f820116905080830192505050505050509192919290505050610ea5565b005b610509611330565b6040518082815260200191505060405180910390f35b6106696004803603604081101561053557600080fd5b810190808035906020019064010000000081111561055257600080fd5b82018360208201111561056457600080fd5b8035906020019184602083028401116401000000008311171561058657600080fd5b919080806020026020016040519081016040528093929190818152602001838360200280828437600081840152601f19601f820116905080830192505050505050509192919290803590602001906401000000008111156105e657600080fd5b8201836020820111156105f857600080fd5b8035906020019184602083028401116401000000008311171561061a57600080fd5b919080806020026020016040519081016040528093929190818152602001838360200280828437600081840152601f19601f820116905080830192505050505050509192919290505050611335565b6040518080602001828103825283818151815260200191508051906020019060200280838360005b838110156106ac578082015181840152602081019050610691565b505050509050019250505060405180910390f35b6106ec600480360360208110156106d657600080fd5b8101908080359060200190929190505050611527565b6040518082815260200191505060405180910390f35b61070a61153f565b6040518082815260200191505060405180910390f35b610728611544565b6040518082815260200191505060405180910390f35b61078c6004803603604081101561075457600080fd5b81019080803573ffffffffffffffffffffffffffffffffffffffff16906020019092919080351515906020019092919050505061154a565b005b6107ba600480360360208110156107a457600080fd5b81019080803590602001909291905050506116e3565b6040518082815260200191505060405180910390f35b6107d8611700565b6040518082815260200191505060405180910390f35b6109586004803603606081101561080457600080fd5b81019080803573ffffffffffffffffffffffffffffffffffffffff1690602001909291908035906020019064010000000081111561084157600080fd5b82018360208201111561085357600080fd5b8035906020019184602083028401116401000000008311171561087557600080fd5b919080806020026020016040519081016040528093929190818152602001838360200280828437600081840152601f19601f820116905080830192505050505050509192919290803590602001906401000000008111156108d557600080fd5b8201836020820111156108e757600080fd5b8035906020019184602083028401116401000000008311171561090957600080fd5b919080806020026020016040519081016040528093929190818152602001838360200280828437600081840152601f19601f820116905080830192505050505050509192919290505050611705565b005b6109bc6004803603604081101561097057600080fd5b81019080803573ffffffffffffffffffffffffffffffffffffffff169060200190929190803573ffffffffffffffffffffffffffffffffffffffff16906020019092919050505061190a565b60405180821515815260200191505060405180910390f35b610ae1600480360360a08110156109ea57600080fd5b81019080803573ffffffffffffffffffffffffffffffffffffffff169060200190929190803573ffffffffffffffffffffffffffffffffffffffff169060200190929190803590602001909291908035906020019092919080359060200190640100000000811115610a5b57600080fd5b820183602082011115610a6d57600080fd5b80359060200191846001830284011164010000000083111715610a8f57600080fd5b91908080601f016020809104026020016040519081016040528093929190818152602001838380828437600081840152601f19601f82011690508083019250505050505050919291929050505061199e565b005b610aeb611d13565b604051808273ffffffffffffffffffffffffffffffffffffffff16815260200191505060405180910390f35b610b1f611d3d565b6040518082815260200191505060405180910390f35b60008073ffffffffffffffffffffffffffffffffffffffff168373ffffffffffffffffffffffffffffffffffffffff161415610bbc576040517f08c379a000000000000000000000000000000000000000000000000000000000815260040180806020018281038252602b815260200180612c5a602b913960400191505060405180910390fd5b6001600083815260200190815260200160002060008473ffffffffffffffffffffffffffffffffffffffff1673ffffffffffffffffffffffffffffffffffffffff16815260200190815260200160002054905092915050565b6000806000837bffffffffffffffffffffffffffffffffffffffffffffffffffffffff19167bffffffffffffffffffffffffffffffffffffffffffffffffffffffff1916815260200190815260200160002060009054906101000a900460ff169050919050565b606060038054600181600116156101000203166002900480601f016020809104026020016040519081016040528092919081815260200182805460018160011615610100020316600290048015610d145780601f10610ce957610100808354040283529160200191610d14565b820191906000526020600020905b815481529060010190602001808311610cf757829003601f168201915b50505050509050919050565b600460009054906101000a900473ffffffffffffffffffffffffffffffffffffffff1673ffffffffffffffffffffffffffffffffffffffff163373ffffffffffffffffffffffffffffffffffffffff1614610de3576040517f08c379a00000000000000000000000000000000000000000000000000000000081526004018080602001828103825260198152602001807f53656e646572206973206e6f7420617574686f72697a6564210000000000000081525060200191505060405180910390fd5b60011515610df083611d42565b151514610e48576040517f08c379a0000000000000000000000000000000000000000000000000000000008152600401808060200182810382526024815260200180612cb66024913960400191505060405180910390fd5b610e6383838360405180602001604052806000815250611d8d565b610e89816005600085815260200190815260200160002054611f9090919063ffffffff16565b6005600084815260200190815260200160002081905550505050565b8151835114610eff576040517f08c379a0000000000000000000000000000000000000000000000000000000008152600401808060200182810382526028815260200180612dff6028913960400191505060405180910390fd5b600073ffffffffffffffffffffffffffffffffffffffff168473ffffffffffffffffffffffffffffffffffffffff161415610f85576040517f08c379a0000000000000000000000000000000000000000000000000000000008152600401808060200182810382526025815260200180612d036025913960400191505060405180910390fd5b610f8d612018565b73ffffffffffffffffffffffffffffffffffffffff168573ffffffffffffffffffffffffffffffffffffffff161480610fd35750610fd285610fcd612018565b61190a565b5b611028576040517f08c379a0000000000000000000000000000000000000000000000000000000008152600401808060200182810382526032815260200180612d286032913960400191505060405180910390fd5b6000611032612018565b9050611042818787878787612020565b60005b845181101561121357600085828151811061105c57fe5b60200260200101519050600085838151811061107457fe5b602002602001015190506110fb816040518060600160405280602a8152602001612d5a602a91396001600086815260200190815260200160002060008d73ffffffffffffffffffffffffffffffffffffffff1673ffffffffffffffffffffffffffffffffffffffff168152602001908152602001600020546120289092919063ffffffff16565b6001600084815260200190815260200160002060008b73ffffffffffffffffffffffffffffffffffffffff1673ffffffffffffffffffffffffffffffffffffffff168152602001908152602001600020819055506111b2816001600085815260200190815260200160002060008b73ffffffffffffffffffffffffffffffffffffffff1673ffffffffffffffffffffffffffffffffffffffff16815260200190815260200160002054611f9090919063ffffffff16565b6001600084815260200190815260200160002060008a73ffffffffffffffffffffffffffffffffffffffff1673ffffffffffffffffffffffffffffffffffffffff168152602001908152602001600020819055505050806001019050611045565b508473ffffffffffffffffffffffffffffffffffffffff168673ffffffffffffffffffffffffffffffffffffffff168273ffffffffffffffffffffffffffffffffffffffff167f4a39dc06d4c0dbc64b70af90fd698a233a518aa5d07e595d983b8c0526c8f7fb8787604051808060200180602001838103835285818151815260200191508051906020019060200280838360005b838110156112c35780820151818401526020810190506112a8565b50505050905001838103825284818151815260200191508051906020019060200280838360005b838110156113055780820151818401526020810190506112ea565b5050505090500194505050505060405180910390a46113288187878787876120e8565b505050505050565b606481565b60608151835114611391576040517f08c379a0000000000000000000000000000000000000000000000000000000008152600401808060200182810382526029815260200180612dd66029913960400191505060405180910390fd5b6060835167ffffffffffffffff811180156113ab57600080fd5b506040519080825280602002602001820160405280156113da5781602001602082028036833780820191505090505b50905060005b845181101561151c57600073ffffffffffffffffffffffffffffffffffffffff1685828151811061140d57fe5b602002602001015173ffffffffffffffffffffffffffffffffffffffff161415611482576040517f08c379a0000000000000000000000000000000000000000000000000000000008152600401808060200182810382526031815260200180612c856031913960400191505060405180910390fd5b6001600085838151811061149257fe5b6020026020010151815260200190815260200160002060008683815181106114b657fe5b602002602001015173ffffffffffffffffffffffffffffffffffffffff1673ffffffffffffffffffffffffffffffffffffffff1681526020019081526020016000205482828151811061150557fe5b6020026020010181815250508060010190506113e0565b508091505092915050565b60056020528060005260406000206000915090505481565b603281565b6103e881565b8173ffffffffffffffffffffffffffffffffffffffff16611569612018565b73ffffffffffffffffffffffffffffffffffffffff1614156115d6576040517f08c379a0000000000000000000000000000000000000000000000000000000008152600401808060200182810382526029815260200180612dad6029913960400191505060405180910390fd5b80600260006115e3612018565b73ffffffffffffffffffffffffffffffffffffffff1673ffffffffffffffffffffffffffffffffffffffff16815260200190815260200160002060008473ffffffffffffffffffffffffffffffffffffffff1673ffffffffffffffffffffffffffffffffffffffff16815260200190815260200160002060006101000a81548160ff0219169083151502179055508173ffffffffffffffffffffffffffffffffffffffff16611690612018565b73ffffffffffffffffffffffffffffffffffffffff167f17307eab39ab6107e8899845ad3d59bd9653f200f220920489ca2b5937696c318360405180821515815260200191505060405180910390a35050565b600060056000838152602001908152602001600020549050919050565b60fa81565b600460009054906101000a900473ffffffffffffffffffffffffffffffffffffffff1673ffffffffffffffffffffffffffffffffffffffff163373ffffffffffffffffffffffffffffffffffffffff16146117c8576040517f08c379a00000000000000000000000000000000000000000000000000000000081526004018080602001828103825260198152602001807f53656e646572206973206e6f7420617574686f72697a6564210000000000000081525060200191505060405180910390fd5b60005b825181101561185957600115156117f48483815181106117e757fe5b6020026020010151611d42565b15151461184c576040517f08c379a0000000000000000000000000000000000000000000000000000000008152600401808060200182810382526029815260200180612d846029913960400191505060405180910390fd5b80806001019150506117cb565b5061187583838360405180602001604052806000815250612477565b60005b8151811015611904576118cd82828151811061189057fe5b6020026020010151600560008685815181106118a857fe5b6020026020010151815260200190815260200160002054611f9090919063ffffffff16565b600560008584815181106118dd57fe5b60200260200101518152602001908152602001600020819055508080600101915050611878565b50505050565b6000600260008473ffffffffffffffffffffffffffffffffffffffff1673ffffffffffffffffffffffffffffffffffffffff16815260200190815260200160002060008373ffffffffffffffffffffffffffffffffffffffff1673ffffffffffffffffffffffffffffffffffffffff16815260200190815260200160002060009054906101000a900460ff16905092915050565b600073ffffffffffffffffffffffffffffffffffffffff168473ffffffffffffffffffffffffffffffffffffffff161415611a24576040517f08c379a0000000000000000000000000000000000000000000000000000000008152600401808060200182810382526025815260200180612d036025913960400191505060405180910390fd5b611a2c612018565b73ffffffffffffffffffffffffffffffffffffffff168573ffffffffffffffffffffffffffffffffffffffff161480611a725750611a7185611a6c612018565b61190a565b5b611ac7576040517f08c379a0000000000000000000000000000000000000000000000000000000008152600401808060200182810382526029815260200180612cda6029913960400191505060405180910390fd5b6000611ad1612018565b9050611af1818787611ae288612799565b611aeb88612799565b87612020565b611b6e836040518060600160405280602a8152602001612d5a602a91396001600088815260200190815260200160002060008a73ffffffffffffffffffffffffffffffffffffffff1673ffffffffffffffffffffffffffffffffffffffff168152602001908152602001600020546120289092919063ffffffff16565b6001600086815260200190815260200160002060008873ffffffffffffffffffffffffffffffffffffffff1673ffffffffffffffffffffffffffffffffffffffff16815260200190815260200160002081905550611c25836001600087815260200190815260200160002060008873ffffffffffffffffffffffffffffffffffffffff1673ffffffffffffffffffffffffffffffffffffffff16815260200190815260200160002054611f9090919063ffffffff16565b6001600086815260200190815260200160002060008773ffffffffffffffffffffffffffffffffffffffff1673ffffffffffffffffffffffffffffffffffffffff168152602001908152602001600020819055508473ffffffffffffffffffffffffffffffffffffffff168673ffffffffffffffffffffffffffffffffffffffff168273ffffffffffffffffffffffffffffffffffffffff167fc3d58168c5ae7397731d063d5bbf3d657854427343f4c083240f7aacaa2d0f628787604051808381526020018281526020019250505060405180910390a4611d0b818787878787612809565b505050505050565b6000600460009054906101000a900473ffffffffffffffffffffffffffffffffffffffff16905090565b601981565b60006019821480611d535750603282145b80611d5e5750606482145b80611d69575060fa82145b80611d7557506103e882145b15611d835760019050611d88565b600090505b919050565b600073ffffffffffffffffffffffffffffffffffffffff168473ffffffffffffffffffffffffffffffffffffffff161415611e13576040517f08c379a0000000000000000000000000000000000000000000000000000000008152600401808060200182810382526021815260200180612e276021913960400191505060405180910390fd5b6000611e1d612018565b9050611e3e81600087611e2f88612799565b611e3888612799565b87612020565b611ea1836001600087815260200190815260200160002060008873ffffffffffffffffffffffffffffffffffffffff1673ffffffffffffffffffffffffffffffffffffffff16815260200190815260200160002054611f9090919063ffffffff16565b6001600086815260200190815260200160002060008773ffffffffffffffffffffffffffffffffffffffff1673ffffffffffffffffffffffffffffffffffffffff168152602001908152602001600020819055508473ffffffffffffffffffffffffffffffffffffffff16600073ffffffffffffffffffffffffffffffffffffffff168273ffffffffffffffffffffffffffffffffffffffff167fc3d58168c5ae7397731d063d5bbf3d657854427343f4c083240f7aacaa2d0f628787604051808381526020018281526020019250505060405180910390a4611f8981600087878787612809565b5050505050565b60008082840190508381101561200e576040517f08c379a000000000000000000000000000000000000000000000000000000000815260040180806020018281038252601b8152602001807f536166654d6174683a206164646974696f6e206f766572666c6f77000000000081525060200191505060405180910390fd5b8091505092915050565b600033905090565b505050505050565b60008383111582906120d5576040517f08c379a00000000000000000000000000000000000000000000000000000000081526004018080602001828103825283818151815260200191508051906020019080838360005b8381101561209a57808201518184015260208101905061207f565b50505050905090810190601f1680156120c75780820380516001836020036101000a031916815260200191505b509250505060405180910390fd5b5060008385039050809150509392505050565b6121078473ffffffffffffffffffffffffffffffffffffffff16612b16565b1561246f578373ffffffffffffffffffffffffffffffffffffffff1663bc197c8187878686866040518663ffffffff1660e01b8152600401808673ffffffffffffffffffffffffffffffffffffffff1681526020018573ffffffffffffffffffffffffffffffffffffffff168152602001806020018060200180602001848103845287818151815260200191508051906020019060200280838360005b838110156121bf5780820151818401526020810190506121a4565b50505050905001848103835286818151815260200191508051906020019060200280838360005b838110156122015780820151818401526020810190506121e6565b50505050905001848103825285818151815260200191508051906020019080838360005b83811015612240578082015181840152602081019050612225565b50505050905090810190601f16801561226d5780820380516001836020036101000a031916815260200191505b5098505050505050505050602060405180830381600087803b15801561229257600080fd5b505af19250505080156122c657506040513d60208110156122b257600080fd5b810190808051906020019092919050505060015b6123d0576122d2612b47565b806122dd575061237f565b806040517f08c379a00000000000000000000000000000000000000000000000000000000081526004018080602001828103825283818151815260200191508051906020019080838360005b83811015612344578082015181840152602081019050612329565b50505050905090810190601f1680156123715780820380516001836020036101000a031916815260200191505b509250505060405180910390fd5b6040517f08c379a0000000000000000000000000000000000000000000000000000000008152600401808060200182810382526034815260200180612bfe6034913960400191505060405180910390fd5b63bc197c8160e01b7bffffffffffffffffffffffffffffffffffffffffffffffffffffffff1916817bffffffffffffffffffffffffffffffffffffffffffffffffffffffff19161461246d576040517f08c379a0000000000000000000000000000000000000000000000000000000008152600401808060200182810382526028815260200180612c326028913960400191505060405180910390fd5b505b505050505050565b600073ffffffffffffffffffffffffffffffffffffffff168473ffffffffffffffffffffffffffffffffffffffff1614156124fd576040517f08c379a0000000000000000000000000000000000000000000000000000000008152600401808060200182810382526021815260200180612e276021913960400191505060405180910390fd5b8151835114612557576040517f08c379a0000000000000000000000000000000000000000000000000000000008152600401808060200182810382526028815260200180612dff6028913960400191505060405180910390fd5b6000612561612018565b905061257281600087878787612020565b60005b845181101561267b576126076001600087848151811061259157fe5b6020026020010151815260200190815260200160002060008873ffffffffffffffffffffffffffffffffffffffff1673ffffffffffffffffffffffffffffffffffffffff168152602001908152602001600020548583815181106125f157fe5b6020026020010151611f9090919063ffffffff16565b6001600087848151811061261757fe5b6020026020010151815260200190815260200160002060008873ffffffffffffffffffffffffffffffffffffffff1673ffffffffffffffffffffffffffffffffffffffff168152602001908152602001600020819055508080600101915050612575565b508473ffffffffffffffffffffffffffffffffffffffff16600073ffffffffffffffffffffffffffffffffffffffff168273ffffffffffffffffffffffffffffffffffffffff167f4a39dc06d4c0dbc64b70af90fd698a233a518aa5d07e595d983b8c0526c8f7fb8787604051808060200180602001838103835285818151815260200191508051906020019060200280838360005b8381101561272c578082015181840152602081019050612711565b50505050905001838103825284818151815260200191508051906020019060200280838360005b8381101561276e578082015181840152602081019050612753565b5050505090500194505050505060405180910390a4612792816000878787876120e8565b5050505050565b606080600167ffffffffffffffff811180156127b457600080fd5b506040519080825280602002602001820160405280156127e35781602001602082028036833780820191505090505b50905082816000815181106127f457fe5b60200260200101818152505080915050919050565b6128288473ffffffffffffffffffffffffffffffffffffffff16612b16565b15612b0e578373ffffffffffffffffffffffffffffffffffffffff1663f23a6e6187878686866040518663ffffffff1660e01b8152600401808673ffffffffffffffffffffffffffffffffffffffff1681526020018573ffffffffffffffffffffffffffffffffffffffff16815260200184815260200183815260200180602001828103825283818151815260200191508051906020019080838360005b838110156128e15780820151818401526020810190506128c6565b50505050905090810190601f16801561290e5780820380516001836020036101000a031916815260200191505b509650505050505050602060405180830381600087803b15801561293157600080fd5b505af192505050801561296557506040513d602081101561295157600080fd5b810190808051906020019092919050505060015b612a6f57612971612b47565b8061297c5750612a1e565b806040517f08c379a00000000000000000000000000000000000000000000000000000000081526004018080602001828103825283818151815260200191508051906020019080838360005b838110156129e35780820151818401526020810190506129c8565b50505050905090810190601f168015612a105780820380516001836020036101000a031916815260200191505b509250505060405180910390fd5b6040517f08c379a0000000000000000000000000000000000000000000000000000000008152600401808060200182810382526034815260200180612bfe6034913960400191505060405180910390fd5b63f23a6e6160e01b7bffffffffffffffffffffffffffffffffffffffffffffffffffffffff1916817bffffffffffffffffffffffffffffffffffffffffffffffffffffffff191614612b0c576040517f08c379a0000000000000000000000000000000000000000000000000000000008152600401808060200182810382526028815260200180612c326028913960400191505060405180910390fd5b505b505050505050565b600080823b905060008111915050919050565b6000601f19601f8301169050919050565b60008160e01c9050919050565b600060443d1015612b5757612bfa565b60046000803e612b68600051612b3a565b6308c379a08114612b795750612bfa565b60405160043d036004823e80513d602482011167ffffffffffffffff82111715612ba557505050612bfa565b808201805167ffffffffffffffff811115612bc4575050505050612bfa565b8060208301013d8501811115612bdf57505050505050612bfa565b612be882612b29565b60208401016040528296505050505050505b9056fe455243313135353a207472616e7366657220746f206e6f6e2045524331313535526563656976657220696d706c656d656e746572455243313135353a204552433131353552656365697665722072656a656374656420746f6b656e73455243313135353a2062616c616e636520717565727920666f7220746865207a65726f2061646472657373455243313135353a2062617463682062616c616e636520717565727920666f7220746865207a65726f20616464726573734d696e657243617264732e6d696e743a20496e76616c696420546f6b656e20547970652e455243313135353a2063616c6c6572206973206e6f74206f776e6572206e6f7220617070726f766564455243313135353a207472616e7366657220746f20746865207a65726f2061646472657373455243313135353a207472616e736665722063616c6c6572206973206e6f74206f776e6572206e6f7220617070726f766564455243313135353a20696e73756666696369656e742062616c616e636520666f72207472616e736665724d696e657243617264732e6d696e7442617463683a20496e76616c696420546f6b656e20547970652e455243313135353a2073657474696e6720617070726f76616c2073746174757320666f722073656c66455243313135353a206163636f756e747320616e6420696473206c656e677468206d69736d61746368455243313135353a2069647320616e6420616d6f756e7473206c656e677468206d69736d61746368455243313135353a206d696e7420746f20746865207a65726f2061646472657373a26469706673582212205bfc074e5560e1949ac0f7740fbeea2010fd98b98c01440e84c31eca16c75f0664736f6c634300060c0033",
  "compiler": {
    "name": "solc",
    "version": "0.6.12+commit.27d51765.Emscripten.clang",
    "optimizer": {
      "enabled": false,
      "runs": 200
    },
    "evmVersion": "petersburg"
  }
}