{
  "fileName": "MinerCards.sol",
  "contractName": "MinerCards",
  "source": "// SPDX-License-Identifier: MIT\n\npragma solidity ^0.6.0;\n\nimport \"@openzeppelin/contracts/token/ERC1155/ERC1155.sol\";\nimport \"@openzeppelin/contracts/math/SafeMath.sol\";\n\ncontract MinerCards is ERC1155 {\n    using SafeMath for uint256;\n\n    address private owner;\n\n    uint256[] ids;\n    uint256[] supply;\n\n    uint256 public constant MINERCARD_1 = 25;\n    uint256 public constant MINERCARD_2 = 50;\n    uint256 public constant MINERCARD_3 = 100;\n    uint256 public constant MINERCARD_4 = 250;\n    uint256 public constant MINERCARD_5 = 1000;\n\n    address private _admin;\n\n    // Mapping from token ID to total supply\n    mapping(uint256 => uint256) public _totalSupply;\n\n    mapping(uint256 => Data) public _data;\n\n    mapping(address => uint256[]) private account;\n\n    struct Data {\n        uint256 amountLocked;\n        uint256 duration;\n        uint256 releaseDate;\n        uint256 idErc1155;\n        bool active;\n    }\n\n    /**\n     * @dev Require msg.sender to be an admin\n     */\n    modifier onlyAdmin(address _address) {\n        require(_admin == _address, \"Sender is not authorized!\");\n        _;\n    }\n\n    /**\n     * @dev Require msg.sender to be an admin\n     */\n    modifier onlyOwner() {\n        require(msg.sender == owner, \"Sender is not authorized!\");\n        _;\n    }\n\n    constructor() public ERC1155(\"\") {\n        owner = msg.sender;\n        ids = [\n            uint256(25),\n            uint256(50),\n            uint256(100),\n            uint256(250),\n            uint256(1000)\n        ];\n        supply = [\n            uint256(5000),\n            uint256(5000),\n            uint256(1000),\n            uint256(500),\n            uint256(400)\n        ];\n\n        mintBatch(owner, ids, supply);\n    }\n\n    /**\n     * @dev Creates an ERC-721 NFT of token type `id`, and assigns them to `_account`.\n     * Emits a {TransferSingle} event.\n     *\n     * - `_account`         receiver account, cannot be the zero address.\n     * - `_id`              token ID.\n     * - `_amountLocked`    amount to be locked.\n     * -   _duration        duration to lock funds\n     * -  _releaseDate      date funds are eligible to be witjdrawn\n     * -  _idErc1155        ID of ERC-1155 NFT\n     */\n    function mint(\n        address _account,\n        uint256 _id,\n        uint256 _amountLocked,\n        uint256 _duration,\n        uint256 _releaseDate,\n        uint256 _idErc1155\n    ) external onlyAdmin(msg.sender) {\n        require(\n            validateTokenType(_id) == false,\n            \"MinerCards.mint: Invalid Token Type.\"\n        );\n        _mint(_account, _id, 1, \"\");\n        Data memory data = Data(\n            _amountLocked,\n            _duration,\n            _releaseDate,\n            _idErc1155,\n            true\n        );\n        _data[_id] = data;\n        account[_account].push(_id);\n    }\n\n    function burnBatch(\n        address _account,\n        uint256[] calldata _batchIds,\n        uint256[] calldata _batchAmounts\n    ) external onlyAdmin(msg.sender) {\n        _burnBatch(_account, _batchIds, _batchAmounts);\n    }\n\n    function invalidate(uint256 _id) external onlyAdmin(msg.sender) {\n        _data[_id].active = false;\n    }\n\n    function getAmountLocked(uint256 _id) external view returns (uint256) {\n        return _data[_id].amountLocked;\n    }\n\n    function getReleaseDate(uint256 _id) external view returns (uint256) {\n        return _data[_id].releaseDate;\n    }\n\n    function isActive(uint256 _id) external view returns (bool) {\n        return _data[_id].active;\n    }\n\n    function idERC155(uint256 _id) external view returns (uint256) {\n        return _data[_id].idErc1155;\n    }\n\n    function admin() external view returns (address) {\n        return _admin;\n    }\n\n    function addAdmin(address _address) external onlyOwner {\n        _admin = _address;\n    }\n\n    function revokeAdmin() external onlyOwner {\n        _admin = address(0);\n    }\n\n    function getAccount(address _account)\n        external\n        view\n        returns (uint256[] memory)\n    {\n        return account[_account];\n    }\n\n    /**\n     * @dev mints a batch ot tokens of different types and assigns them to `_account`\n     *\n     * Requirements:\n     *\n     * - `ids` and `amounts` must have the same length.\n     * - If `_account` refers to a smart contract, it must implement {IERC1155Receiver-onERC1155BatchReceived} and return the\n     * acceptance magic value.\n     */\n    function mintBatch(\n        address _account,\n        uint256[] memory _ids,\n        uint256[] memory _amounts\n    ) private onlyOwner {\n        for (uint256 i = 0; i < _ids.length; i++) {\n            require(\n                validateTokenType(_ids[i]) == true,\n                \"MinerCards.mintBatch: Invalid Token Type.\"\n            );\n        }\n        _mintBatch(_account, _ids, _amounts, \"\");\n\n        for (uint256 i = 0; i < _amounts.length; i++) {\n            _totalSupply[_ids[i]] = _totalSupply[_ids[i]].add(_amounts[i]);\n        }\n    }\n\n    // checks if `_id` is a valid token type\n    function validateTokenType(uint256 _id) internal pure returns (bool) {\n        if (\n            _id == MINERCARD_1 ||\n            _id == MINERCARD_2 ||\n            _id == MINERCARD_3 ||\n            _id == MINERCARD_4 ||\n            _id == MINERCARD_5\n        ) {\n            return true;\n        }\n\n        return false;\n    }\n\n    // get the total supply for a token type `_id`\n    function totalSupply(uint256 _id) external view returns (uint256) {\n        return _totalSupply[_id];\n    }\n}\n",
  "sourcePath": "contracts/MinerCards.sol",
  "abi": [
    {
      "inputs": [],
      "stateMutability": "nonpayable",
      "type": "constructor"
    },
    {
      "anonymous": false,
      "inputs": [
        {
          "indexed": true,
          "internalType": "address",
          "name": "account",
          "type": "address"
        },
        {
          "indexed": true,
          "internalType": "address",
          "name": "operator",
          "type": "address"
        },
        {
          "indexed": false,
          "internalType": "bool",
          "name": "approved",
          "type": "bool"
        }
      ],
      "name": "ApprovalForAll",
      "type": "event"
    },
    {
      "anonymous": false,
      "inputs": [
        {
          "indexed": true,
          "internalType": "address",
          "name": "operator",
          "type": "address"
        },
        {
          "indexed": true,
          "internalType": "address",
          "name": "from",
          "type": "address"
        },
        {
          "indexed": true,
          "internalType": "address",
          "name": "to",
          "type": "address"
        },
        {
          "indexed": false,
          "internalType": "uint256[]",
          "name": "ids",
          "type": "uint256[]"
        },
        {
          "indexed": false,
          "internalType": "uint256[]",
          "name": "values",
          "type": "uint256[]"
        }
      ],
      "name": "TransferBatch",
      "type": "event"
    },
    {
      "anonymous": false,
      "inputs": [
        {
          "indexed": true,
          "internalType": "address",
          "name": "operator",
          "type": "address"
        },
        {
          "indexed": true,
          "internalType": "address",
          "name": "from",
          "type": "address"
        },
        {
          "indexed": true,
          "internalType": "address",
          "name": "to",
          "type": "address"
        },
        {
          "indexed": false,
          "internalType": "uint256",
          "name": "id",
          "type": "uint256"
        },
        {
          "indexed": false,
          "internalType": "uint256",
          "name": "value",
          "type": "uint256"
        }
      ],
      "name": "TransferSingle",
      "type": "event"
    },
    {
      "anonymous": false,
      "inputs": [
        {
          "indexed": false,
          "internalType": "string",
          "name": "value",
          "type": "string"
        },
        {
          "indexed": true,
          "internalType": "uint256",
          "name": "id",
          "type": "uint256"
        }
      ],
      "name": "URI",
      "type": "event"
    },
    {
      "inputs": [],
      "name": "MINERCARD_1",
      "outputs": [
        {
          "internalType": "uint256",
          "name": "",
          "type": "uint256"
        }
      ],
      "stateMutability": "view",
      "type": "function"
    },
    {
      "inputs": [],
      "name": "MINERCARD_2",
      "outputs": [
        {
          "internalType": "uint256",
          "name": "",
          "type": "uint256"
        }
      ],
      "stateMutability": "view",
      "type": "function"
    },
    {
      "inputs": [],
      "name": "MINERCARD_3",
      "outputs": [
        {
          "internalType": "uint256",
          "name": "",
          "type": "uint256"
        }
      ],
      "stateMutability": "view",
      "type": "function"
    },
    {
      "inputs": [],
      "name": "MINERCARD_4",
      "outputs": [
        {
          "internalType": "uint256",
          "name": "",
          "type": "uint256"
        }
      ],
      "stateMutability": "view",
      "type": "function"
    },
    {
      "inputs": [],
      "name": "MINERCARD_5",
      "outputs": [
        {
          "internalType": "uint256",
          "name": "",
          "type": "uint256"
        }
      ],
      "stateMutability": "view",
      "type": "function"
    },
    {
      "inputs": [
        {
          "internalType": "uint256",
          "name": "",
          "type": "uint256"
        }
      ],
      "name": "_data",
      "outputs": [
        {
          "internalType": "uint256",
          "name": "amountLocked",
          "type": "uint256"
        },
        {
          "internalType": "uint256",
          "name": "duration",
          "type": "uint256"
        },
        {
          "internalType": "uint256",
          "name": "releaseDate",
          "type": "uint256"
        },
        {
          "internalType": "uint256",
          "name": "idErc1155",
          "type": "uint256"
        },
        {
          "internalType": "bool",
          "name": "active",
          "type": "bool"
        }
      ],
      "stateMutability": "view",
      "type": "function"
    },
    {
      "inputs": [
        {
          "internalType": "uint256",
          "name": "",
          "type": "uint256"
        }
      ],
      "name": "_totalSupply",
      "outputs": [
        {
          "internalType": "uint256",
          "name": "",
          "type": "uint256"
        }
      ],
      "stateMutability": "view",
      "type": "function"
    },
    {
      "inputs": [
        {
          "internalType": "address",
          "name": "_address",
          "type": "address"
        }
      ],
      "name": "addAdmin",
      "outputs": [],
      "stateMutability": "nonpayable",
      "type": "function"
    },
    {
      "inputs": [],
      "name": "admin",
      "outputs": [
        {
          "internalType": "address",
          "name": "",
          "type": "address"
        }
      ],
      "stateMutability": "view",
      "type": "function"
    },
    {
      "inputs": [
        {
          "internalType": "address",
          "name": "account",
          "type": "address"
        },
        {
          "internalType": "uint256",
          "name": "id",
          "type": "uint256"
        }
      ],
      "name": "balanceOf",
      "outputs": [
        {
          "internalType": "uint256",
          "name": "",
          "type": "uint256"
        }
      ],
      "stateMutability": "view",
      "type": "function"
    },
    {
      "inputs": [
        {
          "internalType": "address[]",
          "name": "accounts",
          "type": "address[]"
        },
        {
          "internalType": "uint256[]",
          "name": "ids",
          "type": "uint256[]"
        }
      ],
      "name": "balanceOfBatch",
      "outputs": [
        {
          "internalType": "uint256[]",
          "name": "",
          "type": "uint256[]"
        }
      ],
      "stateMutability": "view",
      "type": "function"
    },
    {
      "inputs": [
        {
          "internalType": "address",
          "name": "_account",
          "type": "address"
        },
        {
          "internalType": "uint256[]",
          "name": "_batchIds",
          "type": "uint256[]"
        },
        {
          "internalType": "uint256[]",
          "name": "_batchAmounts",
          "type": "uint256[]"
        }
      ],
      "name": "burnBatch",
      "outputs": [],
      "stateMutability": "nonpayable",
      "type": "function"
    },
    {
      "inputs": [
        {
          "internalType": "address",
          "name": "_account",
          "type": "address"
        }
      ],
      "name": "getAccount",
      "outputs": [
        {
          "internalType": "uint256[]",
          "name": "",
          "type": "uint256[]"
        }
      ],
      "stateMutability": "view",
      "type": "function"
    },
    {
      "inputs": [
        {
          "internalType": "uint256",
          "name": "_id",
          "type": "uint256"
        }
      ],
      "name": "getAmountLocked",
      "outputs": [
        {
          "internalType": "uint256",
          "name": "",
          "type": "uint256"
        }
      ],
      "stateMutability": "view",
      "type": "function"
    },
    {
      "inputs": [
        {
          "internalType": "uint256",
          "name": "_id",
          "type": "uint256"
        }
      ],
      "name": "getReleaseDate",
      "outputs": [
        {
          "internalType": "uint256",
          "name": "",
          "type": "uint256"
        }
      ],
      "stateMutability": "view",
      "type": "function"
    },
    {
      "inputs": [
        {
          "internalType": "uint256",
          "name": "_id",
          "type": "uint256"
        }
      ],
      "name": "idERC155",
      "outputs": [
        {
          "internalType": "uint256",
          "name": "",
          "type": "uint256"
        }
      ],
      "stateMutability": "view",
      "type": "function"
    },
    {
      "inputs": [
        {
          "internalType": "uint256",
          "name": "_id",
          "type": "uint256"
        }
      ],
      "name": "invalidate",
      "outputs": [],
      "stateMutability": "nonpayable",
      "type": "function"
    },
    {
      "inputs": [
        {
          "internalType": "uint256",
          "name": "_id",
          "type": "uint256"
        }
      ],
      "name": "isActive",
      "outputs": [
        {
          "internalType": "bool",
          "name": "",
          "type": "bool"
        }
      ],
      "stateMutability": "view",
      "type": "function"
    },
    {
      "inputs": [
        {
          "internalType": "address",
          "name": "account",
          "type": "address"
        },
        {
          "internalType": "address",
          "name": "operator",
          "type": "address"
        }
      ],
      "name": "isApprovedForAll",
      "outputs": [
        {
          "internalType": "bool",
          "name": "",
          "type": "bool"
        }
      ],
      "stateMutability": "view",
      "type": "function"
    },
    {
      "inputs": [
        {
          "internalType": "address",
          "name": "_account",
          "type": "address"
        },
        {
          "internalType": "uint256",
          "name": "_id",
          "type": "uint256"
        },
        {
          "internalType": "uint256",
          "name": "_amountLocked",
          "type": "uint256"
        },
        {
          "internalType": "uint256",
          "name": "_duration",
          "type": "uint256"
        },
        {
          "internalType": "uint256",
          "name": "_releaseDate",
          "type": "uint256"
        },
        {
          "internalType": "uint256",
          "name": "_idErc1155",
          "type": "uint256"
        }
      ],
      "name": "mint",
      "outputs": [],
      "stateMutability": "nonpayable",
      "type": "function"
    },
    {
      "inputs": [],
      "name": "revokeAdmin",
      "outputs": [],
      "stateMutability": "nonpayable",
      "type": "function"
    },
    {
      "inputs": [
        {
          "internalType": "address",
          "name": "from",
          "type": "address"
        },
        {
          "internalType": "address",
          "name": "to",
          "type": "address"
        },
        {
          "internalType": "uint256[]",
          "name": "ids",
          "type": "uint256[]"
        },
        {
          "internalType": "uint256[]",
          "name": "amounts",
          "type": "uint256[]"
        },
        {
          "internalType": "bytes",
          "name": "data",
          "type": "bytes"
        }
      ],
      "name": "safeBatchTransferFrom",
      "outputs": [],
      "stateMutability": "nonpayable",
      "type": "function"
    },
    {
      "inputs": [
        {
          "internalType": "address",
          "name": "from",
          "type": "address"
        },
        {
          "internalType": "address",
          "name": "to",
          "type": "address"
        },
        {
          "internalType": "uint256",
          "name": "id",
          "type": "uint256"
        },
        {
          "internalType": "uint256",
          "name": "amount",
          "type": "uint256"
        },
        {
          "internalType": "bytes",
          "name": "data",
          "type": "bytes"
        }
      ],
      "name": "safeTransferFrom",
      "outputs": [],
      "stateMutability": "nonpayable",
      "type": "function"
    },
    {
      "inputs": [
        {
          "internalType": "address",
          "name": "operator",
          "type": "address"
        },
        {
          "internalType": "bool",
          "name": "approved",
          "type": "bool"
        }
      ],
      "name": "setApprovalForAll",
      "outputs": [],
      "stateMutability": "nonpayable",
      "type": "function"
    },
    {
      "inputs": [
        {
          "internalType": "bytes4",
          "name": "interfaceId",
          "type": "bytes4"
        }
      ],
      "name": "supportsInterface",
      "outputs": [
        {
          "internalType": "bool",
          "name": "",
          "type": "bool"
        }
      ],
      "stateMutability": "view",
      "type": "function"
    },
    {
      "inputs": [
        {
          "internalType": "uint256",
          "name": "_id",
          "type": "uint256"
        }
      ],
      "name": "totalSupply",
      "outputs": [
        {
          "internalType": "uint256",
          "name": "",
          "type": "uint256"
        }
      ],
      "stateMutability": "view",
      "type": "function"
    },
    {
      "inputs": [
        {
          "internalType": "uint256",
          "name": "",
          "type": "uint256"
        }
      ],
      "name": "uri",
      "outputs": [
        {
          "internalType": "string",
          "name": "",
          "type": "string"
        }
      ],
      "stateMutability": "view",
      "type": "function"
    }
  ],
  "bytecode": "0x60806040523480156200001157600080fd5b50604051806020016040528060008152506200003a6301ffc9a760e01b6200022060201b60201c565b6200004b816200032960201b60201c565b6200006363d9b67a2660e01b6200022060201b60201c565b6200007b630e89341c60e01b6200022060201b60201c565b5033600460006101000a81548173ffffffffffffffffffffffffffffffffffffffff021916908373ffffffffffffffffffffffffffffffffffffffff1602179055506040518060a0016040528060198152602001603281526020016064815260200160fa81526020016103e88152506005906005620000fc92919062000d69565b506040518060a00160405280611388815260200161138881526020016103e881526020016101f4815260200161019081525060069060056200014092919062000d69565b506200021a600460009054906101000a900473ffffffffffffffffffffffffffffffffffffffff166005805480602002602001604051908101604052809291908181526020018280548015620001b657602002820191906000526020600020905b815481526020019060010190808311620001a1575b505050505060068054806020026020016040519081016040528092919081815260200182805480156200020957602002820191906000526020600020905b815481526020019060010190808311620001f4575b50505050506200034560201b60201c565b62000f43565b63ffffffff60e01b817bffffffffffffffffffffffffffffffffffffffffffffffffffffffff19161415620002bd576040517f08c379a000000000000000000000000000000000000000000000000000000000815260040180806020018281038252601c8152602001807f4552433136353a20696e76616c696420696e746572666163652069640000000081525060200191505060405180910390fd5b6001600080837bffffffffffffffffffffffffffffffffffffffffffffffffffffffff19167bffffffffffffffffffffffffffffffffffffffffffffffffffffffff1916815260200190815260200160002060006101000a81548160ff02191690831515021790555050565b80600390805190602001906200034192919062000dbb565b5050565b600460009054906101000a900473ffffffffffffffffffffffffffffffffffffffff1673ffffffffffffffffffffffffffffffffffffffff163373ffffffffffffffffffffffffffffffffffffffff161462000409576040517f08c379a00000000000000000000000000000000000000000000000000000000081526004018080602001828103825260198152602001807f53656e646572206973206e6f7420617574686f72697a6564210000000000000081525060200191505060405180910390fd5b60005b8251811015620004a757600115156200043f8483815181106200042b57fe5b60200260200101516200056c60201b60201c565b15151462000499576040517f08c379a0000000000000000000000000000000000000000000000000000000008152600401808060200182810382526029815260200180620045c96029913960400191505060405180910390fd5b80806001019150506200040c565b50620004cb83838360405180602001604052806000815250620005bd60201b60201c565b60005b815181101562000566576200052d828281518110620004e957fe5b6020026020010151600860008685815181106200050257fe5b60200260200101518152602001908152602001600020546200090b60201b620024771790919060201c565b600860008584815181106200053e57fe5b60200260200101518152602001908152602001600020819055508080600101915050620004ce565b50505050565b600060198214806200057e5750603282145b806200058a5750606482145b8062000596575060fa82145b80620005a357506103e882145b15620005b35760019050620005b8565b600090505b919050565b600073ffffffffffffffffffffffffffffffffffffffff168473ffffffffffffffffffffffffffffffffffffffff16141562000645576040517f08c379a00000000000000000000000000000000000000000000000000000000081526004018080602001828103825260218152602001806200461a6021913960400191505060405180910390fd5b8151835114620006a1576040517f08c379a0000000000000000000000000000000000000000000000000000000008152600401808060200182810382526028815260200180620045f26028913960400191505060405180910390fd5b6000620006b36200099460201b60201c565b9050620006cc816000878787876200099c60201b60201c565b60005b8451811015620007e1576200076b60016000878481518110620006ee57fe5b6020026020010151815260200190815260200160002060008873ffffffffffffffffffffffffffffffffffffffff1673ffffffffffffffffffffffffffffffffffffffff168152602001908152602001600020548583815181106200074f57fe5b60200260200101516200090b60201b620024771790919060201c565b600160008784815181106200077c57fe5b6020026020010151815260200190815260200160002060008873ffffffffffffffffffffffffffffffffffffffff1673ffffffffffffffffffffffffffffffffffffffff168152602001908152602001600020819055508080600101915050620006cf565b508473ffffffffffffffffffffffffffffffffffffffff16600073ffffffffffffffffffffffffffffffffffffffff168273ffffffffffffffffffffffffffffffffffffffff167f4a39dc06d4c0dbc64b70af90fd698a233a518aa5d07e595d983b8c0526c8f7fb8787604051808060200180602001838103835285818151815260200191508051906020019060200280838360005b838110156200089457808201518184015260208101905062000877565b50505050905001838103825284818151815260200191508051906020019060200280838360005b83811015620008d8578082015181840152602081019050620008bb565b5050505090500194505050505060405180910390a46200090481600087878787620009a460201b60201c565b5050505050565b6000808284019050838110156200098a576040517f08c379a000000000000000000000000000000000000000000000000000000000815260040180806020018281038252601b8152602001807f536166654d6174683a206164646974696f6e206f766572666c6f77000000000081525060200191505060405180910390fd5b8091505092915050565b600033905090565b505050505050565b620009d08473ffffffffffffffffffffffffffffffffffffffff1662000d5660201b620024ff1760201c565b1562000d4e578373ffffffffffffffffffffffffffffffffffffffff1663bc197c8187878686866040518663ffffffff1660e01b8152600401808673ffffffffffffffffffffffffffffffffffffffff1681526020018573ffffffffffffffffffffffffffffffffffffffff168152602001806020018060200180602001848103845287818151815260200191508051906020019060200280838360005b8381101562000a8b57808201518184015260208101905062000a6e565b50505050905001848103835286818151815260200191508051906020019060200280838360005b8381101562000acf57808201518184015260208101905062000ab2565b50505050905001848103825285818151815260200191508051906020019080838360005b8381101562000b1057808201518184015260208101905062000af3565b50505050905090810190601f16801562000b3e5780820380516001836020036101000a031916815260200191505b5098505050505050505050602060405180830381600087803b15801562000b6457600080fd5b505af192505050801562000b9a57506040513d602081101562000b8657600080fd5b810190808051906020019092919050505060015b62000cad5762000ba962000e7f565b8062000bb6575062000c5b565b806040517f08c379a00000000000000000000000000000000000000000000000000000000081526004018080602001828103825283818151815260200191508051906020019080838360005b8381101562000c1f57808201518184015260208101905062000c02565b50505050905090810190601f16801562000c4d5780820380516001836020036101000a031916815260200191505b509250505060405180910390fd5b6040517f08c379a00000000000000000000000000000000000000000000000000000000081526004018080602001828103825260348152602001806200456d6034913960400191505060405180910390fd5b63bc197c8160e01b7bffffffffffffffffffffffffffffffffffffffffffffffffffffffff1916817bffffffffffffffffffffffffffffffffffffffffffffffffffffffff19161462000d4c576040517f08c379a0000000000000000000000000000000000000000000000000000000008152600401808060200182810382526028815260200180620045a16028913960400191505060405180910390fd5b505b505050505050565b600080823b905060008111915050919050565b82805482825590600052602060002090810192821562000da8579160200282015b8281111562000da757825182559160200191906001019062000d8a565b5b50905062000db7919062000e42565b5090565b828054600181600116156101000203166002900490600052602060002090601f016020900481019282601f1062000dfe57805160ff191683800117855562000e2f565b8280016001018555821562000e2f579182015b8281111562000e2e57825182559160200191906001019062000e11565b5b50905062000e3e919062000e42565b5090565b5b8082111562000e5d57600081600090555060010162000e43565b5090565b6000601f19601f8301169050919050565b60008160e01c9050919050565b600060443d101562000e915762000f40565b60046000803e62000ea460005162000e72565b6308c379a0811462000eb7575062000f40565b60405160043d036004823e80513d602482011167ffffffffffffffff8211171562000ee55750505062000f40565b808201805167ffffffffffffffff81111562000f0657505050505062000f40565b8060208301013d850181111562000f235750505050505062000f40565b62000f2e8262000e61565b60208401016040528296505050505050505b90565b61361a8062000f536000396000f3fe608060405234801561001057600080fd5b50600436106101a85760003560e01c806370480275116100f9578063ced9ae4011610097578063f242432a11610071578063f242432a14610bed578063f851a44014610cfc578063fbcbc0f114610d30578063fee45c7e14610dc9576101a8565b8063ced9ae4014610adf578063dfc8fff614610afd578063e985e9c514610b73576101a8565b806392689519116100d357806392689519146109ed578063a1849e6014610a2f578063a22cb46514610a4d578063bd85b03914610a9d576101a8565b8063704802751461094757806382afd23b1461098b578063922fa552146109cf576101a8565b80632eb2c2d61161016657806349f1147d1161014057806349f1147d146106585780634e1273f4146106765780635977e82a146108175780636b20c45414610859576101a8565b80632eb2c2d6146103b157806338a641ac146105d457806345d5ae5a14610616576101a8565b8062fdd58e146101ad57806301ffc9a71461020f57806303a7f825146102725780630d6aef04146102d25780630e89341c146102dc5780631ea1afdb14610383575b600080fd5b6101f9600480360360408110156101c357600080fd5b81019080803573ffffffffffffffffffffffffffffffffffffffff16906020019092919080359060200190929190505050610de7565b6040518082815260200191505060405180910390f35b61025a6004803603602081101561022557600080fd5b8101908080357bffffffffffffffffffffffffffffffffffffffffffffffffffffffff19169060200190929190505050610ec7565b60405180821515815260200191505060405180910390f35b61029e6004803603602081101561028857600080fd5b8101908080359060200190929190505050610f2e565b6040518086815260200185815260200184815260200183815260200182151581526020019550505050505060405180910390f35b6102da610f71565b005b610308600480360360208110156102f257600080fd5b8101908080359060200190929190505050611078565b6040518080602001828103825283818151815260200191508051906020019080838360005b8381101561034857808201518184015260208101905061032d565b50505050905090810190601f1680156103755780820380516001836020036101000a031916815260200191505b509250505060405180910390f35b6103af6004803603602081101561039957600080fd5b810190808035906020019092919050505061111c565b005b6105d2600480360360a08110156103c757600080fd5b81019080803573ffffffffffffffffffffffffffffffffffffffff169060200190929190803573ffffffffffffffffffffffffffffffffffffffff1690602001909291908035906020019064010000000081111561042457600080fd5b82018360208201111561043657600080fd5b8035906020019184602083028401116401000000008311171561045857600080fd5b919080806020026020016040519081016040528093929190818152602001838360200280828437600081840152601f19601f820116905080830192505050505050509192919290803590602001906401000000008111156104b857600080fd5b8201836020820111156104ca57600080fd5b803590602001918460208302840111640100000000831117156104ec57600080fd5b919080806020026020016040519081016040528093929190818152602001838360200280828437600081840152601f19601f8201169050808301925050505050505091929192908035906020019064010000000081111561054c57600080fd5b82018360208201111561055e57600080fd5b8035906020019184600183028401116401000000008311171561058057600080fd5b91908080601f016020809104026020016040519081016040528093929190818152602001838380828437600081840152601f19601f820116905080830192505050505050509192919290505050611213565b005b610600600480360360208110156105ea57600080fd5b810190808035906020019092919050505061169e565b6040518082815260200191505060405180910390f35b6106426004803603602081101561062c57600080fd5b81019080803590602001909291905050506116be565b6040518082815260200191505060405180910390f35b6106606116de565b6040518082815260200191505060405180910390f35b6107c06004803603604081101561068c57600080fd5b81019080803590602001906401000000008111156106a957600080fd5b8201836020820111156106bb57600080fd5b803590602001918460208302840111640100000000831117156106dd57600080fd5b919080806020026020016040519081016040528093929190818152602001838360200280828437600081840152601f19601f8201169050808301925050505050505091929192908035906020019064010000000081111561073d57600080fd5b82018360208201111561074f57600080fd5b8035906020019184602083028401116401000000008311171561077157600080fd5b919080806020026020016040519081016040528093929190818152602001838360200280828437600081840152601f19601f8201169050808301925050505050505091929192905050506116e3565b6040518080602001828103825283818151815260200191508051906020019060200280838360005b838110156108035780820151818401526020810190506107e8565b505050509050019250505060405180910390f35b6108436004803603602081101561082d57600080fd5b81019080803590602001909291905050506118d5565b6040518082815260200191505060405180910390f35b6109456004803603606081101561086f57600080fd5b81019080803573ffffffffffffffffffffffffffffffffffffffff169060200190929190803590602001906401000000008111156108ac57600080fd5b8201836020820111156108be57600080fd5b803590602001918460208302840111640100000000831117156108e057600080fd5b90919293919293908035906020019064010000000081111561090157600080fd5b82018360208201111561091357600080fd5b8035906020019184602083028401116401000000008311171561093557600080fd5b90919293919293905050506118ed565b005b6109896004803603602081101561095d57600080fd5b81019080803573ffffffffffffffffffffffffffffffffffffffff169060200190929190505050611a46565b005b6109b7600480360360208110156109a157600080fd5b8101908080359060200190929190505050611b4d565b60405180821515815260200191505060405180910390f35b6109d7611b7a565b6040518082815260200191505060405180910390f35b610a1960048036036020811015610a0357600080fd5b8101908080359060200190929190505050611b7f565b6040518082815260200191505060405180910390f35b610a37611b9f565b6040518082815260200191505060405180910390f35b610a9b60048036036040811015610a6357600080fd5b81019080803573ffffffffffffffffffffffffffffffffffffffff169060200190929190803515159060200190929190505050611ba5565b005b610ac960048036036020811015610ab357600080fd5b8101908080359060200190929190505050611d3e565b6040518082815260200191505060405180910390f35b610ae7611d5b565b6040518082815260200191505060405180910390f35b610b71600480360360c0811015610b1357600080fd5b81019080803573ffffffffffffffffffffffffffffffffffffffff1690602001909291908035906020019092919080359060200190929190803590602001909291908035906020019092919080359060200190929190505050611d60565b005b610bd560048036036040811015610b8957600080fd5b81019080803573ffffffffffffffffffffffffffffffffffffffff169060200190929190803573ffffffffffffffffffffffffffffffffffffffff169060200190929190505050611fa8565b60405180821515815260200191505060405180910390f35b610cfa600480360360a0811015610c0357600080fd5b81019080803573ffffffffffffffffffffffffffffffffffffffff169060200190929190803573ffffffffffffffffffffffffffffffffffffffff169060200190929190803590602001909291908035906020019092919080359060200190640100000000811115610c7457600080fd5b820183602082011115610c8657600080fd5b80359060200191846001830284011164010000000083111715610ca857600080fd5b91908080601f016020809104026020016040519081016040528093929190818152602001838380828437600081840152601f19601f82011690508083019250505050505050919291929050505061203c565b005b610d046123b1565b604051808273ffffffffffffffffffffffffffffffffffffffff16815260200191505060405180910390f35b610d7260048036036020811015610d4657600080fd5b81019080803573ffffffffffffffffffffffffffffffffffffffff1690602001909291905050506123db565b6040518080602001828103825283818151815260200191508051906020019060200280838360005b83811015610db5578082015181840152602081019050610d9a565b505050509050019250505060405180910390f35b610dd1612472565b6040518082815260200191505060405180910390f35b60008073ffffffffffffffffffffffffffffffffffffffff168373ffffffffffffffffffffffffffffffffffffffff161415610e6e576040517f08c379a000000000000000000000000000000000000000000000000000000000815260040180806020018281038252602b8152602001806133d9602b913960400191505060405180910390fd5b6001600083815260200190815260200160002060008473ffffffffffffffffffffffffffffffffffffffff1673ffffffffffffffffffffffffffffffffffffffff16815260200190815260200160002054905092915050565b6000806000837bffffffffffffffffffffffffffffffffffffffffffffffffffffffff19167bffffffffffffffffffffffffffffffffffffffffffffffffffffffff1916815260200190815260200160002060009054906101000a900460ff169050919050565b60096020528060005260406000206000915090508060000154908060010154908060020154908060030154908060040160009054906101000a900460ff16905085565b600460009054906101000a900473ffffffffffffffffffffffffffffffffffffffff1673ffffffffffffffffffffffffffffffffffffffff163373ffffffffffffffffffffffffffffffffffffffff1614611034576040517f08c379a00000000000000000000000000000000000000000000000000000000081526004018080602001828103825260198152602001807f53656e646572206973206e6f7420617574686f72697a6564210000000000000081525060200191505060405180910390fd5b6000600760006101000a81548173ffffffffffffffffffffffffffffffffffffffff021916908373ffffffffffffffffffffffffffffffffffffffff160217905550565b606060038054600181600116156101000203166002900480601f0160208091040260200160405190810160405280929190818152602001828054600181600116156101000203166002900480156111105780601f106110e557610100808354040283529160200191611110565b820191906000526020600020905b8154815290600101906020018083116110f357829003601f168201915b50505050509050919050565b338073ffffffffffffffffffffffffffffffffffffffff16600760009054906101000a900473ffffffffffffffffffffffffffffffffffffffff1673ffffffffffffffffffffffffffffffffffffffff16146111e0576040517f08c379a00000000000000000000000000000000000000000000000000000000081526004018080602001828103825260198152602001807f53656e646572206973206e6f7420617574686f72697a6564210000000000000081525060200191505060405180910390fd5b60006009600084815260200190815260200160002060040160006101000a81548160ff0219169083151502179055505050565b815183511461126d576040517f08c379a000000000000000000000000000000000000000000000000000000000815260040180806020018281038252602881526020018061359c6028913960400191505060405180910390fd5b600073ffffffffffffffffffffffffffffffffffffffff168473ffffffffffffffffffffffffffffffffffffffff1614156112f3576040517f08c379a00000000000000000000000000000000000000000000000000000000081526004018080602001828103825260258152602001806134a66025913960400191505060405180910390fd5b6112fb612512565b73ffffffffffffffffffffffffffffffffffffffff168573ffffffffffffffffffffffffffffffffffffffff16148061134157506113408561133b612512565b611fa8565b5b611396576040517f08c379a00000000000000000000000000000000000000000000000000000000081526004018080602001828103825260328152602001806134cb6032913960400191505060405180910390fd5b60006113a0612512565b90506113b081878787878761251a565b60005b84518110156115815760008582815181106113ca57fe5b6020026020010151905060008583815181106113e257fe5b60200260200101519050611469816040518060600160405280602a8152602001613520602a91396001600086815260200190815260200160002060008d73ffffffffffffffffffffffffffffffffffffffff1673ffffffffffffffffffffffffffffffffffffffff168152602001908152602001600020546125229092919063ffffffff16565b6001600084815260200190815260200160002060008b73ffffffffffffffffffffffffffffffffffffffff1673ffffffffffffffffffffffffffffffffffffffff16815260200190815260200160002081905550611520816001600085815260200190815260200160002060008b73ffffffffffffffffffffffffffffffffffffffff1673ffffffffffffffffffffffffffffffffffffffff1681526020019081526020016000205461247790919063ffffffff16565b6001600084815260200190815260200160002060008a73ffffffffffffffffffffffffffffffffffffffff1673ffffffffffffffffffffffffffffffffffffffff1681526020019081526020016000208190555050508060010190506113b3565b508473ffffffffffffffffffffffffffffffffffffffff168673ffffffffffffffffffffffffffffffffffffffff168273ffffffffffffffffffffffffffffffffffffffff167f4a39dc06d4c0dbc64b70af90fd698a233a518aa5d07e595d983b8c0526c8f7fb8787604051808060200180602001838103835285818151815260200191508051906020019060200280838360005b83811015611631578082015181840152602081019050611616565b50505050905001838103825284818151815260200191508051906020019060200280838360005b83811015611673578082015181840152602081019050611658565b5050505090500194505050505060405180910390a46116968187878787876125e2565b505050505050565b600060096000838152602001908152602001600020600201549050919050565b600060096000838152602001908152602001600020600001549050919050565b606481565b6060815183511461173f576040517f08c379a00000000000000000000000000000000000000000000000000000000081526004018080602001828103825260298152602001806135736029913960400191505060405180910390fd5b6060835167ffffffffffffffff8111801561175957600080fd5b506040519080825280602002602001820160405280156117885781602001602082028036833780820191505090505b50905060005b84518110156118ca57600073ffffffffffffffffffffffffffffffffffffffff168582815181106117bb57fe5b602002602001015173ffffffffffffffffffffffffffffffffffffffff161415611830576040517f08c379a00000000000000000000000000000000000000000000000000000000081526004018080602001828103825260318152602001806134046031913960400191505060405180910390fd5b6001600085838151811061184057fe5b60200260200101518152602001908152602001600020600086838151811061186457fe5b602002602001015173ffffffffffffffffffffffffffffffffffffffff1673ffffffffffffffffffffffffffffffffffffffff168152602001908152602001600020548282815181106118b357fe5b60200260200101818152505080600101905061178e565b508091505092915050565b60086020528060005260406000206000915090505481565b338073ffffffffffffffffffffffffffffffffffffffff16600760009054906101000a900473ffffffffffffffffffffffffffffffffffffffff1673ffffffffffffffffffffffffffffffffffffffff16146119b1576040517f08c379a00000000000000000000000000000000000000000000000000000000081526004018080602001828103825260198152602001807f53656e646572206973206e6f7420617574686f72697a6564210000000000000081525060200191505060405180910390fd5b611a3e86868680806020026020016040519081016040528093929190818152602001838360200280828437600081840152601f19601f82011690508083019250505050505050858580806020026020016040519081016040528093929190818152602001838360200280828437600081840152601f19601f82011690508083019250505050505050612971565b505050505050565b600460009054906101000a900473ffffffffffffffffffffffffffffffffffffffff1673ffffffffffffffffffffffffffffffffffffffff163373ffffffffffffffffffffffffffffffffffffffff1614611b09576040517f08c379a00000000000000000000000000000000000000000000000000000000081526004018080602001828103825260198152602001807f53656e646572206973206e6f7420617574686f72697a6564210000000000000081525060200191505060405180910390fd5b80600760006101000a81548173ffffffffffffffffffffffffffffffffffffffff021916908373ffffffffffffffffffffffffffffffffffffffff16021790555050565b60006009600083815260200190815260200160002060040160009054906101000a900460ff169050919050565b603281565b600060096000838152602001908152602001600020600301549050919050565b6103e881565b8173ffffffffffffffffffffffffffffffffffffffff16611bc4612512565b73ffffffffffffffffffffffffffffffffffffffff161415611c31576040517f08c379a000000000000000000000000000000000000000000000000000000000815260040180806020018281038252602981526020018061354a6029913960400191505060405180910390fd5b8060026000611c3e612512565b73ffffffffffffffffffffffffffffffffffffffff1673ffffffffffffffffffffffffffffffffffffffff16815260200190815260200160002060008473ffffffffffffffffffffffffffffffffffffffff1673ffffffffffffffffffffffffffffffffffffffff16815260200190815260200160002060006101000a81548160ff0219169083151502179055508173ffffffffffffffffffffffffffffffffffffffff16611ceb612512565b73ffffffffffffffffffffffffffffffffffffffff167f17307eab39ab6107e8899845ad3d59bd9653f200f220920489ca2b5937696c318360405180821515815260200191505060405180910390a35050565b600060086000838152602001908152602001600020549050919050565b60fa81565b338073ffffffffffffffffffffffffffffffffffffffff16600760009054906101000a900473ffffffffffffffffffffffffffffffffffffffff1673ffffffffffffffffffffffffffffffffffffffff1614611e24576040517f08c379a00000000000000000000000000000000000000000000000000000000081526004018080602001828103825260198152602001807f53656e646572206973206e6f7420617574686f72697a6564210000000000000081525060200191505060405180910390fd5b60001515611e3187612cac565b151514611e89576040517f08c379a00000000000000000000000000000000000000000000000000000000081526004018080602001828103825260248152602001806134596024913960400191505060405180910390fd5b611ea58787600160405180602001604052806000815250612cf7565b611ead613277565b6040518060a0016040528087815260200186815260200185815260200184815260200160011515815250905080600960008981526020019081526020016000206000820151816000015560208201518160010155604082015181600201556060820151816003015560808201518160040160006101000a81548160ff021916908315150217905550905050600a60008973ffffffffffffffffffffffffffffffffffffffff1673ffffffffffffffffffffffffffffffffffffffff1681526020019081526020016000208790806001815401808255809150506001900390600052602060002001600090919091909150555050505050505050565b6000600260008473ffffffffffffffffffffffffffffffffffffffff1673ffffffffffffffffffffffffffffffffffffffff16815260200190815260200160002060008373ffffffffffffffffffffffffffffffffffffffff1673ffffffffffffffffffffffffffffffffffffffff16815260200190815260200160002060009054906101000a900460ff16905092915050565b600073ffffffffffffffffffffffffffffffffffffffff168473ffffffffffffffffffffffffffffffffffffffff1614156120c2576040517f08c379a00000000000000000000000000000000000000000000000000000000081526004018080602001828103825260258152602001806134a66025913960400191505060405180910390fd5b6120ca612512565b73ffffffffffffffffffffffffffffffffffffffff168573ffffffffffffffffffffffffffffffffffffffff161480612110575061210f8561210a612512565b611fa8565b5b612165576040517f08c379a000000000000000000000000000000000000000000000000000000000815260040180806020018281038252602981526020018061347d6029913960400191505060405180910390fd5b600061216f612512565b905061218f81878761218088612efa565b61218988612efa565b8761251a565b61220c836040518060600160405280602a8152602001613520602a91396001600088815260200190815260200160002060008a73ffffffffffffffffffffffffffffffffffffffff1673ffffffffffffffffffffffffffffffffffffffff168152602001908152602001600020546125229092919063ffffffff16565b6001600086815260200190815260200160002060008873ffffffffffffffffffffffffffffffffffffffff1673ffffffffffffffffffffffffffffffffffffffff168152602001908152602001600020819055506122c3836001600087815260200190815260200160002060008873ffffffffffffffffffffffffffffffffffffffff1673ffffffffffffffffffffffffffffffffffffffff1681526020019081526020016000205461247790919063ffffffff16565b6001600086815260200190815260200160002060008773ffffffffffffffffffffffffffffffffffffffff1673ffffffffffffffffffffffffffffffffffffffff168152602001908152602001600020819055508473ffffffffffffffffffffffffffffffffffffffff168673ffffffffffffffffffffffffffffffffffffffff168273ffffffffffffffffffffffffffffffffffffffff167fc3d58168c5ae7397731d063d5bbf3d657854427343f4c083240f7aacaa2d0f628787604051808381526020018281526020019250505060405180910390a46123a9818787878787612f6a565b505050505050565b6000600760009054906101000a900473ffffffffffffffffffffffffffffffffffffffff16905090565b6060600a60008373ffffffffffffffffffffffffffffffffffffffff1673ffffffffffffffffffffffffffffffffffffffff16815260200190815260200160002080548060200260200160405190810160405280929190818152602001828054801561246657602002820191906000526020600020905b815481526020019060010190808311612452575b50505050509050919050565b601981565b6000808284019050838110156124f5576040517f08c379a000000000000000000000000000000000000000000000000000000000815260040180806020018281038252601b8152602001807f536166654d6174683a206164646974696f6e206f766572666c6f77000000000081525060200191505060405180910390fd5b8091505092915050565b600080823b905060008111915050919050565b600033905090565b505050505050565b60008383111582906125cf576040517f08c379a00000000000000000000000000000000000000000000000000000000081526004018080602001828103825283818151815260200191508051906020019080838360005b83811015612594578082015181840152602081019050612579565b50505050905090810190601f1680156125c15780820380516001836020036101000a031916815260200191505b509250505060405180910390fd5b5060008385039050809150509392505050565b6126018473ffffffffffffffffffffffffffffffffffffffff166124ff565b15612969578373ffffffffffffffffffffffffffffffffffffffff1663bc197c8187878686866040518663ffffffff1660e01b8152600401808673ffffffffffffffffffffffffffffffffffffffff1681526020018573ffffffffffffffffffffffffffffffffffffffff168152602001806020018060200180602001848103845287818151815260200191508051906020019060200280838360005b838110156126b957808201518184015260208101905061269e565b50505050905001848103835286818151815260200191508051906020019060200280838360005b838110156126fb5780820151818401526020810190506126e0565b50505050905001848103825285818151815260200191508051906020019080838360005b8381101561273a57808201518184015260208101905061271f565b50505050905090810190601f1680156127675780820380516001836020036101000a031916815260200191505b5098505050505050505050602060405180830381600087803b15801561278c57600080fd5b505af19250505080156127c057506040513d60208110156127ac57600080fd5b810190808051906020019092919050505060015b6128ca576127cc6132c6565b806127d75750612879565b806040517f08c379a00000000000000000000000000000000000000000000000000000000081526004018080602001828103825283818151815260200191508051906020019080838360005b8381101561283e578082015181840152602081019050612823565b50505050905090810190601f16801561286b5780820380516001836020036101000a031916815260200191505b509250505060405180910390fd5b6040517f08c379a000000000000000000000000000000000000000000000000000000000815260040180806020018281038252603481526020018061337d6034913960400191505060405180910390fd5b63bc197c8160e01b7bffffffffffffffffffffffffffffffffffffffffffffffffffffffff1916817bffffffffffffffffffffffffffffffffffffffffffffffffffffffff191614612967576040517f08c379a00000000000000000000000000000000000000000000000000000000081526004018080602001828103825260288152602001806133b16028913960400191505060405180910390fd5b505b505050505050565b600073ffffffffffffffffffffffffffffffffffffffff168373ffffffffffffffffffffffffffffffffffffffff1614156129f7576040517f08c379a00000000000000000000000000000000000000000000000000000000081526004018080602001828103825260238152602001806134fd6023913960400191505060405180910390fd5b8051825114612a51576040517f08c379a000000000000000000000000000000000000000000000000000000000815260040180806020018281038252602881526020018061359c6028913960400191505060405180910390fd5b6000612a5b612512565b9050612a7b8185600086866040518060200160405280600081525061251a565b60005b8351811015612b9e57612b2a838281518110612a9657fe5b60200260200101516040518060600160405280602481526020016134356024913960016000888681518110612ac757fe5b6020026020010151815260200190815260200160002060008973ffffffffffffffffffffffffffffffffffffffff1673ffffffffffffffffffffffffffffffffffffffff168152602001908152602001600020546125229092919063ffffffff16565b60016000868481518110612b3a57fe5b6020026020010151815260200190815260200160002060008773ffffffffffffffffffffffffffffffffffffffff1673ffffffffffffffffffffffffffffffffffffffff168152602001908152602001600020819055508080600101915050612a7e565b50600073ffffffffffffffffffffffffffffffffffffffff168473ffffffffffffffffffffffffffffffffffffffff168273ffffffffffffffffffffffffffffffffffffffff167f4a39dc06d4c0dbc64b70af90fd698a233a518aa5d07e595d983b8c0526c8f7fb8686604051808060200180602001838103835285818151815260200191508051906020019060200280838360005b83811015612c4f578082015181840152602081019050612c34565b50505050905001838103825284818151815260200191508051906020019060200280838360005b83811015612c91578082015181840152602081019050612c76565b5050505090500194505050505060405180910390a450505050565b60006019821480612cbd5750603282145b80612cc85750606482145b80612cd3575060fa82145b80612cdf57506103e882145b15612ced5760019050612cf2565b600090505b919050565b600073ffffffffffffffffffffffffffffffffffffffff168473ffffffffffffffffffffffffffffffffffffffff161415612d7d576040517f08c379a00000000000000000000000000000000000000000000000000000000081526004018080602001828103825260218152602001806135c46021913960400191505060405180910390fd5b6000612d87612512565b9050612da881600087612d9988612efa565b612da288612efa565b8761251a565b612e0b836001600087815260200190815260200160002060008873ffffffffffffffffffffffffffffffffffffffff1673ffffffffffffffffffffffffffffffffffffffff1681526020019081526020016000205461247790919063ffffffff16565b6001600086815260200190815260200160002060008773ffffffffffffffffffffffffffffffffffffffff1673ffffffffffffffffffffffffffffffffffffffff168152602001908152602001600020819055508473ffffffffffffffffffffffffffffffffffffffff16600073ffffffffffffffffffffffffffffffffffffffff168273ffffffffffffffffffffffffffffffffffffffff167fc3d58168c5ae7397731d063d5bbf3d657854427343f4c083240f7aacaa2d0f628787604051808381526020018281526020019250505060405180910390a4612ef381600087878787612f6a565b5050505050565b606080600167ffffffffffffffff81118015612f1557600080fd5b50604051908082528060200260200182016040528015612f445781602001602082028036833780820191505090505b5090508281600081518110612f5557fe5b60200260200101818152505080915050919050565b612f898473ffffffffffffffffffffffffffffffffffffffff166124ff565b1561326f578373ffffffffffffffffffffffffffffffffffffffff1663f23a6e6187878686866040518663ffffffff1660e01b8152600401808673ffffffffffffffffffffffffffffffffffffffff1681526020018573ffffffffffffffffffffffffffffffffffffffff16815260200184815260200183815260200180602001828103825283818151815260200191508051906020019080838360005b83811015613042578082015181840152602081019050613027565b50505050905090810190601f16801561306f5780820380516001836020036101000a031916815260200191505b509650505050505050602060405180830381600087803b15801561309257600080fd5b505af19250505080156130c657506040513d60208110156130b257600080fd5b810190808051906020019092919050505060015b6131d0576130d26132c6565b806130dd575061317f565b806040517f08c379a00000000000000000000000000000000000000000000000000000000081526004018080602001828103825283818151815260200191508051906020019080838360005b83811015613144578082015181840152602081019050613129565b50505050905090810190601f1680156131715780820380516001836020036101000a031916815260200191505b509250505060405180910390fd5b6040517f08c379a000000000000000000000000000000000000000000000000000000000815260040180806020018281038252603481526020018061337d6034913960400191505060405180910390fd5b63f23a6e6160e01b7bffffffffffffffffffffffffffffffffffffffffffffffffffffffff1916817bffffffffffffffffffffffffffffffffffffffffffffffffffffffff19161461326d576040517f08c379a00000000000000000000000000000000000000000000000000000000081526004018080602001828103825260288152602001806133b16028913960400191505060405180910390fd5b505b505050505050565b6040518060a00160405280600081526020016000815260200160008152602001600081526020016000151581525090565b6000601f19601f8301169050919050565b60008160e01c9050919050565b600060443d10156132d657613379565b60046000803e6132e76000516132b9565b6308c379a081146132f85750613379565b60405160043d036004823e80513d602482011167ffffffffffffffff8211171561332457505050613379565b808201805167ffffffffffffffff811115613343575050505050613379565b8060208301013d850181111561335e57505050505050613379565b613367826132a8565b60208401016040528296505050505050505b9056fe455243313135353a207472616e7366657220746f206e6f6e2045524331313535526563656976657220696d706c656d656e746572455243313135353a204552433131353552656365697665722072656a656374656420746f6b656e73455243313135353a2062616c616e636520717565727920666f7220746865207a65726f2061646472657373455243313135353a2062617463682062616c616e636520717565727920666f7220746865207a65726f2061646472657373455243313135353a206275726e20616d6f756e7420657863656564732062616c616e63654d696e657243617264732e6d696e743a20496e76616c696420546f6b656e20547970652e455243313135353a2063616c6c6572206973206e6f74206f776e6572206e6f7220617070726f766564455243313135353a207472616e7366657220746f20746865207a65726f2061646472657373455243313135353a207472616e736665722063616c6c6572206973206e6f74206f776e6572206e6f7220617070726f766564455243313135353a206275726e2066726f6d20746865207a65726f2061646472657373455243313135353a20696e73756666696369656e742062616c616e636520666f72207472616e73666572455243313135353a2073657474696e6720617070726f76616c2073746174757320666f722073656c66455243313135353a206163636f756e747320616e6420696473206c656e677468206d69736d61746368455243313135353a2069647320616e6420616d6f756e7473206c656e677468206d69736d61746368455243313135353a206d696e7420746f20746865207a65726f2061646472657373a2646970667358221220b0a1b05d62eb52b861587ad6fa5b6b7f21d228df4970926e060428a44253394464736f6c634300060c0033455243313135353a207472616e7366657220746f206e6f6e2045524331313535526563656976657220696d706c656d656e746572455243313135353a204552433131353552656365697665722072656a656374656420746f6b656e734d696e657243617264732e6d696e7442617463683a20496e76616c696420546f6b656e20547970652e455243313135353a2069647320616e6420616d6f756e7473206c656e677468206d69736d61746368455243313135353a206d696e7420746f20746865207a65726f2061646472657373",
  "compiler": {
    "name": "solc",
    "version": "0.6.12+commit.27d51765.Emscripten.clang",
    "optimizer": {
      "enabled": false,
      "runs": 200
    },
    "evmVersion": "petersburg"
  }
}