{
  "fileName": "MinerCardRewards.sol",
  "contractName": "MinerCardRewards",
  "source": "// SPDX-License-Identifier: MIT\n\npragma solidity ^0.6.0;\n\nimport \"./MinerCards.sol\";\nimport \"@openzeppelin/contracts/token/ERC20/IERC20.sol\";\nimport \"@openzeppelin/contracts-ethereum-package/contracts/Initializable.sol\";\n\ncontract MinerCardRewards is Initializable {\n    using SafeMath for uint256;\n\n    IERC20 private token;\n    MinerCards private minerCards;\n    uint256 private _releaseTime;\n    uint256 private rate;\n\n    // mapping from address to time\n    mapping(address => uint256) private unLockDates;\n\n    // mapping from address to lockAmount\n    mapping(address => uint256) private balances;\n\n    /* uint256 private constant MINERCARD_1 = 25;\n    uint256 private constant MINERCARD_2 = 50;\n    uint256 private constant MINERCARD_3 = 100;\n    uint256 private constant MINERCARD_4 = 250;\n    uint256 private constant MINERCARD_5 = 1000; */\n\n    // Emitted when funds is locked.\n    event LockFund(\n        address indexed _account,\n        uint256 indexed _tokenType,\n        uint256 _lockAmount\n    );\n\n    // Emitted when funds and dividends is withdrawn.\n    event Withdraw(\n        address indexed _account,\n        uint256 indexed _lockAmount,\n        uint256 _dividends\n    );\n\n    // Emitted when only lock fund is withdrwan.\n    event Release(address indexed _account, uint256 indexed _lockAmount);\n\n    /**\n     * @dev  Initializer function (replaces constructor)\n     * Sets the initializes {naMinerCards}, {Exgold} token, and sets value fo\n     r {time}\n     *\n     * All three of these values are immutable: they can only be set once during\n     * construction.\n     */\n    function initialize(\n        address _minerCards,\n        address _tokenAddress,\n        uint256 _time,\n        uint256 _rate\n    ) public initializer {\n        _releaseTime = _time;\n        rate = _rate;\n        minerCards = MinerCards(_minerCards);\n        token = IERC20(_tokenAddress);\n    }\n\n    /**\n     * @dev  Locks `_account` funds\n     * Contract transfers the lock amount from `_account` to contract.\n     * `_account` must set (ERC-20) allowance for contract address, else transaction reverts\n     * Sets the lock time and balances.\n     * Emits `LockFund` event.\n     */\n    function lockFunds(\n        address _account,\n        uint256 _id,\n        uint256 _lockAmount\n    ) public {\n        uint256 balance = minerCards.balanceOf(_account, _id);\n        require(\n            balance > 0,\n            \"MinerCardRewards: Account has insufficient miner card token to lock funds.\"\n        );\n        uint256 allowance = token.allowance(_account, address(this));\n        require(\n            allowance >= _lockAmount,\n            \"MinerCardRewards: lockAmount exceeds allowance.\"\n        );\n        require(\n            _id == _lockAmount,\n            \"MinerCardRewards: id not equal to lock amount.\"\n        );\n        token.transferFrom(_account, address(this), _lockAmount);\n        balances[_account] = balances[_account].add(_lockAmount);\n        unLockDates[_account] = block.timestamp.add(_releaseTime);\n        emit LockFund(_account, _id, _lockAmount);\n    }\n\n    /**\n     * @dev  release locked funds excluding dividends.\n     * Calling this function releases the locked funds to `msg.sender`.\n     * Note: Calling this function assumes the lock time has not been met.\n     * Emits `Release` event.\n     */\n    function release() public {\n        require(\n            unLockDates[msg.sender] != 0 && balances[msg.sender] != 0,\n            \"MinerCardRewards: no funds locked.\"\n        );\n        uint256 balance = balances[msg.sender];\n        token.transfer(msg.sender, balance);\n        balances[msg.sender] = balances[msg.sender].sub(balance);\n        emit Release(msg.sender, balance);\n    }\n\n    /**\n     * @dev  release locked funds plus dividends.\n     * Dividends is 5% of amount locked\n     * Emits `Withdraw` event.\n     */\n    function withdraw() public {\n        require(\n            unLockDates[msg.sender] != 0 && balances[msg.sender] != 0,\n            \"MinerCardRewards: no funds locked.\"\n        );\n        require(\n            block.timestamp >= unLockDates[msg.sender],\n            \"MinerCardRewards: current time is before release time.\"\n        );\n\n        uint256 _balance = balances[msg.sender];\n        uint256 dividends = calcDividends(_balance);\n        require(\n            token.balanceOf(address(this)) >= dividends,\n            \"MinerCardRewards: Insufficient funds to pay dividends\"\n        );\n        token.transfer(msg.sender, _balance.add(dividends));\n        balances[msg.sender] = balances[msg.sender].sub(_balance);\n        emit Withdraw(msg.sender, _balance, dividends);\n    }\n\n    /**\n     * @dev calculate dividends for `_lockAmount`\n     */\n    function calcDividends(uint256 _lockAmount) private view returns (uint256) {\n        uint256 a = rate.div(100);\n        return a.mul(_lockAmount);\n    }\n\n    // return release time\n    function releaseTime() public view returns (uint256) {\n        return _releaseTime;\n    }\n\n    // return rate\n    function getRate() public view returns (uint256) {\n        return rate;\n    }\n\n    // get the time at which funds were locked for `_account`\n    function accountReleaseTime(address _account)\n        public\n        view\n        returns (uint256)\n    {\n        return unLockDates[_account];\n    }\n\n    // return `_account` balance locked in contract.\n    function balance(address _account) public view returns (uint256) {\n        return balances[_account];\n    }\n}\n",
  "sourcePath": "contracts/MinerCardRewards.sol",
  "abi": [
    {
      "anonymous": false,
      "inputs": [
        {
          "indexed": true,
          "internalType": "address",
          "name": "_account",
          "type": "address"
        },
        {
          "indexed": true,
          "internalType": "uint256",
          "name": "_tokenType",
          "type": "uint256"
        },
        {
          "indexed": false,
          "internalType": "uint256",
          "name": "_lockAmount",
          "type": "uint256"
        }
      ],
      "name": "LockFund",
      "type": "event"
    },
    {
      "anonymous": false,
      "inputs": [
        {
          "indexed": true,
          "internalType": "address",
          "name": "_account",
          "type": "address"
        },
        {
          "indexed": true,
          "internalType": "uint256",
          "name": "_lockAmount",
          "type": "uint256"
        }
      ],
      "name": "Release",
      "type": "event"
    },
    {
      "anonymous": false,
      "inputs": [
        {
          "indexed": true,
          "internalType": "address",
          "name": "_account",
          "type": "address"
        },
        {
          "indexed": true,
          "internalType": "uint256",
          "name": "_lockAmount",
          "type": "uint256"
        },
        {
          "indexed": false,
          "internalType": "uint256",
          "name": "_dividends",
          "type": "uint256"
        }
      ],
      "name": "Withdraw",
      "type": "event"
    },
    {
      "inputs": [
        {
          "internalType": "address",
          "name": "_account",
          "type": "address"
        }
      ],
      "name": "accountReleaseTime",
      "outputs": [
        {
          "internalType": "uint256",
          "name": "",
          "type": "uint256"
        }
      ],
      "stateMutability": "view",
      "type": "function"
    },
    {
      "inputs": [
        {
          "internalType": "address",
          "name": "_account",
          "type": "address"
        }
      ],
      "name": "balance",
      "outputs": [
        {
          "internalType": "uint256",
          "name": "",
          "type": "uint256"
        }
      ],
      "stateMutability": "view",
      "type": "function"
    },
    {
      "inputs": [],
      "name": "getRate",
      "outputs": [
        {
          "internalType": "uint256",
          "name": "",
          "type": "uint256"
        }
      ],
      "stateMutability": "view",
      "type": "function"
    },
    {
      "inputs": [
        {
          "internalType": "address",
          "name": "_minerCards",
          "type": "address"
        },
        {
          "internalType": "address",
          "name": "_tokenAddress",
          "type": "address"
        },
        {
          "internalType": "uint256",
          "name": "_time",
          "type": "uint256"
        },
        {
          "internalType": "uint256",
          "name": "_rate",
          "type": "uint256"
        }
      ],
      "name": "initialize",
      "outputs": [],
      "stateMutability": "nonpayable",
      "type": "function"
    },
    {
      "inputs": [
        {
          "internalType": "address",
          "name": "_account",
          "type": "address"
        },
        {
          "internalType": "uint256",
          "name": "_id",
          "type": "uint256"
        },
        {
          "internalType": "uint256",
          "name": "_lockAmount",
          "type": "uint256"
        }
      ],
      "name": "lockFunds",
      "outputs": [],
      "stateMutability": "nonpayable",
      "type": "function"
    },
    {
      "inputs": [],
      "name": "release",
      "outputs": [],
      "stateMutability": "nonpayable",
      "type": "function"
    },
    {
      "inputs": [],
      "name": "releaseTime",
      "outputs": [
        {
          "internalType": "uint256",
          "name": "",
          "type": "uint256"
        }
      ],
      "stateMutability": "view",
      "type": "function"
    },
    {
      "inputs": [],
      "name": "withdraw",
      "outputs": [],
      "stateMutability": "nonpayable",
      "type": "function"
    }
  ],
  "bytecode": "0x608060405234801561001057600080fd5b50611639806100206000396000f3fe608060405234801561001057600080fd5b50600436106100885760003560e01c8063babac77e1161005b578063babac77e146100dd578063e3d670d714610135578063eb990c591461018d578063ed236a1c1461020557610088565b80633ccfd60b1461008d578063679aefce1461009757806386d1a69f146100b5578063b91d4001146100bf575b600080fd5b61009561025d565b005b61009f610710565b6040518082815260200191505060405180910390f35b6100bd61071a565b005b6100c76109ee565b6040518082815260200191505060405180910390f35b610133600480360360608110156100f357600080fd5b81019080803573ffffffffffffffffffffffffffffffffffffffff16906020019092919080359060200190929190803590602001909291905050506109f8565b005b6101776004803603602081101561014b57600080fd5b81019080803573ffffffffffffffffffffffffffffffffffffffff169060200190929190505050610ee7565b6040518082815260200191505060405180910390f35b610203600480360360808110156101a357600080fd5b81019080803573ffffffffffffffffffffffffffffffffffffffff169060200190929190803573ffffffffffffffffffffffffffffffffffffffff1690602001909291908035906020019092919080359060200190929190505050610f30565b005b6102476004803603602081101561021b57600080fd5b81019080803573ffffffffffffffffffffffffffffffffffffffff1690602001909291905050506110c2565b6040518082815260200191505060405180910390f35b6000603760003373ffffffffffffffffffffffffffffffffffffffff1673ffffffffffffffffffffffffffffffffffffffff16815260200190815260200160002054141580156102ed57506000603860003373ffffffffffffffffffffffffffffffffffffffff1673ffffffffffffffffffffffffffffffffffffffff1681526020019081526020016000205414155b610342576040517f08c379a00000000000000000000000000000000000000000000000000000000081526004018080602001828103825260228152602001806115146022913960400191505060405180910390fd5b603760003373ffffffffffffffffffffffffffffffffffffffff1673ffffffffffffffffffffffffffffffffffffffff168152602001908152602001600020544210156103da576040517f08c379a00000000000000000000000000000000000000000000000000000000081526004018080602001828103825260368152602001806114af6036913960400191505060405180910390fd5b6000603860003373ffffffffffffffffffffffffffffffffffffffff1673ffffffffffffffffffffffffffffffffffffffff16815260200190815260200160002054905060006104298261110b565b905080603360009054906101000a900473ffffffffffffffffffffffffffffffffffffffff1673ffffffffffffffffffffffffffffffffffffffff166370a08231306040518263ffffffff1660e01b8152600401808273ffffffffffffffffffffffffffffffffffffffff16815260200191505060206040518083038186803b1580156104b557600080fd5b505afa1580156104c9573d6000803e3d6000fd5b505050506040513d60208110156104df57600080fd5b81019080805190602001909291905050501015610547576040517f08c379a00000000000000000000000000000000000000000000000000000000081526004018080602001828103825260358152602001806115856035913960400191505060405180910390fd5b603360009054906101000a900473ffffffffffffffffffffffffffffffffffffffff1673ffffffffffffffffffffffffffffffffffffffff1663a9059cbb33610599848661114190919063ffffffff16565b6040518363ffffffff1660e01b8152600401808373ffffffffffffffffffffffffffffffffffffffff16815260200182815260200192505050602060405180830381600087803b1580156105ec57600080fd5b505af1158015610600573d6000803e3d6000fd5b505050506040513d602081101561061657600080fd5b81019080805190602001909291905050505061067a82603860003373ffffffffffffffffffffffffffffffffffffffff1673ffffffffffffffffffffffffffffffffffffffff168152602001908152602001600020546111c990919063ffffffff16565b603860003373ffffffffffffffffffffffffffffffffffffffff1673ffffffffffffffffffffffffffffffffffffffff16815260200190815260200160002081905550813373ffffffffffffffffffffffffffffffffffffffff167ff279e6a1f5e320cca91135676d9cb6e44ca8a08c0b88342bcdb1144f6511b568836040518082815260200191505060405180910390a35050565b6000603654905090565b6000603760003373ffffffffffffffffffffffffffffffffffffffff1673ffffffffffffffffffffffffffffffffffffffff16815260200190815260200160002054141580156107aa57506000603860003373ffffffffffffffffffffffffffffffffffffffff1673ffffffffffffffffffffffffffffffffffffffff1681526020019081526020016000205414155b6107ff576040517f08c379a00000000000000000000000000000000000000000000000000000000081526004018080602001828103825260228152602001806115146022913960400191505060405180910390fd5b6000603860003373ffffffffffffffffffffffffffffffffffffffff1673ffffffffffffffffffffffffffffffffffffffff168152602001908152602001600020549050603360009054906101000a900473ffffffffffffffffffffffffffffffffffffffff1673ffffffffffffffffffffffffffffffffffffffff1663a9059cbb33836040518363ffffffff1660e01b8152600401808373ffffffffffffffffffffffffffffffffffffffff16815260200182815260200192505050602060405180830381600087803b1580156108d657600080fd5b505af11580156108ea573d6000803e3d6000fd5b505050506040513d602081101561090057600080fd5b81019080805190602001909291905050505061096481603860003373ffffffffffffffffffffffffffffffffffffffff1673ffffffffffffffffffffffffffffffffffffffff168152602001908152602001600020546111c990919063ffffffff16565b603860003373ffffffffffffffffffffffffffffffffffffffff1673ffffffffffffffffffffffffffffffffffffffff16815260200190815260200160002081905550803373ffffffffffffffffffffffffffffffffffffffff167ff6334794522b9db534a812aaae1af828a2e96aac68473b58e36d7d0bfd67477b60405160405180910390a350565b6000603554905090565b6000603460009054906101000a900473ffffffffffffffffffffffffffffffffffffffff1673ffffffffffffffffffffffffffffffffffffffff1662fdd58e85856040518363ffffffff1660e01b8152600401808373ffffffffffffffffffffffffffffffffffffffff1681526020018281526020019250505060206040518083038186803b158015610a8a57600080fd5b505afa158015610a9e573d6000803e3d6000fd5b505050506040513d6020811015610ab457600080fd5b8101908080519060200190929190505050905060008111610b20576040517f08c379a000000000000000000000000000000000000000000000000000000000815260040180806020018281038252604a8152602001806115ba604a913960600191505060405180910390fd5b6000603360009054906101000a900473ffffffffffffffffffffffffffffffffffffffff1673ffffffffffffffffffffffffffffffffffffffff1663dd62ed3e86306040518363ffffffff1660e01b8152600401808373ffffffffffffffffffffffffffffffffffffffff1681526020018273ffffffffffffffffffffffffffffffffffffffff1681526020019250505060206040518083038186803b158015610bc957600080fd5b505afa158015610bdd573d6000803e3d6000fd5b505050506040513d6020811015610bf357600080fd5b8101908080519060200190929190505050905082811015610c5f576040517f08c379a000000000000000000000000000000000000000000000000000000000815260040180806020018281038252602f8152602001806114e5602f913960400191505060405180910390fd5b828414610cb7576040517f08c379a000000000000000000000000000000000000000000000000000000000815260040180806020018281038252602e815260200180611481602e913960400191505060405180910390fd5b603360009054906101000a900473ffffffffffffffffffffffffffffffffffffffff1673ffffffffffffffffffffffffffffffffffffffff166323b872dd8630866040518463ffffffff1660e01b8152600401808473ffffffffffffffffffffffffffffffffffffffff1681526020018373ffffffffffffffffffffffffffffffffffffffff1681526020018281526020019350505050602060405180830381600087803b158015610d6857600080fd5b505af1158015610d7c573d6000803e3d6000fd5b505050506040513d6020811015610d9257600080fd5b810190808051906020019092919050505050610df683603860008873ffffffffffffffffffffffffffffffffffffffff1673ffffffffffffffffffffffffffffffffffffffff1681526020019081526020016000205461114190919063ffffffff16565b603860008773ffffffffffffffffffffffffffffffffffffffff1673ffffffffffffffffffffffffffffffffffffffff16815260200190815260200160002081905550610e4e6035544261114190919063ffffffff16565b603760008773ffffffffffffffffffffffffffffffffffffffff1673ffffffffffffffffffffffffffffffffffffffff16815260200190815260200160002081905550838573ffffffffffffffffffffffffffffffffffffffff167fb2918ab7bbce88c5d881690a22a6cafe802664274a5044c300c3e3cacf7363e2856040518082815260200191505060405180910390a35050505050565b6000603860008373ffffffffffffffffffffffffffffffffffffffff1673ffffffffffffffffffffffffffffffffffffffff168152602001908152602001600020549050919050565b600060019054906101000a900460ff1680610f4f5750610f4e611213565b5b80610f65575060008054906101000a900460ff16155b610fba576040517f08c379a000000000000000000000000000000000000000000000000000000000815260040180806020018281038252602e815260200180611557602e913960400191505060405180910390fd5b60008060019054906101000a900460ff16159050801561100a576001600060016101000a81548160ff02191690831515021790555060016000806101000a81548160ff0219169083151502179055505b826035819055508160368190555084603460006101000a81548173ffffffffffffffffffffffffffffffffffffffff021916908373ffffffffffffffffffffffffffffffffffffffff16021790555083603360006101000a81548173ffffffffffffffffffffffffffffffffffffffff021916908373ffffffffffffffffffffffffffffffffffffffff16021790555080156110bb5760008060016101000a81548160ff0219169083151502179055505b5050505050565b6000603760008373ffffffffffffffffffffffffffffffffffffffff1673ffffffffffffffffffffffffffffffffffffffff168152602001908152602001600020549050919050565b600080611124606460365461122a90919063ffffffff16565b9050611139838261127490919063ffffffff16565b915050919050565b6000808284019050838110156111bf576040517f08c379a000000000000000000000000000000000000000000000000000000000815260040180806020018281038252601b8152602001807f536166654d6174683a206164646974696f6e206f766572666c6f77000000000081525060200191505060405180910390fd5b8091505092915050565b600061120b83836040518060400160405280601e81526020017f536166654d6174683a207375627472616374696f6e206f766572666c6f7700008152506112fa565b905092915050565b6000803090506000813b9050600081149250505090565b600061126c83836040518060400160405280601a81526020017f536166654d6174683a206469766973696f6e206279207a65726f0000000000008152506113ba565b905092915050565b60008083141561128757600090506112f4565b600082840290508284828161129857fe5b04146112ef576040517f08c379a00000000000000000000000000000000000000000000000000000000081526004018080602001828103825260218152602001806115366021913960400191505060405180910390fd5b809150505b92915050565b60008383111582906113a7576040517f08c379a00000000000000000000000000000000000000000000000000000000081526004018080602001828103825283818151815260200191508051906020019080838360005b8381101561136c578082015181840152602081019050611351565b50505050905090810190601f1680156113995780820380516001836020036101000a031916815260200191505b509250505060405180910390fd5b5060008385039050809150509392505050565b60008083118290611466576040517f08c379a00000000000000000000000000000000000000000000000000000000081526004018080602001828103825283818151815260200191508051906020019080838360005b8381101561142b578082015181840152602081019050611410565b50505050905090810190601f1680156114585780820380516001836020036101000a031916815260200191505b509250505060405180910390fd5b50600083858161147257fe5b04905080915050939250505056fe4d696e657243617264526577617264733a206964206e6f7420657175616c20746f206c6f636b20616d6f756e742e4d696e657243617264526577617264733a2063757272656e742074696d65206973206265666f72652072656c656173652074696d652e4d696e657243617264526577617264733a206c6f636b416d6f756e74206578636565647320616c6c6f77616e63652e4d696e657243617264526577617264733a206e6f2066756e6473206c6f636b65642e536166654d6174683a206d756c7469706c69636174696f6e206f766572666c6f77436f6e747261637420696e7374616e63652068617320616c7265616479206265656e20696e697469616c697a65644d696e657243617264526577617264733a20496e73756666696369656e742066756e647320746f20706179206469766964656e64734d696e657243617264526577617264733a204163636f756e742068617320696e73756666696369656e74206d696e6572206361726420746f6b656e20746f206c6f636b2066756e64732ea26469706673582212206109a242415c5737a8de7b82839df00b9cc3a4d7488b5414a0aa788bb904c95164736f6c634300060c0033",
  "compiler": {
    "name": "solc",
    "version": "0.6.12+commit.27d51765.Emscripten.clang",
    "optimizer": {
      "enabled": false,
      "runs": 200
    },
    "evmVersion": "petersburg"
  }
}