{
  "fileName": "MinerCardRewards.sol",
  "contractName": "MinerCardRewards",
  "source": "// SPDX-License-Identifier: MIT\n\npragma solidity ^0.6.0;\n\nimport \"./MinerCards.sol\";\nimport \"@openzeppelin/contracts-ethereum-package/contracts/token/ERC20/IERC20.sol\";\nimport \"@openzeppelin/contracts/token/ERC1155/ERC1155Holder.sol\";\n\ncontract MinerCardRewards is ERC1155Holder {\n    using SafeMath for uint256;\n\n    uint256 private count = 0;\n    uint256 public constant MINERCARD_1 = 25;\n    uint256 public constant MINERCARD_2 = 50;\n    uint256 public constant MINERCARD_3 = 100;\n    uint256 public constant MINERCARD_4 = 250;\n    uint256 public constant MINERCARD_5 = 1000;\n\n    IERC20 private token;\n    MinerCards private minerCards;\n    uint256 private _releaseTime;\n    uint256 private rate;\n\n    mapping(address => mapping(uint256 => uint256)) private _certNft;\n\n    // total amount locked\n    uint256 private _lockedFunds;\n\n    // Emitted when funds is locked.\n    event LockFund(\n        address indexed _account,\n        uint256 indexed _tokenType,\n        uint256 _lockAmount\n    );\n\n    // Emitted when funds and dividends is withdrawn.\n    event Withdraw(\n        address indexed _account,\n        uint256 indexed _lockAmount,\n        uint256 _dividends\n    );\n\n    // Emitted when funds and dividends is withdrawn.\n    event IssueNFT(address indexed _account, uint256 indexed _id);\n\n    // Emitted when only lock fund is withdrwan.\n    event Release(address indexed _account, uint256 indexed _lockAmount);\n\n    /**\n     * @dev Require funds to be locked\n     */\n    modifier fundsLocked(uint256 _id) {\n        require(\n            minerCards.isActive(_id) == true,\n            \"MinerCardRewards: no funds locked\"\n        );\n        _;\n    }\n\n    /**\n     * @dev  Initializer function (replaces constructor)\n     * Sets the initializes {naMinerCards}, {Exgold} token, and sets value fo\n     r {time}\n     *\n     * All three of these values are immutable: they can only be set once during\n     * construction.\n     */\n    constructor(\n        uint256 _time,\n        uint256 _rate,\n        address __minerCardsAddress,\n        address _tokenAddress\n    ) public {\n        _releaseTime = _time;\n        rate = _rate;\n        minerCards = MinerCards(__minerCardsAddress);\n        token = IERC20(_tokenAddress);\n    }\n\n    function setApprovals(address _spender, uint256 _amount)\n        public\n        returns (bool)\n    {\n        token.approve(_spender, _amount);\n        if (minerCards.isApprovedForAll(msg.sender, address(this)) == false) {\n            minerCards.setApprovalForAll(_spender, true);\n        }\n        return true;\n    }\n\n    /**\n     * @dev  Locks `_account` funds and Issues NFT\n     * Contract transfers the lock amount from `_account` to contract.\n     * `_account` must set (ERC-20) allowance for contract address, else transaction reverts\n     * `_account` must set (ERC-1155) setApprovalForAll for contract address, else transaction fails\n     * Sets the lock time and balances.\n     * Emits `LockFund`  and IssueNFT event\n     */\n    function lockFunds(uint256 _id, uint256 _lockAmount) public {\n        address _account = msg.sender;\n        require(\n            validateTokenType(_id) == true,\n            \"MinerCardRewards: Invalid token ID\"\n        );\n        uint256 balance = minerCards.balanceOf(_account, _id);\n        require(\n            balance > 0,\n            \"MinerCardRewards: Account has insufficient ERC-1155 miner cards to lock funds\"\n        );\n        uint256 allowance = token.allowance(_account, address(this));\n        require(\n            allowance >= _lockAmount,\n            \"MinerCardRewards: Insufficient allowance set for MinerRewards Contract\"\n        );\n\n        require(\n            checkLockAmount(_lockAmount, _id) == true,\n            \"MinerCardRewards: Invalid amount provided.\"\n        );\n\n        require(\n            minerCards.isApprovedForAll(_account, address(this)) == true,\n            \"MinerCardRewards: setApprovalForAll not set for MinerRewards Contract\"\n        );\n\n        uint256 id = getId();\n        minerCards.safeTransferFrom(_account, address(this), _id, 1, \"\");\n        token.transferFrom(_account, address(this), _lockAmount);\n        minerCards.mint(\n            _account,\n            id,\n            _lockAmount,\n            _releaseTime,\n            block.timestamp.add(_releaseTime),\n            _id\n        );\n        _certNft[_account][_id] = id;\n        emit IssueNFT(_account, id);\n        _lockedFunds = _lockedFunds.add(_lockAmount);\n        emit LockFund(_account, _id, _lockAmount);\n    }\n\n    /**\n     * @dev  release locked funds excluding dividends.\n     * `_id` is ID of ERC-721 token issued during locking funds\n     * Calling this function releases the locked funds to `msg.sender`.\n     * Note: Calling this function assumes the lock time has not been met.\n     * Emits `Release` event.\n     */\n    function release(uint256 _id) public fundsLocked(_id) {\n        uint256 balance = minerCards.balanceOf(msg.sender, _id);\n        require(\n            balance > 0,\n            \"MinerCardRewards: Account has no cert to withdraw funds\"\n        );\n\n        uint256 _amountLocked = minerCards.getAmountLocked(_id);\n        token.transfer(msg.sender, _amountLocked);\n        uint256 erc1155Id = minerCards.idERC155(_id);\n        transferERC1155(msg.sender, erc1155Id);\n        minerCards.invalidate(_id);\n        _lockedFunds = _lockedFunds.sub(_amountLocked);\n        emit Release(msg.sender, _amountLocked);\n    }\n\n    /**\n     * @dev  release locked funds plus dividends.\n     * Dividends is 5% of amount locked\n     * Emits `Withdraw` event.\n     */\n    function withdraw(uint256 _id) public fundsLocked(_id) {\n        uint256 balance = minerCards.balanceOf(msg.sender, _id);\n        require(\n            balance > 0,\n            \"MinerCardRewards: Account has no cert to withdraw funds + dividends\"\n        );\n        require(\n            block.timestamp >= minerCards.getReleaseDate(_id),\n            \"MinerCardRewards: current time is before release time\"\n        );\n\n        uint256 _amountLocked = minerCards.getAmountLocked(_id);\n        uint256 dividends = calcDividends(_amountLocked);\n        require(\n            sufficientFunds(dividends) == true,\n            \"MinerCardRewards: Insufficient funds to pay dividends\"\n        );\n        token.transfer(msg.sender, _amountLocked.add(dividends));\n        uint256 erc1155Id = minerCards.idERC155(_id);\n        transferERC1155(msg.sender, erc1155Id);\n        minerCards.invalidate(_id);\n        _lockedFunds = _lockedFunds.sub(_amountLocked);\n        emit Withdraw(msg.sender, _amountLocked, dividends);\n    }\n\n    function certToken(address _account, uint256 _id)\n        public\n        view\n        returns (uint256)\n    {\n        return _certNft[_account][_id];\n    }\n\n    // checks if `_id` is a valid token type\n    function validateTokenType(uint256 _id) internal pure returns (bool) {\n        if (\n            _id == MINERCARD_1 ||\n            _id == MINERCARD_2 ||\n            _id == MINERCARD_3 ||\n            _id == MINERCARD_4 ||\n            _id == MINERCARD_5\n        ) {\n            return true;\n        }\n\n        return false;\n    }\n\n    function getId() private returns (uint256) {\n        count = count.add(1);\n        if (\n            count == MINERCARD_1 ||\n            count == MINERCARD_2 ||\n            count == MINERCARD_3 ||\n            count == MINERCARD_4 ||\n            count == MINERCARD_5\n        ) {\n            count = count.add(3);\n            return count;\n        }\n\n        return count;\n    }\n\n    function transferERC1155(address _account, uint256 _id) private {\n        minerCards.safeTransferFrom(address(this), _account, _id, 1, \"\");\n    }\n\n    function checkLockAmount(uint256 _lockAmount, uint256 _id)\n        private\n        pure\n        returns (bool)\n    {\n        uint256 _amount = _lockAmount.div(10**uint256(6));\n        if (validateTokenType((_amount)) == true && _amount == _id) {\n            return true;\n        }\n\n        return false;\n    }\n\n    /**\n     * @dev calculate dividends for `_lockAmount`\n     */\n    function calcDividends(uint256 _lockAmount) private view returns (uint256) {\n        uint256 r = rate.mul(_lockAmount);\n        return r.div(100);\n    }\n\n    function releaseTime() public view returns (uint256) {\n        return _releaseTime;\n    }\n\n    function getRate() public view returns (uint256) {\n        return rate;\n    }\n\n    function balance(uint256 _id) public view returns (uint256) {\n        return minerCards.getAmountLocked(_id);\n    }\n\n    function sufficientFunds(uint256 _dividends) private view returns (bool) {\n        uint256 _balance = token.balanceOf(address(this));\n        uint256 r = _balance.sub(_lockedFunds);\n        if (r > 0 && r >= _dividends) {\n            return true;\n        }\n\n        return false;\n    }\n}\n",
  "sourcePath": "contracts/MinerCardRewards.sol",
  "abi": [
    {
      "inputs": [
        {
          "internalType": "uint256",
          "name": "_time",
          "type": "uint256"
        },
        {
          "internalType": "uint256",
          "name": "_rate",
          "type": "uint256"
        },
        {
          "internalType": "address",
          "name": "__minerCardsAddress",
          "type": "address"
        },
        {
          "internalType": "address",
          "name": "_tokenAddress",
          "type": "address"
        }
      ],
      "stateMutability": "nonpayable",
      "type": "constructor"
    },
    {
      "anonymous": false,
      "inputs": [
        {
          "indexed": true,
          "internalType": "address",
          "name": "_account",
          "type": "address"
        },
        {
          "indexed": true,
          "internalType": "uint256",
          "name": "_id",
          "type": "uint256"
        }
      ],
      "name": "IssueNFT",
      "type": "event"
    },
    {
      "anonymous": false,
      "inputs": [
        {
          "indexed": true,
          "internalType": "address",
          "name": "_account",
          "type": "address"
        },
        {
          "indexed": true,
          "internalType": "uint256",
          "name": "_tokenType",
          "type": "uint256"
        },
        {
          "indexed": false,
          "internalType": "uint256",
          "name": "_lockAmount",
          "type": "uint256"
        }
      ],
      "name": "LockFund",
      "type": "event"
    },
    {
      "anonymous": false,
      "inputs": [
        {
          "indexed": true,
          "internalType": "address",
          "name": "_account",
          "type": "address"
        },
        {
          "indexed": true,
          "internalType": "uint256",
          "name": "_lockAmount",
          "type": "uint256"
        }
      ],
      "name": "Release",
      "type": "event"
    },
    {
      "anonymous": false,
      "inputs": [
        {
          "indexed": true,
          "internalType": "address",
          "name": "_account",
          "type": "address"
        },
        {
          "indexed": true,
          "internalType": "uint256",
          "name": "_lockAmount",
          "type": "uint256"
        },
        {
          "indexed": false,
          "internalType": "uint256",
          "name": "_dividends",
          "type": "uint256"
        }
      ],
      "name": "Withdraw",
      "type": "event"
    },
    {
      "inputs": [],
      "name": "MINERCARD_1",
      "outputs": [
        {
          "internalType": "uint256",
          "name": "",
          "type": "uint256"
        }
      ],
      "stateMutability": "view",
      "type": "function"
    },
    {
      "inputs": [],
      "name": "MINERCARD_2",
      "outputs": [
        {
          "internalType": "uint256",
          "name": "",
          "type": "uint256"
        }
      ],
      "stateMutability": "view",
      "type": "function"
    },
    {
      "inputs": [],
      "name": "MINERCARD_3",
      "outputs": [
        {
          "internalType": "uint256",
          "name": "",
          "type": "uint256"
        }
      ],
      "stateMutability": "view",
      "type": "function"
    },
    {
      "inputs": [],
      "name": "MINERCARD_4",
      "outputs": [
        {
          "internalType": "uint256",
          "name": "",
          "type": "uint256"
        }
      ],
      "stateMutability": "view",
      "type": "function"
    },
    {
      "inputs": [],
      "name": "MINERCARD_5",
      "outputs": [
        {
          "internalType": "uint256",
          "name": "",
          "type": "uint256"
        }
      ],
      "stateMutability": "view",
      "type": "function"
    },
    {
      "inputs": [
        {
          "internalType": "uint256",
          "name": "_id",
          "type": "uint256"
        }
      ],
      "name": "balance",
      "outputs": [
        {
          "internalType": "uint256",
          "name": "",
          "type": "uint256"
        }
      ],
      "stateMutability": "view",
      "type": "function"
    },
    {
      "inputs": [
        {
          "internalType": "address",
          "name": "_account",
          "type": "address"
        },
        {
          "internalType": "uint256",
          "name": "_id",
          "type": "uint256"
        }
      ],
      "name": "certToken",
      "outputs": [
        {
          "internalType": "uint256",
          "name": "",
          "type": "uint256"
        }
      ],
      "stateMutability": "view",
      "type": "function"
    },
    {
      "inputs": [],
      "name": "getRate",
      "outputs": [
        {
          "internalType": "uint256",
          "name": "",
          "type": "uint256"
        }
      ],
      "stateMutability": "view",
      "type": "function"
    },
    {
      "inputs": [
        {
          "internalType": "uint256",
          "name": "_id",
          "type": "uint256"
        },
        {
          "internalType": "uint256",
          "name": "_lockAmount",
          "type": "uint256"
        }
      ],
      "name": "lockFunds",
      "outputs": [],
      "stateMutability": "nonpayable",
      "type": "function"
    },
    {
      "inputs": [
        {
          "internalType": "address",
          "name": "",
          "type": "address"
        },
        {
          "internalType": "address",
          "name": "",
          "type": "address"
        },
        {
          "internalType": "uint256[]",
          "name": "",
          "type": "uint256[]"
        },
        {
          "internalType": "uint256[]",
          "name": "",
          "type": "uint256[]"
        },
        {
          "internalType": "bytes",
          "name": "",
          "type": "bytes"
        }
      ],
      "name": "onERC1155BatchReceived",
      "outputs": [
        {
          "internalType": "bytes4",
          "name": "",
          "type": "bytes4"
        }
      ],
      "stateMutability": "nonpayable",
      "type": "function"
    },
    {
      "inputs": [
        {
          "internalType": "address",
          "name": "",
          "type": "address"
        },
        {
          "internalType": "address",
          "name": "",
          "type": "address"
        },
        {
          "internalType": "uint256",
          "name": "",
          "type": "uint256"
        },
        {
          "internalType": "uint256",
          "name": "",
          "type": "uint256"
        },
        {
          "internalType": "bytes",
          "name": "",
          "type": "bytes"
        }
      ],
      "name": "onERC1155Received",
      "outputs": [
        {
          "internalType": "bytes4",
          "name": "",
          "type": "bytes4"
        }
      ],
      "stateMutability": "nonpayable",
      "type": "function"
    },
    {
      "inputs": [
        {
          "internalType": "uint256",
          "name": "_id",
          "type": "uint256"
        }
      ],
      "name": "release",
      "outputs": [],
      "stateMutability": "nonpayable",
      "type": "function"
    },
    {
      "inputs": [],
      "name": "releaseTime",
      "outputs": [
        {
          "internalType": "uint256",
          "name": "",
          "type": "uint256"
        }
      ],
      "stateMutability": "view",
      "type": "function"
    },
    {
      "inputs": [
        {
          "internalType": "address",
          "name": "_spender",
          "type": "address"
        },
        {
          "internalType": "uint256",
          "name": "_amount",
          "type": "uint256"
        }
      ],
      "name": "setApprovals",
      "outputs": [
        {
          "internalType": "bool",
          "name": "",
          "type": "bool"
        }
      ],
      "stateMutability": "nonpayable",
      "type": "function"
    },
    {
      "inputs": [
        {
          "internalType": "bytes4",
          "name": "interfaceId",
          "type": "bytes4"
        }
      ],
      "name": "supportsInterface",
      "outputs": [
        {
          "internalType": "bool",
          "name": "",
          "type": "bool"
        }
      ],
      "stateMutability": "view",
      "type": "function"
    },
    {
      "inputs": [
        {
          "internalType": "uint256",
          "name": "_id",
          "type": "uint256"
        }
      ],
      "name": "withdraw",
      "outputs": [],
      "stateMutability": "nonpayable",
      "type": "function"
    }
  ],
  "bytecode": "0x608060405260006001553480156200001657600080fd5b5060405162002ba938038062002ba9833981810160405260808110156200003c57600080fd5b8101908080519060200190929190805190602001909291908051906020019092919080519060200190929190505050620000836301ffc9a760e01b6200013e60201b60201c565b620000a463bc197c8160e01b63f23a6e6160e01b186200013e60201b60201c565b836004819055508260058190555081600360006101000a81548173ffffffffffffffffffffffffffffffffffffffff021916908373ffffffffffffffffffffffffffffffffffffffff16021790555080600260006101000a81548173ffffffffffffffffffffffffffffffffffffffff021916908373ffffffffffffffffffffffffffffffffffffffff1602179055505050505062000247565b63ffffffff60e01b817bffffffffffffffffffffffffffffffffffffffffffffffffffffffff19161415620001db576040517f08c379a000000000000000000000000000000000000000000000000000000000815260040180806020018281038252601c8152602001807f4552433136353a20696e76616c696420696e746572666163652069640000000081525060200191505060405180910390fd5b6001600080837bffffffffffffffffffffffffffffffffffffffffffffffffffffffff19167bffffffffffffffffffffffffffffffffffffffffffffffffffffffff1916815260200190815260200160002060006101000a81548160ff02191690831515021790555050565b61295280620002576000396000f3fe608060405234801561001057600080fd5b50600436106101005760003560e01c8063a1849e6011610097578063ced9ae4011610066578063ced9ae401461058e578063ebb4ff82146105ac578063f23a6e611461060e578063fee45c7e1461075057610100565b8063a1849e6014610298578063afdd5356146102b6578063b91d40011461031a578063bc197c811461033857610100565b806347bb89f0116100d357806347bb89f0146101fc57806349f1147d1461023e578063679aefce1461025c578063922fa5521461027a57610100565b806301ffc9a7146101055780632e1a7d4d146101685780633287db4b1461019657806337bdc99b146101ce575b600080fd5b6101506004803603602081101561011b57600080fd5b8101908080357bffffffffffffffffffffffffffffffffffffffffffffffffffffffff1916906020019092919050505061076e565b60405180821515815260200191505060405180910390f35b6101946004803603602081101561017e57600080fd5b81019080803590602001909291905050506107d5565b005b6101cc600480360360408110156101ac57600080fd5b810190808035906020019092919080359060200190929190505050610ece565b005b6101fa600480360360208110156101e457600080fd5b810190808035906020019092919050505061170e565b005b6102286004803603602081101561021257600080fd5b8101908080359060200190929190505050611c71565b6040518082815260200191505060405180910390f35b610246611d28565b6040518082815260200191505060405180910390f35b610264611d2d565b6040518082815260200191505060405180910390f35b610282611d37565b6040518082815260200191505060405180910390f35b6102a0611d3c565b6040518082815260200191505060405180910390f35b610302600480360360408110156102cc57600080fd5b81019080803573ffffffffffffffffffffffffffffffffffffffff16906020019092919080359060200190929190505050611d42565b60405180821515815260200191505060405180910390f35b610322611fba565b6040518082815260200191505060405180910390f35b610559600480360360a081101561034e57600080fd5b81019080803573ffffffffffffffffffffffffffffffffffffffff169060200190929190803573ffffffffffffffffffffffffffffffffffffffff169060200190929190803590602001906401000000008111156103ab57600080fd5b8201836020820111156103bd57600080fd5b803590602001918460208302840111640100000000831117156103df57600080fd5b919080806020026020016040519081016040528093929190818152602001838360200280828437600081840152601f19601f8201169050808301925050505050505091929192908035906020019064010000000081111561043f57600080fd5b82018360208201111561045157600080fd5b8035906020019184602083028401116401000000008311171561047357600080fd5b919080806020026020016040519081016040528093929190818152602001838360200280828437600081840152601f19601f820116905080830192505050505050509192919290803590602001906401000000008111156104d357600080fd5b8201836020820111156104e557600080fd5b8035906020019184600183028401116401000000008311171561050757600080fd5b91908080601f016020809104026020016040519081016040528093929190818152602001838380828437600081840152601f19601f820116905080830192505050505050509192919290505050611fc4565b60405180827bffffffffffffffffffffffffffffffffffffffffffffffffffffffff1916815260200191505060405180910390f35b610596611fd9565b6040518082815260200191505060405180910390f35b6105f8600480360360408110156105c257600080fd5b81019080803573ffffffffffffffffffffffffffffffffffffffff16906020019092919080359060200190929190505050611fde565b6040518082815260200191505060405180910390f35b61071b600480360360a081101561062457600080fd5b81019080803573ffffffffffffffffffffffffffffffffffffffff169060200190929190803573ffffffffffffffffffffffffffffffffffffffff16906020019092919080359060200190929190803590602001909291908035906020019064010000000081111561069557600080fd5b8201836020820111156106a757600080fd5b803590602001918460018302840111640100000000831117156106c957600080fd5b91908080601f016020809104026020016040519081016040528093929190818152602001838380828437600081840152601f19601f820116905080830192505050505050509192919290505050612039565b60405180827bffffffffffffffffffffffffffffffffffffffffffffffffffffffff1916815260200191505060405180910390f35b61075861204e565b6040518082815260200191505060405180910390f35b6000806000837bffffffffffffffffffffffffffffffffffffffffffffffffffffffff19167bffffffffffffffffffffffffffffffffffffffffffffffffffffffff1916815260200190815260200160002060009054906101000a900460ff169050919050565b8060011515600360009054906101000a900473ffffffffffffffffffffffffffffffffffffffff1673ffffffffffffffffffffffffffffffffffffffff166382afd23b836040518263ffffffff1660e01b81526004018082815260200191505060206040518083038186803b15801561084d57600080fd5b505afa158015610861573d6000803e3d6000fd5b505050506040513d602081101561087757600080fd5b81019080805190602001909291905050501515146108e0576040517f08c379a00000000000000000000000000000000000000000000000000000000081526004018080602001828103825260218152602001806127816021913960400191505060405180910390fd5b6000600360009054906101000a900473ffffffffffffffffffffffffffffffffffffffff1673ffffffffffffffffffffffffffffffffffffffff1662fdd58e33856040518363ffffffff1660e01b8152600401808373ffffffffffffffffffffffffffffffffffffffff1681526020018281526020019250505060206040518083038186803b15801561097257600080fd5b505afa158015610986573d6000803e3d6000fd5b505050506040513d602081101561099c57600080fd5b8101908080519060200190929190505050905060008111610a08576040517f08c379a00000000000000000000000000000000000000000000000000000000081526004018080602001828103825260438152602001806127a26043913960600191505060405180910390fd5b600360009054906101000a900473ffffffffffffffffffffffffffffffffffffffff1673ffffffffffffffffffffffffffffffffffffffff166338a641ac846040518263ffffffff1660e01b81526004018082815260200191505060206040518083038186803b158015610a7b57600080fd5b505afa158015610a8f573d6000803e3d6000fd5b505050506040513d6020811015610aa557600080fd5b8101908080519060200190929190505050421015610b0e576040517f08c379a00000000000000000000000000000000000000000000000000000000081526004018080602001828103825260358152602001806128286035913960400191505060405180910390fd5b6000600360009054906101000a900473ffffffffffffffffffffffffffffffffffffffff1673ffffffffffffffffffffffffffffffffffffffff166345d5ae5a856040518263ffffffff1660e01b81526004018082815260200191505060206040518083038186803b158015610b8357600080fd5b505afa158015610b97573d6000803e3d6000fd5b505050506040513d6020811015610bad57600080fd5b810190808051906020019092919050505090506000610bcb82612053565b905060011515610bda82612089565b151514610c32576040517f08c379a000000000000000000000000000000000000000000000000000000000815260040180806020018281038252603581526020018061285d6035913960400191505060405180910390fd5b600260009054906101000a900473ffffffffffffffffffffffffffffffffffffffff1673ffffffffffffffffffffffffffffffffffffffff1663a9059cbb33610c84848661219790919063ffffffff16565b6040518363ffffffff1660e01b8152600401808373ffffffffffffffffffffffffffffffffffffffff16815260200182815260200192505050602060405180830381600087803b158015610cd757600080fd5b505af1158015610ceb573d6000803e3d6000fd5b505050506040513d6020811015610d0157600080fd5b8101908080519060200190929190505050506000600360009054906101000a900473ffffffffffffffffffffffffffffffffffffffff1673ffffffffffffffffffffffffffffffffffffffff166392689519876040518263ffffffff1660e01b81526004018082815260200191505060206040518083038186803b158015610d8857600080fd5b505afa158015610d9c573d6000803e3d6000fd5b505050506040513d6020811015610db257600080fd5b81019080805190602001909291905050509050610dcf338261221f565b600360009054906101000a900473ffffffffffffffffffffffffffffffffffffffff1673ffffffffffffffffffffffffffffffffffffffff16631ea1afdb876040518263ffffffff1660e01b815260040180828152602001915050600060405180830381600087803b158015610e4457600080fd5b505af1158015610e58573d6000803e3d6000fd5b50505050610e718360075461230990919063ffffffff16565b600781905550823373ffffffffffffffffffffffffffffffffffffffff167ff279e6a1f5e320cca91135676d9cb6e44ca8a08c0b88342bcdb1144f6511b568846040518082815260200191505060405180910390a3505050505050565b600033905060011515610ee084612353565b151514610f38576040517f08c379a00000000000000000000000000000000000000000000000000000000081526004018080602001828103825260228152602001806128066022913960400191505060405180910390fd5b6000600360009054906101000a900473ffffffffffffffffffffffffffffffffffffffff1673ffffffffffffffffffffffffffffffffffffffff1662fdd58e83866040518363ffffffff1660e01b8152600401808373ffffffffffffffffffffffffffffffffffffffff1681526020018281526020019250505060206040518083038186803b158015610fca57600080fd5b505afa158015610fde573d6000803e3d6000fd5b505050506040513d6020811015610ff457600080fd5b8101908080519060200190929190505050905060008111611060576040517f08c379a000000000000000000000000000000000000000000000000000000000815260040180806020018281038252604d8152602001806126d3604d913960600191505060405180910390fd5b6000600260009054906101000a900473ffffffffffffffffffffffffffffffffffffffff1673ffffffffffffffffffffffffffffffffffffffff1663dd62ed3e84306040518363ffffffff1660e01b8152600401808373ffffffffffffffffffffffffffffffffffffffff1681526020018273ffffffffffffffffffffffffffffffffffffffff1681526020019250505060206040518083038186803b15801561110957600080fd5b505afa15801561111d573d6000803e3d6000fd5b505050506040513d602081101561113357600080fd5b810190808051906020019092919050505090508381101561119f576040517f08c379a00000000000000000000000000000000000000000000000000000000081526004018080602001828103825260468152602001806128d76046913960600191505060405180910390fd5b600115156111ad858761239e565b151514611205576040517f08c379a000000000000000000000000000000000000000000000000000000000815260040180806020018281038252602a815260200180612720602a913960400191505060405180910390fd5b60011515600360009054906101000a900473ffffffffffffffffffffffffffffffffffffffff1673ffffffffffffffffffffffffffffffffffffffff1663e985e9c585306040518363ffffffff1660e01b8152600401808373ffffffffffffffffffffffffffffffffffffffff1681526020018273ffffffffffffffffffffffffffffffffffffffff1681526020019250505060206040518083038186803b1580156112b057600080fd5b505afa1580156112c4573d6000803e3d6000fd5b505050506040513d60208110156112da57600080fd5b8101908080519060200190929190505050151514611343576040517f08c379a00000000000000000000000000000000000000000000000000000000081526004018080602001828103825260458152602001806128926045913960600191505060405180910390fd5b600061134d6123f0565b9050600360009054906101000a900473ffffffffffffffffffffffffffffffffffffffff1673ffffffffffffffffffffffffffffffffffffffff1663f242432a85308960016040518563ffffffff1660e01b8152600401808573ffffffffffffffffffffffffffffffffffffffff1681526020018473ffffffffffffffffffffffffffffffffffffffff1681526020018381526020018281526020018060200182810382526000815260200160200195505050505050600060405180830381600087803b15801561141d57600080fd5b505af1158015611431573d6000803e3d6000fd5b50505050600260009054906101000a900473ffffffffffffffffffffffffffffffffffffffff1673ffffffffffffffffffffffffffffffffffffffff166323b872dd8530886040518463ffffffff1660e01b8152600401808473ffffffffffffffffffffffffffffffffffffffff1681526020018373ffffffffffffffffffffffffffffffffffffffff1681526020018281526020019350505050602060405180830381600087803b1580156114e657600080fd5b505af11580156114fa573d6000803e3d6000fd5b505050506040513d602081101561151057600080fd5b810190808051906020019092919050505050600360009054906101000a900473ffffffffffffffffffffffffffffffffffffffff1673ffffffffffffffffffffffffffffffffffffffff1663dfc8fff685838860045461157b6004544261219790919063ffffffff16565b8c6040518763ffffffff1660e01b8152600401808773ffffffffffffffffffffffffffffffffffffffff1681526020018681526020018581526020018481526020018381526020018281526020019650505050505050600060405180830381600087803b1580156115eb57600080fd5b505af11580156115ff573d6000803e3d6000fd5b5050505080600660008673ffffffffffffffffffffffffffffffffffffffff1673ffffffffffffffffffffffffffffffffffffffff168152602001908152602001600020600088815260200190815260200160002081905550808473ffffffffffffffffffffffffffffffffffffffff167f3e4d40fc81d95f3ec5c58fddb0303e88d043adbb3138b031f6eb0dd62ef3302660405160405180910390a36116b18560075461219790919063ffffffff16565b600781905550858473ffffffffffffffffffffffffffffffffffffffff167fb2918ab7bbce88c5d881690a22a6cafe802664274a5044c300c3e3cacf7363e2876040518082815260200191505060405180910390a3505050505050565b8060011515600360009054906101000a900473ffffffffffffffffffffffffffffffffffffffff1673ffffffffffffffffffffffffffffffffffffffff166382afd23b836040518263ffffffff1660e01b81526004018082815260200191505060206040518083038186803b15801561178657600080fd5b505afa15801561179a573d6000803e3d6000fd5b505050506040513d60208110156117b057600080fd5b8101908080519060200190929190505050151514611819576040517f08c379a00000000000000000000000000000000000000000000000000000000081526004018080602001828103825260218152602001806127816021913960400191505060405180910390fd5b6000600360009054906101000a900473ffffffffffffffffffffffffffffffffffffffff1673ffffffffffffffffffffffffffffffffffffffff1662fdd58e33856040518363ffffffff1660e01b8152600401808373ffffffffffffffffffffffffffffffffffffffff1681526020018281526020019250505060206040518083038186803b1580156118ab57600080fd5b505afa1580156118bf573d6000803e3d6000fd5b505050506040513d60208110156118d557600080fd5b8101908080519060200190929190505050905060008111611941576040517f08c379a000000000000000000000000000000000000000000000000000000000815260040180806020018281038252603781526020018061274a6037913960400191505060405180910390fd5b6000600360009054906101000a900473ffffffffffffffffffffffffffffffffffffffff1673ffffffffffffffffffffffffffffffffffffffff166345d5ae5a856040518263ffffffff1660e01b81526004018082815260200191505060206040518083038186803b1580156119b657600080fd5b505afa1580156119ca573d6000803e3d6000fd5b505050506040513d60208110156119e057600080fd5b81019080805190602001909291905050509050600260009054906101000a900473ffffffffffffffffffffffffffffffffffffffff1673ffffffffffffffffffffffffffffffffffffffff1663a9059cbb33836040518363ffffffff1660e01b8152600401808373ffffffffffffffffffffffffffffffffffffffff16815260200182815260200192505050602060405180830381600087803b158015611a8657600080fd5b505af1158015611a9a573d6000803e3d6000fd5b505050506040513d6020811015611ab057600080fd5b8101908080519060200190929190505050506000600360009054906101000a900473ffffffffffffffffffffffffffffffffffffffff1673ffffffffffffffffffffffffffffffffffffffff166392689519866040518263ffffffff1660e01b81526004018082815260200191505060206040518083038186803b158015611b3757600080fd5b505afa158015611b4b573d6000803e3d6000fd5b505050506040513d6020811015611b6157600080fd5b81019080805190602001909291905050509050611b7e338261221f565b600360009054906101000a900473ffffffffffffffffffffffffffffffffffffffff1673ffffffffffffffffffffffffffffffffffffffff16631ea1afdb866040518263ffffffff1660e01b815260040180828152602001915050600060405180830381600087803b158015611bf357600080fd5b505af1158015611c07573d6000803e3d6000fd5b50505050611c208260075461230990919063ffffffff16565b600781905550813373ffffffffffffffffffffffffffffffffffffffff167ff6334794522b9db534a812aaae1af828a2e96aac68473b58e36d7d0bfd67477b60405160405180910390a35050505050565b6000600360009054906101000a900473ffffffffffffffffffffffffffffffffffffffff1673ffffffffffffffffffffffffffffffffffffffff166345d5ae5a836040518263ffffffff1660e01b81526004018082815260200191505060206040518083038186803b158015611ce657600080fd5b505afa158015611cfa573d6000803e3d6000fd5b505050506040513d6020811015611d1057600080fd5b81019080805190602001909291905050509050919050565b606481565b6000600554905090565b603281565b6103e881565b6000600260009054906101000a900473ffffffffffffffffffffffffffffffffffffffff1673ffffffffffffffffffffffffffffffffffffffff1663095ea7b384846040518363ffffffff1660e01b8152600401808373ffffffffffffffffffffffffffffffffffffffff16815260200182815260200192505050602060405180830381600087803b158015611dd757600080fd5b505af1158015611deb573d6000803e3d6000fd5b505050506040513d6020811015611e0157600080fd5b81019080805190602001909291905050505060001515600360009054906101000a900473ffffffffffffffffffffffffffffffffffffffff1673ffffffffffffffffffffffffffffffffffffffff1663e985e9c533306040518363ffffffff1660e01b8152600401808373ffffffffffffffffffffffffffffffffffffffff1681526020018273ffffffffffffffffffffffffffffffffffffffff1681526020019250505060206040518083038186803b158015611ebe57600080fd5b505afa158015611ed2573d6000803e3d6000fd5b505050506040513d6020811015611ee857600080fd5b810190808051906020019092919050505015151415611fb057600360009054906101000a900473ffffffffffffffffffffffffffffffffffffffff1673ffffffffffffffffffffffffffffffffffffffff1663a22cb4658460016040518363ffffffff1660e01b8152600401808373ffffffffffffffffffffffffffffffffffffffff168152602001821515815260200192505050600060405180830381600087803b158015611f9757600080fd5b505af1158015611fab573d6000803e3d6000fd5b505050505b6001905092915050565b6000600454905090565b600063bc197c8160e01b905095945050505050565b60fa81565b6000600660008473ffffffffffffffffffffffffffffffffffffffff1673ffffffffffffffffffffffffffffffffffffffff168152602001908152602001600020600083815260200190815260200160002054905092915050565b600063f23a6e6160e01b905095945050505050565b601981565b60008061206b8360055461247c90919063ffffffff16565b905061208160648261250290919063ffffffff16565b915050919050565b600080600260009054906101000a900473ffffffffffffffffffffffffffffffffffffffff1673ffffffffffffffffffffffffffffffffffffffff166370a08231306040518263ffffffff1660e01b8152600401808273ffffffffffffffffffffffffffffffffffffffff16815260200191505060206040518083038186803b15801561211557600080fd5b505afa158015612129573d6000803e3d6000fd5b505050506040513d602081101561213f57600080fd5b8101908080519060200190929190505050905060006121696007548361230990919063ffffffff16565b905060008111801561217b5750838110155b1561218b57600192505050612192565b6000925050505b919050565b600080828401905083811015612215576040517f08c379a000000000000000000000000000000000000000000000000000000000815260040180806020018281038252601b8152602001807f536166654d6174683a206164646974696f6e206f766572666c6f77000000000081525060200191505060405180910390fd5b8091505092915050565b600360009054906101000a900473ffffffffffffffffffffffffffffffffffffffff1673ffffffffffffffffffffffffffffffffffffffff1663f242432a30848460016040518563ffffffff1660e01b8152600401808573ffffffffffffffffffffffffffffffffffffffff1681526020018473ffffffffffffffffffffffffffffffffffffffff1681526020018381526020018281526020018060200182810382526000815260200160200195505050505050600060405180830381600087803b1580156122ed57600080fd5b505af1158015612301573d6000803e3d6000fd5b505050505050565b600061234b83836040518060400160405280601e81526020017f536166654d6174683a207375627472616374696f6e206f766572666c6f77000081525061254c565b905092915050565b600060198214806123645750603282145b8061236f5750606482145b8061237a575060fa82145b8061238657506103e882145b156123945760019050612399565b600090505b919050565b6000806123b86006600a0a8561250290919063ffffffff16565b9050600115156123c782612353565b15151480156123d557508281145b156123e45760019150506123ea565b60009150505b92915050565b60006124076001805461219790919063ffffffff16565b6001819055506019600154148061242057506032600154145b8061242d57506064600154145b8061243a575060fa600154145b8061244857506103e8600154145b1561247357612463600360015461219790919063ffffffff16565b6001819055506001549050612479565b60015490505b90565b60008083141561248f57600090506124fc565b60008284029050828482816124a057fe5b04146124f7576040517f08c379a00000000000000000000000000000000000000000000000000000000081526004018080602001828103825260218152602001806127e56021913960400191505060405180910390fd5b809150505b92915050565b600061254483836040518060400160405280601a81526020017f536166654d6174683a206469766973696f6e206279207a65726f00000000000081525061260c565b905092915050565b60008383111582906125f9576040517f08c379a00000000000000000000000000000000000000000000000000000000081526004018080602001828103825283818151815260200191508051906020019080838360005b838110156125be5780820151818401526020810190506125a3565b50505050905090810190601f1680156125eb5780820380516001836020036101000a031916815260200191505b509250505060405180910390fd5b5060008385039050809150509392505050565b600080831182906126b8576040517f08c379a00000000000000000000000000000000000000000000000000000000081526004018080602001828103825283818151815260200191508051906020019080838360005b8381101561267d578082015181840152602081019050612662565b50505050905090810190601f1680156126aa5780820380516001836020036101000a031916815260200191505b509250505060405180910390fd5b5060008385816126c457fe5b04905080915050939250505056fe4d696e657243617264526577617264733a204163636f756e742068617320696e73756666696369656e74204552432d31313535206d696e657220636172647320746f206c6f636b2066756e64734d696e657243617264526577617264733a20496e76616c696420616d6f756e742070726f76696465642e4d696e657243617264526577617264733a204163636f756e7420686173206e6f206365727420746f2077697468647261772066756e64734d696e657243617264526577617264733a206e6f2066756e6473206c6f636b65644d696e657243617264526577617264733a204163636f756e7420686173206e6f206365727420746f2077697468647261772066756e6473202b206469766964656e6473536166654d6174683a206d756c7469706c69636174696f6e206f766572666c6f774d696e657243617264526577617264733a20496e76616c696420746f6b656e2049444d696e657243617264526577617264733a2063757272656e742074696d65206973206265666f72652072656c656173652074696d654d696e657243617264526577617264733a20496e73756666696369656e742066756e647320746f20706179206469766964656e64734d696e657243617264526577617264733a20736574417070726f76616c466f72416c6c206e6f742073657420666f72204d696e65725265776172647320436f6e74726163744d696e657243617264526577617264733a20496e73756666696369656e7420616c6c6f77616e63652073657420666f72204d696e65725265776172647320436f6e7472616374a264697066735822122096825e7cf6e6823445cbf32c2349bbe06b2d6fd8ec8867a57724d70cddaff6be64736f6c634300060c0033",
  "compiler": {
    "name": "solc",
    "version": "0.6.12+commit.27d51765.Emscripten.clang",
    "optimizer": {
      "enabled": false,
      "runs": 200
    },
    "evmVersion": "petersburg"
  }
}