{
  "fileName": "MinerCards.sol",
  "contractName": "MinerCards",
  "source": "// SPDX-License-Identifier: MIT\n\npragma solidity ^0.6.0;\n\nimport \"@openzeppelin/contracts/token/ERC1155/ERC1155.sol\";\nimport \"@openzeppelin/contracts/math/SafeMath.sol\";\n\ncontract MinerCards is ERC1155 {\n    using SafeMath for uint256;\n\n    address private owner;\n\n    uint256 public constant MINERCARD_1 = 25;\n    uint256 public constant MINERCARD_2 = 50;\n    uint256 public constant MINERCARD_3 = 100;\n    uint256 public constant MINERCARD_4 = 250;\n    uint256 public constant MINERCARD_5 = 1000;\n\n    mapping(address => bool) public _admins;\n\n    // Mapping from token ID to total supply\n    mapping(uint256 => uint256) public _totalSupply;\n\n    mapping(uint256 => Data) public _data;\n\n    mapping(address => uint256[]) private account;\n\n    struct Data {\n        uint256 amountLocked;\n        uint256 duration;\n        uint256 releaseDate;\n        uint256 idErc1155;\n        bool active;\n    }\n\n    /**\n     * @dev Require msg.sender to be an admin\n     */\n    modifier onlyAdmin() {\n        require(_admins[msg.sender] == true, \"Sender is not authorized!\");\n        _;\n    }\n\n    /**\n     * @dev Require msg.sender to be an admin\n     */\n    modifier onlyOwner() {\n        require(msg.sender == owner, \"Sender is not authorized!\");\n        _;\n    }\n\n    constructor() public ERC1155(\"\") {\n        owner = msg.sender;\n        _admins[msg.sender] = true;\n    }\n\n    /**\n     * @dev Creates `amount` tokens of token type `id`, and assigns them to `_account`.\n     * It updates the token supply for the token type.\n     * Emits a {TransferSingle} event.\n     *\n     * - `_account`      cannot be the zero address.\n     * - `_id`          must be between 0 and 4.\n     * - `_quantity`    quantity of tokens to mint.\n     */\n    function mint(\n        address _account,\n        uint256 _id,\n        uint256 _amountLocked,\n        uint256 _duration,\n        uint256 _releaseDate,\n        uint256 _idErc1155\n    ) public onlyAdmin {\n        _mint(_account, _id, 1, \"\");\n        Data memory data = Data(\n            _amountLocked,\n            _duration,\n            _releaseDate,\n            _idErc1155,\n            true\n        );\n        _data[_id] = data;\n        account[_account].push(_id);\n    }\n\n    /** @dev same as mint, but it mints multiple NFTs of same ID to `_account`\n     *\n     * - `_account`      cannot be the zero address.\n     * - `_id`          must be between 0 and 4.\n     * - `_quantity`    quantity of tokens to mint.\n     */\n    function mintMultiple(\n        address _account,\n        uint256 _id,\n        uint256 _quantity\n    ) public onlyAdmin {\n        _mint(_account, _id, _quantity, \"\");\n    }\n\n    function invalidate(uint256 _id) public onlyAdmin {\n        _data[_id].active = false;\n    }\n\n    function getAmountLocked(uint256 _id) public view returns (uint256) {\n        return _data[_id].amountLocked;\n    }\n\n    function getReleaseDate(uint256 _id) public view returns (uint256) {\n        return _data[_id].releaseDate;\n    }\n\n    function isActive(uint256 _id) public view returns (bool) {\n        return _data[_id].active;\n    }\n\n    function idERC155(uint256 _id) public view returns (uint256) {\n        return _data[_id].idErc1155;\n    }\n\n    function admin(address _admin) public view returns (bool) {\n        return _admins[_admin];\n    }\n\n    function addAdmin(address _address) public onlyOwner {\n        _admins[_address] = true;\n    }\n\n    function getAccount(address _account)\n        public\n        view\n        returns (uint256[] memory)\n    {\n        return account[_account];\n    }\n\n    /**\n     * @dev mints a batch ot tokens of different types and assigns them to `_account`\n     *\n     * Requirements:\n     *\n     * - `ids` and `amounts` must have the same length.\n     * - If `_account` refers to a smart contract, it must implement {IERC1155Receiver-onERC1155BatchReceived} and return the\n     * acceptance magic value.\n     */\n    function mintBatch(\n        address _account,\n        uint256[] memory _ids,\n        uint256[] memory _amounts\n    ) public onlyAdmin {\n        for (uint256 i = 0; i < _ids.length; i++) {\n            require(\n                validateTokenType(_ids[i]) == true,\n                \"MinerCards.mintBatch: Invalid Token Type.\"\n            );\n        }\n        _mintBatch(_account, _ids, _amounts, \"\");\n\n        for (uint256 i = 0; i < _amounts.length; i++) {\n            _totalSupply[_ids[i]] = _totalSupply[_ids[i]].add(_amounts[i]);\n        }\n    }\n\n    // checks if `_id` is a valid token type\n    function validateTokenType(uint256 _id) internal pure returns (bool) {\n        if (\n            _id == MINERCARD_1 ||\n            _id == MINERCARD_2 ||\n            _id == MINERCARD_3 ||\n            _id == MINERCARD_4 ||\n            _id == MINERCARD_5\n        ) {\n            return true;\n        }\n\n        return false;\n    }\n\n    // get the total supply for a token type `_id`\n    function totalSupply(uint256 _id) public view returns (uint256) {\n        return _totalSupply[_id];\n    }\n}\n",
  "sourcePath": "contracts/MinerCards.sol",
  "abi": [
    {
      "inputs": [],
      "stateMutability": "nonpayable",
      "type": "constructor"
    },
    {
      "anonymous": false,
      "inputs": [
        {
          "indexed": true,
          "internalType": "address",
          "name": "account",
          "type": "address"
        },
        {
          "indexed": true,
          "internalType": "address",
          "name": "operator",
          "type": "address"
        },
        {
          "indexed": false,
          "internalType": "bool",
          "name": "approved",
          "type": "bool"
        }
      ],
      "name": "ApprovalForAll",
      "type": "event"
    },
    {
      "anonymous": false,
      "inputs": [
        {
          "indexed": true,
          "internalType": "address",
          "name": "operator",
          "type": "address"
        },
        {
          "indexed": true,
          "internalType": "address",
          "name": "from",
          "type": "address"
        },
        {
          "indexed": true,
          "internalType": "address",
          "name": "to",
          "type": "address"
        },
        {
          "indexed": false,
          "internalType": "uint256[]",
          "name": "ids",
          "type": "uint256[]"
        },
        {
          "indexed": false,
          "internalType": "uint256[]",
          "name": "values",
          "type": "uint256[]"
        }
      ],
      "name": "TransferBatch",
      "type": "event"
    },
    {
      "anonymous": false,
      "inputs": [
        {
          "indexed": true,
          "internalType": "address",
          "name": "operator",
          "type": "address"
        },
        {
          "indexed": true,
          "internalType": "address",
          "name": "from",
          "type": "address"
        },
        {
          "indexed": true,
          "internalType": "address",
          "name": "to",
          "type": "address"
        },
        {
          "indexed": false,
          "internalType": "uint256",
          "name": "id",
          "type": "uint256"
        },
        {
          "indexed": false,
          "internalType": "uint256",
          "name": "value",
          "type": "uint256"
        }
      ],
      "name": "TransferSingle",
      "type": "event"
    },
    {
      "anonymous": false,
      "inputs": [
        {
          "indexed": false,
          "internalType": "string",
          "name": "value",
          "type": "string"
        },
        {
          "indexed": true,
          "internalType": "uint256",
          "name": "id",
          "type": "uint256"
        }
      ],
      "name": "URI",
      "type": "event"
    },
    {
      "inputs": [],
      "name": "MINERCARD_1",
      "outputs": [
        {
          "internalType": "uint256",
          "name": "",
          "type": "uint256"
        }
      ],
      "stateMutability": "view",
      "type": "function"
    },
    {
      "inputs": [],
      "name": "MINERCARD_2",
      "outputs": [
        {
          "internalType": "uint256",
          "name": "",
          "type": "uint256"
        }
      ],
      "stateMutability": "view",
      "type": "function"
    },
    {
      "inputs": [],
      "name": "MINERCARD_3",
      "outputs": [
        {
          "internalType": "uint256",
          "name": "",
          "type": "uint256"
        }
      ],
      "stateMutability": "view",
      "type": "function"
    },
    {
      "inputs": [],
      "name": "MINERCARD_4",
      "outputs": [
        {
          "internalType": "uint256",
          "name": "",
          "type": "uint256"
        }
      ],
      "stateMutability": "view",
      "type": "function"
    },
    {
      "inputs": [],
      "name": "MINERCARD_5",
      "outputs": [
        {
          "internalType": "uint256",
          "name": "",
          "type": "uint256"
        }
      ],
      "stateMutability": "view",
      "type": "function"
    },
    {
      "inputs": [
        {
          "internalType": "address",
          "name": "",
          "type": "address"
        }
      ],
      "name": "_admins",
      "outputs": [
        {
          "internalType": "bool",
          "name": "",
          "type": "bool"
        }
      ],
      "stateMutability": "view",
      "type": "function"
    },
    {
      "inputs": [
        {
          "internalType": "uint256",
          "name": "",
          "type": "uint256"
        }
      ],
      "name": "_data",
      "outputs": [
        {
          "internalType": "uint256",
          "name": "amountLocked",
          "type": "uint256"
        },
        {
          "internalType": "uint256",
          "name": "duration",
          "type": "uint256"
        },
        {
          "internalType": "uint256",
          "name": "releaseDate",
          "type": "uint256"
        },
        {
          "internalType": "uint256",
          "name": "idErc1155",
          "type": "uint256"
        },
        {
          "internalType": "bool",
          "name": "active",
          "type": "bool"
        }
      ],
      "stateMutability": "view",
      "type": "function"
    },
    {
      "inputs": [
        {
          "internalType": "uint256",
          "name": "",
          "type": "uint256"
        }
      ],
      "name": "_totalSupply",
      "outputs": [
        {
          "internalType": "uint256",
          "name": "",
          "type": "uint256"
        }
      ],
      "stateMutability": "view",
      "type": "function"
    },
    {
      "inputs": [
        {
          "internalType": "address",
          "name": "_address",
          "type": "address"
        }
      ],
      "name": "addAdmin",
      "outputs": [],
      "stateMutability": "nonpayable",
      "type": "function"
    },
    {
      "inputs": [
        {
          "internalType": "address",
          "name": "_admin",
          "type": "address"
        }
      ],
      "name": "admin",
      "outputs": [
        {
          "internalType": "bool",
          "name": "",
          "type": "bool"
        }
      ],
      "stateMutability": "view",
      "type": "function"
    },
    {
      "inputs": [
        {
          "internalType": "address",
          "name": "account",
          "type": "address"
        },
        {
          "internalType": "uint256",
          "name": "id",
          "type": "uint256"
        }
      ],
      "name": "balanceOf",
      "outputs": [
        {
          "internalType": "uint256",
          "name": "",
          "type": "uint256"
        }
      ],
      "stateMutability": "view",
      "type": "function"
    },
    {
      "inputs": [
        {
          "internalType": "address[]",
          "name": "accounts",
          "type": "address[]"
        },
        {
          "internalType": "uint256[]",
          "name": "ids",
          "type": "uint256[]"
        }
      ],
      "name": "balanceOfBatch",
      "outputs": [
        {
          "internalType": "uint256[]",
          "name": "",
          "type": "uint256[]"
        }
      ],
      "stateMutability": "view",
      "type": "function"
    },
    {
      "inputs": [
        {
          "internalType": "address",
          "name": "_account",
          "type": "address"
        }
      ],
      "name": "getAccount",
      "outputs": [
        {
          "internalType": "uint256[]",
          "name": "",
          "type": "uint256[]"
        }
      ],
      "stateMutability": "view",
      "type": "function"
    },
    {
      "inputs": [
        {
          "internalType": "uint256",
          "name": "_id",
          "type": "uint256"
        }
      ],
      "name": "getAmountLocked",
      "outputs": [
        {
          "internalType": "uint256",
          "name": "",
          "type": "uint256"
        }
      ],
      "stateMutability": "view",
      "type": "function"
    },
    {
      "inputs": [
        {
          "internalType": "uint256",
          "name": "_id",
          "type": "uint256"
        }
      ],
      "name": "getReleaseDate",
      "outputs": [
        {
          "internalType": "uint256",
          "name": "",
          "type": "uint256"
        }
      ],
      "stateMutability": "view",
      "type": "function"
    },
    {
      "inputs": [
        {
          "internalType": "uint256",
          "name": "_id",
          "type": "uint256"
        }
      ],
      "name": "idERC155",
      "outputs": [
        {
          "internalType": "uint256",
          "name": "",
          "type": "uint256"
        }
      ],
      "stateMutability": "view",
      "type": "function"
    },
    {
      "inputs": [
        {
          "internalType": "uint256",
          "name": "_id",
          "type": "uint256"
        }
      ],
      "name": "invalidate",
      "outputs": [],
      "stateMutability": "nonpayable",
      "type": "function"
    },
    {
      "inputs": [
        {
          "internalType": "uint256",
          "name": "_id",
          "type": "uint256"
        }
      ],
      "name": "isActive",
      "outputs": [
        {
          "internalType": "bool",
          "name": "",
          "type": "bool"
        }
      ],
      "stateMutability": "view",
      "type": "function"
    },
    {
      "inputs": [
        {
          "internalType": "address",
          "name": "account",
          "type": "address"
        },
        {
          "internalType": "address",
          "name": "operator",
          "type": "address"
        }
      ],
      "name": "isApprovedForAll",
      "outputs": [
        {
          "internalType": "bool",
          "name": "",
          "type": "bool"
        }
      ],
      "stateMutability": "view",
      "type": "function"
    },
    {
      "inputs": [
        {
          "internalType": "address",
          "name": "_account",
          "type": "address"
        },
        {
          "internalType": "uint256",
          "name": "_id",
          "type": "uint256"
        },
        {
          "internalType": "uint256",
          "name": "_amountLocked",
          "type": "uint256"
        },
        {
          "internalType": "uint256",
          "name": "_duration",
          "type": "uint256"
        },
        {
          "internalType": "uint256",
          "name": "_releaseDate",
          "type": "uint256"
        },
        {
          "internalType": "uint256",
          "name": "_idErc1155",
          "type": "uint256"
        }
      ],
      "name": "mint",
      "outputs": [],
      "stateMutability": "nonpayable",
      "type": "function"
    },
    {
      "inputs": [
        {
          "internalType": "address",
          "name": "_account",
          "type": "address"
        },
        {
          "internalType": "uint256[]",
          "name": "_ids",
          "type": "uint256[]"
        },
        {
          "internalType": "uint256[]",
          "name": "_amounts",
          "type": "uint256[]"
        }
      ],
      "name": "mintBatch",
      "outputs": [],
      "stateMutability": "nonpayable",
      "type": "function"
    },
    {
      "inputs": [
        {
          "internalType": "address",
          "name": "_account",
          "type": "address"
        },
        {
          "internalType": "uint256",
          "name": "_id",
          "type": "uint256"
        },
        {
          "internalType": "uint256",
          "name": "_quantity",
          "type": "uint256"
        }
      ],
      "name": "mintMultiple",
      "outputs": [],
      "stateMutability": "nonpayable",
      "type": "function"
    },
    {
      "inputs": [
        {
          "internalType": "address",
          "name": "from",
          "type": "address"
        },
        {
          "internalType": "address",
          "name": "to",
          "type": "address"
        },
        {
          "internalType": "uint256[]",
          "name": "ids",
          "type": "uint256[]"
        },
        {
          "internalType": "uint256[]",
          "name": "amounts",
          "type": "uint256[]"
        },
        {
          "internalType": "bytes",
          "name": "data",
          "type": "bytes"
        }
      ],
      "name": "safeBatchTransferFrom",
      "outputs": [],
      "stateMutability": "nonpayable",
      "type": "function"
    },
    {
      "inputs": [
        {
          "internalType": "address",
          "name": "from",
          "type": "address"
        },
        {
          "internalType": "address",
          "name": "to",
          "type": "address"
        },
        {
          "internalType": "uint256",
          "name": "id",
          "type": "uint256"
        },
        {
          "internalType": "uint256",
          "name": "amount",
          "type": "uint256"
        },
        {
          "internalType": "bytes",
          "name": "data",
          "type": "bytes"
        }
      ],
      "name": "safeTransferFrom",
      "outputs": [],
      "stateMutability": "nonpayable",
      "type": "function"
    },
    {
      "inputs": [
        {
          "internalType": "address",
          "name": "operator",
          "type": "address"
        },
        {
          "internalType": "bool",
          "name": "approved",
          "type": "bool"
        }
      ],
      "name": "setApprovalForAll",
      "outputs": [],
      "stateMutability": "nonpayable",
      "type": "function"
    },
    {
      "inputs": [
        {
          "internalType": "bytes4",
          "name": "interfaceId",
          "type": "bytes4"
        }
      ],
      "name": "supportsInterface",
      "outputs": [
        {
          "internalType": "bool",
          "name": "",
          "type": "bool"
        }
      ],
      "stateMutability": "view",
      "type": "function"
    },
    {
      "inputs": [
        {
          "internalType": "uint256",
          "name": "_id",
          "type": "uint256"
        }
      ],
      "name": "totalSupply",
      "outputs": [
        {
          "internalType": "uint256",
          "name": "",
          "type": "uint256"
        }
      ],
      "stateMutability": "view",
      "type": "function"
    },
    {
      "inputs": [
        {
          "internalType": "uint256",
          "name": "",
          "type": "uint256"
        }
      ],
      "name": "uri",
      "outputs": [
        {
          "internalType": "string",
          "name": "",
          "type": "string"
        }
      ],
      "stateMutability": "view",
      "type": "function"
    }
  ],
  "bytecode": "0x60806040523480156200001157600080fd5b50604051806020016040528060008152506200003a6301ffc9a760e01b6200011b60201b60201c565b6200004b816200022460201b60201c565b6200006363d9b67a2660e01b6200011b60201b60201c565b6200007b630e89341c60e01b6200011b60201b60201c565b5033600460006101000a81548173ffffffffffffffffffffffffffffffffffffffff021916908373ffffffffffffffffffffffffffffffffffffffff1602179055506001600560003373ffffffffffffffffffffffffffffffffffffffff1673ffffffffffffffffffffffffffffffffffffffff16815260200190815260200160002060006101000a81548160ff021916908315150217905550620002e6565b63ffffffff60e01b817bffffffffffffffffffffffffffffffffffffffffffffffffffffffff19161415620001b8576040517f08c379a000000000000000000000000000000000000000000000000000000000815260040180806020018281038252601c8152602001807f4552433136353a20696e76616c696420696e746572666163652069640000000081525060200191505060405180910390fd5b6001600080837bffffffffffffffffffffffffffffffffffffffffffffffffffffffff19167bffffffffffffffffffffffffffffffffffffffffffffffffffffffff1916815260200190815260200160002060006101000a81548160ff02191690831515021790555050565b80600390805190602001906200023c92919062000240565b5050565b828054600181600116156101000203166002900490600052602060002090601f016020900481019282601f106200028357805160ff1916838001178555620002b4565b82800160010185558215620002b4579182015b82811115620002b357825182559160200191906001019062000296565b5b509050620002c39190620002c7565b5090565b5b80821115620002e2576000816000905550600101620002c8565b5090565b6137b480620002f66000396000f3fe608060405234801561001057600080fd5b50600436106101c35760003560e01c806382afd23b116100f9578063ced9ae4011610097578063e985e9c511610071578063e985e9c514610d0e578063f242432a14610d88578063fbcbc0f114610e97578063fee45c7e14610f30576101c3565b8063ced9ae4014610b0e578063d81d0a1514610b2c578063dfc8fff614610c98576101c3565b806392689519116100d35780639268951914610a1c578063a1849e6014610a5e578063a22cb46514610a7c578063bd85b03914610acc576101c3565b806382afd23b146109625780638b394ad4146109a6578063922fa552146109fe576101c3565b806338a641ac116101665780634e1273f4116101405780634e1273f4146106e15780635977e82a1461088257806363a846f8146108c4578063704802751461091e576101c3565b806338a641ac1461063f57806345d5ae5a1461068157806349f1147d146106c3576101c3565b80630d5e2053116101a25780630d5e2053146102ed5780630e89341c146103475780631ea1afdb146103ee5780632eb2c2d61461041c576101c3565b8062fdd58e146101c857806301ffc9a71461022a57806303a7f8251461028d575b600080fd5b610214600480360360408110156101de57600080fd5b81019080803573ffffffffffffffffffffffffffffffffffffffff16906020019092919080359060200190929190505050610f4e565b6040518082815260200191505060405180910390f35b6102756004803603602081101561024057600080fd5b8101908080357bffffffffffffffffffffffffffffffffffffffffffffffffffffffff1916906020019092919050505061102e565b60405180821515815260200191505060405180910390f35b6102b9600480360360208110156102a357600080fd5b8101908080359060200190929190505050611095565b6040518086815260200185815260200184815260200183815260200182151581526020019550505050505060405180910390f35b61032f6004803603602081101561030357600080fd5b81019080803573ffffffffffffffffffffffffffffffffffffffff1690602001909291905050506110d8565b60405180821515815260200191505060405180910390f35b6103736004803603602081101561035d57600080fd5b81019080803590602001909291905050506110f8565b6040518080602001828103825283818151815260200191508051906020019080838360005b838110156103b3578082015181840152602081019050610398565b50505050905090810190601f1680156103e05780820380516001836020036101000a031916815260200191505b509250505060405180910390f35b61041a6004803603602081101561040457600080fd5b810190808035906020019092919050505061119c565b005b61063d600480360360a081101561043257600080fd5b81019080803573ffffffffffffffffffffffffffffffffffffffff169060200190929190803573ffffffffffffffffffffffffffffffffffffffff1690602001909291908035906020019064010000000081111561048f57600080fd5b8201836020820111156104a157600080fd5b803590602001918460208302840111640100000000831117156104c357600080fd5b919080806020026020016040519081016040528093929190818152602001838360200280828437600081840152601f19601f8201169050808301925050505050505091929192908035906020019064010000000081111561052357600080fd5b82018360208201111561053557600080fd5b8035906020019184602083028401116401000000008311171561055757600080fd5b919080806020026020016040519081016040528093929190818152602001838360200280828437600081840152601f19601f820116905080830192505050505050509192919290803590602001906401000000008111156105b757600080fd5b8201836020820111156105c957600080fd5b803590602001918460018302840111640100000000831117156105eb57600080fd5b91908080601f016020809104026020016040519081016040528093929190818152602001838380828437600081840152601f19601f820116905080830192505050505050509192919290505050611294565b005b61066b6004803603602081101561065557600080fd5b810190808035906020019092919050505061171f565b6040518082815260200191505060405180910390f35b6106ad6004803603602081101561069757600080fd5b810190808035906020019092919050505061173f565b6040518082815260200191505060405180910390f35b6106cb61175f565b6040518082815260200191505060405180910390f35b61082b600480360360408110156106f757600080fd5b810190808035906020019064010000000081111561071457600080fd5b82018360208201111561072657600080fd5b8035906020019184602083028401116401000000008311171561074857600080fd5b919080806020026020016040519081016040528093929190818152602001838360200280828437600081840152601f19601f820116905080830192505050505050509192919290803590602001906401000000008111156107a857600080fd5b8201836020820111156107ba57600080fd5b803590602001918460208302840111640100000000831117156107dc57600080fd5b919080806020026020016040519081016040528093929190818152602001838360200280828437600081840152601f19601f820116905080830192505050505050509192919290505050611764565b6040518080602001828103825283818151815260200191508051906020019060200280838360005b8381101561086e578082015181840152602081019050610853565b505050509050019250505060405180910390f35b6108ae6004803603602081101561089857600080fd5b8101908080359060200190929190505050611956565b6040518082815260200191505060405180910390f35b610906600480360360208110156108da57600080fd5b81019080803573ffffffffffffffffffffffffffffffffffffffff16906020019092919050505061196e565b60405180821515815260200191505060405180910390f35b6109606004803603602081101561093457600080fd5b81019080803573ffffffffffffffffffffffffffffffffffffffff1690602001909291905050506119c4565b005b61098e6004803603602081101561097857600080fd5b8101908080359060200190929190505050611ae2565b60405180821515815260200191505060405180910390f35b6109fc600480360360608110156109bc57600080fd5b81019080803573ffffffffffffffffffffffffffffffffffffffff1690602001909291908035906020019092919080359060200190929190505050611b0f565b005b610a06611bf5565b6040518082815260200191505060405180910390f35b610a4860048036036020811015610a3257600080fd5b8101908080359060200190929190505050611bfa565b6040518082815260200191505060405180910390f35b610a66611c1a565b6040518082815260200191505060405180910390f35b610aca60048036036040811015610a9257600080fd5b81019080803573ffffffffffffffffffffffffffffffffffffffff169060200190929190803515159060200190929190505050611c20565b005b610af860048036036020811015610ae257600080fd5b8101908080359060200190929190505050611db9565b6040518082815260200191505060405180910390f35b610b16611dd6565b6040518082815260200191505060405180910390f35b610c9660048036036060811015610b4257600080fd5b81019080803573ffffffffffffffffffffffffffffffffffffffff16906020019092919080359060200190640100000000811115610b7f57600080fd5b820183602082011115610b9157600080fd5b80359060200191846020830284011164010000000083111715610bb357600080fd5b919080806020026020016040519081016040528093929190818152602001838360200280828437600081840152601f19601f82011690508083019250505050505050919291929080359060200190640100000000811115610c1357600080fd5b820183602082011115610c2557600080fd5b80359060200191846020830284011164010000000083111715610c4757600080fd5b919080806020026020016040519081016040528093929190818152602001838360200280828437600081840152601f19601f820116905080830192505050505050509192919290505050611ddb565b005b610d0c600480360360c0811015610cae57600080fd5b81019080803573ffffffffffffffffffffffffffffffffffffffff1690602001909291908035906020019092919080359060200190929190803590602001909291908035906020019092919080359060200190929190505050611fe3565b005b610d7060048036036040811015610d2457600080fd5b81019080803573ffffffffffffffffffffffffffffffffffffffff169060200190929190803573ffffffffffffffffffffffffffffffffffffffff1690602001909291905050506121c7565b60405180821515815260200191505060405180910390f35b610e95600480360360a0811015610d9e57600080fd5b81019080803573ffffffffffffffffffffffffffffffffffffffff169060200190929190803573ffffffffffffffffffffffffffffffffffffffff169060200190929190803590602001909291908035906020019092919080359060200190640100000000811115610e0f57600080fd5b820183602082011115610e2157600080fd5b80359060200191846001830284011164010000000083111715610e4357600080fd5b91908080601f016020809104026020016040519081016040528093929190818152602001838380828437600081840152601f19601f82011690508083019250505050505050919291929050505061225b565b005b610ed960048036036020811015610ead57600080fd5b81019080803573ffffffffffffffffffffffffffffffffffffffff1690602001909291905050506125d0565b6040518080602001828103825283818151815260200191508051906020019060200280838360005b83811015610f1c578082015181840152602081019050610f01565b505050509050019250505060405180910390f35b610f38612667565b6040518082815260200191505060405180910390f35b60008073ffffffffffffffffffffffffffffffffffffffff168373ffffffffffffffffffffffffffffffffffffffff161415610fd5576040517f08c379a000000000000000000000000000000000000000000000000000000000815260040180806020018281038252602b8152602001806135b5602b913960400191505060405180910390fd5b6001600083815260200190815260200160002060008473ffffffffffffffffffffffffffffffffffffffff1673ffffffffffffffffffffffffffffffffffffffff16815260200190815260200160002054905092915050565b6000806000837bffffffffffffffffffffffffffffffffffffffffffffffffffffffff19167bffffffffffffffffffffffffffffffffffffffffffffffffffffffff1916815260200190815260200160002060009054906101000a900460ff169050919050565b60076020528060005260406000206000915090508060000154908060010154908060020154908060030154908060040160009054906101000a900460ff16905085565b60056020528060005260406000206000915054906101000a900460ff1681565b606060038054600181600116156101000203166002900480601f0160208091040260200160405190810160405280929190818152602001828054600181600116156101000203166002900480156111905780601f1061116557610100808354040283529160200191611190565b820191906000526020600020905b81548152906001019060200180831161117357829003601f168201915b50505050509050919050565b60011515600560003373ffffffffffffffffffffffffffffffffffffffff1673ffffffffffffffffffffffffffffffffffffffff16815260200190815260200160002060009054906101000a900460ff16151514611262576040517f08c379a00000000000000000000000000000000000000000000000000000000081526004018080602001828103825260198152602001807f53656e646572206973206e6f7420617574686f72697a6564210000000000000081525060200191505060405180910390fd5b60006007600083815260200190815260200160002060040160006101000a81548160ff02191690831515021790555050565b81518351146112ee576040517f08c379a00000000000000000000000000000000000000000000000000000000081526004018080602001828103825260288152602001806137366028913960400191505060405180910390fd5b600073ffffffffffffffffffffffffffffffffffffffff168473ffffffffffffffffffffffffffffffffffffffff161415611374576040517f08c379a000000000000000000000000000000000000000000000000000000000815260040180806020018281038252602581526020018061363a6025913960400191505060405180910390fd5b61137c61266c565b73ffffffffffffffffffffffffffffffffffffffff168573ffffffffffffffffffffffffffffffffffffffff1614806113c257506113c1856113bc61266c565b6121c7565b5b611417576040517f08c379a000000000000000000000000000000000000000000000000000000000815260040180806020018281038252603281526020018061365f6032913960400191505060405180910390fd5b600061142161266c565b9050611431818787878787612674565b60005b845181101561160257600085828151811061144b57fe5b60200260200101519050600085838151811061146357fe5b602002602001015190506114ea816040518060600160405280602a8152602001613691602a91396001600086815260200190815260200160002060008d73ffffffffffffffffffffffffffffffffffffffff1673ffffffffffffffffffffffffffffffffffffffff1681526020019081526020016000205461267c9092919063ffffffff16565b6001600084815260200190815260200160002060008b73ffffffffffffffffffffffffffffffffffffffff1673ffffffffffffffffffffffffffffffffffffffff168152602001908152602001600020819055506115a1816001600085815260200190815260200160002060008b73ffffffffffffffffffffffffffffffffffffffff1673ffffffffffffffffffffffffffffffffffffffff1681526020019081526020016000205461273c90919063ffffffff16565b6001600084815260200190815260200160002060008a73ffffffffffffffffffffffffffffffffffffffff1673ffffffffffffffffffffffffffffffffffffffff168152602001908152602001600020819055505050806001019050611434565b508473ffffffffffffffffffffffffffffffffffffffff168673ffffffffffffffffffffffffffffffffffffffff168273ffffffffffffffffffffffffffffffffffffffff167f4a39dc06d4c0dbc64b70af90fd698a233a518aa5d07e595d983b8c0526c8f7fb8787604051808060200180602001838103835285818151815260200191508051906020019060200280838360005b838110156116b2578082015181840152602081019050611697565b50505050905001838103825284818151815260200191508051906020019060200280838360005b838110156116f45780820151818401526020810190506116d9565b5050505090500194505050505060405180910390a46117178187878787876127c4565b505050505050565b600060076000838152602001908152602001600020600201549050919050565b600060076000838152602001908152602001600020600001549050919050565b606481565b606081518351146117c0576040517f08c379a000000000000000000000000000000000000000000000000000000000815260040180806020018281038252602981526020018061370d6029913960400191505060405180910390fd5b6060835167ffffffffffffffff811180156117da57600080fd5b506040519080825280602002602001820160405280156118095781602001602082028036833780820191505090505b50905060005b845181101561194b57600073ffffffffffffffffffffffffffffffffffffffff1685828151811061183c57fe5b602002602001015173ffffffffffffffffffffffffffffffffffffffff1614156118b1576040517f08c379a00000000000000000000000000000000000000000000000000000000081526004018080602001828103825260318152602001806135e06031913960400191505060405180910390fd5b600160008583815181106118c157fe5b6020026020010151815260200190815260200160002060008683815181106118e557fe5b602002602001015173ffffffffffffffffffffffffffffffffffffffff1673ffffffffffffffffffffffffffffffffffffffff1681526020019081526020016000205482828151811061193457fe5b60200260200101818152505080600101905061180f565b508091505092915050565b60066020528060005260406000206000915090505481565b6000600560008373ffffffffffffffffffffffffffffffffffffffff1673ffffffffffffffffffffffffffffffffffffffff16815260200190815260200160002060009054906101000a900460ff169050919050565b600460009054906101000a900473ffffffffffffffffffffffffffffffffffffffff1673ffffffffffffffffffffffffffffffffffffffff163373ffffffffffffffffffffffffffffffffffffffff1614611a87576040517f08c379a00000000000000000000000000000000000000000000000000000000081526004018080602001828103825260198152602001807f53656e646572206973206e6f7420617574686f72697a6564210000000000000081525060200191505060405180910390fd5b6001600560008373ffffffffffffffffffffffffffffffffffffffff1673ffffffffffffffffffffffffffffffffffffffff16815260200190815260200160002060006101000a81548160ff02191690831515021790555050565b60006007600083815260200190815260200160002060040160009054906101000a900460ff169050919050565b60011515600560003373ffffffffffffffffffffffffffffffffffffffff1673ffffffffffffffffffffffffffffffffffffffff16815260200190815260200160002060009054906101000a900460ff16151514611bd5576040517f08c379a00000000000000000000000000000000000000000000000000000000081526004018080602001828103825260198152602001807f53656e646572206973206e6f7420617574686f72697a6564210000000000000081525060200191505060405180910390fd5b611bf083838360405180602001604052806000815250612b53565b505050565b603281565b600060076000838152602001908152602001600020600301549050919050565b6103e881565b8173ffffffffffffffffffffffffffffffffffffffff16611c3f61266c565b73ffffffffffffffffffffffffffffffffffffffff161415611cac576040517f08c379a00000000000000000000000000000000000000000000000000000000081526004018080602001828103825260298152602001806136e46029913960400191505060405180910390fd5b8060026000611cb961266c565b73ffffffffffffffffffffffffffffffffffffffff1673ffffffffffffffffffffffffffffffffffffffff16815260200190815260200160002060008473ffffffffffffffffffffffffffffffffffffffff1673ffffffffffffffffffffffffffffffffffffffff16815260200190815260200160002060006101000a81548160ff0219169083151502179055508173ffffffffffffffffffffffffffffffffffffffff16611d6661266c565b73ffffffffffffffffffffffffffffffffffffffff167f17307eab39ab6107e8899845ad3d59bd9653f200f220920489ca2b5937696c318360405180821515815260200191505060405180910390a35050565b600060066000838152602001908152602001600020549050919050565b60fa81565b60011515600560003373ffffffffffffffffffffffffffffffffffffffff1673ffffffffffffffffffffffffffffffffffffffff16815260200190815260200160002060009054906101000a900460ff16151514611ea1576040517f08c379a00000000000000000000000000000000000000000000000000000000081526004018080602001828103825260198152602001807f53656e646572206973206e6f7420617574686f72697a6564210000000000000081525060200191505060405180910390fd5b60005b8251811015611f325760011515611ecd848381518110611ec057fe5b6020026020010151612d56565b151514611f25576040517f08c379a00000000000000000000000000000000000000000000000000000000081526004018080602001828103825260298152602001806136bb6029913960400191505060405180910390fd5b8080600101915050611ea4565b50611f4e83838360405180602001604052806000815250612da1565b60005b8151811015611fdd57611fa6828281518110611f6957fe5b602002602001015160066000868581518110611f8157fe5b602002602001015181526020019081526020016000205461273c90919063ffffffff16565b60066000858481518110611fb657fe5b60200260200101518152602001908152602001600020819055508080600101915050611f51565b50505050565b60011515600560003373ffffffffffffffffffffffffffffffffffffffff1673ffffffffffffffffffffffffffffffffffffffff16815260200190815260200160002060009054906101000a900460ff161515146120a9576040517f08c379a00000000000000000000000000000000000000000000000000000000081526004018080602001828103825260198152602001807f53656e646572206973206e6f7420617574686f72697a6564210000000000000081525060200191505060405180910390fd5b6120c58686600160405180602001604052806000815250612b53565b6120cd613453565b6040518060a0016040528086815260200185815260200184815260200183815260200160011515815250905080600760008881526020019081526020016000206000820151816000015560208201518160010155604082015181600201556060820151816003015560808201518160040160006101000a81548160ff021916908315150217905550905050600860008873ffffffffffffffffffffffffffffffffffffffff1673ffffffffffffffffffffffffffffffffffffffff16815260200190815260200160002086908060018154018082558091505060019003906000526020600020016000909190919091505550505050505050565b6000600260008473ffffffffffffffffffffffffffffffffffffffff1673ffffffffffffffffffffffffffffffffffffffff16815260200190815260200160002060008373ffffffffffffffffffffffffffffffffffffffff1673ffffffffffffffffffffffffffffffffffffffff16815260200190815260200160002060009054906101000a900460ff16905092915050565b600073ffffffffffffffffffffffffffffffffffffffff168473ffffffffffffffffffffffffffffffffffffffff1614156122e1576040517f08c379a000000000000000000000000000000000000000000000000000000000815260040180806020018281038252602581526020018061363a6025913960400191505060405180910390fd5b6122e961266c565b73ffffffffffffffffffffffffffffffffffffffff168573ffffffffffffffffffffffffffffffffffffffff16148061232f575061232e8561232961266c565b6121c7565b5b612384576040517f08c379a00000000000000000000000000000000000000000000000000000000081526004018080602001828103825260298152602001806136116029913960400191505060405180910390fd5b600061238e61266c565b90506123ae81878761239f886130c3565b6123a8886130c3565b87612674565b61242b836040518060600160405280602a8152602001613691602a91396001600088815260200190815260200160002060008a73ffffffffffffffffffffffffffffffffffffffff1673ffffffffffffffffffffffffffffffffffffffff1681526020019081526020016000205461267c9092919063ffffffff16565b6001600086815260200190815260200160002060008873ffffffffffffffffffffffffffffffffffffffff1673ffffffffffffffffffffffffffffffffffffffff168152602001908152602001600020819055506124e2836001600087815260200190815260200160002060008873ffffffffffffffffffffffffffffffffffffffff1673ffffffffffffffffffffffffffffffffffffffff1681526020019081526020016000205461273c90919063ffffffff16565b6001600086815260200190815260200160002060008773ffffffffffffffffffffffffffffffffffffffff1673ffffffffffffffffffffffffffffffffffffffff168152602001908152602001600020819055508473ffffffffffffffffffffffffffffffffffffffff168673ffffffffffffffffffffffffffffffffffffffff168273ffffffffffffffffffffffffffffffffffffffff167fc3d58168c5ae7397731d063d5bbf3d657854427343f4c083240f7aacaa2d0f628787604051808381526020018281526020019250505060405180910390a46125c8818787878787613133565b505050505050565b6060600860008373ffffffffffffffffffffffffffffffffffffffff1673ffffffffffffffffffffffffffffffffffffffff16815260200190815260200160002080548060200260200160405190810160405280929190818152602001828054801561265b57602002820191906000526020600020905b815481526020019060010190808311612647575b50505050509050919050565b601981565b600033905090565b505050505050565b6000838311158290612729576040517f08c379a00000000000000000000000000000000000000000000000000000000081526004018080602001828103825283818151815260200191508051906020019080838360005b838110156126ee5780820151818401526020810190506126d3565b50505050905090810190601f16801561271b5780820380516001836020036101000a031916815260200191505b509250505060405180910390fd5b5060008385039050809150509392505050565b6000808284019050838110156127ba576040517f08c379a000000000000000000000000000000000000000000000000000000000815260040180806020018281038252601b8152602001807f536166654d6174683a206164646974696f6e206f766572666c6f77000000000081525060200191505060405180910390fd5b8091505092915050565b6127e38473ffffffffffffffffffffffffffffffffffffffff16613440565b15612b4b578373ffffffffffffffffffffffffffffffffffffffff1663bc197c8187878686866040518663ffffffff1660e01b8152600401808673ffffffffffffffffffffffffffffffffffffffff1681526020018573ffffffffffffffffffffffffffffffffffffffff168152602001806020018060200180602001848103845287818151815260200191508051906020019060200280838360005b8381101561289b578082015181840152602081019050612880565b50505050905001848103835286818151815260200191508051906020019060200280838360005b838110156128dd5780820151818401526020810190506128c2565b50505050905001848103825285818151815260200191508051906020019080838360005b8381101561291c578082015181840152602081019050612901565b50505050905090810190601f1680156129495780820380516001836020036101000a031916815260200191505b5098505050505050505050602060405180830381600087803b15801561296e57600080fd5b505af19250505080156129a257506040513d602081101561298e57600080fd5b810190808051906020019092919050505060015b612aac576129ae6134a2565b806129b95750612a5b565b806040517f08c379a00000000000000000000000000000000000000000000000000000000081526004018080602001828103825283818151815260200191508051906020019080838360005b83811015612a20578082015181840152602081019050612a05565b50505050905090810190601f168015612a4d5780820380516001836020036101000a031916815260200191505b509250505060405180910390fd5b6040517f08c379a00000000000000000000000000000000000000000000000000000000081526004018080602001828103825260348152602001806135596034913960400191505060405180910390fd5b63bc197c8160e01b7bffffffffffffffffffffffffffffffffffffffffffffffffffffffff1916817bffffffffffffffffffffffffffffffffffffffffffffffffffffffff191614612b49576040517f08c379a000000000000000000000000000000000000000000000000000000000815260040180806020018281038252602881526020018061358d6028913960400191505060405180910390fd5b505b505050505050565b600073ffffffffffffffffffffffffffffffffffffffff168473ffffffffffffffffffffffffffffffffffffffff161415612bd9576040517f08c379a000000000000000000000000000000000000000000000000000000000815260040180806020018281038252602181526020018061375e6021913960400191505060405180910390fd5b6000612be361266c565b9050612c0481600087612bf5886130c3565b612bfe886130c3565b87612674565b612c67836001600087815260200190815260200160002060008873ffffffffffffffffffffffffffffffffffffffff1673ffffffffffffffffffffffffffffffffffffffff1681526020019081526020016000205461273c90919063ffffffff16565b6001600086815260200190815260200160002060008773ffffffffffffffffffffffffffffffffffffffff1673ffffffffffffffffffffffffffffffffffffffff168152602001908152602001600020819055508473ffffffffffffffffffffffffffffffffffffffff16600073ffffffffffffffffffffffffffffffffffffffff168273ffffffffffffffffffffffffffffffffffffffff167fc3d58168c5ae7397731d063d5bbf3d657854427343f4c083240f7aacaa2d0f628787604051808381526020018281526020019250505060405180910390a4612d4f81600087878787613133565b5050505050565b60006019821480612d675750603282145b80612d725750606482145b80612d7d575060fa82145b80612d8957506103e882145b15612d975760019050612d9c565b600090505b919050565b600073ffffffffffffffffffffffffffffffffffffffff168473ffffffffffffffffffffffffffffffffffffffff161415612e27576040517f08c379a000000000000000000000000000000000000000000000000000000000815260040180806020018281038252602181526020018061375e6021913960400191505060405180910390fd5b8151835114612e81576040517f08c379a00000000000000000000000000000000000000000000000000000000081526004018080602001828103825260288152602001806137366028913960400191505060405180910390fd5b6000612e8b61266c565b9050612e9c81600087878787612674565b60005b8451811015612fa557612f3160016000878481518110612ebb57fe5b6020026020010151815260200190815260200160002060008873ffffffffffffffffffffffffffffffffffffffff1673ffffffffffffffffffffffffffffffffffffffff16815260200190815260200160002054858381518110612f1b57fe5b602002602001015161273c90919063ffffffff16565b60016000878481518110612f4157fe5b6020026020010151815260200190815260200160002060008873ffffffffffffffffffffffffffffffffffffffff1673ffffffffffffffffffffffffffffffffffffffff168152602001908152602001600020819055508080600101915050612e9f565b508473ffffffffffffffffffffffffffffffffffffffff16600073ffffffffffffffffffffffffffffffffffffffff168273ffffffffffffffffffffffffffffffffffffffff167f4a39dc06d4c0dbc64b70af90fd698a233a518aa5d07e595d983b8c0526c8f7fb8787604051808060200180602001838103835285818151815260200191508051906020019060200280838360005b8381101561305657808201518184015260208101905061303b565b50505050905001838103825284818151815260200191508051906020019060200280838360005b8381101561309857808201518184015260208101905061307d565b5050505090500194505050505060405180910390a46130bc816000878787876127c4565b5050505050565b606080600167ffffffffffffffff811180156130de57600080fd5b5060405190808252806020026020018201604052801561310d5781602001602082028036833780820191505090505b509050828160008151811061311e57fe5b60200260200101818152505080915050919050565b6131528473ffffffffffffffffffffffffffffffffffffffff16613440565b15613438578373ffffffffffffffffffffffffffffffffffffffff1663f23a6e6187878686866040518663ffffffff1660e01b8152600401808673ffffffffffffffffffffffffffffffffffffffff1681526020018573ffffffffffffffffffffffffffffffffffffffff16815260200184815260200183815260200180602001828103825283818151815260200191508051906020019080838360005b8381101561320b5780820151818401526020810190506131f0565b50505050905090810190601f1680156132385780820380516001836020036101000a031916815260200191505b509650505050505050602060405180830381600087803b15801561325b57600080fd5b505af192505050801561328f57506040513d602081101561327b57600080fd5b810190808051906020019092919050505060015b6133995761329b6134a2565b806132a65750613348565b806040517f08c379a00000000000000000000000000000000000000000000000000000000081526004018080602001828103825283818151815260200191508051906020019080838360005b8381101561330d5780820151818401526020810190506132f2565b50505050905090810190601f16801561333a5780820380516001836020036101000a031916815260200191505b509250505060405180910390fd5b6040517f08c379a00000000000000000000000000000000000000000000000000000000081526004018080602001828103825260348152602001806135596034913960400191505060405180910390fd5b63f23a6e6160e01b7bffffffffffffffffffffffffffffffffffffffffffffffffffffffff1916817bffffffffffffffffffffffffffffffffffffffffffffffffffffffff191614613436576040517f08c379a000000000000000000000000000000000000000000000000000000000815260040180806020018281038252602881526020018061358d6028913960400191505060405180910390fd5b505b505050505050565b600080823b905060008111915050919050565b6040518060a00160405280600081526020016000815260200160008152602001600081526020016000151581525090565b6000601f19601f8301169050919050565b60008160e01c9050919050565b600060443d10156134b257613555565b60046000803e6134c3600051613495565b6308c379a081146134d45750613555565b60405160043d036004823e80513d602482011167ffffffffffffffff8211171561350057505050613555565b808201805167ffffffffffffffff81111561351f575050505050613555565b8060208301013d850181111561353a57505050505050613555565b61354382613484565b60208401016040528296505050505050505b9056fe455243313135353a207472616e7366657220746f206e6f6e2045524331313535526563656976657220696d706c656d656e746572455243313135353a204552433131353552656365697665722072656a656374656420746f6b656e73455243313135353a2062616c616e636520717565727920666f7220746865207a65726f2061646472657373455243313135353a2062617463682062616c616e636520717565727920666f7220746865207a65726f2061646472657373455243313135353a2063616c6c6572206973206e6f74206f776e6572206e6f7220617070726f766564455243313135353a207472616e7366657220746f20746865207a65726f2061646472657373455243313135353a207472616e736665722063616c6c6572206973206e6f74206f776e6572206e6f7220617070726f766564455243313135353a20696e73756666696369656e742062616c616e636520666f72207472616e736665724d696e657243617264732e6d696e7442617463683a20496e76616c696420546f6b656e20547970652e455243313135353a2073657474696e6720617070726f76616c2073746174757320666f722073656c66455243313135353a206163636f756e747320616e6420696473206c656e677468206d69736d61746368455243313135353a2069647320616e6420616d6f756e7473206c656e677468206d69736d61746368455243313135353a206d696e7420746f20746865207a65726f2061646472657373a2646970667358221220491af5426458edfd8ce5bac028704d32d3be352aa6f49cc520775b22769f8abe64736f6c634300060c0033",
  "compiler": {
    "name": "solc",
    "version": "0.6.12+commit.27d51765.Emscripten.clang",
    "optimizer": {
      "enabled": false,
      "runs": 200
    },
    "evmVersion": "petersburg"
  }
}