{
  "fileName": "MinerCards.sol",
  "contractName": "MinerCards",
  "source": "// SPDX-License-Identifier: MIT\n\npragma solidity ^0.6.0;\n\nimport \"@openzeppelin/contracts/token/ERC1155/ERC1155.sol\";\nimport \"@openzeppelin/contracts/math/SafeMath.sol\";\n\ncontract MinerCards is ERC1155 {\n    using SafeMath for uint256;\n\n    address private owner;\n\n    uint256 public constant MINERCARD_1 = 25;\n    uint256 public constant MINERCARD_2 = 50;\n    uint256 public constant MINERCARD_3 = 100;\n    uint256 public constant MINERCARD_4 = 250;\n    uint256 public constant MINERCARD_5 = 1000;\n\n    mapping(address => bool) public _admins;\n\n    // Mapping from token ID to total supply\n    mapping(uint256 => uint256) public _totalSupply;\n\n    /**\n     * @dev Require msg.sender to be an admin\n     */\n    modifier isAdmin() {\n        require(_admins[msg.sender] == true, \"Sender is not authorized!\");\n        _;\n    }\n\n    /**\n     * @dev Require msg.sender to be an admin\n     */\n    modifier onlyOwner() {\n        require(msg.sender == owner, \"Sender is not authorized!\");\n        _;\n    }\n\n    constructor() public ERC1155(\"\") {\n        owner = msg.sender;\n        _admins[msg.sender] = true;\n    }\n\n    /**\n     * @dev Creates `amount` tokens of token type `id`, and assigns them to `_account`.\n     * It updates the token supply for the token type.\n     * Emits a {TransferSingle} event.\n     *\n     * - `_account`      cannot be the zero address.\n     * - `_id`          must be between 0 and 4.\n     * - `_quantity`    quantity of tokens to mint.\n     */\n    function mint(address _account, uint256 _id) public isAdmin {\n        _mint(_account, _id, 1, \"\");\n    }\n\n    /** @dev same as mint, but it mints multiple NFTs of same ID to `_account`\n     *\n     * - `_account`      cannot be the zero address.\n     * - `_id`          must be between 0 and 4.\n     * - `_quantity`    quantity of tokens to mint.\n     */\n    function mintMultiple(\n        address _account,\n        uint256 _id,\n        uint256 _quantity\n    ) public isAdmin {\n        _mint(_account, _id, _quantity, \"\");\n    }\n\n    function admin(address _admin) public view returns (bool) {\n        return _admins[_admin];\n    }\n\n    function addAdmin(address _address) public onlyOwner {\n        _admins[_address] = true;\n    }\n\n    /**\n     * @dev mints a batch ot tokens of different types and assigns them to `_account`\n     *\n     * Requirements:\n     *\n     * - `ids` and `amounts` must have the same length.\n     * - If `_account` refers to a smart contract, it must implement {IERC1155Receiver-onERC1155BatchReceived} and return the\n     * acceptance magic value.\n     */\n    function mintBatch(\n        address _account,\n        uint256[] memory _ids,\n        uint256[] memory _amounts\n    ) public isAdmin {\n        for (uint256 i = 0; i < _ids.length; i++) {\n            require(\n                validateTokenType(_ids[i]) == true,\n                \"MinerCards.mintBatch: Invalid Token Type.\"\n            );\n        }\n        _mintBatch(_account, _ids, _amounts, \"\");\n\n        for (uint256 i = 0; i < _amounts.length; i++) {\n            _totalSupply[_ids[i]] = _totalSupply[_ids[i]].add(_amounts[i]);\n        }\n    }\n\n    // checks if `_id` is a valid token type\n    function validateTokenType(uint256 _id) internal pure returns (bool) {\n        if (\n            _id == MINERCARD_1 ||\n            _id == MINERCARD_2 ||\n            _id == MINERCARD_3 ||\n            _id == MINERCARD_4 ||\n            _id == MINERCARD_5\n        ) {\n            return true;\n        }\n\n        return false;\n    }\n\n    // get the total supply for a token type `_id`\n    function totalSupply(uint256 _id) public view returns (uint256) {\n        return _totalSupply[_id];\n    }\n}\n",
  "sourcePath": "contracts/MinerCards.sol",
  "abi": [
    {
      "inputs": [],
      "stateMutability": "nonpayable",
      "type": "constructor"
    },
    {
      "anonymous": false,
      "inputs": [
        {
          "indexed": true,
          "internalType": "address",
          "name": "account",
          "type": "address"
        },
        {
          "indexed": true,
          "internalType": "address",
          "name": "operator",
          "type": "address"
        },
        {
          "indexed": false,
          "internalType": "bool",
          "name": "approved",
          "type": "bool"
        }
      ],
      "name": "ApprovalForAll",
      "type": "event"
    },
    {
      "anonymous": false,
      "inputs": [
        {
          "indexed": true,
          "internalType": "address",
          "name": "operator",
          "type": "address"
        },
        {
          "indexed": true,
          "internalType": "address",
          "name": "from",
          "type": "address"
        },
        {
          "indexed": true,
          "internalType": "address",
          "name": "to",
          "type": "address"
        },
        {
          "indexed": false,
          "internalType": "uint256[]",
          "name": "ids",
          "type": "uint256[]"
        },
        {
          "indexed": false,
          "internalType": "uint256[]",
          "name": "values",
          "type": "uint256[]"
        }
      ],
      "name": "TransferBatch",
      "type": "event"
    },
    {
      "anonymous": false,
      "inputs": [
        {
          "indexed": true,
          "internalType": "address",
          "name": "operator",
          "type": "address"
        },
        {
          "indexed": true,
          "internalType": "address",
          "name": "from",
          "type": "address"
        },
        {
          "indexed": true,
          "internalType": "address",
          "name": "to",
          "type": "address"
        },
        {
          "indexed": false,
          "internalType": "uint256",
          "name": "id",
          "type": "uint256"
        },
        {
          "indexed": false,
          "internalType": "uint256",
          "name": "value",
          "type": "uint256"
        }
      ],
      "name": "TransferSingle",
      "type": "event"
    },
    {
      "anonymous": false,
      "inputs": [
        {
          "indexed": false,
          "internalType": "string",
          "name": "value",
          "type": "string"
        },
        {
          "indexed": true,
          "internalType": "uint256",
          "name": "id",
          "type": "uint256"
        }
      ],
      "name": "URI",
      "type": "event"
    },
    {
      "inputs": [],
      "name": "MINERCARD_1",
      "outputs": [
        {
          "internalType": "uint256",
          "name": "",
          "type": "uint256"
        }
      ],
      "stateMutability": "view",
      "type": "function"
    },
    {
      "inputs": [],
      "name": "MINERCARD_2",
      "outputs": [
        {
          "internalType": "uint256",
          "name": "",
          "type": "uint256"
        }
      ],
      "stateMutability": "view",
      "type": "function"
    },
    {
      "inputs": [],
      "name": "MINERCARD_3",
      "outputs": [
        {
          "internalType": "uint256",
          "name": "",
          "type": "uint256"
        }
      ],
      "stateMutability": "view",
      "type": "function"
    },
    {
      "inputs": [],
      "name": "MINERCARD_4",
      "outputs": [
        {
          "internalType": "uint256",
          "name": "",
          "type": "uint256"
        }
      ],
      "stateMutability": "view",
      "type": "function"
    },
    {
      "inputs": [],
      "name": "MINERCARD_5",
      "outputs": [
        {
          "internalType": "uint256",
          "name": "",
          "type": "uint256"
        }
      ],
      "stateMutability": "view",
      "type": "function"
    },
    {
      "inputs": [
        {
          "internalType": "address",
          "name": "",
          "type": "address"
        }
      ],
      "name": "_admins",
      "outputs": [
        {
          "internalType": "bool",
          "name": "",
          "type": "bool"
        }
      ],
      "stateMutability": "view",
      "type": "function"
    },
    {
      "inputs": [
        {
          "internalType": "uint256",
          "name": "",
          "type": "uint256"
        }
      ],
      "name": "_totalSupply",
      "outputs": [
        {
          "internalType": "uint256",
          "name": "",
          "type": "uint256"
        }
      ],
      "stateMutability": "view",
      "type": "function"
    },
    {
      "inputs": [
        {
          "internalType": "address",
          "name": "_address",
          "type": "address"
        }
      ],
      "name": "addAdmin",
      "outputs": [],
      "stateMutability": "nonpayable",
      "type": "function"
    },
    {
      "inputs": [
        {
          "internalType": "address",
          "name": "_admin",
          "type": "address"
        }
      ],
      "name": "admin",
      "outputs": [
        {
          "internalType": "bool",
          "name": "",
          "type": "bool"
        }
      ],
      "stateMutability": "view",
      "type": "function"
    },
    {
      "inputs": [
        {
          "internalType": "address",
          "name": "account",
          "type": "address"
        },
        {
          "internalType": "uint256",
          "name": "id",
          "type": "uint256"
        }
      ],
      "name": "balanceOf",
      "outputs": [
        {
          "internalType": "uint256",
          "name": "",
          "type": "uint256"
        }
      ],
      "stateMutability": "view",
      "type": "function"
    },
    {
      "inputs": [
        {
          "internalType": "address[]",
          "name": "accounts",
          "type": "address[]"
        },
        {
          "internalType": "uint256[]",
          "name": "ids",
          "type": "uint256[]"
        }
      ],
      "name": "balanceOfBatch",
      "outputs": [
        {
          "internalType": "uint256[]",
          "name": "",
          "type": "uint256[]"
        }
      ],
      "stateMutability": "view",
      "type": "function"
    },
    {
      "inputs": [
        {
          "internalType": "address",
          "name": "account",
          "type": "address"
        },
        {
          "internalType": "address",
          "name": "operator",
          "type": "address"
        }
      ],
      "name": "isApprovedForAll",
      "outputs": [
        {
          "internalType": "bool",
          "name": "",
          "type": "bool"
        }
      ],
      "stateMutability": "view",
      "type": "function"
    },
    {
      "inputs": [
        {
          "internalType": "address",
          "name": "_account",
          "type": "address"
        },
        {
          "internalType": "uint256",
          "name": "_id",
          "type": "uint256"
        }
      ],
      "name": "mint",
      "outputs": [],
      "stateMutability": "nonpayable",
      "type": "function"
    },
    {
      "inputs": [
        {
          "internalType": "address",
          "name": "_account",
          "type": "address"
        },
        {
          "internalType": "uint256[]",
          "name": "_ids",
          "type": "uint256[]"
        },
        {
          "internalType": "uint256[]",
          "name": "_amounts",
          "type": "uint256[]"
        }
      ],
      "name": "mintBatch",
      "outputs": [],
      "stateMutability": "nonpayable",
      "type": "function"
    },
    {
      "inputs": [
        {
          "internalType": "address",
          "name": "_account",
          "type": "address"
        },
        {
          "internalType": "uint256",
          "name": "_id",
          "type": "uint256"
        },
        {
          "internalType": "uint256",
          "name": "_quantity",
          "type": "uint256"
        }
      ],
      "name": "mintMultiple",
      "outputs": [],
      "stateMutability": "nonpayable",
      "type": "function"
    },
    {
      "inputs": [
        {
          "internalType": "address",
          "name": "from",
          "type": "address"
        },
        {
          "internalType": "address",
          "name": "to",
          "type": "address"
        },
        {
          "internalType": "uint256[]",
          "name": "ids",
          "type": "uint256[]"
        },
        {
          "internalType": "uint256[]",
          "name": "amounts",
          "type": "uint256[]"
        },
        {
          "internalType": "bytes",
          "name": "data",
          "type": "bytes"
        }
      ],
      "name": "safeBatchTransferFrom",
      "outputs": [],
      "stateMutability": "nonpayable",
      "type": "function"
    },
    {
      "inputs": [
        {
          "internalType": "address",
          "name": "from",
          "type": "address"
        },
        {
          "internalType": "address",
          "name": "to",
          "type": "address"
        },
        {
          "internalType": "uint256",
          "name": "id",
          "type": "uint256"
        },
        {
          "internalType": "uint256",
          "name": "amount",
          "type": "uint256"
        },
        {
          "internalType": "bytes",
          "name": "data",
          "type": "bytes"
        }
      ],
      "name": "safeTransferFrom",
      "outputs": [],
      "stateMutability": "nonpayable",
      "type": "function"
    },
    {
      "inputs": [
        {
          "internalType": "address",
          "name": "operator",
          "type": "address"
        },
        {
          "internalType": "bool",
          "name": "approved",
          "type": "bool"
        }
      ],
      "name": "setApprovalForAll",
      "outputs": [],
      "stateMutability": "nonpayable",
      "type": "function"
    },
    {
      "inputs": [
        {
          "internalType": "bytes4",
          "name": "interfaceId",
          "type": "bytes4"
        }
      ],
      "name": "supportsInterface",
      "outputs": [
        {
          "internalType": "bool",
          "name": "",
          "type": "bool"
        }
      ],
      "stateMutability": "view",
      "type": "function"
    },
    {
      "inputs": [
        {
          "internalType": "uint256",
          "name": "_id",
          "type": "uint256"
        }
      ],
      "name": "totalSupply",
      "outputs": [
        {
          "internalType": "uint256",
          "name": "",
          "type": "uint256"
        }
      ],
      "stateMutability": "view",
      "type": "function"
    },
    {
      "inputs": [
        {
          "internalType": "uint256",
          "name": "",
          "type": "uint256"
        }
      ],
      "name": "uri",
      "outputs": [
        {
          "internalType": "string",
          "name": "",
          "type": "string"
        }
      ],
      "stateMutability": "view",
      "type": "function"
    }
  ],
  "bytecode": "0x60806040523480156200001157600080fd5b50604051806020016040528060008152506200003a6301ffc9a760e01b6200011b60201b60201c565b6200004b816200022460201b60201c565b6200006363d9b67a2660e01b6200011b60201b60201c565b6200007b630e89341c60e01b6200011b60201b60201c565b5033600460006101000a81548173ffffffffffffffffffffffffffffffffffffffff021916908373ffffffffffffffffffffffffffffffffffffffff1602179055506001600560003373ffffffffffffffffffffffffffffffffffffffff1673ffffffffffffffffffffffffffffffffffffffff16815260200190815260200160002060006101000a81548160ff021916908315150217905550620002e6565b63ffffffff60e01b817bffffffffffffffffffffffffffffffffffffffffffffffffffffffff19161415620001b8576040517f08c379a000000000000000000000000000000000000000000000000000000000815260040180806020018281038252601c8152602001807f4552433136353a20696e76616c696420696e746572666163652069640000000081525060200191505060405180910390fd5b6001600080837bffffffffffffffffffffffffffffffffffffffffffffffffffffffff19167bffffffffffffffffffffffffffffffffffffffffffffffffffffffff1916815260200190815260200160002060006101000a81548160ff02191690831515021790555050565b80600390805190602001906200023c92919062000240565b5050565b828054600181600116156101000203166002900490600052602060002090601f016020900481019282601f106200028357805160ff1916838001178555620002b4565b82800160010185558215620002b4579182015b82811115620002b357825182559160200191906001019062000296565b5b509050620002c39190620002c7565b5090565b5b80821115620002e2576000816000905550600101620002c8565b5090565b61314080620002f66000396000f3fe608060405234801561001057600080fd5b50600436106101365760003560e01c806370480275116100b8578063bd85b0391161007c578063bd85b039146108f5578063ced9ae4014610937578063d81d0a1514610955578063e985e9c514610ac1578063f242432a14610b3b578063fee45c7e14610c4a57610136565b806370480275146107cd5780638b394ad414610811578063922fa55214610869578063a1849e6014610887578063a22cb465146108a557610136565b806340c10f19116100ff57806340c10f191461052457806349f1147d146105725780634e1273f4146105905780635977e82a1461073157806363a846f81461077357610136565b8062fdd58e1461013b57806301ffc9a71461019d5780630d5e2053146102005780630e89341c1461025a5780632eb2c2d614610301575b600080fd5b6101876004803603604081101561015157600080fd5b81019080803573ffffffffffffffffffffffffffffffffffffffff16906020019092919080359060200190929190505050610c68565b6040518082815260200191505060405180910390f35b6101e8600480360360208110156101b357600080fd5b8101908080357bffffffffffffffffffffffffffffffffffffffffffffffffffffffff19169060200190929190505050610d48565b60405180821515815260200191505060405180910390f35b6102426004803603602081101561021657600080fd5b81019080803573ffffffffffffffffffffffffffffffffffffffff169060200190929190505050610daf565b60405180821515815260200191505060405180910390f35b6102866004803603602081101561027057600080fd5b8101908080359060200190929190505050610dcf565b6040518080602001828103825283818151815260200191508051906020019080838360005b838110156102c65780820151818401526020810190506102ab565b50505050905090810190601f1680156102f35780820380516001836020036101000a031916815260200191505b509250505060405180910390f35b610522600480360360a081101561031757600080fd5b81019080803573ffffffffffffffffffffffffffffffffffffffff169060200190929190803573ffffffffffffffffffffffffffffffffffffffff1690602001909291908035906020019064010000000081111561037457600080fd5b82018360208201111561038657600080fd5b803590602001918460208302840111640100000000831117156103a857600080fd5b919080806020026020016040519081016040528093929190818152602001838360200280828437600081840152601f19601f8201169050808301925050505050505091929192908035906020019064010000000081111561040857600080fd5b82018360208201111561041a57600080fd5b8035906020019184602083028401116401000000008311171561043c57600080fd5b919080806020026020016040519081016040528093929190818152602001838360200280828437600081840152601f19601f8201169050808301925050505050505091929192908035906020019064010000000081111561049c57600080fd5b8201836020820111156104ae57600080fd5b803590602001918460018302840111640100000000831117156104d057600080fd5b91908080601f016020809104026020016040519081016040528093929190818152602001838380828437600081840152601f19601f820116905080830192505050505050509192919290505050610e73565b005b6105706004803603604081101561053a57600080fd5b81019080803573ffffffffffffffffffffffffffffffffffffffff169060200190929190803590602001909291905050506112fe565b005b61057a6113e4565b6040518082815260200191505060405180910390f35b6106da600480360360408110156105a657600080fd5b81019080803590602001906401000000008111156105c357600080fd5b8201836020820111156105d557600080fd5b803590602001918460208302840111640100000000831117156105f757600080fd5b919080806020026020016040519081016040528093929190818152602001838360200280828437600081840152601f19601f8201169050808301925050505050505091929192908035906020019064010000000081111561065757600080fd5b82018360208201111561066957600080fd5b8035906020019184602083028401116401000000008311171561068b57600080fd5b919080806020026020016040519081016040528093929190818152602001838360200280828437600081840152601f19601f8201169050808301925050505050505091929192905050506113e9565b6040518080602001828103825283818151815260200191508051906020019060200280838360005b8381101561071d578082015181840152602081019050610702565b505050509050019250505060405180910390f35b61075d6004803603602081101561074757600080fd5b81019080803590602001909291905050506115db565b6040518082815260200191505060405180910390f35b6107b56004803603602081101561078957600080fd5b81019080803573ffffffffffffffffffffffffffffffffffffffff1690602001909291905050506115f3565b60405180821515815260200191505060405180910390f35b61080f600480360360208110156107e357600080fd5b81019080803573ffffffffffffffffffffffffffffffffffffffff169060200190929190505050611649565b005b6108676004803603606081101561082757600080fd5b81019080803573ffffffffffffffffffffffffffffffffffffffff1690602001909291908035906020019092919080359060200190929190505050611767565b005b61087161184d565b6040518082815260200191505060405180910390f35b61088f611852565b6040518082815260200191505060405180910390f35b6108f3600480360360408110156108bb57600080fd5b81019080803573ffffffffffffffffffffffffffffffffffffffff169060200190929190803515159060200190929190505050611858565b005b6109216004803603602081101561090b57600080fd5b81019080803590602001909291905050506119f1565b6040518082815260200191505060405180910390f35b61093f611a0e565b6040518082815260200191505060405180910390f35b610abf6004803603606081101561096b57600080fd5b81019080803573ffffffffffffffffffffffffffffffffffffffff169060200190929190803590602001906401000000008111156109a857600080fd5b8201836020820111156109ba57600080fd5b803590602001918460208302840111640100000000831117156109dc57600080fd5b919080806020026020016040519081016040528093929190818152602001838360200280828437600081840152601f19601f82011690508083019250505050505050919291929080359060200190640100000000811115610a3c57600080fd5b820183602082011115610a4e57600080fd5b80359060200191846020830284011164010000000083111715610a7057600080fd5b919080806020026020016040519081016040528093929190818152602001838360200280828437600081840152601f19601f820116905080830192505050505050509192919290505050611a13565b005b610b2360048036036040811015610ad757600080fd5b81019080803573ffffffffffffffffffffffffffffffffffffffff169060200190929190803573ffffffffffffffffffffffffffffffffffffffff169060200190929190505050611c1b565b60405180821515815260200191505060405180910390f35b610c48600480360360a0811015610b5157600080fd5b81019080803573ffffffffffffffffffffffffffffffffffffffff169060200190929190803573ffffffffffffffffffffffffffffffffffffffff169060200190929190803590602001909291908035906020019092919080359060200190640100000000811115610bc257600080fd5b820183602082011115610bd457600080fd5b80359060200191846001830284011164010000000083111715610bf657600080fd5b91908080601f016020809104026020016040519081016040528093929190818152602001838380828437600081840152601f19601f820116905080830192505050505050509192919290505050611caf565b005b610c52612024565b6040518082815260200191505060405180910390f35b60008073ffffffffffffffffffffffffffffffffffffffff168373ffffffffffffffffffffffffffffffffffffffff161415610cef576040517f08c379a000000000000000000000000000000000000000000000000000000000815260040180806020018281038252602b815260200180612f41602b913960400191505060405180910390fd5b6001600083815260200190815260200160002060008473ffffffffffffffffffffffffffffffffffffffff1673ffffffffffffffffffffffffffffffffffffffff16815260200190815260200160002054905092915050565b6000806000837bffffffffffffffffffffffffffffffffffffffffffffffffffffffff19167bffffffffffffffffffffffffffffffffffffffffffffffffffffffff1916815260200190815260200160002060009054906101000a900460ff169050919050565b60056020528060005260406000206000915054906101000a900460ff1681565b606060038054600181600116156101000203166002900480601f016020809104026020016040519081016040528092919081815260200182805460018160011615610100020316600290048015610e675780601f10610e3c57610100808354040283529160200191610e67565b820191906000526020600020905b815481529060010190602001808311610e4a57829003601f168201915b50505050509050919050565b8151835114610ecd576040517f08c379a00000000000000000000000000000000000000000000000000000000081526004018080602001828103825260288152602001806130c26028913960400191505060405180910390fd5b600073ffffffffffffffffffffffffffffffffffffffff168473ffffffffffffffffffffffffffffffffffffffff161415610f53576040517f08c379a0000000000000000000000000000000000000000000000000000000008152600401808060200182810382526025815260200180612fc66025913960400191505060405180910390fd5b610f5b612029565b73ffffffffffffffffffffffffffffffffffffffff168573ffffffffffffffffffffffffffffffffffffffff161480610fa15750610fa085610f9b612029565b611c1b565b5b610ff6576040517f08c379a0000000000000000000000000000000000000000000000000000000008152600401808060200182810382526032815260200180612feb6032913960400191505060405180910390fd5b6000611000612029565b9050611010818787878787612031565b60005b84518110156111e157600085828151811061102a57fe5b60200260200101519050600085838151811061104257fe5b602002602001015190506110c9816040518060600160405280602a815260200161301d602a91396001600086815260200190815260200160002060008d73ffffffffffffffffffffffffffffffffffffffff1673ffffffffffffffffffffffffffffffffffffffff168152602001908152602001600020546120399092919063ffffffff16565b6001600084815260200190815260200160002060008b73ffffffffffffffffffffffffffffffffffffffff1673ffffffffffffffffffffffffffffffffffffffff16815260200190815260200160002081905550611180816001600085815260200190815260200160002060008b73ffffffffffffffffffffffffffffffffffffffff1673ffffffffffffffffffffffffffffffffffffffff168152602001908152602001600020546120f990919063ffffffff16565b6001600084815260200190815260200160002060008a73ffffffffffffffffffffffffffffffffffffffff1673ffffffffffffffffffffffffffffffffffffffff168152602001908152602001600020819055505050806001019050611013565b508473ffffffffffffffffffffffffffffffffffffffff168673ffffffffffffffffffffffffffffffffffffffff168273ffffffffffffffffffffffffffffffffffffffff167f4a39dc06d4c0dbc64b70af90fd698a233a518aa5d07e595d983b8c0526c8f7fb8787604051808060200180602001838103835285818151815260200191508051906020019060200280838360005b83811015611291578082015181840152602081019050611276565b50505050905001838103825284818151815260200191508051906020019060200280838360005b838110156112d35780820151818401526020810190506112b8565b5050505090500194505050505060405180910390a46112f6818787878787612181565b505050505050565b60011515600560003373ffffffffffffffffffffffffffffffffffffffff1673ffffffffffffffffffffffffffffffffffffffff16815260200190815260200160002060009054906101000a900460ff161515146113c4576040517f08c379a00000000000000000000000000000000000000000000000000000000081526004018080602001828103825260198152602001807f53656e646572206973206e6f7420617574686f72697a6564210000000000000081525060200191505060405180910390fd5b6113e08282600160405180602001604052806000815250612510565b5050565b606481565b60608151835114611445576040517f08c379a00000000000000000000000000000000000000000000000000000000081526004018080602001828103825260298152602001806130996029913960400191505060405180910390fd5b6060835167ffffffffffffffff8111801561145f57600080fd5b5060405190808252806020026020018201604052801561148e5781602001602082028036833780820191505090505b50905060005b84518110156115d057600073ffffffffffffffffffffffffffffffffffffffff168582815181106114c157fe5b602002602001015173ffffffffffffffffffffffffffffffffffffffff161415611536576040517f08c379a0000000000000000000000000000000000000000000000000000000008152600401808060200182810382526031815260200180612f6c6031913960400191505060405180910390fd5b6001600085838151811061154657fe5b60200260200101518152602001908152602001600020600086838151811061156a57fe5b602002602001015173ffffffffffffffffffffffffffffffffffffffff1673ffffffffffffffffffffffffffffffffffffffff168152602001908152602001600020548282815181106115b957fe5b602002602001018181525050806001019050611494565b508091505092915050565b60066020528060005260406000206000915090505481565b6000600560008373ffffffffffffffffffffffffffffffffffffffff1673ffffffffffffffffffffffffffffffffffffffff16815260200190815260200160002060009054906101000a900460ff169050919050565b600460009054906101000a900473ffffffffffffffffffffffffffffffffffffffff1673ffffffffffffffffffffffffffffffffffffffff163373ffffffffffffffffffffffffffffffffffffffff161461170c576040517f08c379a00000000000000000000000000000000000000000000000000000000081526004018080602001828103825260198152602001807f53656e646572206973206e6f7420617574686f72697a6564210000000000000081525060200191505060405180910390fd5b6001600560008373ffffffffffffffffffffffffffffffffffffffff1673ffffffffffffffffffffffffffffffffffffffff16815260200190815260200160002060006101000a81548160ff02191690831515021790555050565b60011515600560003373ffffffffffffffffffffffffffffffffffffffff1673ffffffffffffffffffffffffffffffffffffffff16815260200190815260200160002060009054906101000a900460ff1615151461182d576040517f08c379a00000000000000000000000000000000000000000000000000000000081526004018080602001828103825260198152602001807f53656e646572206973206e6f7420617574686f72697a6564210000000000000081525060200191505060405180910390fd5b61184883838360405180602001604052806000815250612510565b505050565b603281565b6103e881565b8173ffffffffffffffffffffffffffffffffffffffff16611877612029565b73ffffffffffffffffffffffffffffffffffffffff1614156118e4576040517f08c379a00000000000000000000000000000000000000000000000000000000081526004018080602001828103825260298152602001806130706029913960400191505060405180910390fd5b80600260006118f1612029565b73ffffffffffffffffffffffffffffffffffffffff1673ffffffffffffffffffffffffffffffffffffffff16815260200190815260200160002060008473ffffffffffffffffffffffffffffffffffffffff1673ffffffffffffffffffffffffffffffffffffffff16815260200190815260200160002060006101000a81548160ff0219169083151502179055508173ffffffffffffffffffffffffffffffffffffffff1661199e612029565b73ffffffffffffffffffffffffffffffffffffffff167f17307eab39ab6107e8899845ad3d59bd9653f200f220920489ca2b5937696c318360405180821515815260200191505060405180910390a35050565b600060066000838152602001908152602001600020549050919050565b60fa81565b60011515600560003373ffffffffffffffffffffffffffffffffffffffff1673ffffffffffffffffffffffffffffffffffffffff16815260200190815260200160002060009054906101000a900460ff16151514611ad9576040517f08c379a00000000000000000000000000000000000000000000000000000000081526004018080602001828103825260198152602001807f53656e646572206973206e6f7420617574686f72697a6564210000000000000081525060200191505060405180910390fd5b60005b8251811015611b6a5760011515611b05848381518110611af857fe5b6020026020010151612713565b151514611b5d576040517f08c379a00000000000000000000000000000000000000000000000000000000081526004018080602001828103825260298152602001806130476029913960400191505060405180910390fd5b8080600101915050611adc565b50611b868383836040518060200160405280600081525061275e565b60005b8151811015611c1557611bde828281518110611ba157fe5b602002602001015160066000868581518110611bb957fe5b60200260200101518152602001908152602001600020546120f990919063ffffffff16565b60066000858481518110611bee57fe5b60200260200101518152602001908152602001600020819055508080600101915050611b89565b50505050565b6000600260008473ffffffffffffffffffffffffffffffffffffffff1673ffffffffffffffffffffffffffffffffffffffff16815260200190815260200160002060008373ffffffffffffffffffffffffffffffffffffffff1673ffffffffffffffffffffffffffffffffffffffff16815260200190815260200160002060009054906101000a900460ff16905092915050565b600073ffffffffffffffffffffffffffffffffffffffff168473ffffffffffffffffffffffffffffffffffffffff161415611d35576040517f08c379a0000000000000000000000000000000000000000000000000000000008152600401808060200182810382526025815260200180612fc66025913960400191505060405180910390fd5b611d3d612029565b73ffffffffffffffffffffffffffffffffffffffff168573ffffffffffffffffffffffffffffffffffffffff161480611d835750611d8285611d7d612029565b611c1b565b5b611dd8576040517f08c379a0000000000000000000000000000000000000000000000000000000008152600401808060200182810382526029815260200180612f9d6029913960400191505060405180910390fd5b6000611de2612029565b9050611e02818787611df388612a80565b611dfc88612a80565b87612031565b611e7f836040518060600160405280602a815260200161301d602a91396001600088815260200190815260200160002060008a73ffffffffffffffffffffffffffffffffffffffff1673ffffffffffffffffffffffffffffffffffffffff168152602001908152602001600020546120399092919063ffffffff16565b6001600086815260200190815260200160002060008873ffffffffffffffffffffffffffffffffffffffff1673ffffffffffffffffffffffffffffffffffffffff16815260200190815260200160002081905550611f36836001600087815260200190815260200160002060008873ffffffffffffffffffffffffffffffffffffffff1673ffffffffffffffffffffffffffffffffffffffff168152602001908152602001600020546120f990919063ffffffff16565b6001600086815260200190815260200160002060008773ffffffffffffffffffffffffffffffffffffffff1673ffffffffffffffffffffffffffffffffffffffff168152602001908152602001600020819055508473ffffffffffffffffffffffffffffffffffffffff168673ffffffffffffffffffffffffffffffffffffffff168273ffffffffffffffffffffffffffffffffffffffff167fc3d58168c5ae7397731d063d5bbf3d657854427343f4c083240f7aacaa2d0f628787604051808381526020018281526020019250505060405180910390a461201c818787878787612af0565b505050505050565b601981565b600033905090565b505050505050565b60008383111582906120e6576040517f08c379a00000000000000000000000000000000000000000000000000000000081526004018080602001828103825283818151815260200191508051906020019080838360005b838110156120ab578082015181840152602081019050612090565b50505050905090810190601f1680156120d85780820380516001836020036101000a031916815260200191505b509250505060405180910390fd5b5060008385039050809150509392505050565b600080828401905083811015612177576040517f08c379a000000000000000000000000000000000000000000000000000000000815260040180806020018281038252601b8152602001807f536166654d6174683a206164646974696f6e206f766572666c6f77000000000081525060200191505060405180910390fd5b8091505092915050565b6121a08473ffffffffffffffffffffffffffffffffffffffff16612dfd565b15612508578373ffffffffffffffffffffffffffffffffffffffff1663bc197c8187878686866040518663ffffffff1660e01b8152600401808673ffffffffffffffffffffffffffffffffffffffff1681526020018573ffffffffffffffffffffffffffffffffffffffff168152602001806020018060200180602001848103845287818151815260200191508051906020019060200280838360005b8381101561225857808201518184015260208101905061223d565b50505050905001848103835286818151815260200191508051906020019060200280838360005b8381101561229a57808201518184015260208101905061227f565b50505050905001848103825285818151815260200191508051906020019080838360005b838110156122d95780820151818401526020810190506122be565b50505050905090810190601f1680156123065780820380516001836020036101000a031916815260200191505b5098505050505050505050602060405180830381600087803b15801561232b57600080fd5b505af192505050801561235f57506040513d602081101561234b57600080fd5b810190808051906020019092919050505060015b6124695761236b612e2e565b806123765750612418565b806040517f08c379a00000000000000000000000000000000000000000000000000000000081526004018080602001828103825283818151815260200191508051906020019080838360005b838110156123dd5780820151818401526020810190506123c2565b50505050905090810190601f16801561240a5780820380516001836020036101000a031916815260200191505b509250505060405180910390fd5b6040517f08c379a0000000000000000000000000000000000000000000000000000000008152600401808060200182810382526034815260200180612ee56034913960400191505060405180910390fd5b63bc197c8160e01b7bffffffffffffffffffffffffffffffffffffffffffffffffffffffff1916817bffffffffffffffffffffffffffffffffffffffffffffffffffffffff191614612506576040517f08c379a0000000000000000000000000000000000000000000000000000000008152600401808060200182810382526028815260200180612f196028913960400191505060405180910390fd5b505b505050505050565b600073ffffffffffffffffffffffffffffffffffffffff168473ffffffffffffffffffffffffffffffffffffffff161415612596576040517f08c379a00000000000000000000000000000000000000000000000000000000081526004018080602001828103825260218152602001806130ea6021913960400191505060405180910390fd5b60006125a0612029565b90506125c1816000876125b288612a80565b6125bb88612a80565b87612031565b612624836001600087815260200190815260200160002060008873ffffffffffffffffffffffffffffffffffffffff1673ffffffffffffffffffffffffffffffffffffffff168152602001908152602001600020546120f990919063ffffffff16565b6001600086815260200190815260200160002060008773ffffffffffffffffffffffffffffffffffffffff1673ffffffffffffffffffffffffffffffffffffffff168152602001908152602001600020819055508473ffffffffffffffffffffffffffffffffffffffff16600073ffffffffffffffffffffffffffffffffffffffff168273ffffffffffffffffffffffffffffffffffffffff167fc3d58168c5ae7397731d063d5bbf3d657854427343f4c083240f7aacaa2d0f628787604051808381526020018281526020019250505060405180910390a461270c81600087878787612af0565b5050505050565b600060198214806127245750603282145b8061272f5750606482145b8061273a575060fa82145b8061274657506103e882145b156127545760019050612759565b600090505b919050565b600073ffffffffffffffffffffffffffffffffffffffff168473ffffffffffffffffffffffffffffffffffffffff1614156127e4576040517f08c379a00000000000000000000000000000000000000000000000000000000081526004018080602001828103825260218152602001806130ea6021913960400191505060405180910390fd5b815183511461283e576040517f08c379a00000000000000000000000000000000000000000000000000000000081526004018080602001828103825260288152602001806130c26028913960400191505060405180910390fd5b6000612848612029565b905061285981600087878787612031565b60005b8451811015612962576128ee6001600087848151811061287857fe5b6020026020010151815260200190815260200160002060008873ffffffffffffffffffffffffffffffffffffffff1673ffffffffffffffffffffffffffffffffffffffff168152602001908152602001600020548583815181106128d857fe5b60200260200101516120f990919063ffffffff16565b600160008784815181106128fe57fe5b6020026020010151815260200190815260200160002060008873ffffffffffffffffffffffffffffffffffffffff1673ffffffffffffffffffffffffffffffffffffffff16815260200190815260200160002081905550808060010191505061285c565b508473ffffffffffffffffffffffffffffffffffffffff16600073ffffffffffffffffffffffffffffffffffffffff168273ffffffffffffffffffffffffffffffffffffffff167f4a39dc06d4c0dbc64b70af90fd698a233a518aa5d07e595d983b8c0526c8f7fb8787604051808060200180602001838103835285818151815260200191508051906020019060200280838360005b83811015612a135780820151818401526020810190506129f8565b50505050905001838103825284818151815260200191508051906020019060200280838360005b83811015612a55578082015181840152602081019050612a3a565b5050505090500194505050505060405180910390a4612a7981600087878787612181565b5050505050565b606080600167ffffffffffffffff81118015612a9b57600080fd5b50604051908082528060200260200182016040528015612aca5781602001602082028036833780820191505090505b5090508281600081518110612adb57fe5b60200260200101818152505080915050919050565b612b0f8473ffffffffffffffffffffffffffffffffffffffff16612dfd565b15612df5578373ffffffffffffffffffffffffffffffffffffffff1663f23a6e6187878686866040518663ffffffff1660e01b8152600401808673ffffffffffffffffffffffffffffffffffffffff1681526020018573ffffffffffffffffffffffffffffffffffffffff16815260200184815260200183815260200180602001828103825283818151815260200191508051906020019080838360005b83811015612bc8578082015181840152602081019050612bad565b50505050905090810190601f168015612bf55780820380516001836020036101000a031916815260200191505b509650505050505050602060405180830381600087803b158015612c1857600080fd5b505af1925050508015612c4c57506040513d6020811015612c3857600080fd5b810190808051906020019092919050505060015b612d5657612c58612e2e565b80612c635750612d05565b806040517f08c379a00000000000000000000000000000000000000000000000000000000081526004018080602001828103825283818151815260200191508051906020019080838360005b83811015612cca578082015181840152602081019050612caf565b50505050905090810190601f168015612cf75780820380516001836020036101000a031916815260200191505b509250505060405180910390fd5b6040517f08c379a0000000000000000000000000000000000000000000000000000000008152600401808060200182810382526034815260200180612ee56034913960400191505060405180910390fd5b63f23a6e6160e01b7bffffffffffffffffffffffffffffffffffffffffffffffffffffffff1916817bffffffffffffffffffffffffffffffffffffffffffffffffffffffff191614612df3576040517f08c379a0000000000000000000000000000000000000000000000000000000008152600401808060200182810382526028815260200180612f196028913960400191505060405180910390fd5b505b505050505050565b600080823b905060008111915050919050565b6000601f19601f8301169050919050565b60008160e01c9050919050565b600060443d1015612e3e57612ee1565b60046000803e612e4f600051612e21565b6308c379a08114612e605750612ee1565b60405160043d036004823e80513d602482011167ffffffffffffffff82111715612e8c57505050612ee1565b808201805167ffffffffffffffff811115612eab575050505050612ee1565b8060208301013d8501811115612ec657505050505050612ee1565b612ecf82612e10565b60208401016040528296505050505050505b9056fe455243313135353a207472616e7366657220746f206e6f6e2045524331313535526563656976657220696d706c656d656e746572455243313135353a204552433131353552656365697665722072656a656374656420746f6b656e73455243313135353a2062616c616e636520717565727920666f7220746865207a65726f2061646472657373455243313135353a2062617463682062616c616e636520717565727920666f7220746865207a65726f2061646472657373455243313135353a2063616c6c6572206973206e6f74206f776e6572206e6f7220617070726f766564455243313135353a207472616e7366657220746f20746865207a65726f2061646472657373455243313135353a207472616e736665722063616c6c6572206973206e6f74206f776e6572206e6f7220617070726f766564455243313135353a20696e73756666696369656e742062616c616e636520666f72207472616e736665724d696e657243617264732e6d696e7442617463683a20496e76616c696420546f6b656e20547970652e455243313135353a2073657474696e6720617070726f76616c2073746174757320666f722073656c66455243313135353a206163636f756e747320616e6420696473206c656e677468206d69736d61746368455243313135353a2069647320616e6420616d6f756e7473206c656e677468206d69736d61746368455243313135353a206d696e7420746f20746865207a65726f2061646472657373a264697066735822122014227e32ac025a979ac64d68476ebd566c8bd0a3bdb39d3f2c2dd6aee7c5700264736f6c634300060c0033",
  "compiler": {
    "name": "solc",
    "version": "0.6.12+commit.27d51765.Emscripten.clang",
    "optimizer": {
      "enabled": false,
      "runs": 200
    },
    "evmVersion": "petersburg"
  }
}