{
  "fileName": "MinerCards.sol",
  "contractName": "MinerCards",
  "source": "// SPDX-License-Identifier: MIT\n\npragma solidity ^0.6.0;\n\nimport \"@openzeppelin/contracts/token/ERC1155/ERC1155.sol\";\nimport \"@openzeppelin/contracts/math/SafeMath.sol\";\n\ncontract MinerCards is ERC1155 {\n    using SafeMath for uint256;\n\n    address private owner;\n\n    uint256 public constant MINERCARD_1 = 25;\n    uint256 public constant MINERCARD_2 = 50;\n    uint256 public constant MINERCARD_3 = 100;\n    uint256 public constant MINERCARD_4 = 250;\n    uint256 public constant MINERCARD_5 = 1000;\n\n    address private _admin;\n\n    // Mapping from token ID to total supply\n    mapping(uint256 => uint256) public _totalSupply;\n\n    mapping(uint256 => Data) public _data;\n\n    mapping(address => uint256[]) private account;\n\n    struct Data {\n        uint256 amountLocked;\n        uint256 duration;\n        uint256 releaseDate;\n        uint256 idErc1155;\n        bool active;\n    }\n\n    /**\n     * @dev Require msg.sender to be an admin\n     */\n    modifier onlyAdmin(address _address) {\n        require(_admin == _address, \"Sender is not authorized!\");\n        _;\n    }\n\n    /**\n     * @dev Require msg.sender to be an admin\n     */\n    modifier onlyOwner() {\n        require(msg.sender == owner, \"Sender is not authorized!\");\n        _;\n    }\n\n    constructor() public ERC1155(\"\") {\n        owner = msg.sender;\n    }\n\n    /**\n     * @dev Creates an ERC-721 NFT of token type `id`, and assigns them to `_account`.\n     * Emits a {TransferSingle} event.\n     *\n     * - `_account`         receiver account, cannot be the zero address.\n     * - `_id`              token ID.\n     * - `_amountLocked`    amount to be locked.\n     * -   _duration        duration to lock funds\n     * -  _releaseDate      date funds are eligible to be witjdrawn\n     * -  _idErc1155        ID of ERC-1155 NFT\n     */\n    function mint(\n        address _account,\n        uint256 _id,\n        uint256 _amountLocked,\n        uint256 _duration,\n        uint256 _releaseDate,\n        uint256 _idErc1155\n    ) external onlyAdmin(msg.sender) {\n        require(\n            validateTokenType(_id) == true,\n            \"MinerCards.mintBatch: Invalid Token Type.\"\n        );\n        _mint(_account, _id, 1, \"\");\n        Data memory data = Data(\n            _amountLocked,\n            _duration,\n            _releaseDate,\n            _idErc1155,\n            true\n        );\n        _data[_id] = data;\n        account[_account].push(_id);\n    }\n\n    /** @dev same as mint, but it mints multiple NFTs of same ID to `_account`\n     *\n     * - `_account`      cannot be the zero address.\n     * - `_id`          must be between 0 and 4.\n     * - `_quantity`    quantity of tokens to mint.\n     */\n    function mintMultiple(\n        address _account,\n        uint256 _id,\n        uint256 _quantity\n    ) external onlyOwner {\n        require(\n            validateTokenType(_id) == true,\n            \"MinerCards.mintBatch: Invalid Token Type.\"\n        );\n        _mint(_account, _id, _quantity, \"\");\n    }\n\n    function invalidate(uint256 _id) external onlyAdmin(msg.sender) {\n        _data[_id].active = false;\n    }\n\n    function getAmountLocked(uint256 _id) external view returns (uint256) {\n        return _data[_id].amountLocked;\n    }\n\n    function getReleaseDate(uint256 _id) external view returns (uint256) {\n        return _data[_id].releaseDate;\n    }\n\n    function isActive(uint256 _id) external view returns (bool) {\n        return _data[_id].active;\n    }\n\n    function idERC155(uint256 _id) external view returns (uint256) {\n        return _data[_id].idErc1155;\n    }\n\n    function admin() external view returns (address) {\n        return _admin;\n    }\n\n    function addAdmin(address _address) external onlyOwner {\n        _admin = _address;\n    }\n\n    function revokeAdmin() external onlyOwner {\n        _admin = address(0);\n    }\n\n    function getAccount(address _account)\n        external\n        view\n        returns (uint256[] memory)\n    {\n        return account[_account];\n    }\n\n    /**\n     * @dev mints a batch ot tokens of different types and assigns them to `_account`\n     *\n     * Requirements:\n     *\n     * - `ids` and `amounts` must have the same length.\n     * - If `_account` refers to a smart contract, it must implement {IERC1155Receiver-onERC1155BatchReceived} and return the\n     * acceptance magic value.\n     */\n    function mintBatch(\n        address _account,\n        uint256[] calldata _ids,\n        uint256[] calldata _amounts\n    ) external onlyOwner {\n        for (uint256 i = 0; i < _ids.length; i++) {\n            require(\n                validateTokenType(_ids[i]) == true,\n                \"MinerCards.mintBatch: Invalid Token Type.\"\n            );\n        }\n        _mintBatch(_account, _ids, _amounts, \"\");\n\n        for (uint256 i = 0; i < _amounts.length; i++) {\n            _totalSupply[_ids[i]] = _totalSupply[_ids[i]].add(_amounts[i]);\n        }\n    }\n\n    // checks if `_id` is a valid token type\n    function validateTokenType(uint256 _id) internal pure returns (bool) {\n        if (\n            _id == MINERCARD_1 ||\n            _id == MINERCARD_2 ||\n            _id == MINERCARD_3 ||\n            _id == MINERCARD_4 ||\n            _id == MINERCARD_5\n        ) {\n            return true;\n        }\n\n        return false;\n    }\n\n    // get the total supply for a token type `_id`\n    function totalSupply(uint256 _id) external view returns (uint256) {\n        return _totalSupply[_id];\n    }\n}\n",
  "sourcePath": "contracts/MinerCards.sol",
  "abi": [
    {
      "inputs": [],
      "stateMutability": "nonpayable",
      "type": "constructor"
    },
    {
      "anonymous": false,
      "inputs": [
        {
          "indexed": true,
          "internalType": "address",
          "name": "account",
          "type": "address"
        },
        {
          "indexed": true,
          "internalType": "address",
          "name": "operator",
          "type": "address"
        },
        {
          "indexed": false,
          "internalType": "bool",
          "name": "approved",
          "type": "bool"
        }
      ],
      "name": "ApprovalForAll",
      "type": "event"
    },
    {
      "anonymous": false,
      "inputs": [
        {
          "indexed": true,
          "internalType": "address",
          "name": "operator",
          "type": "address"
        },
        {
          "indexed": true,
          "internalType": "address",
          "name": "from",
          "type": "address"
        },
        {
          "indexed": true,
          "internalType": "address",
          "name": "to",
          "type": "address"
        },
        {
          "indexed": false,
          "internalType": "uint256[]",
          "name": "ids",
          "type": "uint256[]"
        },
        {
          "indexed": false,
          "internalType": "uint256[]",
          "name": "values",
          "type": "uint256[]"
        }
      ],
      "name": "TransferBatch",
      "type": "event"
    },
    {
      "anonymous": false,
      "inputs": [
        {
          "indexed": true,
          "internalType": "address",
          "name": "operator",
          "type": "address"
        },
        {
          "indexed": true,
          "internalType": "address",
          "name": "from",
          "type": "address"
        },
        {
          "indexed": true,
          "internalType": "address",
          "name": "to",
          "type": "address"
        },
        {
          "indexed": false,
          "internalType": "uint256",
          "name": "id",
          "type": "uint256"
        },
        {
          "indexed": false,
          "internalType": "uint256",
          "name": "value",
          "type": "uint256"
        }
      ],
      "name": "TransferSingle",
      "type": "event"
    },
    {
      "anonymous": false,
      "inputs": [
        {
          "indexed": false,
          "internalType": "string",
          "name": "value",
          "type": "string"
        },
        {
          "indexed": true,
          "internalType": "uint256",
          "name": "id",
          "type": "uint256"
        }
      ],
      "name": "URI",
      "type": "event"
    },
    {
      "inputs": [],
      "name": "MINERCARD_1",
      "outputs": [
        {
          "internalType": "uint256",
          "name": "",
          "type": "uint256"
        }
      ],
      "stateMutability": "view",
      "type": "function"
    },
    {
      "inputs": [],
      "name": "MINERCARD_2",
      "outputs": [
        {
          "internalType": "uint256",
          "name": "",
          "type": "uint256"
        }
      ],
      "stateMutability": "view",
      "type": "function"
    },
    {
      "inputs": [],
      "name": "MINERCARD_3",
      "outputs": [
        {
          "internalType": "uint256",
          "name": "",
          "type": "uint256"
        }
      ],
      "stateMutability": "view",
      "type": "function"
    },
    {
      "inputs": [],
      "name": "MINERCARD_4",
      "outputs": [
        {
          "internalType": "uint256",
          "name": "",
          "type": "uint256"
        }
      ],
      "stateMutability": "view",
      "type": "function"
    },
    {
      "inputs": [],
      "name": "MINERCARD_5",
      "outputs": [
        {
          "internalType": "uint256",
          "name": "",
          "type": "uint256"
        }
      ],
      "stateMutability": "view",
      "type": "function"
    },
    {
      "inputs": [
        {
          "internalType": "uint256",
          "name": "",
          "type": "uint256"
        }
      ],
      "name": "_data",
      "outputs": [
        {
          "internalType": "uint256",
          "name": "amountLocked",
          "type": "uint256"
        },
        {
          "internalType": "uint256",
          "name": "duration",
          "type": "uint256"
        },
        {
          "internalType": "uint256",
          "name": "releaseDate",
          "type": "uint256"
        },
        {
          "internalType": "uint256",
          "name": "idErc1155",
          "type": "uint256"
        },
        {
          "internalType": "bool",
          "name": "active",
          "type": "bool"
        }
      ],
      "stateMutability": "view",
      "type": "function"
    },
    {
      "inputs": [
        {
          "internalType": "uint256",
          "name": "",
          "type": "uint256"
        }
      ],
      "name": "_totalSupply",
      "outputs": [
        {
          "internalType": "uint256",
          "name": "",
          "type": "uint256"
        }
      ],
      "stateMutability": "view",
      "type": "function"
    },
    {
      "inputs": [
        {
          "internalType": "address",
          "name": "_address",
          "type": "address"
        }
      ],
      "name": "addAdmin",
      "outputs": [],
      "stateMutability": "nonpayable",
      "type": "function"
    },
    {
      "inputs": [],
      "name": "admin",
      "outputs": [
        {
          "internalType": "address",
          "name": "",
          "type": "address"
        }
      ],
      "stateMutability": "view",
      "type": "function"
    },
    {
      "inputs": [
        {
          "internalType": "address",
          "name": "account",
          "type": "address"
        },
        {
          "internalType": "uint256",
          "name": "id",
          "type": "uint256"
        }
      ],
      "name": "balanceOf",
      "outputs": [
        {
          "internalType": "uint256",
          "name": "",
          "type": "uint256"
        }
      ],
      "stateMutability": "view",
      "type": "function"
    },
    {
      "inputs": [
        {
          "internalType": "address[]",
          "name": "accounts",
          "type": "address[]"
        },
        {
          "internalType": "uint256[]",
          "name": "ids",
          "type": "uint256[]"
        }
      ],
      "name": "balanceOfBatch",
      "outputs": [
        {
          "internalType": "uint256[]",
          "name": "",
          "type": "uint256[]"
        }
      ],
      "stateMutability": "view",
      "type": "function"
    },
    {
      "inputs": [
        {
          "internalType": "address",
          "name": "_account",
          "type": "address"
        }
      ],
      "name": "getAccount",
      "outputs": [
        {
          "internalType": "uint256[]",
          "name": "",
          "type": "uint256[]"
        }
      ],
      "stateMutability": "view",
      "type": "function"
    },
    {
      "inputs": [
        {
          "internalType": "uint256",
          "name": "_id",
          "type": "uint256"
        }
      ],
      "name": "getAmountLocked",
      "outputs": [
        {
          "internalType": "uint256",
          "name": "",
          "type": "uint256"
        }
      ],
      "stateMutability": "view",
      "type": "function"
    },
    {
      "inputs": [
        {
          "internalType": "uint256",
          "name": "_id",
          "type": "uint256"
        }
      ],
      "name": "getReleaseDate",
      "outputs": [
        {
          "internalType": "uint256",
          "name": "",
          "type": "uint256"
        }
      ],
      "stateMutability": "view",
      "type": "function"
    },
    {
      "inputs": [
        {
          "internalType": "uint256",
          "name": "_id",
          "type": "uint256"
        }
      ],
      "name": "idERC155",
      "outputs": [
        {
          "internalType": "uint256",
          "name": "",
          "type": "uint256"
        }
      ],
      "stateMutability": "view",
      "type": "function"
    },
    {
      "inputs": [
        {
          "internalType": "uint256",
          "name": "_id",
          "type": "uint256"
        }
      ],
      "name": "invalidate",
      "outputs": [],
      "stateMutability": "nonpayable",
      "type": "function"
    },
    {
      "inputs": [
        {
          "internalType": "uint256",
          "name": "_id",
          "type": "uint256"
        }
      ],
      "name": "isActive",
      "outputs": [
        {
          "internalType": "bool",
          "name": "",
          "type": "bool"
        }
      ],
      "stateMutability": "view",
      "type": "function"
    },
    {
      "inputs": [
        {
          "internalType": "address",
          "name": "account",
          "type": "address"
        },
        {
          "internalType": "address",
          "name": "operator",
          "type": "address"
        }
      ],
      "name": "isApprovedForAll",
      "outputs": [
        {
          "internalType": "bool",
          "name": "",
          "type": "bool"
        }
      ],
      "stateMutability": "view",
      "type": "function"
    },
    {
      "inputs": [
        {
          "internalType": "address",
          "name": "_account",
          "type": "address"
        },
        {
          "internalType": "uint256",
          "name": "_id",
          "type": "uint256"
        },
        {
          "internalType": "uint256",
          "name": "_amountLocked",
          "type": "uint256"
        },
        {
          "internalType": "uint256",
          "name": "_duration",
          "type": "uint256"
        },
        {
          "internalType": "uint256",
          "name": "_releaseDate",
          "type": "uint256"
        },
        {
          "internalType": "uint256",
          "name": "_idErc1155",
          "type": "uint256"
        }
      ],
      "name": "mint",
      "outputs": [],
      "stateMutability": "nonpayable",
      "type": "function"
    },
    {
      "inputs": [
        {
          "internalType": "address",
          "name": "_account",
          "type": "address"
        },
        {
          "internalType": "uint256[]",
          "name": "_ids",
          "type": "uint256[]"
        },
        {
          "internalType": "uint256[]",
          "name": "_amounts",
          "type": "uint256[]"
        }
      ],
      "name": "mintBatch",
      "outputs": [],
      "stateMutability": "nonpayable",
      "type": "function"
    },
    {
      "inputs": [
        {
          "internalType": "address",
          "name": "_account",
          "type": "address"
        },
        {
          "internalType": "uint256",
          "name": "_id",
          "type": "uint256"
        },
        {
          "internalType": "uint256",
          "name": "_quantity",
          "type": "uint256"
        }
      ],
      "name": "mintMultiple",
      "outputs": [],
      "stateMutability": "nonpayable",
      "type": "function"
    },
    {
      "inputs": [],
      "name": "revokeAdmin",
      "outputs": [],
      "stateMutability": "nonpayable",
      "type": "function"
    },
    {
      "inputs": [
        {
          "internalType": "address",
          "name": "from",
          "type": "address"
        },
        {
          "internalType": "address",
          "name": "to",
          "type": "address"
        },
        {
          "internalType": "uint256[]",
          "name": "ids",
          "type": "uint256[]"
        },
        {
          "internalType": "uint256[]",
          "name": "amounts",
          "type": "uint256[]"
        },
        {
          "internalType": "bytes",
          "name": "data",
          "type": "bytes"
        }
      ],
      "name": "safeBatchTransferFrom",
      "outputs": [],
      "stateMutability": "nonpayable",
      "type": "function"
    },
    {
      "inputs": [
        {
          "internalType": "address",
          "name": "from",
          "type": "address"
        },
        {
          "internalType": "address",
          "name": "to",
          "type": "address"
        },
        {
          "internalType": "uint256",
          "name": "id",
          "type": "uint256"
        },
        {
          "internalType": "uint256",
          "name": "amount",
          "type": "uint256"
        },
        {
          "internalType": "bytes",
          "name": "data",
          "type": "bytes"
        }
      ],
      "name": "safeTransferFrom",
      "outputs": [],
      "stateMutability": "nonpayable",
      "type": "function"
    },
    {
      "inputs": [
        {
          "internalType": "address",
          "name": "operator",
          "type": "address"
        },
        {
          "internalType": "bool",
          "name": "approved",
          "type": "bool"
        }
      ],
      "name": "setApprovalForAll",
      "outputs": [],
      "stateMutability": "nonpayable",
      "type": "function"
    },
    {
      "inputs": [
        {
          "internalType": "bytes4",
          "name": "interfaceId",
          "type": "bytes4"
        }
      ],
      "name": "supportsInterface",
      "outputs": [
        {
          "internalType": "bool",
          "name": "",
          "type": "bool"
        }
      ],
      "stateMutability": "view",
      "type": "function"
    },
    {
      "inputs": [
        {
          "internalType": "uint256",
          "name": "_id",
          "type": "uint256"
        }
      ],
      "name": "totalSupply",
      "outputs": [
        {
          "internalType": "uint256",
          "name": "",
          "type": "uint256"
        }
      ],
      "stateMutability": "view",
      "type": "function"
    },
    {
      "inputs": [
        {
          "internalType": "uint256",
          "name": "",
          "type": "uint256"
        }
      ],
      "name": "uri",
      "outputs": [
        {
          "internalType": "string",
          "name": "",
          "type": "string"
        }
      ],
      "stateMutability": "view",
      "type": "function"
    }
  ],
  "bytecode": "0x60806040523480156200001157600080fd5b50604051806020016040528060008152506200003a6301ffc9a760e01b620000c360201b60201c565b6200004b81620001cc60201b60201c565b6200006363d9b67a2660e01b620000c360201b60201c565b6200007b630e89341c60e01b620000c360201b60201c565b5033600460006101000a81548173ffffffffffffffffffffffffffffffffffffffff021916908373ffffffffffffffffffffffffffffffffffffffff1602179055506200028e565b63ffffffff60e01b817bffffffffffffffffffffffffffffffffffffffffffffffffffffffff1916141562000160576040517f08c379a000000000000000000000000000000000000000000000000000000000815260040180806020018281038252601c8152602001807f4552433136353a20696e76616c696420696e746572666163652069640000000081525060200191505060405180910390fd5b6001600080837bffffffffffffffffffffffffffffffffffffffffffffffffffffffff19167bffffffffffffffffffffffffffffffffffffffffffffffffffffffff1916815260200190815260200160002060006101000a81548160ff02191690831515021790555050565b8060039080519060200190620001e4929190620001e8565b5050565b828054600181600116156101000203166002900490600052602060002090601f016020900481019282601f106200022b57805160ff19168380011785556200025c565b828001600101855582156200025c579182015b828111156200025b5782518255916020019190600101906200023e565b5b5090506200026b91906200026f565b5090565b5b808211156200028a57600081600090555060010162000270565b5090565b6138aa806200029e6000396000f3fe608060405234801561001057600080fd5b50600436106101c35760003560e01c80638b394ad4116100f9578063d81d0a1511610097578063f242432a11610071578063f242432a14610c60578063f851a44014610d6f578063fbcbc0f114610da3578063fee45c7e14610e3c576101c3565b8063d81d0a1514610a82578063dfc8fff614610b70578063e985e9c514610be6576101c3565b8063a1849e60116100d3578063a1849e60146109b4578063a22cb465146109d2578063bd85b03914610a22578063ced9ae4014610a64576101c3565b80638b394ad4146108fc578063922fa552146109545780639268951914610972576101c3565b806338a641ac116101665780634e1273f4116101405780634e1273f4146106915780635977e82a14610832578063704802751461087457806382afd23b146108b8576101c3565b806338a641ac146105ef57806345d5ae5a1461063157806349f1147d14610673576101c3565b80630d6aef04116101a25780630d6aef04146102ed5780630e89341c146102f75780631ea1afdb1461039e5780632eb2c2d6146103cc576101c3565b8062fdd58e146101c857806301ffc9a71461022a57806303a7f8251461028d575b600080fd5b610214600480360360408110156101de57600080fd5b81019080803573ffffffffffffffffffffffffffffffffffffffff16906020019092919080359060200190929190505050610e5a565b6040518082815260200191505060405180910390f35b6102756004803603602081101561024057600080fd5b8101908080357bffffffffffffffffffffffffffffffffffffffffffffffffffffffff19169060200190929190505050610f3a565b60405180821515815260200191505060405180910390f35b6102b9600480360360208110156102a357600080fd5b8101908080359060200190929190505050610fa1565b6040518086815260200185815260200184815260200183815260200182151581526020019550505050505060405180910390f35b6102f5610fe4565b005b6103236004803603602081101561030d57600080fd5b81019080803590602001909291905050506110eb565b6040518080602001828103825283818151815260200191508051906020019080838360005b83811015610363578082015181840152602081019050610348565b50505050905090810190601f1680156103905780820380516001836020036101000a031916815260200191505b509250505060405180910390f35b6103ca600480360360208110156103b457600080fd5b810190808035906020019092919050505061118f565b005b6105ed600480360360a08110156103e257600080fd5b81019080803573ffffffffffffffffffffffffffffffffffffffff169060200190929190803573ffffffffffffffffffffffffffffffffffffffff1690602001909291908035906020019064010000000081111561043f57600080fd5b82018360208201111561045157600080fd5b8035906020019184602083028401116401000000008311171561047357600080fd5b919080806020026020016040519081016040528093929190818152602001838360200280828437600081840152601f19601f820116905080830192505050505050509192919290803590602001906401000000008111156104d357600080fd5b8201836020820111156104e557600080fd5b8035906020019184602083028401116401000000008311171561050757600080fd5b919080806020026020016040519081016040528093929190818152602001838360200280828437600081840152601f19601f8201169050808301925050505050505091929192908035906020019064010000000081111561056757600080fd5b82018360208201111561057957600080fd5b8035906020019184600183028401116401000000008311171561059b57600080fd5b91908080601f016020809104026020016040519081016040528093929190818152602001838380828437600081840152601f19601f820116905080830192505050505050509192919290505050611286565b005b61061b6004803603602081101561060557600080fd5b8101908080359060200190929190505050611711565b6040518082815260200191505060405180910390f35b61065d6004803603602081101561064757600080fd5b8101908080359060200190929190505050611731565b6040518082815260200191505060405180910390f35b61067b611751565b6040518082815260200191505060405180910390f35b6107db600480360360408110156106a757600080fd5b81019080803590602001906401000000008111156106c457600080fd5b8201836020820111156106d657600080fd5b803590602001918460208302840111640100000000831117156106f857600080fd5b919080806020026020016040519081016040528093929190818152602001838360200280828437600081840152601f19601f8201169050808301925050505050505091929192908035906020019064010000000081111561075857600080fd5b82018360208201111561076a57600080fd5b8035906020019184602083028401116401000000008311171561078c57600080fd5b919080806020026020016040519081016040528093929190818152602001838360200280828437600081840152601f19601f820116905080830192505050505050509192919290505050611756565b6040518080602001828103825283818151815260200191508051906020019060200280838360005b8381101561081e578082015181840152602081019050610803565b505050509050019250505060405180910390f35b61085e6004803603602081101561084857600080fd5b8101908080359060200190929190505050611948565b6040518082815260200191505060405180910390f35b6108b66004803603602081101561088a57600080fd5b81019080803573ffffffffffffffffffffffffffffffffffffffff169060200190929190505050611960565b005b6108e4600480360360208110156108ce57600080fd5b8101908080359060200190929190505050611a67565b60405180821515815260200191505060405180910390f35b6109526004803603606081101561091257600080fd5b81019080803573ffffffffffffffffffffffffffffffffffffffff1690602001909291908035906020019092919080359060200190929190505050611a94565b005b61095c611bdc565b6040518082815260200191505060405180910390f35b61099e6004803603602081101561098857600080fd5b8101908080359060200190929190505050611be1565b6040518082815260200191505060405180910390f35b6109bc611c01565b6040518082815260200191505060405180910390f35b610a20600480360360408110156109e857600080fd5b81019080803573ffffffffffffffffffffffffffffffffffffffff169060200190929190803515159060200190929190505050611c07565b005b610a4e60048036036020811015610a3857600080fd5b8101908080359060200190929190505050611da0565b6040518082815260200191505060405180910390f35b610a6c611dbd565b6040518082815260200191505060405180910390f35b610b6e60048036036060811015610a9857600080fd5b81019080803573ffffffffffffffffffffffffffffffffffffffff16906020019092919080359060200190640100000000811115610ad557600080fd5b820183602082011115610ae757600080fd5b80359060200191846020830284011164010000000083111715610b0957600080fd5b909192939192939080359060200190640100000000811115610b2a57600080fd5b820183602082011115610b3c57600080fd5b80359060200191846020830284011164010000000083111715610b5e57600080fd5b9091929391929390505050611dc2565b005b610be4600480360360c0811015610b8657600080fd5b81019080803573ffffffffffffffffffffffffffffffffffffffff169060200190929190803590602001909291908035906020019092919080359060200190929190803590602001909291908035906020019092919050505061204b565b005b610c4860048036036040811015610bfc57600080fd5b81019080803573ffffffffffffffffffffffffffffffffffffffff169060200190929190803573ffffffffffffffffffffffffffffffffffffffff169060200190929190505050612293565b60405180821515815260200191505060405180910390f35b610d6d600480360360a0811015610c7657600080fd5b81019080803573ffffffffffffffffffffffffffffffffffffffff169060200190929190803573ffffffffffffffffffffffffffffffffffffffff169060200190929190803590602001909291908035906020019092919080359060200190640100000000811115610ce757600080fd5b820183602082011115610cf957600080fd5b80359060200191846001830284011164010000000083111715610d1b57600080fd5b91908080601f016020809104026020016040519081016040528093929190818152602001838380828437600081840152601f19601f820116905080830192505050505050509192919290505050612327565b005b610d7761269c565b604051808273ffffffffffffffffffffffffffffffffffffffff16815260200191505060405180910390f35b610de560048036036020811015610db957600080fd5b81019080803573ffffffffffffffffffffffffffffffffffffffff1690602001909291905050506126c6565b6040518080602001828103825283818151815260200191508051906020019060200280838360005b83811015610e28578082015181840152602081019050610e0d565b505050509050019250505060405180910390f35b610e4461275d565b6040518082815260200191505060405180910390f35b60008073ffffffffffffffffffffffffffffffffffffffff168373ffffffffffffffffffffffffffffffffffffffff161415610ee1576040517f08c379a000000000000000000000000000000000000000000000000000000000815260040180806020018281038252602b8152602001806136ab602b913960400191505060405180910390fd5b6001600083815260200190815260200160002060008473ffffffffffffffffffffffffffffffffffffffff1673ffffffffffffffffffffffffffffffffffffffff16815260200190815260200160002054905092915050565b6000806000837bffffffffffffffffffffffffffffffffffffffffffffffffffffffff19167bffffffffffffffffffffffffffffffffffffffffffffffffffffffff1916815260200190815260200160002060009054906101000a900460ff169050919050565b60076020528060005260406000206000915090508060000154908060010154908060020154908060030154908060040160009054906101000a900460ff16905085565b600460009054906101000a900473ffffffffffffffffffffffffffffffffffffffff1673ffffffffffffffffffffffffffffffffffffffff163373ffffffffffffffffffffffffffffffffffffffff16146110a7576040517f08c379a00000000000000000000000000000000000000000000000000000000081526004018080602001828103825260198152602001807f53656e646572206973206e6f7420617574686f72697a6564210000000000000081525060200191505060405180910390fd5b6000600560006101000a81548173ffffffffffffffffffffffffffffffffffffffff021916908373ffffffffffffffffffffffffffffffffffffffff160217905550565b606060038054600181600116156101000203166002900480601f0160208091040260200160405190810160405280929190818152602001828054600181600116156101000203166002900480156111835780601f1061115857610100808354040283529160200191611183565b820191906000526020600020905b81548152906001019060200180831161116657829003601f168201915b50505050509050919050565b338073ffffffffffffffffffffffffffffffffffffffff16600560009054906101000a900473ffffffffffffffffffffffffffffffffffffffff1673ffffffffffffffffffffffffffffffffffffffff1614611253576040517f08c379a00000000000000000000000000000000000000000000000000000000081526004018080602001828103825260198152602001807f53656e646572206973206e6f7420617574686f72697a6564210000000000000081525060200191505060405180910390fd5b60006007600084815260200190815260200160002060040160006101000a81548160ff0219169083151502179055505050565b81518351146112e0576040517f08c379a000000000000000000000000000000000000000000000000000000000815260040180806020018281038252602881526020018061382c6028913960400191505060405180910390fd5b600073ffffffffffffffffffffffffffffffffffffffff168473ffffffffffffffffffffffffffffffffffffffff161415611366576040517f08c379a00000000000000000000000000000000000000000000000000000000081526004018080602001828103825260258152602001806137306025913960400191505060405180910390fd5b61136e612762565b73ffffffffffffffffffffffffffffffffffffffff168573ffffffffffffffffffffffffffffffffffffffff1614806113b457506113b3856113ae612762565b612293565b5b611409576040517f08c379a00000000000000000000000000000000000000000000000000000000081526004018080602001828103825260328152602001806137556032913960400191505060405180910390fd5b6000611413612762565b905061142381878787878761276a565b60005b84518110156115f457600085828151811061143d57fe5b60200260200101519050600085838151811061145557fe5b602002602001015190506114dc816040518060600160405280602a8152602001613787602a91396001600086815260200190815260200160002060008d73ffffffffffffffffffffffffffffffffffffffff1673ffffffffffffffffffffffffffffffffffffffff168152602001908152602001600020546127729092919063ffffffff16565b6001600084815260200190815260200160002060008b73ffffffffffffffffffffffffffffffffffffffff1673ffffffffffffffffffffffffffffffffffffffff16815260200190815260200160002081905550611593816001600085815260200190815260200160002060008b73ffffffffffffffffffffffffffffffffffffffff1673ffffffffffffffffffffffffffffffffffffffff1681526020019081526020016000205461283290919063ffffffff16565b6001600084815260200190815260200160002060008a73ffffffffffffffffffffffffffffffffffffffff1673ffffffffffffffffffffffffffffffffffffffff168152602001908152602001600020819055505050806001019050611426565b508473ffffffffffffffffffffffffffffffffffffffff168673ffffffffffffffffffffffffffffffffffffffff168273ffffffffffffffffffffffffffffffffffffffff167f4a39dc06d4c0dbc64b70af90fd698a233a518aa5d07e595d983b8c0526c8f7fb8787604051808060200180602001838103835285818151815260200191508051906020019060200280838360005b838110156116a4578082015181840152602081019050611689565b50505050905001838103825284818151815260200191508051906020019060200280838360005b838110156116e65780820151818401526020810190506116cb565b5050505090500194505050505060405180910390a46117098187878787876128ba565b505050505050565b600060076000838152602001908152602001600020600201549050919050565b600060076000838152602001908152602001600020600001549050919050565b606481565b606081518351146117b2576040517f08c379a00000000000000000000000000000000000000000000000000000000081526004018080602001828103825260298152602001806138036029913960400191505060405180910390fd5b6060835167ffffffffffffffff811180156117cc57600080fd5b506040519080825280602002602001820160405280156117fb5781602001602082028036833780820191505090505b50905060005b845181101561193d57600073ffffffffffffffffffffffffffffffffffffffff1685828151811061182e57fe5b602002602001015173ffffffffffffffffffffffffffffffffffffffff1614156118a3576040517f08c379a00000000000000000000000000000000000000000000000000000000081526004018080602001828103825260318152602001806136d66031913960400191505060405180910390fd5b600160008583815181106118b357fe5b6020026020010151815260200190815260200160002060008683815181106118d757fe5b602002602001015173ffffffffffffffffffffffffffffffffffffffff1673ffffffffffffffffffffffffffffffffffffffff1681526020019081526020016000205482828151811061192657fe5b602002602001018181525050806001019050611801565b508091505092915050565b60066020528060005260406000206000915090505481565b600460009054906101000a900473ffffffffffffffffffffffffffffffffffffffff1673ffffffffffffffffffffffffffffffffffffffff163373ffffffffffffffffffffffffffffffffffffffff1614611a23576040517f08c379a00000000000000000000000000000000000000000000000000000000081526004018080602001828103825260198152602001807f53656e646572206973206e6f7420617574686f72697a6564210000000000000081525060200191505060405180910390fd5b80600560006101000a81548173ffffffffffffffffffffffffffffffffffffffff021916908373ffffffffffffffffffffffffffffffffffffffff16021790555050565b60006007600083815260200190815260200160002060040160009054906101000a900460ff169050919050565b600460009054906101000a900473ffffffffffffffffffffffffffffffffffffffff1673ffffffffffffffffffffffffffffffffffffffff163373ffffffffffffffffffffffffffffffffffffffff1614611b57576040517f08c379a00000000000000000000000000000000000000000000000000000000081526004018080602001828103825260198152602001807f53656e646572206973206e6f7420617574686f72697a6564210000000000000081525060200191505060405180910390fd5b60011515611b6483612c49565b151514611bbc576040517f08c379a00000000000000000000000000000000000000000000000000000000081526004018080602001828103825260298152602001806137b16029913960400191505060405180910390fd5b611bd783838360405180602001604052806000815250612c94565b505050565b603281565b600060076000838152602001908152602001600020600301549050919050565b6103e881565b8173ffffffffffffffffffffffffffffffffffffffff16611c26612762565b73ffffffffffffffffffffffffffffffffffffffff161415611c93576040517f08c379a00000000000000000000000000000000000000000000000000000000081526004018080602001828103825260298152602001806137da6029913960400191505060405180910390fd5b8060026000611ca0612762565b73ffffffffffffffffffffffffffffffffffffffff1673ffffffffffffffffffffffffffffffffffffffff16815260200190815260200160002060008473ffffffffffffffffffffffffffffffffffffffff1673ffffffffffffffffffffffffffffffffffffffff16815260200190815260200160002060006101000a81548160ff0219169083151502179055508173ffffffffffffffffffffffffffffffffffffffff16611d4d612762565b73ffffffffffffffffffffffffffffffffffffffff167f17307eab39ab6107e8899845ad3d59bd9653f200f220920489ca2b5937696c318360405180821515815260200191505060405180910390a35050565b600060066000838152602001908152602001600020549050919050565b60fa81565b600460009054906101000a900473ffffffffffffffffffffffffffffffffffffffff1673ffffffffffffffffffffffffffffffffffffffff163373ffffffffffffffffffffffffffffffffffffffff1614611e85576040517f08c379a00000000000000000000000000000000000000000000000000000000081526004018080602001828103825260198152602001807f53656e646572206973206e6f7420617574686f72697a6564210000000000000081525060200191505060405180910390fd5b60005b84849050811015611f175760011515611eb2868684818110611ea657fe5b90506020020135612c49565b151514611f0a576040517f08c379a00000000000000000000000000000000000000000000000000000000081526004018080602001828103825260298152602001806137b16029913960400191505060405180910390fd5b8080600101915050611e88565b50611fb585858580806020026020016040519081016040528093929190818152602001838360200280828437600081840152601f19601f82011690508083019250505050505050848480806020026020016040519081016040528093929190818152602001838360200280828437600081840152601f19601f8201169050808301925050505050505060405180602001604052806000815250612e97565b60005b828290508110156120435761200d838383818110611fd257fe5b9050602002013560066000888886818110611fe957fe5b9050602002013581526020019081526020016000205461283290919063ffffffff16565b6006600087878581811061201d57fe5b905060200201358152602001908152602001600020819055508080600101915050611fb8565b505050505050565b338073ffffffffffffffffffffffffffffffffffffffff16600560009054906101000a900473ffffffffffffffffffffffffffffffffffffffff1673ffffffffffffffffffffffffffffffffffffffff161461210f576040517f08c379a00000000000000000000000000000000000000000000000000000000081526004018080602001828103825260198152602001807f53656e646572206973206e6f7420617574686f72697a6564210000000000000081525060200191505060405180910390fd5b6001151561211c87612c49565b151514612174576040517f08c379a00000000000000000000000000000000000000000000000000000000081526004018080602001828103825260298152602001806137b16029913960400191505060405180910390fd5b6121908787600160405180602001604052806000815250612c94565b612198613549565b6040518060a0016040528087815260200186815260200185815260200184815260200160011515815250905080600760008981526020019081526020016000206000820151816000015560208201518160010155604082015181600201556060820151816003015560808201518160040160006101000a81548160ff021916908315150217905550905050600860008973ffffffffffffffffffffffffffffffffffffffff1673ffffffffffffffffffffffffffffffffffffffff1681526020019081526020016000208790806001815401808255809150506001900390600052602060002001600090919091909150555050505050505050565b6000600260008473ffffffffffffffffffffffffffffffffffffffff1673ffffffffffffffffffffffffffffffffffffffff16815260200190815260200160002060008373ffffffffffffffffffffffffffffffffffffffff1673ffffffffffffffffffffffffffffffffffffffff16815260200190815260200160002060009054906101000a900460ff16905092915050565b600073ffffffffffffffffffffffffffffffffffffffff168473ffffffffffffffffffffffffffffffffffffffff1614156123ad576040517f08c379a00000000000000000000000000000000000000000000000000000000081526004018080602001828103825260258152602001806137306025913960400191505060405180910390fd5b6123b5612762565b73ffffffffffffffffffffffffffffffffffffffff168573ffffffffffffffffffffffffffffffffffffffff1614806123fb57506123fa856123f5612762565b612293565b5b612450576040517f08c379a00000000000000000000000000000000000000000000000000000000081526004018080602001828103825260298152602001806137076029913960400191505060405180910390fd5b600061245a612762565b905061247a81878761246b886131b9565b612474886131b9565b8761276a565b6124f7836040518060600160405280602a8152602001613787602a91396001600088815260200190815260200160002060008a73ffffffffffffffffffffffffffffffffffffffff1673ffffffffffffffffffffffffffffffffffffffff168152602001908152602001600020546127729092919063ffffffff16565b6001600086815260200190815260200160002060008873ffffffffffffffffffffffffffffffffffffffff1673ffffffffffffffffffffffffffffffffffffffff168152602001908152602001600020819055506125ae836001600087815260200190815260200160002060008873ffffffffffffffffffffffffffffffffffffffff1673ffffffffffffffffffffffffffffffffffffffff1681526020019081526020016000205461283290919063ffffffff16565b6001600086815260200190815260200160002060008773ffffffffffffffffffffffffffffffffffffffff1673ffffffffffffffffffffffffffffffffffffffff168152602001908152602001600020819055508473ffffffffffffffffffffffffffffffffffffffff168673ffffffffffffffffffffffffffffffffffffffff168273ffffffffffffffffffffffffffffffffffffffff167fc3d58168c5ae7397731d063d5bbf3d657854427343f4c083240f7aacaa2d0f628787604051808381526020018281526020019250505060405180910390a4612694818787878787613229565b505050505050565b6000600560009054906101000a900473ffffffffffffffffffffffffffffffffffffffff16905090565b6060600860008373ffffffffffffffffffffffffffffffffffffffff1673ffffffffffffffffffffffffffffffffffffffff16815260200190815260200160002080548060200260200160405190810160405280929190818152602001828054801561275157602002820191906000526020600020905b81548152602001906001019080831161273d575b50505050509050919050565b601981565b600033905090565b505050505050565b600083831115829061281f576040517f08c379a00000000000000000000000000000000000000000000000000000000081526004018080602001828103825283818151815260200191508051906020019080838360005b838110156127e45780820151818401526020810190506127c9565b50505050905090810190601f1680156128115780820380516001836020036101000a031916815260200191505b509250505060405180910390fd5b5060008385039050809150509392505050565b6000808284019050838110156128b0576040517f08c379a000000000000000000000000000000000000000000000000000000000815260040180806020018281038252601b8152602001807f536166654d6174683a206164646974696f6e206f766572666c6f77000000000081525060200191505060405180910390fd5b8091505092915050565b6128d98473ffffffffffffffffffffffffffffffffffffffff16613536565b15612c41578373ffffffffffffffffffffffffffffffffffffffff1663bc197c8187878686866040518663ffffffff1660e01b8152600401808673ffffffffffffffffffffffffffffffffffffffff1681526020018573ffffffffffffffffffffffffffffffffffffffff168152602001806020018060200180602001848103845287818151815260200191508051906020019060200280838360005b83811015612991578082015181840152602081019050612976565b50505050905001848103835286818151815260200191508051906020019060200280838360005b838110156129d35780820151818401526020810190506129b8565b50505050905001848103825285818151815260200191508051906020019080838360005b83811015612a125780820151818401526020810190506129f7565b50505050905090810190601f168015612a3f5780820380516001836020036101000a031916815260200191505b5098505050505050505050602060405180830381600087803b158015612a6457600080fd5b505af1925050508015612a9857506040513d6020811015612a8457600080fd5b810190808051906020019092919050505060015b612ba257612aa4613598565b80612aaf5750612b51565b806040517f08c379a00000000000000000000000000000000000000000000000000000000081526004018080602001828103825283818151815260200191508051906020019080838360005b83811015612b16578082015181840152602081019050612afb565b50505050905090810190601f168015612b435780820380516001836020036101000a031916815260200191505b509250505060405180910390fd5b6040517f08c379a000000000000000000000000000000000000000000000000000000000815260040180806020018281038252603481526020018061364f6034913960400191505060405180910390fd5b63bc197c8160e01b7bffffffffffffffffffffffffffffffffffffffffffffffffffffffff1916817bffffffffffffffffffffffffffffffffffffffffffffffffffffffff191614612c3f576040517f08c379a00000000000000000000000000000000000000000000000000000000081526004018080602001828103825260288152602001806136836028913960400191505060405180910390fd5b505b505050505050565b60006019821480612c5a5750603282145b80612c655750606482145b80612c70575060fa82145b80612c7c57506103e882145b15612c8a5760019050612c8f565b600090505b919050565b600073ffffffffffffffffffffffffffffffffffffffff168473ffffffffffffffffffffffffffffffffffffffff161415612d1a576040517f08c379a00000000000000000000000000000000000000000000000000000000081526004018080602001828103825260218152602001806138546021913960400191505060405180910390fd5b6000612d24612762565b9050612d4581600087612d36886131b9565b612d3f886131b9565b8761276a565b612da8836001600087815260200190815260200160002060008873ffffffffffffffffffffffffffffffffffffffff1673ffffffffffffffffffffffffffffffffffffffff1681526020019081526020016000205461283290919063ffffffff16565b6001600086815260200190815260200160002060008773ffffffffffffffffffffffffffffffffffffffff1673ffffffffffffffffffffffffffffffffffffffff168152602001908152602001600020819055508473ffffffffffffffffffffffffffffffffffffffff16600073ffffffffffffffffffffffffffffffffffffffff168273ffffffffffffffffffffffffffffffffffffffff167fc3d58168c5ae7397731d063d5bbf3d657854427343f4c083240f7aacaa2d0f628787604051808381526020018281526020019250505060405180910390a4612e9081600087878787613229565b5050505050565b600073ffffffffffffffffffffffffffffffffffffffff168473ffffffffffffffffffffffffffffffffffffffff161415612f1d576040517f08c379a00000000000000000000000000000000000000000000000000000000081526004018080602001828103825260218152602001806138546021913960400191505060405180910390fd5b8151835114612f77576040517f08c379a000000000000000000000000000000000000000000000000000000000815260040180806020018281038252602881526020018061382c6028913960400191505060405180910390fd5b6000612f81612762565b9050612f928160008787878761276a565b60005b845181101561309b5761302760016000878481518110612fb157fe5b6020026020010151815260200190815260200160002060008873ffffffffffffffffffffffffffffffffffffffff1673ffffffffffffffffffffffffffffffffffffffff1681526020019081526020016000205485838151811061301157fe5b602002602001015161283290919063ffffffff16565b6001600087848151811061303757fe5b6020026020010151815260200190815260200160002060008873ffffffffffffffffffffffffffffffffffffffff1673ffffffffffffffffffffffffffffffffffffffff168152602001908152602001600020819055508080600101915050612f95565b508473ffffffffffffffffffffffffffffffffffffffff16600073ffffffffffffffffffffffffffffffffffffffff168273ffffffffffffffffffffffffffffffffffffffff167f4a39dc06d4c0dbc64b70af90fd698a233a518aa5d07e595d983b8c0526c8f7fb8787604051808060200180602001838103835285818151815260200191508051906020019060200280838360005b8381101561314c578082015181840152602081019050613131565b50505050905001838103825284818151815260200191508051906020019060200280838360005b8381101561318e578082015181840152602081019050613173565b5050505090500194505050505060405180910390a46131b2816000878787876128ba565b5050505050565b606080600167ffffffffffffffff811180156131d457600080fd5b506040519080825280602002602001820160405280156132035781602001602082028036833780820191505090505b509050828160008151811061321457fe5b60200260200101818152505080915050919050565b6132488473ffffffffffffffffffffffffffffffffffffffff16613536565b1561352e578373ffffffffffffffffffffffffffffffffffffffff1663f23a6e6187878686866040518663ffffffff1660e01b8152600401808673ffffffffffffffffffffffffffffffffffffffff1681526020018573ffffffffffffffffffffffffffffffffffffffff16815260200184815260200183815260200180602001828103825283818151815260200191508051906020019080838360005b838110156133015780820151818401526020810190506132e6565b50505050905090810190601f16801561332e5780820380516001836020036101000a031916815260200191505b509650505050505050602060405180830381600087803b15801561335157600080fd5b505af192505050801561338557506040513d602081101561337157600080fd5b810190808051906020019092919050505060015b61348f57613391613598565b8061339c575061343e565b806040517f08c379a00000000000000000000000000000000000000000000000000000000081526004018080602001828103825283818151815260200191508051906020019080838360005b838110156134035780820151818401526020810190506133e8565b50505050905090810190601f1680156134305780820380516001836020036101000a031916815260200191505b509250505060405180910390fd5b6040517f08c379a000000000000000000000000000000000000000000000000000000000815260040180806020018281038252603481526020018061364f6034913960400191505060405180910390fd5b63f23a6e6160e01b7bffffffffffffffffffffffffffffffffffffffffffffffffffffffff1916817bffffffffffffffffffffffffffffffffffffffffffffffffffffffff19161461352c576040517f08c379a00000000000000000000000000000000000000000000000000000000081526004018080602001828103825260288152602001806136836028913960400191505060405180910390fd5b505b505050505050565b600080823b905060008111915050919050565b6040518060a00160405280600081526020016000815260200160008152602001600081526020016000151581525090565b6000601f19601f8301169050919050565b60008160e01c9050919050565b600060443d10156135a85761364b565b60046000803e6135b960005161358b565b6308c379a081146135ca575061364b565b60405160043d036004823e80513d602482011167ffffffffffffffff821117156135f65750505061364b565b808201805167ffffffffffffffff81111561361557505050505061364b565b8060208301013d85018111156136305750505050505061364b565b6136398261357a565b60208401016040528296505050505050505b9056fe455243313135353a207472616e7366657220746f206e6f6e2045524331313535526563656976657220696d706c656d656e746572455243313135353a204552433131353552656365697665722072656a656374656420746f6b656e73455243313135353a2062616c616e636520717565727920666f7220746865207a65726f2061646472657373455243313135353a2062617463682062616c616e636520717565727920666f7220746865207a65726f2061646472657373455243313135353a2063616c6c6572206973206e6f74206f776e6572206e6f7220617070726f766564455243313135353a207472616e7366657220746f20746865207a65726f2061646472657373455243313135353a207472616e736665722063616c6c6572206973206e6f74206f776e6572206e6f7220617070726f766564455243313135353a20696e73756666696369656e742062616c616e636520666f72207472616e736665724d696e657243617264732e6d696e7442617463683a20496e76616c696420546f6b656e20547970652e455243313135353a2073657474696e6720617070726f76616c2073746174757320666f722073656c66455243313135353a206163636f756e747320616e6420696473206c656e677468206d69736d61746368455243313135353a2069647320616e6420616d6f756e7473206c656e677468206d69736d61746368455243313135353a206d696e7420746f20746865207a65726f2061646472657373a2646970667358221220fa10aa2b2b2b586a0f63c054dc064308410fe56e4fbf12ff275c10e3319ef79164736f6c634300060c0033",
  "compiler": {
    "name": "solc",
    "version": "0.6.12+commit.27d51765.Emscripten.clang",
    "optimizer": {
      "enabled": false,
      "runs": 200
    },
    "evmVersion": "petersburg"
  }
}