{
  "fileName": "MinerCardRewards.sol",
  "contractName": "MinerCardRewards",
  "source": "// SPDX-License-Identifier: MIT\n\npragma solidity ^0.6.0;\n\nimport \"./MinerCards.sol\";\nimport \"@openzeppelin/contracts-ethereum-package/contracts/token/ERC20/IERC20.sol\";\nimport \"@openzeppelin/contracts/token/ERC1155/ERC1155Holder.sol\";\n\ncontract MinerCardRewards is ERC1155Holder {\n    using SafeMath for uint256;\n\n    uint256 private count = 0;\n    uint256 public constant MINERCARD_1 = 25;\n    uint256 public constant MINERCARD_2 = 50;\n    uint256 public constant MINERCARD_3 = 100;\n    uint256 public constant MINERCARD_4 = 250;\n    uint256 public constant MINERCARD_5 = 1000;\n\n    IERC20 private token;\n    MinerCards private minerCards;\n    uint256 private _releaseTime;\n    uint256 private rate;\n\n    // mapping from ID of ERC-721 to original owner\n    mapping(uint256 => address) private _idToAccount;\n\n    // mapping from ID of ERC-721 to date\n    mapping(uint256 => uint256) private _idToDate;\n\n    // mapping from ID of ERC-721 to ID of ERC-ERC-1155\n    mapping(uint256 => uint256) private _idToERC1155;\n\n    mapping(address => mapping(uint256 => uint256)) private _certNft;\n\n    // mapping from id of ERC-721 to amount locked\n    mapping(uint256 => uint256) private _idToLockedAmount;\n\n    // total amount locked\n    uint256 private _lockedFunds;\n\n    // Emitted when funds is locked.\n    event LockFund(\n        address indexed _account,\n        uint256 indexed _tokenType,\n        uint256 _lockAmount\n    );\n\n    // Emitted when funds and dividends is withdrawn.\n    event Withdraw(\n        address indexed _account,\n        uint256 indexed _lockAmount,\n        uint256 _dividends\n    );\n\n    // Emitted when funds and dividends is withdrawn.\n    event IssueNFT(address indexed _account, uint256 indexed _id);\n\n    // Emitted when only lock fund is withdrwan.\n    event Release(address indexed _account, uint256 indexed _lockAmount);\n\n    /**\n     * @dev Require funds to be locked\n     */\n    modifier fundsLocked(uint256 _id) {\n        require(\n            _idToLockedAmount[_id] != 0 && _idToAccount[_id] != address(0),\n            \"MinerCardRewards: no funds locked\"\n        );\n        _;\n    }\n\n    /**\n     * @dev  Initializer function (replaces constructor)\n     * Sets the initializes {naMinerCards}, {Exgold} token, and sets value fo\n     r {time}\n     *\n     * All three of these values are immutable: they can only be set once during\n     * construction.\n     */\n    constructor(\n        uint256 _time,\n        uint256 _rate,\n        address __minerCardsAddress,\n        address _tokenAddress\n    ) public {\n        _releaseTime = _time;\n        rate = _rate;\n        minerCards = MinerCards(__minerCardsAddress);\n        token = IERC20(_tokenAddress);\n    }\n\n    /**\n     * @dev  Locks `_account` funds and Issues NFT\n     * Contract transfers the lock amount from `_account` to contract.\n     * `_account` must set (ERC-20) allowance for contract address, else transaction reverts\n     * `_account` must set (ERC-1155) setApprovalForAll for contract address, else transaction fails\n     * Sets the lock time and balances.\n     * Emits `LockFund`  and IssueNFT event\n     */\n    function lockFunds(uint256 _id, uint256 _lockAmount) public {\n        address _account = msg.sender;\n        require(\n            validateTokenType(_id) == true,\n            \"MinerCardRewards: Invalid token ID\"\n        );\n        uint256 balance = minerCards.balanceOf(_account, _id);\n        require(\n            balance > 0,\n            \"MinerCardRewards: Account has insufficient miner cards to lock funds\"\n        );\n        uint256 allowance = token.allowance(_account, address(this));\n        require(\n            allowance >= _lockAmount,\n            \"MinerCardRewards: Insufficient allowance set for MinerRewards Contract\"\n        );\n\n        require(\n            checkLockAmount(_lockAmount, _id) == true,\n            \"MinerCardRewards: Invalid amount provided.\"\n        );\n\n        require(\n            minerCards.isApprovedForAll(_account, address(this)) == true,\n            \"MinerCardRewards: setApprovalForAll not set for MinerRewards Contract\"\n        );\n\n        uint256 id = getId();\n        minerCards.safeTransferFrom(_account, address(this), _id, 1, \"\");\n        token.transferFrom(_account, address(this), _lockAmount);\n        minerCards.mint(_account, id);\n        _idToAccount[id] = _account;\n        _idToLockedAmount[id] = _lockAmount;\n        _idToDate[id] = block.timestamp.add(_releaseTime);\n        _idToERC1155[id] = _id;\n        _certNft[_account][_id] = id;\n        emit IssueNFT(_account, id);\n        _lockedFunds = _lockedFunds.add(_lockAmount);\n        emit LockFund(_account, _id, _lockAmount);\n    }\n\n    /**\n     * @dev  release locked funds excluding dividends.\n     * `_id` is ID of ERC-721 token issued during locking funds\n     * Calling this function releases the locked funds to `msg.sender`.\n     * Note: Calling this function assumes the lock time has not been met.\n     * Emits `Release` event.\n     */\n    function release(uint256 _id) public fundsLocked(_id) {\n        uint256 balance = minerCards.balanceOf(msg.sender, _id);\n        require(\n            balance > 0,\n            \"MinerCardRewards: Account has no cert to withdraw funds\"\n        );\n\n        uint256 _amountLocked = _idToLockedAmount[_id];\n        token.transfer(msg.sender, _amountLocked);\n        uint256 nftId = _idToERC1155[_id];\n        transferERC1155(msg.sender, nftId);\n        deleteId(_id);\n        _lockedFunds = _lockedFunds.sub(_amountLocked);\n        emit Release(msg.sender, _amountLocked);\n    }\n\n    /**\n     * @dev  release locked funds plus dividends.\n     * Dividends is 5% of amount locked\n     * Emits `Withdraw` event.\n     */\n    function withdraw(uint256 _id) public fundsLocked(_id) {\n        uint256 balance = minerCards.balanceOf(msg.sender, _id);\n        require(\n            balance > 0,\n            \"MinerCardRewards: Account has no cert to withdraw funds + dividends\"\n        );\n        require(\n            block.timestamp >= _idToDate[_id],\n            \"MinerCardRewards: current time is before release time\"\n        );\n\n        uint256 _amountLocked = _idToLockedAmount[_id];\n        uint256 dividends = calcDividends(_amountLocked);\n        require(\n            sufficientFunds(dividends) == true,\n            \"MinerCardRewards: Insufficient funds to pay dividends\"\n        );\n        token.transfer(msg.sender, _amountLocked.add(dividends));\n        uint256 nftId = _idToERC1155[_id];\n        transferERC1155(msg.sender, nftId);\n        deleteId(_id);\n        _lockedFunds = _lockedFunds.sub(_amountLocked);\n        emit Withdraw(msg.sender, _amountLocked, dividends);\n    }\n\n    function idToLockedAmount(uint256 id) public view returns (uint256) {\n        return _idToLockedAmount[id];\n    }\n\n    function idToAccount(uint256 id) public view returns (address) {\n        return _idToAccount[id];\n    }\n\n    function certToken(address _account, uint256 _id)\n        public\n        view\n        returns (uint256)\n    {\n        return _certNft[_account][_id];\n    }\n\n    function deleteId(uint256 _id) private {\n        _idToLockedAmount[_id] = 0;\n        _idToAccount[_id] = address(0);\n        _idToERC1155[_id] = 0;\n        _idToDate[_id] = 0;\n    }\n\n    // checks if `_id` is a valid token type\n    function validateTokenType(uint256 _id) internal pure returns (bool) {\n        if (\n            _id == MINERCARD_1 ||\n            _id == MINERCARD_2 ||\n            _id == MINERCARD_3 ||\n            _id == MINERCARD_4 ||\n            _id == MINERCARD_5\n        ) {\n            return true;\n        }\n\n        return false;\n    }\n\n    function getId() private returns (uint256) {\n        count = count.add(1);\n        if (\n            count == MINERCARD_1 ||\n            count == MINERCARD_2 ||\n            count == MINERCARD_3 ||\n            count == MINERCARD_4 ||\n            count == MINERCARD_5\n        ) {\n            count = count.add(3);\n            return count;\n        }\n\n        return count;\n    }\n\n    function transferERC1155(address _account, uint256 _id) private {\n        minerCards.safeTransferFrom(address(this), _account, _id, 1, \"\");\n    }\n\n    function checkLockAmount(uint256 _lockAmount, uint256 _id)\n        private\n        pure\n        returns (bool)\n    {\n        uint256 _amount = _lockAmount.div(10**uint256(6));\n        if (validateTokenType((_amount)) == true && _amount == _id) {\n            return true;\n        }\n\n        return false;\n    }\n\n    /**\n     * @dev calculate dividends for `_lockAmount`\n     */\n    function calcDividends(uint256 _lockAmount) private view returns (uint256) {\n        uint256 r = rate.mul(_lockAmount);\n        return r.div(100);\n    }\n\n    function releaseTime() public view returns (uint256) {\n        return _releaseTime;\n    }\n\n    function getRate() public view returns (uint256) {\n        return rate;\n    }\n\n    function getReleaseTime(uint256 _id) public view returns (uint256) {\n        return _idToDate[_id];\n    }\n\n    function balance(uint256 _id) public view returns (uint256) {\n        return _idToLockedAmount[_id];\n    }\n\n    function sufficientFunds(uint256 _dividends) private view returns (bool) {\n        uint256 _balance = token.balanceOf(address(this));\n        uint256 r = _balance.sub(_lockedFunds);\n        if (r > 0 && r >= _dividends) {\n            return true;\n        }\n\n        return false;\n    }\n}\n",
  "sourcePath": "contracts/MinerCardRewards.sol",
  "abi": [
    {
      "inputs": [
        {
          "internalType": "uint256",
          "name": "_time",
          "type": "uint256"
        },
        {
          "internalType": "uint256",
          "name": "_rate",
          "type": "uint256"
        },
        {
          "internalType": "address",
          "name": "__minerCardsAddress",
          "type": "address"
        },
        {
          "internalType": "address",
          "name": "_tokenAddress",
          "type": "address"
        }
      ],
      "stateMutability": "nonpayable",
      "type": "constructor"
    },
    {
      "anonymous": false,
      "inputs": [
        {
          "indexed": true,
          "internalType": "address",
          "name": "_account",
          "type": "address"
        },
        {
          "indexed": true,
          "internalType": "uint256",
          "name": "_id",
          "type": "uint256"
        }
      ],
      "name": "IssueNFT",
      "type": "event"
    },
    {
      "anonymous": false,
      "inputs": [
        {
          "indexed": true,
          "internalType": "address",
          "name": "_account",
          "type": "address"
        },
        {
          "indexed": true,
          "internalType": "uint256",
          "name": "_tokenType",
          "type": "uint256"
        },
        {
          "indexed": false,
          "internalType": "uint256",
          "name": "_lockAmount",
          "type": "uint256"
        }
      ],
      "name": "LockFund",
      "type": "event"
    },
    {
      "anonymous": false,
      "inputs": [
        {
          "indexed": true,
          "internalType": "address",
          "name": "_account",
          "type": "address"
        },
        {
          "indexed": true,
          "internalType": "uint256",
          "name": "_lockAmount",
          "type": "uint256"
        }
      ],
      "name": "Release",
      "type": "event"
    },
    {
      "anonymous": false,
      "inputs": [
        {
          "indexed": true,
          "internalType": "address",
          "name": "_account",
          "type": "address"
        },
        {
          "indexed": true,
          "internalType": "uint256",
          "name": "_lockAmount",
          "type": "uint256"
        },
        {
          "indexed": false,
          "internalType": "uint256",
          "name": "_dividends",
          "type": "uint256"
        }
      ],
      "name": "Withdraw",
      "type": "event"
    },
    {
      "inputs": [],
      "name": "MINERCARD_1",
      "outputs": [
        {
          "internalType": "uint256",
          "name": "",
          "type": "uint256"
        }
      ],
      "stateMutability": "view",
      "type": "function"
    },
    {
      "inputs": [],
      "name": "MINERCARD_2",
      "outputs": [
        {
          "internalType": "uint256",
          "name": "",
          "type": "uint256"
        }
      ],
      "stateMutability": "view",
      "type": "function"
    },
    {
      "inputs": [],
      "name": "MINERCARD_3",
      "outputs": [
        {
          "internalType": "uint256",
          "name": "",
          "type": "uint256"
        }
      ],
      "stateMutability": "view",
      "type": "function"
    },
    {
      "inputs": [],
      "name": "MINERCARD_4",
      "outputs": [
        {
          "internalType": "uint256",
          "name": "",
          "type": "uint256"
        }
      ],
      "stateMutability": "view",
      "type": "function"
    },
    {
      "inputs": [],
      "name": "MINERCARD_5",
      "outputs": [
        {
          "internalType": "uint256",
          "name": "",
          "type": "uint256"
        }
      ],
      "stateMutability": "view",
      "type": "function"
    },
    {
      "inputs": [
        {
          "internalType": "uint256",
          "name": "_id",
          "type": "uint256"
        }
      ],
      "name": "balance",
      "outputs": [
        {
          "internalType": "uint256",
          "name": "",
          "type": "uint256"
        }
      ],
      "stateMutability": "view",
      "type": "function"
    },
    {
      "inputs": [
        {
          "internalType": "address",
          "name": "_account",
          "type": "address"
        },
        {
          "internalType": "uint256",
          "name": "_id",
          "type": "uint256"
        }
      ],
      "name": "certToken",
      "outputs": [
        {
          "internalType": "uint256",
          "name": "",
          "type": "uint256"
        }
      ],
      "stateMutability": "view",
      "type": "function"
    },
    {
      "inputs": [],
      "name": "getRate",
      "outputs": [
        {
          "internalType": "uint256",
          "name": "",
          "type": "uint256"
        }
      ],
      "stateMutability": "view",
      "type": "function"
    },
    {
      "inputs": [
        {
          "internalType": "uint256",
          "name": "_id",
          "type": "uint256"
        }
      ],
      "name": "getReleaseTime",
      "outputs": [
        {
          "internalType": "uint256",
          "name": "",
          "type": "uint256"
        }
      ],
      "stateMutability": "view",
      "type": "function"
    },
    {
      "inputs": [
        {
          "internalType": "uint256",
          "name": "id",
          "type": "uint256"
        }
      ],
      "name": "idToAccount",
      "outputs": [
        {
          "internalType": "address",
          "name": "",
          "type": "address"
        }
      ],
      "stateMutability": "view",
      "type": "function"
    },
    {
      "inputs": [
        {
          "internalType": "uint256",
          "name": "id",
          "type": "uint256"
        }
      ],
      "name": "idToLockedAmount",
      "outputs": [
        {
          "internalType": "uint256",
          "name": "",
          "type": "uint256"
        }
      ],
      "stateMutability": "view",
      "type": "function"
    },
    {
      "inputs": [
        {
          "internalType": "uint256",
          "name": "_id",
          "type": "uint256"
        },
        {
          "internalType": "uint256",
          "name": "_lockAmount",
          "type": "uint256"
        }
      ],
      "name": "lockFunds",
      "outputs": [],
      "stateMutability": "nonpayable",
      "type": "function"
    },
    {
      "inputs": [
        {
          "internalType": "address",
          "name": "",
          "type": "address"
        },
        {
          "internalType": "address",
          "name": "",
          "type": "address"
        },
        {
          "internalType": "uint256[]",
          "name": "",
          "type": "uint256[]"
        },
        {
          "internalType": "uint256[]",
          "name": "",
          "type": "uint256[]"
        },
        {
          "internalType": "bytes",
          "name": "",
          "type": "bytes"
        }
      ],
      "name": "onERC1155BatchReceived",
      "outputs": [
        {
          "internalType": "bytes4",
          "name": "",
          "type": "bytes4"
        }
      ],
      "stateMutability": "nonpayable",
      "type": "function"
    },
    {
      "inputs": [
        {
          "internalType": "address",
          "name": "",
          "type": "address"
        },
        {
          "internalType": "address",
          "name": "",
          "type": "address"
        },
        {
          "internalType": "uint256",
          "name": "",
          "type": "uint256"
        },
        {
          "internalType": "uint256",
          "name": "",
          "type": "uint256"
        },
        {
          "internalType": "bytes",
          "name": "",
          "type": "bytes"
        }
      ],
      "name": "onERC1155Received",
      "outputs": [
        {
          "internalType": "bytes4",
          "name": "",
          "type": "bytes4"
        }
      ],
      "stateMutability": "nonpayable",
      "type": "function"
    },
    {
      "inputs": [
        {
          "internalType": "uint256",
          "name": "_id",
          "type": "uint256"
        }
      ],
      "name": "release",
      "outputs": [],
      "stateMutability": "nonpayable",
      "type": "function"
    },
    {
      "inputs": [],
      "name": "releaseTime",
      "outputs": [
        {
          "internalType": "uint256",
          "name": "",
          "type": "uint256"
        }
      ],
      "stateMutability": "view",
      "type": "function"
    },
    {
      "inputs": [
        {
          "internalType": "bytes4",
          "name": "interfaceId",
          "type": "bytes4"
        }
      ],
      "name": "supportsInterface",
      "outputs": [
        {
          "internalType": "bool",
          "name": "",
          "type": "bool"
        }
      ],
      "stateMutability": "view",
      "type": "function"
    },
    {
      "inputs": [
        {
          "internalType": "uint256",
          "name": "_id",
          "type": "uint256"
        }
      ],
      "name": "withdraw",
      "outputs": [],
      "stateMutability": "nonpayable",
      "type": "function"
    }
  ],
  "bytecode": "0x608060405260006001553480156200001657600080fd5b506040516200264038038062002640833981810160405260808110156200003c57600080fd5b8101908080519060200190929190805190602001909291908051906020019092919080519060200190929190505050620000836301ffc9a760e01b6200013e60201b60201c565b620000a463bc197c8160e01b63f23a6e6160e01b186200013e60201b60201c565b836004819055508260058190555081600360006101000a81548173ffffffffffffffffffffffffffffffffffffffff021916908373ffffffffffffffffffffffffffffffffffffffff16021790555080600260006101000a81548173ffffffffffffffffffffffffffffffffffffffff021916908373ffffffffffffffffffffffffffffffffffffffff1602179055505050505062000247565b63ffffffff60e01b817bffffffffffffffffffffffffffffffffffffffffffffffffffffffff19161415620001db576040517f08c379a000000000000000000000000000000000000000000000000000000000815260040180806020018281038252601c8152602001807f4552433136353a20696e76616c696420696e746572666163652069640000000081525060200191505060405180910390fd5b6001600080837bffffffffffffffffffffffffffffffffffffffffffffffffffffffff19167bffffffffffffffffffffffffffffffffffffffffffffffffffffffff1916815260200190815260200160002060006101000a81548160ff02191690831515021790555050565b6123e980620002576000396000f3fe608060405234801561001057600080fd5b50600436106101165760003560e01c8063679aefce116100a2578063bc197c8111610071578063bc197c81146103c6578063ced9ae401461061c578063ebb4ff821461063a578063f23a6e611461069c578063fee45c7e146107de57610116565b8063679aefce1461034e578063922fa5521461036c578063a1849e601461038a578063b91d4001146103a857610116565b80633287db4b116100e95780633287db4b1461024657806337bdc99b1461027e57806347bb89f0146102ac57806349f1147d146102ee57806352db191f1461030c57610116565b806301ffc9a71461011b5780630e4038871461017e57806317787ae7146101d65780632e1a7d4d14610218575b600080fd5b6101666004803603602081101561013157600080fd5b8101908080357bffffffffffffffffffffffffffffffffffffffffffffffffffffffff191690602001909291905050506107fc565b60405180821515815260200191505060405180910390f35b6101aa6004803603602081101561019457600080fd5b8101908080359060200190929190505050610863565b604051808273ffffffffffffffffffffffffffffffffffffffff16815260200191505060405180910390f35b610202600480360360208110156101ec57600080fd5b81019080803590602001909291905050506108a0565b6040518082815260200191505060405180910390f35b6102446004803603602081101561022e57600080fd5b81019080803590602001909291905050506108bd565b005b61027c6004803603604081101561025c57600080fd5b810190808035906020019092919080359060200190929190505050610d33565b005b6102aa6004803603602081101561029457600080fd5b81019080803590602001909291905050506115eb565b005b6102d8600480360360208110156102c257600080fd5b8101908080359060200190929190505050611965565b6040518082815260200191505060405180910390f35b6102f6611982565b6040518082815260200191505060405180910390f35b6103386004803603602081101561032257600080fd5b8101908080359060200190929190505050611987565b6040518082815260200191505060405180910390f35b6103566119a4565b6040518082815260200191505060405180910390f35b6103746119ae565b6040518082815260200191505060405180910390f35b6103926119b3565b6040518082815260200191505060405180910390f35b6103b06119b9565b6040518082815260200191505060405180910390f35b6105e7600480360360a08110156103dc57600080fd5b81019080803573ffffffffffffffffffffffffffffffffffffffff169060200190929190803573ffffffffffffffffffffffffffffffffffffffff1690602001909291908035906020019064010000000081111561043957600080fd5b82018360208201111561044b57600080fd5b8035906020019184602083028401116401000000008311171561046d57600080fd5b919080806020026020016040519081016040528093929190818152602001838360200280828437600081840152601f19601f820116905080830192505050505050509192919290803590602001906401000000008111156104cd57600080fd5b8201836020820111156104df57600080fd5b8035906020019184602083028401116401000000008311171561050157600080fd5b919080806020026020016040519081016040528093929190818152602001838360200280828437600081840152601f19601f8201169050808301925050505050505091929192908035906020019064010000000081111561056157600080fd5b82018360208201111561057357600080fd5b8035906020019184600183028401116401000000008311171561059557600080fd5b91908080601f016020809104026020016040519081016040528093929190818152602001838380828437600081840152601f19601f8201169050808301925050505050505091929192905050506119c3565b60405180827bffffffffffffffffffffffffffffffffffffffffffffffffffffffff1916815260200191505060405180910390f35b6106246119d8565b6040518082815260200191505060405180910390f35b6106866004803603604081101561065057600080fd5b81019080803573ffffffffffffffffffffffffffffffffffffffff169060200190929190803590602001909291905050506119dd565b6040518082815260200191505060405180910390f35b6107a9600480360360a08110156106b257600080fd5b81019080803573ffffffffffffffffffffffffffffffffffffffff169060200190929190803573ffffffffffffffffffffffffffffffffffffffff16906020019092919080359060200190929190803590602001909291908035906020019064010000000081111561072357600080fd5b82018360208201111561073557600080fd5b8035906020019184600183028401116401000000008311171561075757600080fd5b91908080601f016020809104026020016040519081016040528093929190818152602001838380828437600081840152601f19601f820116905080830192505050505050509192919290505050611a38565b60405180827bffffffffffffffffffffffffffffffffffffffffffffffffffffffff1916815260200191505060405180910390f35b6107e6611a4d565b6040518082815260200191505060405180910390f35b6000806000837bffffffffffffffffffffffffffffffffffffffffffffffffffffffff19167bffffffffffffffffffffffffffffffffffffffffffffffffffffffff1916815260200190815260200160002060009054906101000a900460ff169050919050565b60006006600083815260200190815260200160002060009054906101000a900473ffffffffffffffffffffffffffffffffffffffff169050919050565b6000600a6000838152602001908152602001600020549050919050565b806000600a600083815260200190815260200160002054141580156109425750600073ffffffffffffffffffffffffffffffffffffffff166006600083815260200190815260200160002060009054906101000a900473ffffffffffffffffffffffffffffffffffffffff1673ffffffffffffffffffffffffffffffffffffffff1614155b610997576040517f08c379a00000000000000000000000000000000000000000000000000000000081526004018080602001828103825260218152602001806121d46021913960400191505060405180910390fd5b6000600360009054906101000a900473ffffffffffffffffffffffffffffffffffffffff1673ffffffffffffffffffffffffffffffffffffffff1662fdd58e33856040518363ffffffff1660e01b8152600401808373ffffffffffffffffffffffffffffffffffffffff1681526020018281526020019250505060206040518083038186803b158015610a2957600080fd5b505afa158015610a3d573d6000803e3d6000fd5b505050506040513d6020811015610a5357600080fd5b8101908080519060200190929190505050905060008111610abf576040517f08c379a00000000000000000000000000000000000000000000000000000000081526004018080602001828103825260438152602001806121f56043913960600191505060405180910390fd5b6007600084815260200190815260200160002054421015610b2b576040517f08c379a000000000000000000000000000000000000000000000000000000000815260040180806020018281038252603581526020018061227b6035913960400191505060405180910390fd5b6000600a60008581526020019081526020016000205490506000610b4e82611a52565b905060011515610b5d82611a88565b151514610bb5576040517f08c379a00000000000000000000000000000000000000000000000000000000081526004018080602001828103825260358152602001806122f46035913960400191505060405180910390fd5b600260009054906101000a900473ffffffffffffffffffffffffffffffffffffffff1673ffffffffffffffffffffffffffffffffffffffff1663a9059cbb33610c078486611b9690919063ffffffff16565b6040518363ffffffff1660e01b8152600401808373ffffffffffffffffffffffffffffffffffffffff16815260200182815260200192505050602060405180830381600087803b158015610c5a57600080fd5b505af1158015610c6e573d6000803e3d6000fd5b505050506040513d6020811015610c8457600080fd5b810190808051906020019092919050505050600060086000878152602001908152602001600020549050610cb83382611c1e565b610cc186611d08565b610cd683600b54611da990919063ffffffff16565b600b81905550823373ffffffffffffffffffffffffffffffffffffffff167ff279e6a1f5e320cca91135676d9cb6e44ca8a08c0b88342bcdb1144f6511b568846040518082815260200191505060405180910390a3505050505050565b600033905060011515610d4584611df3565b151514610d9d576040517f08c379a00000000000000000000000000000000000000000000000000000000081526004018080602001828103825260228152602001806122596022913960400191505060405180910390fd5b6000600360009054906101000a900473ffffffffffffffffffffffffffffffffffffffff1673ffffffffffffffffffffffffffffffffffffffff1662fdd58e83866040518363ffffffff1660e01b8152600401808373ffffffffffffffffffffffffffffffffffffffff1681526020018281526020019250505060206040518083038186803b158015610e2f57600080fd5b505afa158015610e43573d6000803e3d6000fd5b505050506040513d6020811015610e5957600080fd5b8101908080519060200190929190505050905060008111610ec5576040517f08c379a00000000000000000000000000000000000000000000000000000000081526004018080602001828103825260448152602001806122b06044913960600191505060405180910390fd5b6000600260009054906101000a900473ffffffffffffffffffffffffffffffffffffffff1673ffffffffffffffffffffffffffffffffffffffff1663dd62ed3e84306040518363ffffffff1660e01b8152600401808373ffffffffffffffffffffffffffffffffffffffff1681526020018273ffffffffffffffffffffffffffffffffffffffff1681526020019250505060206040518083038186803b158015610f6e57600080fd5b505afa158015610f82573d6000803e3d6000fd5b505050506040513d6020811015610f9857600080fd5b8101908080519060200190929190505050905083811015611004576040517f08c379a000000000000000000000000000000000000000000000000000000000815260040180806020018281038252604681526020018061236e6046913960600191505060405180910390fd5b600115156110128587611e3e565b15151461106a576040517f08c379a000000000000000000000000000000000000000000000000000000000815260040180806020018281038252602a815260200180612173602a913960400191505060405180910390fd5b60011515600360009054906101000a900473ffffffffffffffffffffffffffffffffffffffff1673ffffffffffffffffffffffffffffffffffffffff1663e985e9c585306040518363ffffffff1660e01b8152600401808373ffffffffffffffffffffffffffffffffffffffff1681526020018273ffffffffffffffffffffffffffffffffffffffff1681526020019250505060206040518083038186803b15801561111557600080fd5b505afa158015611129573d6000803e3d6000fd5b505050506040513d602081101561113f57600080fd5b81019080805190602001909291905050501515146111a8576040517f08c379a00000000000000000000000000000000000000000000000000000000081526004018080602001828103825260458152602001806123296045913960600191505060405180910390fd5b60006111b2611e90565b9050600360009054906101000a900473ffffffffffffffffffffffffffffffffffffffff1673ffffffffffffffffffffffffffffffffffffffff1663f242432a85308960016040518563ffffffff1660e01b8152600401808573ffffffffffffffffffffffffffffffffffffffff1681526020018473ffffffffffffffffffffffffffffffffffffffff1681526020018381526020018281526020018060200182810382526000815260200160200195505050505050600060405180830381600087803b15801561128257600080fd5b505af1158015611296573d6000803e3d6000fd5b50505050600260009054906101000a900473ffffffffffffffffffffffffffffffffffffffff1673ffffffffffffffffffffffffffffffffffffffff166323b872dd8530886040518463ffffffff1660e01b8152600401808473ffffffffffffffffffffffffffffffffffffffff1681526020018373ffffffffffffffffffffffffffffffffffffffff1681526020018281526020019350505050602060405180830381600087803b15801561134b57600080fd5b505af115801561135f573d6000803e3d6000fd5b505050506040513d602081101561137557600080fd5b810190808051906020019092919050505050600360009054906101000a900473ffffffffffffffffffffffffffffffffffffffff1673ffffffffffffffffffffffffffffffffffffffff166340c10f1985836040518363ffffffff1660e01b8152600401808373ffffffffffffffffffffffffffffffffffffffff16815260200182815260200192505050600060405180830381600087803b15801561141a57600080fd5b505af115801561142e573d6000803e3d6000fd5b50505050836006600083815260200190815260200160002060006101000a81548173ffffffffffffffffffffffffffffffffffffffff021916908373ffffffffffffffffffffffffffffffffffffffff16021790555084600a6000838152602001908152602001600020819055506114b160045442611b9690919063ffffffff16565b600760008381526020019081526020016000208190555085600860008381526020019081526020016000208190555080600960008673ffffffffffffffffffffffffffffffffffffffff1673ffffffffffffffffffffffffffffffffffffffff168152602001908152602001600020600088815260200190815260200160002081905550808473ffffffffffffffffffffffffffffffffffffffff167f3e4d40fc81d95f3ec5c58fddb0303e88d043adbb3138b031f6eb0dd62ef3302660405160405180910390a361158e85600b54611b9690919063ffffffff16565b600b81905550858473ffffffffffffffffffffffffffffffffffffffff167fb2918ab7bbce88c5d881690a22a6cafe802664274a5044c300c3e3cacf7363e2876040518082815260200191505060405180910390a3505050505050565b806000600a600083815260200190815260200160002054141580156116705750600073ffffffffffffffffffffffffffffffffffffffff166006600083815260200190815260200160002060009054906101000a900473ffffffffffffffffffffffffffffffffffffffff1673ffffffffffffffffffffffffffffffffffffffff1614155b6116c5576040517f08c379a00000000000000000000000000000000000000000000000000000000081526004018080602001828103825260218152602001806121d46021913960400191505060405180910390fd5b6000600360009054906101000a900473ffffffffffffffffffffffffffffffffffffffff1673ffffffffffffffffffffffffffffffffffffffff1662fdd58e33856040518363ffffffff1660e01b8152600401808373ffffffffffffffffffffffffffffffffffffffff1681526020018281526020019250505060206040518083038186803b15801561175757600080fd5b505afa15801561176b573d6000803e3d6000fd5b505050506040513d602081101561178157600080fd5b81019080805190602001909291905050509050600081116117ed576040517f08c379a000000000000000000000000000000000000000000000000000000000815260040180806020018281038252603781526020018061219d6037913960400191505060405180910390fd5b6000600a6000858152602001908152602001600020549050600260009054906101000a900473ffffffffffffffffffffffffffffffffffffffff1673ffffffffffffffffffffffffffffffffffffffff1663a9059cbb33836040518363ffffffff1660e01b8152600401808373ffffffffffffffffffffffffffffffffffffffff16815260200182815260200192505050602060405180830381600087803b15801561189857600080fd5b505af11580156118ac573d6000803e3d6000fd5b505050506040513d60208110156118c257600080fd5b8101908080519060200190929190505050506000600860008681526020019081526020016000205490506118f63382611c1e565b6118ff85611d08565b61191482600b54611da990919063ffffffff16565b600b81905550813373ffffffffffffffffffffffffffffffffffffffff167ff6334794522b9db534a812aaae1af828a2e96aac68473b58e36d7d0bfd67477b60405160405180910390a35050505050565b6000600a6000838152602001908152602001600020549050919050565b606481565b600060076000838152602001908152602001600020549050919050565b6000600554905090565b603281565b6103e881565b6000600454905090565b600063bc197c8160e01b905095945050505050565b60fa81565b6000600960008473ffffffffffffffffffffffffffffffffffffffff1673ffffffffffffffffffffffffffffffffffffffff168152602001908152602001600020600083815260200190815260200160002054905092915050565b600063f23a6e6160e01b905095945050505050565b601981565b600080611a6a83600554611f1c90919063ffffffff16565b9050611a80606482611fa290919063ffffffff16565b915050919050565b600080600260009054906101000a900473ffffffffffffffffffffffffffffffffffffffff1673ffffffffffffffffffffffffffffffffffffffff166370a08231306040518263ffffffff1660e01b8152600401808273ffffffffffffffffffffffffffffffffffffffff16815260200191505060206040518083038186803b158015611b1457600080fd5b505afa158015611b28573d6000803e3d6000fd5b505050506040513d6020811015611b3e57600080fd5b810190808051906020019092919050505090506000611b68600b5483611da990919063ffffffff16565b9050600081118015611b7a5750838110155b15611b8a57600192505050611b91565b6000925050505b919050565b600080828401905083811015611c14576040517f08c379a000000000000000000000000000000000000000000000000000000000815260040180806020018281038252601b8152602001807f536166654d6174683a206164646974696f6e206f766572666c6f77000000000081525060200191505060405180910390fd5b8091505092915050565b600360009054906101000a900473ffffffffffffffffffffffffffffffffffffffff1673ffffffffffffffffffffffffffffffffffffffff1663f242432a30848460016040518563ffffffff1660e01b8152600401808573ffffffffffffffffffffffffffffffffffffffff1681526020018473ffffffffffffffffffffffffffffffffffffffff1681526020018381526020018281526020018060200182810382526000815260200160200195505050505050600060405180830381600087803b158015611cec57600080fd5b505af1158015611d00573d6000803e3d6000fd5b505050505050565b6000600a60008381526020019081526020016000208190555060006006600083815260200190815260200160002060006101000a81548173ffffffffffffffffffffffffffffffffffffffff021916908373ffffffffffffffffffffffffffffffffffffffff160217905550600060086000838152602001908152602001600020819055506000600760008381526020019081526020016000208190555050565b6000611deb83836040518060400160405280601e81526020017f536166654d6174683a207375627472616374696f6e206f766572666c6f770000815250611fec565b905092915050565b60006019821480611e045750603282145b80611e0f5750606482145b80611e1a575060fa82145b80611e2657506103e882145b15611e345760019050611e39565b600090505b919050565b600080611e586006600a0a85611fa290919063ffffffff16565b905060011515611e6782611df3565b1515148015611e7557508281145b15611e84576001915050611e8a565b60009150505b92915050565b6000611ea760018054611b9690919063ffffffff16565b60018190555060196001541480611ec057506032600154145b80611ecd57506064600154145b80611eda575060fa600154145b80611ee857506103e8600154145b15611f1357611f036003600154611b9690919063ffffffff16565b6001819055506001549050611f19565b60015490505b90565b600080831415611f2f5760009050611f9c565b6000828402905082848281611f4057fe5b0414611f97576040517f08c379a00000000000000000000000000000000000000000000000000000000081526004018080602001828103825260218152602001806122386021913960400191505060405180910390fd5b809150505b92915050565b6000611fe483836040518060400160405280601a81526020017f536166654d6174683a206469766973696f6e206279207a65726f0000000000008152506120ac565b905092915050565b6000838311158290612099576040517f08c379a00000000000000000000000000000000000000000000000000000000081526004018080602001828103825283818151815260200191508051906020019080838360005b8381101561205e578082015181840152602081019050612043565b50505050905090810190601f16801561208b5780820380516001836020036101000a031916815260200191505b509250505060405180910390fd5b5060008385039050809150509392505050565b60008083118290612158576040517f08c379a00000000000000000000000000000000000000000000000000000000081526004018080602001828103825283818151815260200191508051906020019080838360005b8381101561211d578082015181840152602081019050612102565b50505050905090810190601f16801561214a5780820380516001836020036101000a031916815260200191505b509250505060405180910390fd5b50600083858161216457fe5b04905080915050939250505056fe4d696e657243617264526577617264733a20496e76616c696420616d6f756e742070726f76696465642e4d696e657243617264526577617264733a204163636f756e7420686173206e6f206365727420746f2077697468647261772066756e64734d696e657243617264526577617264733a206e6f2066756e6473206c6f636b65644d696e657243617264526577617264733a204163636f756e7420686173206e6f206365727420746f2077697468647261772066756e6473202b206469766964656e6473536166654d6174683a206d756c7469706c69636174696f6e206f766572666c6f774d696e657243617264526577617264733a20496e76616c696420746f6b656e2049444d696e657243617264526577617264733a2063757272656e742074696d65206973206265666f72652072656c656173652074696d654d696e657243617264526577617264733a204163636f756e742068617320696e73756666696369656e74206d696e657220636172647320746f206c6f636b2066756e64734d696e657243617264526577617264733a20496e73756666696369656e742066756e647320746f20706179206469766964656e64734d696e657243617264526577617264733a20736574417070726f76616c466f72416c6c206e6f742073657420666f72204d696e65725265776172647320436f6e74726163744d696e657243617264526577617264733a20496e73756666696369656e7420616c6c6f77616e63652073657420666f72204d696e65725265776172647320436f6e7472616374a26469706673582212206a3976662128474dbdf3eca8c710a4fe1fa77981d1b25f015c8f4f3cb1c3efc964736f6c634300060c0033",
  "compiler": {
    "name": "solc",
    "version": "0.6.12+commit.27d51765.Emscripten.clang",
    "optimizer": {
      "enabled": false,
      "runs": 200
    },
    "evmVersion": "petersburg"
  }
}