{
  "fileName": "MinerCards.sol",
  "contractName": "MinerCards",
  "source": "// SPDX-License-Identifier: MIT\n\npragma solidity ^0.6.0;\n\nimport \"@openzeppelin/contracts/token/ERC1155/ERC1155.sol\";\nimport \"@openzeppelin/contracts/math/SafeMath.sol\";\n\ncontract MinerCards is ERC1155 {\n    using SafeMath for uint256;\n\n    address private owner;\n\n    uint256 public constant MINERCARD_1 = 25;\n    uint256 public constant MINERCARD_2 = 50;\n    uint256 public constant MINERCARD_3 = 100;\n    uint256 public constant MINERCARD_4 = 250;\n    uint256 public constant MINERCARD_5 = 1000;\n\n    mapping(address => bool) public _admins;\n\n    // Mapping from token ID to total supply\n    mapping(uint256 => uint256) public _totalSupply;\n\n    mapping(uint256 => Data) public _data;\n\n    struct Data {\n        uint256 amountLocked;\n        uint256 duration;\n        uint256 releaseDate;\n        uint256 idErc1155;\n        bool active;\n    }\n\n    /**\n     * @dev Require msg.sender to be an admin\n     */\n    modifier isAdmin() {\n        require(_admins[msg.sender] == true, \"Sender is not authorized!\");\n        _;\n    }\n\n    /**\n     * @dev Require msg.sender to be an admin\n     */\n    modifier onlyOwner() {\n        require(msg.sender == owner, \"Sender is not authorized!\");\n        _;\n    }\n\n    constructor() public ERC1155(\"\") {\n        owner = msg.sender;\n        _admins[msg.sender] = true;\n    }\n\n    /**\n     * @dev Creates `amount` tokens of token type `id`, and assigns them to `_account`.\n     * It updates the token supply for the token type.\n     * Emits a {TransferSingle} event.\n     *\n     * - `_account`      cannot be the zero address.\n     * - `_id`          must be between 0 and 4.\n     * - `_quantity`    quantity of tokens to mint.\n     */\n    function mint(\n        address _account,\n        uint256 _id,\n        uint256 _amountLocked,\n        uint256 _duration,\n        uint256 _releaseDate,\n        uint256 _idErc1155\n    ) public isAdmin {\n        _mint(_account, _id, 1, \"\");\n        Data memory data = Data(\n            _amountLocked,\n            _duration,\n            _releaseDate,\n            _idErc1155,\n            true\n        );\n        _data[_id] = data;\n    }\n\n    /** @dev same as mint, but it mints multiple NFTs of same ID to `_account`\n     *\n     * - `_account`      cannot be the zero address.\n     * - `_id`          must be between 0 and 4.\n     * - `_quantity`    quantity of tokens to mint.\n     */\n    function mintMultiple(\n        address _account,\n        uint256 _id,\n        uint256 _quantity\n    ) public isAdmin {\n        _mint(_account, _id, _quantity, \"\");\n    }\n\n    function invalidate(uint256 _id) public isAdmin {\n        _data[_id].active = false;\n    }\n\n    function getAmountLocked(uint256 _id) public view returns (uint256) {\n        return _data[_id].amountLocked;\n    }\n\n    function getReleaseDate(uint256 _id) public view returns (uint256) {\n        return _data[_id].releaseDate;\n    }\n\n    function isActive(uint256 _id) public view returns (bool) {\n        return _data[_id].active;\n    }\n\n    function idERC155(uint256 _id) public view returns (uint256) {\n        return _data[_id].idErc1155;\n    }\n\n    function admin(address _admin) public view returns (bool) {\n        return _admins[_admin];\n    }\n\n    function addAdmin(address _address) public onlyOwner {\n        _admins[_address] = true;\n    }\n\n    /**\n     * @dev mints a batch ot tokens of different types and assigns them to `_account`\n     *\n     * Requirements:\n     *\n     * - `ids` and `amounts` must have the same length.\n     * - If `_account` refers to a smart contract, it must implement {IERC1155Receiver-onERC1155BatchReceived} and return the\n     * acceptance magic value.\n     */\n    function mintBatch(\n        address _account,\n        uint256[] memory _ids,\n        uint256[] memory _amounts\n    ) public isAdmin {\n        for (uint256 i = 0; i < _ids.length; i++) {\n            require(\n                validateTokenType(_ids[i]) == true,\n                \"MinerCards.mintBatch: Invalid Token Type.\"\n            );\n        }\n        _mintBatch(_account, _ids, _amounts, \"\");\n\n        for (uint256 i = 0; i < _amounts.length; i++) {\n            _totalSupply[_ids[i]] = _totalSupply[_ids[i]].add(_amounts[i]);\n        }\n    }\n\n    // checks if `_id` is a valid token type\n    function validateTokenType(uint256 _id) internal pure returns (bool) {\n        if (\n            _id == MINERCARD_1 ||\n            _id == MINERCARD_2 ||\n            _id == MINERCARD_3 ||\n            _id == MINERCARD_4 ||\n            _id == MINERCARD_5\n        ) {\n            return true;\n        }\n\n        return false;\n    }\n\n    // get the total supply for a token type `_id`\n    function totalSupply(uint256 _id) public view returns (uint256) {\n        return _totalSupply[_id];\n    }\n}\n",
  "sourcePath": "contracts/MinerCards.sol",
  "abi": [
    {
      "inputs": [],
      "stateMutability": "nonpayable",
      "type": "constructor"
    },
    {
      "anonymous": false,
      "inputs": [
        {
          "indexed": true,
          "internalType": "address",
          "name": "account",
          "type": "address"
        },
        {
          "indexed": true,
          "internalType": "address",
          "name": "operator",
          "type": "address"
        },
        {
          "indexed": false,
          "internalType": "bool",
          "name": "approved",
          "type": "bool"
        }
      ],
      "name": "ApprovalForAll",
      "type": "event"
    },
    {
      "anonymous": false,
      "inputs": [
        {
          "indexed": true,
          "internalType": "address",
          "name": "operator",
          "type": "address"
        },
        {
          "indexed": true,
          "internalType": "address",
          "name": "from",
          "type": "address"
        },
        {
          "indexed": true,
          "internalType": "address",
          "name": "to",
          "type": "address"
        },
        {
          "indexed": false,
          "internalType": "uint256[]",
          "name": "ids",
          "type": "uint256[]"
        },
        {
          "indexed": false,
          "internalType": "uint256[]",
          "name": "values",
          "type": "uint256[]"
        }
      ],
      "name": "TransferBatch",
      "type": "event"
    },
    {
      "anonymous": false,
      "inputs": [
        {
          "indexed": true,
          "internalType": "address",
          "name": "operator",
          "type": "address"
        },
        {
          "indexed": true,
          "internalType": "address",
          "name": "from",
          "type": "address"
        },
        {
          "indexed": true,
          "internalType": "address",
          "name": "to",
          "type": "address"
        },
        {
          "indexed": false,
          "internalType": "uint256",
          "name": "id",
          "type": "uint256"
        },
        {
          "indexed": false,
          "internalType": "uint256",
          "name": "value",
          "type": "uint256"
        }
      ],
      "name": "TransferSingle",
      "type": "event"
    },
    {
      "anonymous": false,
      "inputs": [
        {
          "indexed": false,
          "internalType": "string",
          "name": "value",
          "type": "string"
        },
        {
          "indexed": true,
          "internalType": "uint256",
          "name": "id",
          "type": "uint256"
        }
      ],
      "name": "URI",
      "type": "event"
    },
    {
      "inputs": [],
      "name": "MINERCARD_1",
      "outputs": [
        {
          "internalType": "uint256",
          "name": "",
          "type": "uint256"
        }
      ],
      "stateMutability": "view",
      "type": "function"
    },
    {
      "inputs": [],
      "name": "MINERCARD_2",
      "outputs": [
        {
          "internalType": "uint256",
          "name": "",
          "type": "uint256"
        }
      ],
      "stateMutability": "view",
      "type": "function"
    },
    {
      "inputs": [],
      "name": "MINERCARD_3",
      "outputs": [
        {
          "internalType": "uint256",
          "name": "",
          "type": "uint256"
        }
      ],
      "stateMutability": "view",
      "type": "function"
    },
    {
      "inputs": [],
      "name": "MINERCARD_4",
      "outputs": [
        {
          "internalType": "uint256",
          "name": "",
          "type": "uint256"
        }
      ],
      "stateMutability": "view",
      "type": "function"
    },
    {
      "inputs": [],
      "name": "MINERCARD_5",
      "outputs": [
        {
          "internalType": "uint256",
          "name": "",
          "type": "uint256"
        }
      ],
      "stateMutability": "view",
      "type": "function"
    },
    {
      "inputs": [
        {
          "internalType": "address",
          "name": "",
          "type": "address"
        }
      ],
      "name": "_admins",
      "outputs": [
        {
          "internalType": "bool",
          "name": "",
          "type": "bool"
        }
      ],
      "stateMutability": "view",
      "type": "function"
    },
    {
      "inputs": [
        {
          "internalType": "uint256",
          "name": "",
          "type": "uint256"
        }
      ],
      "name": "_data",
      "outputs": [
        {
          "internalType": "uint256",
          "name": "amountLocked",
          "type": "uint256"
        },
        {
          "internalType": "uint256",
          "name": "duration",
          "type": "uint256"
        },
        {
          "internalType": "uint256",
          "name": "releaseDate",
          "type": "uint256"
        },
        {
          "internalType": "uint256",
          "name": "idErc1155",
          "type": "uint256"
        },
        {
          "internalType": "bool",
          "name": "active",
          "type": "bool"
        }
      ],
      "stateMutability": "view",
      "type": "function"
    },
    {
      "inputs": [
        {
          "internalType": "uint256",
          "name": "",
          "type": "uint256"
        }
      ],
      "name": "_totalSupply",
      "outputs": [
        {
          "internalType": "uint256",
          "name": "",
          "type": "uint256"
        }
      ],
      "stateMutability": "view",
      "type": "function"
    },
    {
      "inputs": [
        {
          "internalType": "address",
          "name": "_address",
          "type": "address"
        }
      ],
      "name": "addAdmin",
      "outputs": [],
      "stateMutability": "nonpayable",
      "type": "function"
    },
    {
      "inputs": [
        {
          "internalType": "address",
          "name": "_admin",
          "type": "address"
        }
      ],
      "name": "admin",
      "outputs": [
        {
          "internalType": "bool",
          "name": "",
          "type": "bool"
        }
      ],
      "stateMutability": "view",
      "type": "function"
    },
    {
      "inputs": [
        {
          "internalType": "address",
          "name": "account",
          "type": "address"
        },
        {
          "internalType": "uint256",
          "name": "id",
          "type": "uint256"
        }
      ],
      "name": "balanceOf",
      "outputs": [
        {
          "internalType": "uint256",
          "name": "",
          "type": "uint256"
        }
      ],
      "stateMutability": "view",
      "type": "function"
    },
    {
      "inputs": [
        {
          "internalType": "address[]",
          "name": "accounts",
          "type": "address[]"
        },
        {
          "internalType": "uint256[]",
          "name": "ids",
          "type": "uint256[]"
        }
      ],
      "name": "balanceOfBatch",
      "outputs": [
        {
          "internalType": "uint256[]",
          "name": "",
          "type": "uint256[]"
        }
      ],
      "stateMutability": "view",
      "type": "function"
    },
    {
      "inputs": [
        {
          "internalType": "uint256",
          "name": "_id",
          "type": "uint256"
        }
      ],
      "name": "getAmountLocked",
      "outputs": [
        {
          "internalType": "uint256",
          "name": "",
          "type": "uint256"
        }
      ],
      "stateMutability": "view",
      "type": "function"
    },
    {
      "inputs": [
        {
          "internalType": "uint256",
          "name": "_id",
          "type": "uint256"
        }
      ],
      "name": "getReleaseDate",
      "outputs": [
        {
          "internalType": "uint256",
          "name": "",
          "type": "uint256"
        }
      ],
      "stateMutability": "view",
      "type": "function"
    },
    {
      "inputs": [
        {
          "internalType": "uint256",
          "name": "_id",
          "type": "uint256"
        }
      ],
      "name": "idERC155",
      "outputs": [
        {
          "internalType": "uint256",
          "name": "",
          "type": "uint256"
        }
      ],
      "stateMutability": "view",
      "type": "function"
    },
    {
      "inputs": [
        {
          "internalType": "uint256",
          "name": "_id",
          "type": "uint256"
        }
      ],
      "name": "invalidate",
      "outputs": [],
      "stateMutability": "nonpayable",
      "type": "function"
    },
    {
      "inputs": [
        {
          "internalType": "uint256",
          "name": "_id",
          "type": "uint256"
        }
      ],
      "name": "isActive",
      "outputs": [
        {
          "internalType": "bool",
          "name": "",
          "type": "bool"
        }
      ],
      "stateMutability": "view",
      "type": "function"
    },
    {
      "inputs": [
        {
          "internalType": "address",
          "name": "account",
          "type": "address"
        },
        {
          "internalType": "address",
          "name": "operator",
          "type": "address"
        }
      ],
      "name": "isApprovedForAll",
      "outputs": [
        {
          "internalType": "bool",
          "name": "",
          "type": "bool"
        }
      ],
      "stateMutability": "view",
      "type": "function"
    },
    {
      "inputs": [
        {
          "internalType": "address",
          "name": "_account",
          "type": "address"
        },
        {
          "internalType": "uint256",
          "name": "_id",
          "type": "uint256"
        },
        {
          "internalType": "uint256",
          "name": "_amountLocked",
          "type": "uint256"
        },
        {
          "internalType": "uint256",
          "name": "_duration",
          "type": "uint256"
        },
        {
          "internalType": "uint256",
          "name": "_releaseDate",
          "type": "uint256"
        },
        {
          "internalType": "uint256",
          "name": "_idErc1155",
          "type": "uint256"
        }
      ],
      "name": "mint",
      "outputs": [],
      "stateMutability": "nonpayable",
      "type": "function"
    },
    {
      "inputs": [
        {
          "internalType": "address",
          "name": "_account",
          "type": "address"
        },
        {
          "internalType": "uint256[]",
          "name": "_ids",
          "type": "uint256[]"
        },
        {
          "internalType": "uint256[]",
          "name": "_amounts",
          "type": "uint256[]"
        }
      ],
      "name": "mintBatch",
      "outputs": [],
      "stateMutability": "nonpayable",
      "type": "function"
    },
    {
      "inputs": [
        {
          "internalType": "address",
          "name": "_account",
          "type": "address"
        },
        {
          "internalType": "uint256",
          "name": "_id",
          "type": "uint256"
        },
        {
          "internalType": "uint256",
          "name": "_quantity",
          "type": "uint256"
        }
      ],
      "name": "mintMultiple",
      "outputs": [],
      "stateMutability": "nonpayable",
      "type": "function"
    },
    {
      "inputs": [
        {
          "internalType": "address",
          "name": "from",
          "type": "address"
        },
        {
          "internalType": "address",
          "name": "to",
          "type": "address"
        },
        {
          "internalType": "uint256[]",
          "name": "ids",
          "type": "uint256[]"
        },
        {
          "internalType": "uint256[]",
          "name": "amounts",
          "type": "uint256[]"
        },
        {
          "internalType": "bytes",
          "name": "data",
          "type": "bytes"
        }
      ],
      "name": "safeBatchTransferFrom",
      "outputs": [],
      "stateMutability": "nonpayable",
      "type": "function"
    },
    {
      "inputs": [
        {
          "internalType": "address",
          "name": "from",
          "type": "address"
        },
        {
          "internalType": "address",
          "name": "to",
          "type": "address"
        },
        {
          "internalType": "uint256",
          "name": "id",
          "type": "uint256"
        },
        {
          "internalType": "uint256",
          "name": "amount",
          "type": "uint256"
        },
        {
          "internalType": "bytes",
          "name": "data",
          "type": "bytes"
        }
      ],
      "name": "safeTransferFrom",
      "outputs": [],
      "stateMutability": "nonpayable",
      "type": "function"
    },
    {
      "inputs": [
        {
          "internalType": "address",
          "name": "operator",
          "type": "address"
        },
        {
          "internalType": "bool",
          "name": "approved",
          "type": "bool"
        }
      ],
      "name": "setApprovalForAll",
      "outputs": [],
      "stateMutability": "nonpayable",
      "type": "function"
    },
    {
      "inputs": [
        {
          "internalType": "bytes4",
          "name": "interfaceId",
          "type": "bytes4"
        }
      ],
      "name": "supportsInterface",
      "outputs": [
        {
          "internalType": "bool",
          "name": "",
          "type": "bool"
        }
      ],
      "stateMutability": "view",
      "type": "function"
    },
    {
      "inputs": [
        {
          "internalType": "uint256",
          "name": "_id",
          "type": "uint256"
        }
      ],
      "name": "totalSupply",
      "outputs": [
        {
          "internalType": "uint256",
          "name": "",
          "type": "uint256"
        }
      ],
      "stateMutability": "view",
      "type": "function"
    },
    {
      "inputs": [
        {
          "internalType": "uint256",
          "name": "",
          "type": "uint256"
        }
      ],
      "name": "uri",
      "outputs": [
        {
          "internalType": "string",
          "name": "",
          "type": "string"
        }
      ],
      "stateMutability": "view",
      "type": "function"
    }
  ],
  "bytecode": "0x60806040523480156200001157600080fd5b50604051806020016040528060008152506200003a6301ffc9a760e01b6200011b60201b60201c565b6200004b816200022460201b60201c565b6200006363d9b67a2660e01b6200011b60201b60201c565b6200007b630e89341c60e01b6200011b60201b60201c565b5033600460006101000a81548173ffffffffffffffffffffffffffffffffffffffff021916908373ffffffffffffffffffffffffffffffffffffffff1602179055506001600560003373ffffffffffffffffffffffffffffffffffffffff1673ffffffffffffffffffffffffffffffffffffffff16815260200190815260200160002060006101000a81548160ff021916908315150217905550620002e6565b63ffffffff60e01b817bffffffffffffffffffffffffffffffffffffffffffffffffffffffff19161415620001b8576040517f08c379a000000000000000000000000000000000000000000000000000000000815260040180806020018281038252601c8152602001807f4552433136353a20696e76616c696420696e746572666163652069640000000081525060200191505060405180910390fd5b6001600080837bffffffffffffffffffffffffffffffffffffffffffffffffffffffff19167bffffffffffffffffffffffffffffffffffffffffffffffffffffffff1916815260200190815260200160002060006101000a81548160ff02191690831515021790555050565b80600390805190602001906200023c92919062000240565b5050565b828054600181600116156101000203166002900490600052602060002090601f016020900481019282601f106200028357805160ff1916838001178555620002b4565b82800160010185558215620002b4579182015b82811115620002b357825182559160200191906001019062000296565b5b509050620002c39190620002c7565b5090565b5b80821115620002e2576000816000905550600101620002c8565b5090565b61360380620002f66000396000f3fe608060405234801561001057600080fd5b50600436106101a85760003560e01c806370480275116100f9578063bd85b03911610097578063dfc8fff611610071578063dfc8fff614610c7d578063e985e9c514610cf3578063f242432a14610d6d578063fee45c7e14610e7c576101a8565b8063bd85b03914610ab1578063ced9ae4014610af3578063d81d0a1514610b11576101a8565b8063922fa552116100d3578063922fa552146109e35780639268951914610a01578063a1849e6014610a43578063a22cb46514610a61576101a8565b8063704802751461090357806382afd23b146109475780638b394ad41461098b576101a8565b80632eb2c2d61161016657806349f1147d1161014057806349f1147d146106a85780634e1273f4146106c65780635977e82a1461086757806363a846f8146108a9576101a8565b80632eb2c2d61461040157806338a641ac1461062457806345d5ae5a14610666576101a8565b8062fdd58e146101ad57806301ffc9a71461020f57806303a7f825146102725780630d5e2053146102d25780630e89341c1461032c5780631ea1afdb146103d3575b600080fd5b6101f9600480360360408110156101c357600080fd5b81019080803573ffffffffffffffffffffffffffffffffffffffff16906020019092919080359060200190929190505050610e9a565b6040518082815260200191505060405180910390f35b61025a6004803603602081101561022557600080fd5b8101908080357bffffffffffffffffffffffffffffffffffffffffffffffffffffffff19169060200190929190505050610f7a565b60405180821515815260200191505060405180910390f35b61029e6004803603602081101561028857600080fd5b8101908080359060200190929190505050610fe1565b6040518086815260200185815260200184815260200183815260200182151581526020019550505050505060405180910390f35b610314600480360360208110156102e857600080fd5b81019080803573ffffffffffffffffffffffffffffffffffffffff169060200190929190505050611024565b60405180821515815260200191505060405180910390f35b6103586004803603602081101561034257600080fd5b8101908080359060200190929190505050611044565b6040518080602001828103825283818151815260200191508051906020019080838360005b8381101561039857808201518184015260208101905061037d565b50505050905090810190601f1680156103c55780820380516001836020036101000a031916815260200191505b509250505060405180910390f35b6103ff600480360360208110156103e957600080fd5b81019080803590602001909291905050506110e8565b005b610622600480360360a081101561041757600080fd5b81019080803573ffffffffffffffffffffffffffffffffffffffff169060200190929190803573ffffffffffffffffffffffffffffffffffffffff1690602001909291908035906020019064010000000081111561047457600080fd5b82018360208201111561048657600080fd5b803590602001918460208302840111640100000000831117156104a857600080fd5b919080806020026020016040519081016040528093929190818152602001838360200280828437600081840152601f19601f8201169050808301925050505050505091929192908035906020019064010000000081111561050857600080fd5b82018360208201111561051a57600080fd5b8035906020019184602083028401116401000000008311171561053c57600080fd5b919080806020026020016040519081016040528093929190818152602001838360200280828437600081840152601f19601f8201169050808301925050505050505091929192908035906020019064010000000081111561059c57600080fd5b8201836020820111156105ae57600080fd5b803590602001918460018302840111640100000000831117156105d057600080fd5b91908080601f016020809104026020016040519081016040528093929190818152602001838380828437600081840152601f19601f8201169050808301925050505050505091929192905050506111e0565b005b6106506004803603602081101561063a57600080fd5b810190808035906020019092919050505061166b565b6040518082815260200191505060405180910390f35b6106926004803603602081101561067c57600080fd5b810190808035906020019092919050505061168b565b6040518082815260200191505060405180910390f35b6106b06116ab565b6040518082815260200191505060405180910390f35b610810600480360360408110156106dc57600080fd5b81019080803590602001906401000000008111156106f957600080fd5b82018360208201111561070b57600080fd5b8035906020019184602083028401116401000000008311171561072d57600080fd5b919080806020026020016040519081016040528093929190818152602001838360200280828437600081840152601f19601f8201169050808301925050505050505091929192908035906020019064010000000081111561078d57600080fd5b82018360208201111561079f57600080fd5b803590602001918460208302840111640100000000831117156107c157600080fd5b919080806020026020016040519081016040528093929190818152602001838360200280828437600081840152601f19601f8201169050808301925050505050505091929192905050506116b0565b6040518080602001828103825283818151815260200191508051906020019060200280838360005b83811015610853578082015181840152602081019050610838565b505050509050019250505060405180910390f35b6108936004803603602081101561087d57600080fd5b81019080803590602001909291905050506118a2565b6040518082815260200191505060405180910390f35b6108eb600480360360208110156108bf57600080fd5b81019080803573ffffffffffffffffffffffffffffffffffffffff1690602001909291905050506118ba565b60405180821515815260200191505060405180910390f35b6109456004803603602081101561091957600080fd5b81019080803573ffffffffffffffffffffffffffffffffffffffff169060200190929190505050611910565b005b6109736004803603602081101561095d57600080fd5b8101908080359060200190929190505050611a2e565b60405180821515815260200191505060405180910390f35b6109e1600480360360608110156109a157600080fd5b81019080803573ffffffffffffffffffffffffffffffffffffffff1690602001909291908035906020019092919080359060200190929190505050611a5b565b005b6109eb611b41565b6040518082815260200191505060405180910390f35b610a2d60048036036020811015610a1757600080fd5b8101908080359060200190929190505050611b46565b6040518082815260200191505060405180910390f35b610a4b611b66565b6040518082815260200191505060405180910390f35b610aaf60048036036040811015610a7757600080fd5b81019080803573ffffffffffffffffffffffffffffffffffffffff169060200190929190803515159060200190929190505050611b6c565b005b610add60048036036020811015610ac757600080fd5b8101908080359060200190929190505050611d05565b6040518082815260200191505060405180910390f35b610afb611d22565b6040518082815260200191505060405180910390f35b610c7b60048036036060811015610b2757600080fd5b81019080803573ffffffffffffffffffffffffffffffffffffffff16906020019092919080359060200190640100000000811115610b6457600080fd5b820183602082011115610b7657600080fd5b80359060200191846020830284011164010000000083111715610b9857600080fd5b919080806020026020016040519081016040528093929190818152602001838360200280828437600081840152601f19601f82011690508083019250505050505050919291929080359060200190640100000000811115610bf857600080fd5b820183602082011115610c0a57600080fd5b80359060200191846020830284011164010000000083111715610c2c57600080fd5b919080806020026020016040519081016040528093929190818152602001838360200280828437600081840152601f19601f820116905080830192505050505050509192919290505050611d27565b005b610cf1600480360360c0811015610c9357600080fd5b81019080803573ffffffffffffffffffffffffffffffffffffffff1690602001909291908035906020019092919080359060200190929190803590602001909291908035906020019092919080359060200190929190505050611f2f565b005b610d5560048036036040811015610d0957600080fd5b81019080803573ffffffffffffffffffffffffffffffffffffffff169060200190929190803573ffffffffffffffffffffffffffffffffffffffff1690602001909291905050506120ad565b60405180821515815260200191505060405180910390f35b610e7a600480360360a0811015610d8357600080fd5b81019080803573ffffffffffffffffffffffffffffffffffffffff169060200190929190803573ffffffffffffffffffffffffffffffffffffffff169060200190929190803590602001909291908035906020019092919080359060200190640100000000811115610df457600080fd5b820183602082011115610e0657600080fd5b80359060200191846001830284011164010000000083111715610e2857600080fd5b91908080601f016020809104026020016040519081016040528093929190818152602001838380828437600081840152601f19601f820116905080830192505050505050509192919290505050612141565b005b610e846124b6565b6040518082815260200191505060405180910390f35b60008073ffffffffffffffffffffffffffffffffffffffff168373ffffffffffffffffffffffffffffffffffffffff161415610f21576040517f08c379a000000000000000000000000000000000000000000000000000000000815260040180806020018281038252602b815260200180613404602b913960400191505060405180910390fd5b6001600083815260200190815260200160002060008473ffffffffffffffffffffffffffffffffffffffff1673ffffffffffffffffffffffffffffffffffffffff16815260200190815260200160002054905092915050565b6000806000837bffffffffffffffffffffffffffffffffffffffffffffffffffffffff19167bffffffffffffffffffffffffffffffffffffffffffffffffffffffff1916815260200190815260200160002060009054906101000a900460ff169050919050565b60076020528060005260406000206000915090508060000154908060010154908060020154908060030154908060040160009054906101000a900460ff16905085565b60056020528060005260406000206000915054906101000a900460ff1681565b606060038054600181600116156101000203166002900480601f0160208091040260200160405190810160405280929190818152602001828054600181600116156101000203166002900480156110dc5780601f106110b1576101008083540402835291602001916110dc565b820191906000526020600020905b8154815290600101906020018083116110bf57829003601f168201915b50505050509050919050565b60011515600560003373ffffffffffffffffffffffffffffffffffffffff1673ffffffffffffffffffffffffffffffffffffffff16815260200190815260200160002060009054906101000a900460ff161515146111ae576040517f08c379a00000000000000000000000000000000000000000000000000000000081526004018080602001828103825260198152602001807f53656e646572206973206e6f7420617574686f72697a6564210000000000000081525060200191505060405180910390fd5b60006007600083815260200190815260200160002060040160006101000a81548160ff02191690831515021790555050565b815183511461123a576040517f08c379a00000000000000000000000000000000000000000000000000000000081526004018080602001828103825260288152602001806135856028913960400191505060405180910390fd5b600073ffffffffffffffffffffffffffffffffffffffff168473ffffffffffffffffffffffffffffffffffffffff1614156112c0576040517f08c379a00000000000000000000000000000000000000000000000000000000081526004018080602001828103825260258152602001806134896025913960400191505060405180910390fd5b6112c86124bb565b73ffffffffffffffffffffffffffffffffffffffff168573ffffffffffffffffffffffffffffffffffffffff16148061130e575061130d856113086124bb565b6120ad565b5b611363576040517f08c379a00000000000000000000000000000000000000000000000000000000081526004018080602001828103825260328152602001806134ae6032913960400191505060405180910390fd5b600061136d6124bb565b905061137d8187878787876124c3565b60005b845181101561154e57600085828151811061139757fe5b6020026020010151905060008583815181106113af57fe5b60200260200101519050611436816040518060600160405280602a81526020016134e0602a91396001600086815260200190815260200160002060008d73ffffffffffffffffffffffffffffffffffffffff1673ffffffffffffffffffffffffffffffffffffffff168152602001908152602001600020546124cb9092919063ffffffff16565b6001600084815260200190815260200160002060008b73ffffffffffffffffffffffffffffffffffffffff1673ffffffffffffffffffffffffffffffffffffffff168152602001908152602001600020819055506114ed816001600085815260200190815260200160002060008b73ffffffffffffffffffffffffffffffffffffffff1673ffffffffffffffffffffffffffffffffffffffff1681526020019081526020016000205461258b90919063ffffffff16565b6001600084815260200190815260200160002060008a73ffffffffffffffffffffffffffffffffffffffff1673ffffffffffffffffffffffffffffffffffffffff168152602001908152602001600020819055505050806001019050611380565b508473ffffffffffffffffffffffffffffffffffffffff168673ffffffffffffffffffffffffffffffffffffffff168273ffffffffffffffffffffffffffffffffffffffff167f4a39dc06d4c0dbc64b70af90fd698a233a518aa5d07e595d983b8c0526c8f7fb8787604051808060200180602001838103835285818151815260200191508051906020019060200280838360005b838110156115fe5780820151818401526020810190506115e3565b50505050905001838103825284818151815260200191508051906020019060200280838360005b83811015611640578082015181840152602081019050611625565b5050505090500194505050505060405180910390a4611663818787878787612613565b505050505050565b600060076000838152602001908152602001600020600201549050919050565b600060076000838152602001908152602001600020600001549050919050565b606481565b6060815183511461170c576040517f08c379a000000000000000000000000000000000000000000000000000000000815260040180806020018281038252602981526020018061355c6029913960400191505060405180910390fd5b6060835167ffffffffffffffff8111801561172657600080fd5b506040519080825280602002602001820160405280156117555781602001602082028036833780820191505090505b50905060005b845181101561189757600073ffffffffffffffffffffffffffffffffffffffff1685828151811061178857fe5b602002602001015173ffffffffffffffffffffffffffffffffffffffff1614156117fd576040517f08c379a000000000000000000000000000000000000000000000000000000000815260040180806020018281038252603181526020018061342f6031913960400191505060405180910390fd5b6001600085838151811061180d57fe5b60200260200101518152602001908152602001600020600086838151811061183157fe5b602002602001015173ffffffffffffffffffffffffffffffffffffffff1673ffffffffffffffffffffffffffffffffffffffff1681526020019081526020016000205482828151811061188057fe5b60200260200101818152505080600101905061175b565b508091505092915050565b60066020528060005260406000206000915090505481565b6000600560008373ffffffffffffffffffffffffffffffffffffffff1673ffffffffffffffffffffffffffffffffffffffff16815260200190815260200160002060009054906101000a900460ff169050919050565b600460009054906101000a900473ffffffffffffffffffffffffffffffffffffffff1673ffffffffffffffffffffffffffffffffffffffff163373ffffffffffffffffffffffffffffffffffffffff16146119d3576040517f08c379a00000000000000000000000000000000000000000000000000000000081526004018080602001828103825260198152602001807f53656e646572206973206e6f7420617574686f72697a6564210000000000000081525060200191505060405180910390fd5b6001600560008373ffffffffffffffffffffffffffffffffffffffff1673ffffffffffffffffffffffffffffffffffffffff16815260200190815260200160002060006101000a81548160ff02191690831515021790555050565b60006007600083815260200190815260200160002060040160009054906101000a900460ff169050919050565b60011515600560003373ffffffffffffffffffffffffffffffffffffffff1673ffffffffffffffffffffffffffffffffffffffff16815260200190815260200160002060009054906101000a900460ff16151514611b21576040517f08c379a00000000000000000000000000000000000000000000000000000000081526004018080602001828103825260198152602001807f53656e646572206973206e6f7420617574686f72697a6564210000000000000081525060200191505060405180910390fd5b611b3c838383604051806020016040528060008152506129a2565b505050565b603281565b600060076000838152602001908152602001600020600301549050919050565b6103e881565b8173ffffffffffffffffffffffffffffffffffffffff16611b8b6124bb565b73ffffffffffffffffffffffffffffffffffffffff161415611bf8576040517f08c379a00000000000000000000000000000000000000000000000000000000081526004018080602001828103825260298152602001806135336029913960400191505060405180910390fd5b8060026000611c056124bb565b73ffffffffffffffffffffffffffffffffffffffff1673ffffffffffffffffffffffffffffffffffffffff16815260200190815260200160002060008473ffffffffffffffffffffffffffffffffffffffff1673ffffffffffffffffffffffffffffffffffffffff16815260200190815260200160002060006101000a81548160ff0219169083151502179055508173ffffffffffffffffffffffffffffffffffffffff16611cb26124bb565b73ffffffffffffffffffffffffffffffffffffffff167f17307eab39ab6107e8899845ad3d59bd9653f200f220920489ca2b5937696c318360405180821515815260200191505060405180910390a35050565b600060066000838152602001908152602001600020549050919050565b60fa81565b60011515600560003373ffffffffffffffffffffffffffffffffffffffff1673ffffffffffffffffffffffffffffffffffffffff16815260200190815260200160002060009054906101000a900460ff16151514611ded576040517f08c379a00000000000000000000000000000000000000000000000000000000081526004018080602001828103825260198152602001807f53656e646572206973206e6f7420617574686f72697a6564210000000000000081525060200191505060405180910390fd5b60005b8251811015611e7e5760011515611e19848381518110611e0c57fe5b6020026020010151612ba5565b151514611e71576040517f08c379a000000000000000000000000000000000000000000000000000000000815260040180806020018281038252602981526020018061350a6029913960400191505060405180910390fd5b8080600101915050611df0565b50611e9a83838360405180602001604052806000815250612bf0565b60005b8151811015611f2957611ef2828281518110611eb557fe5b602002602001015160066000868581518110611ecd57fe5b602002602001015181526020019081526020016000205461258b90919063ffffffff16565b60066000858481518110611f0257fe5b60200260200101518152602001908152602001600020819055508080600101915050611e9d565b50505050565b60011515600560003373ffffffffffffffffffffffffffffffffffffffff1673ffffffffffffffffffffffffffffffffffffffff16815260200190815260200160002060009054906101000a900460ff16151514611ff5576040517f08c379a00000000000000000000000000000000000000000000000000000000081526004018080602001828103825260198152602001807f53656e646572206973206e6f7420617574686f72697a6564210000000000000081525060200191505060405180910390fd5b61201186866001604051806020016040528060008152506129a2565b6120196132a2565b6040518060a0016040528086815260200185815260200184815260200183815260200160011515815250905080600760008881526020019081526020016000206000820151816000015560208201518160010155604082015181600201556060820151816003015560808201518160040160006101000a81548160ff02191690831515021790555090505050505050505050565b6000600260008473ffffffffffffffffffffffffffffffffffffffff1673ffffffffffffffffffffffffffffffffffffffff16815260200190815260200160002060008373ffffffffffffffffffffffffffffffffffffffff1673ffffffffffffffffffffffffffffffffffffffff16815260200190815260200160002060009054906101000a900460ff16905092915050565b600073ffffffffffffffffffffffffffffffffffffffff168473ffffffffffffffffffffffffffffffffffffffff1614156121c7576040517f08c379a00000000000000000000000000000000000000000000000000000000081526004018080602001828103825260258152602001806134896025913960400191505060405180910390fd5b6121cf6124bb565b73ffffffffffffffffffffffffffffffffffffffff168573ffffffffffffffffffffffffffffffffffffffff16148061221557506122148561220f6124bb565b6120ad565b5b61226a576040517f08c379a00000000000000000000000000000000000000000000000000000000081526004018080602001828103825260298152602001806134606029913960400191505060405180910390fd5b60006122746124bb565b905061229481878761228588612f12565b61228e88612f12565b876124c3565b612311836040518060600160405280602a81526020016134e0602a91396001600088815260200190815260200160002060008a73ffffffffffffffffffffffffffffffffffffffff1673ffffffffffffffffffffffffffffffffffffffff168152602001908152602001600020546124cb9092919063ffffffff16565b6001600086815260200190815260200160002060008873ffffffffffffffffffffffffffffffffffffffff1673ffffffffffffffffffffffffffffffffffffffff168152602001908152602001600020819055506123c8836001600087815260200190815260200160002060008873ffffffffffffffffffffffffffffffffffffffff1673ffffffffffffffffffffffffffffffffffffffff1681526020019081526020016000205461258b90919063ffffffff16565b6001600086815260200190815260200160002060008773ffffffffffffffffffffffffffffffffffffffff1673ffffffffffffffffffffffffffffffffffffffff168152602001908152602001600020819055508473ffffffffffffffffffffffffffffffffffffffff168673ffffffffffffffffffffffffffffffffffffffff168273ffffffffffffffffffffffffffffffffffffffff167fc3d58168c5ae7397731d063d5bbf3d657854427343f4c083240f7aacaa2d0f628787604051808381526020018281526020019250505060405180910390a46124ae818787878787612f82565b505050505050565b601981565b600033905090565b505050505050565b6000838311158290612578576040517f08c379a00000000000000000000000000000000000000000000000000000000081526004018080602001828103825283818151815260200191508051906020019080838360005b8381101561253d578082015181840152602081019050612522565b50505050905090810190601f16801561256a5780820380516001836020036101000a031916815260200191505b509250505060405180910390fd5b5060008385039050809150509392505050565b600080828401905083811015612609576040517f08c379a000000000000000000000000000000000000000000000000000000000815260040180806020018281038252601b8152602001807f536166654d6174683a206164646974696f6e206f766572666c6f77000000000081525060200191505060405180910390fd5b8091505092915050565b6126328473ffffffffffffffffffffffffffffffffffffffff1661328f565b1561299a578373ffffffffffffffffffffffffffffffffffffffff1663bc197c8187878686866040518663ffffffff1660e01b8152600401808673ffffffffffffffffffffffffffffffffffffffff1681526020018573ffffffffffffffffffffffffffffffffffffffff168152602001806020018060200180602001848103845287818151815260200191508051906020019060200280838360005b838110156126ea5780820151818401526020810190506126cf565b50505050905001848103835286818151815260200191508051906020019060200280838360005b8381101561272c578082015181840152602081019050612711565b50505050905001848103825285818151815260200191508051906020019080838360005b8381101561276b578082015181840152602081019050612750565b50505050905090810190601f1680156127985780820380516001836020036101000a031916815260200191505b5098505050505050505050602060405180830381600087803b1580156127bd57600080fd5b505af19250505080156127f157506040513d60208110156127dd57600080fd5b810190808051906020019092919050505060015b6128fb576127fd6132f1565b8061280857506128aa565b806040517f08c379a00000000000000000000000000000000000000000000000000000000081526004018080602001828103825283818151815260200191508051906020019080838360005b8381101561286f578082015181840152602081019050612854565b50505050905090810190601f16801561289c5780820380516001836020036101000a031916815260200191505b509250505060405180910390fd5b6040517f08c379a00000000000000000000000000000000000000000000000000000000081526004018080602001828103825260348152602001806133a86034913960400191505060405180910390fd5b63bc197c8160e01b7bffffffffffffffffffffffffffffffffffffffffffffffffffffffff1916817bffffffffffffffffffffffffffffffffffffffffffffffffffffffff191614612998576040517f08c379a00000000000000000000000000000000000000000000000000000000081526004018080602001828103825260288152602001806133dc6028913960400191505060405180910390fd5b505b505050505050565b600073ffffffffffffffffffffffffffffffffffffffff168473ffffffffffffffffffffffffffffffffffffffff161415612a28576040517f08c379a00000000000000000000000000000000000000000000000000000000081526004018080602001828103825260218152602001806135ad6021913960400191505060405180910390fd5b6000612a326124bb565b9050612a5381600087612a4488612f12565b612a4d88612f12565b876124c3565b612ab6836001600087815260200190815260200160002060008873ffffffffffffffffffffffffffffffffffffffff1673ffffffffffffffffffffffffffffffffffffffff1681526020019081526020016000205461258b90919063ffffffff16565b6001600086815260200190815260200160002060008773ffffffffffffffffffffffffffffffffffffffff1673ffffffffffffffffffffffffffffffffffffffff168152602001908152602001600020819055508473ffffffffffffffffffffffffffffffffffffffff16600073ffffffffffffffffffffffffffffffffffffffff168273ffffffffffffffffffffffffffffffffffffffff167fc3d58168c5ae7397731d063d5bbf3d657854427343f4c083240f7aacaa2d0f628787604051808381526020018281526020019250505060405180910390a4612b9e81600087878787612f82565b5050505050565b60006019821480612bb65750603282145b80612bc15750606482145b80612bcc575060fa82145b80612bd857506103e882145b15612be65760019050612beb565b600090505b919050565b600073ffffffffffffffffffffffffffffffffffffffff168473ffffffffffffffffffffffffffffffffffffffff161415612c76576040517f08c379a00000000000000000000000000000000000000000000000000000000081526004018080602001828103825260218152602001806135ad6021913960400191505060405180910390fd5b8151835114612cd0576040517f08c379a00000000000000000000000000000000000000000000000000000000081526004018080602001828103825260288152602001806135856028913960400191505060405180910390fd5b6000612cda6124bb565b9050612ceb816000878787876124c3565b60005b8451811015612df457612d8060016000878481518110612d0a57fe5b6020026020010151815260200190815260200160002060008873ffffffffffffffffffffffffffffffffffffffff1673ffffffffffffffffffffffffffffffffffffffff16815260200190815260200160002054858381518110612d6a57fe5b602002602001015161258b90919063ffffffff16565b60016000878481518110612d9057fe5b6020026020010151815260200190815260200160002060008873ffffffffffffffffffffffffffffffffffffffff1673ffffffffffffffffffffffffffffffffffffffff168152602001908152602001600020819055508080600101915050612cee565b508473ffffffffffffffffffffffffffffffffffffffff16600073ffffffffffffffffffffffffffffffffffffffff168273ffffffffffffffffffffffffffffffffffffffff167f4a39dc06d4c0dbc64b70af90fd698a233a518aa5d07e595d983b8c0526c8f7fb8787604051808060200180602001838103835285818151815260200191508051906020019060200280838360005b83811015612ea5578082015181840152602081019050612e8a565b50505050905001838103825284818151815260200191508051906020019060200280838360005b83811015612ee7578082015181840152602081019050612ecc565b5050505090500194505050505060405180910390a4612f0b81600087878787612613565b5050505050565b606080600167ffffffffffffffff81118015612f2d57600080fd5b50604051908082528060200260200182016040528015612f5c5781602001602082028036833780820191505090505b5090508281600081518110612f6d57fe5b60200260200101818152505080915050919050565b612fa18473ffffffffffffffffffffffffffffffffffffffff1661328f565b15613287578373ffffffffffffffffffffffffffffffffffffffff1663f23a6e6187878686866040518663ffffffff1660e01b8152600401808673ffffffffffffffffffffffffffffffffffffffff1681526020018573ffffffffffffffffffffffffffffffffffffffff16815260200184815260200183815260200180602001828103825283818151815260200191508051906020019080838360005b8381101561305a57808201518184015260208101905061303f565b50505050905090810190601f1680156130875780820380516001836020036101000a031916815260200191505b509650505050505050602060405180830381600087803b1580156130aa57600080fd5b505af19250505080156130de57506040513d60208110156130ca57600080fd5b810190808051906020019092919050505060015b6131e8576130ea6132f1565b806130f55750613197565b806040517f08c379a00000000000000000000000000000000000000000000000000000000081526004018080602001828103825283818151815260200191508051906020019080838360005b8381101561315c578082015181840152602081019050613141565b50505050905090810190601f1680156131895780820380516001836020036101000a031916815260200191505b509250505060405180910390fd5b6040517f08c379a00000000000000000000000000000000000000000000000000000000081526004018080602001828103825260348152602001806133a86034913960400191505060405180910390fd5b63f23a6e6160e01b7bffffffffffffffffffffffffffffffffffffffffffffffffffffffff1916817bffffffffffffffffffffffffffffffffffffffffffffffffffffffff191614613285576040517f08c379a00000000000000000000000000000000000000000000000000000000081526004018080602001828103825260288152602001806133dc6028913960400191505060405180910390fd5b505b505050505050565b600080823b905060008111915050919050565b6040518060a00160405280600081526020016000815260200160008152602001600081526020016000151581525090565b6000601f19601f8301169050919050565b60008160e01c9050919050565b600060443d1015613301576133a4565b60046000803e6133126000516132e4565b6308c379a0811461332357506133a4565b60405160043d036004823e80513d602482011167ffffffffffffffff8211171561334f575050506133a4565b808201805167ffffffffffffffff81111561336e5750505050506133a4565b8060208301013d8501811115613389575050505050506133a4565b613392826132d3565b60208401016040528296505050505050505b9056fe455243313135353a207472616e7366657220746f206e6f6e2045524331313535526563656976657220696d706c656d656e746572455243313135353a204552433131353552656365697665722072656a656374656420746f6b656e73455243313135353a2062616c616e636520717565727920666f7220746865207a65726f2061646472657373455243313135353a2062617463682062616c616e636520717565727920666f7220746865207a65726f2061646472657373455243313135353a2063616c6c6572206973206e6f74206f776e6572206e6f7220617070726f766564455243313135353a207472616e7366657220746f20746865207a65726f2061646472657373455243313135353a207472616e736665722063616c6c6572206973206e6f74206f776e6572206e6f7220617070726f766564455243313135353a20696e73756666696369656e742062616c616e636520666f72207472616e736665724d696e657243617264732e6d696e7442617463683a20496e76616c696420546f6b656e20547970652e455243313135353a2073657474696e6720617070726f76616c2073746174757320666f722073656c66455243313135353a206163636f756e747320616e6420696473206c656e677468206d69736d61746368455243313135353a2069647320616e6420616d6f756e7473206c656e677468206d69736d61746368455243313135353a206d696e7420746f20746865207a65726f2061646472657373a26469706673582212200f257c6bf634ddd5df3838ae8610a56277397aca6a329ad5ad53bc283804fffd64736f6c634300060c0033",
  "compiler": {
    "name": "solc",
    "version": "0.6.12+commit.27d51765.Emscripten.clang",
    "optimizer": {
      "enabled": false,
      "runs": 200
    },
    "evmVersion": "petersburg"
  }
}