{
  "fileName": "MinerCardRewards.sol",
  "contractName": "MinerCardRewards",
  "source": "// SPDX-License-Identifier: MIT\n\npragma solidity ^0.6.0;\n\nimport \"./MinerCards.sol\";\nimport \"@openzeppelin/contracts-ethereum-package/contracts/token/ERC20/IERC20.sol\";\nimport \"@openzeppelin/contracts/token/ERC1155/ERC1155Holder.sol\";\n\ncontract MinerCardRewards is ERC1155Holder {\n    using SafeMath for uint256;\n\n    uint256 private count = 0;\n    uint256 public constant MINERCARD_1 = 25;\n    uint256 public constant MINERCARD_2 = 50;\n    uint256 public constant MINERCARD_3 = 100;\n    uint256 public constant MINERCARD_4 = 250;\n    uint256 public constant MINERCARD_5 = 1000;\n\n    IERC20 private token;\n    MinerCards private minerCards;\n    uint256 private _releaseTime;\n    uint256 private rate;\n\n    mapping(address => mapping(uint256 => uint256)) private _certNft;\n\n    // total amount locked\n    uint256 private _lockedFunds;\n\n    // Emitted when funds is locked.\n    event LockFund(\n        address indexed _account,\n        uint256 indexed _tokenType,\n        uint256 _lockAmount\n    );\n\n    // Emitted when funds and dividends is withdrawn.\n    event Withdraw(\n        address indexed _account,\n        uint256 indexed _lockAmount,\n        uint256 _dividends\n    );\n\n    // Emitted when funds and dividends is withdrawn.\n    event IssueNFT(address indexed _account, uint256 indexed _id);\n\n    // Emitted when only lock fund is withdrwan.\n    event Release(address indexed _account, uint256 indexed _lockAmount);\n\n    /**\n     * @dev Require funds to be locked\n     */\n    modifier fundsLocked(uint256 _id) {\n        require(\n            minerCards.isActive(_id) == true,\n            \"MinerCardRewards: no funds locked\"\n        );\n        _;\n    }\n\n    /**\n     * @dev Sets the values for {_rate}, {_time}, {the ERC-20 TOKEN} and {the MinerCards contract}\n     */\n    constructor(\n        uint256 _time,\n        uint256 _rate,\n        address __minerCardsAddress,\n        address _tokenAddress\n    ) public {\n        _releaseTime = _time;\n        rate = _rate;\n        minerCards = MinerCards(__minerCardsAddress);\n        token = IERC20(_tokenAddress);\n    }\n\n    /**\n     * @dev  Locks `_account` funds and Issues NFT\n     * Contract transfers the lock amount from `_account` to contract.\n     * `_account` must set (ERC-20) allowance for contract address, else transaction reverts\n     * `_account` must set (ERC-1155) setApprovalForAll for contract address, else transaction fails\n     * Sets the lock time and balances.\n     * Emits `LockFund`  and IssueNFT event\n     */\n    function lockFunds(uint256 _id, uint256 _lockAmount)\n        external\n        returns (bool)\n    {\n        address _account = msg.sender;\n        require(\n            validateTokenType(_id) == true,\n            \"MinerCardRewards: Invalid token ID\"\n        );\n        uint256 balance = minerCards.balanceOf(_account, _id);\n        require(\n            balance > 0,\n            \"MinerCardRewards: Account has insufficient ERC-1155 miner cards to lock funds\"\n        );\n        uint256 allowance = token.allowance(_account, address(this));\n        require(\n            allowance >= _lockAmount,\n            \"MinerCardRewards: Insufficient allowance set for MinerRewards Contract\"\n        );\n\n        require(\n            checkLockAmount(_lockAmount, _id) == true,\n            \"MinerCardRewards: Invalid amount provided.\"\n        );\n\n        require(\n            minerCards.isApprovedForAll(_account, address(this)) == true,\n            \"MinerCardRewards: setApprovalForAll not set for MinerRewards Contract\"\n        );\n\n        uint256 id = getId();\n        minerCards.safeTransferFrom(_account, address(this), _id, 1, \"\");\n        require(\n            token.transferFrom(_account, address(this), _lockAmount) == true\n        );\n        minerCards.mint(\n            _account,\n            id,\n            _lockAmount,\n            _releaseTime,\n            block.timestamp.add(_releaseTime),\n            _id\n        );\n        _certNft[_account][_id] = id;\n        emit IssueNFT(_account, id);\n        _lockedFunds = _lockedFunds.add(_lockAmount);\n        emit LockFund(_account, _id, _lockAmount);\n        return true;\n    }\n\n    /**\n     * @dev  release locked funds excluding dividends.\n     * `_id` is ID of ERC-721 token issued during locking funds\n     * Calling this function releases the locked funds to `msg.sender`.\n     * Note: Calling this function assumes the lock time has not been met.\n     * Emits `Release` event.\n     */\n    function release(uint256 _id) external fundsLocked(_id) returns (bool) {\n        uint256 balance = minerCards.balanceOf(msg.sender, _id);\n        require(\n            balance > 0,\n            \"MinerCardRewards: Account has no cert to withdraw funds\"\n        );\n\n        minerCards.invalidate(_id);\n        uint256 _amountLocked = minerCards.getAmountLocked(_id);\n        require(token.transfer(msg.sender, _amountLocked) == true);\n        uint256 erc1155Id = minerCards.idERC155(_id);\n        transferERC1155(msg.sender, erc1155Id);\n        _lockedFunds = _lockedFunds.sub(_amountLocked);\n        emit Release(msg.sender, _amountLocked);\n        return true;\n    }\n\n    /**\n     * @dev  release locked funds plus dividends.\n     * Dividends is 5% of amount locked\n     * Emits `Withdraw` event.\n     */\n    function withdraw(uint256 _id) external fundsLocked(_id) returns (bool) {\n        uint256 balance = minerCards.balanceOf(msg.sender, _id);\n        require(\n            balance > 0,\n            \"MinerCardRewards: Account has no cert to withdraw funds + dividends\"\n        );\n        require(\n            block.timestamp >= minerCards.getReleaseDate(_id),\n            \"MinerCardRewards: current time is before release time\"\n        );\n\n        uint256 _amountLocked = minerCards.getAmountLocked(_id);\n        uint256 dividends = calcDividends(_amountLocked);\n        require(\n            sufficientFunds(dividends) == true,\n            \"MinerCardRewards: Insufficient funds to pay dividends\"\n        );\n        require(\n            token.transfer(msg.sender, _amountLocked.add(dividends)) == true\n        );\n        minerCards.invalidate(_id);\n        uint256 erc1155Id = minerCards.idERC155(_id);\n        transferERC1155(msg.sender, erc1155Id);\n        _lockedFunds = _lockedFunds.sub(_amountLocked);\n        emit Withdraw(msg.sender, _amountLocked, dividends);\n        return true;\n    }\n\n    function certToken(address _account, uint256 _id)\n        external\n        view\n        returns (uint256)\n    {\n        return _certNft[_account][_id];\n    }\n\n    // checks if `_id` is a valid token type\n    function validateTokenType(uint256 _id) internal pure returns (bool) {\n        if (\n            _id == MINERCARD_1 ||\n            _id == MINERCARD_2 ||\n            _id == MINERCARD_3 ||\n            _id == MINERCARD_4 ||\n            _id == MINERCARD_5\n        ) {\n            return true;\n        }\n\n        return false;\n    }\n\n    function getId() private returns (uint256) {\n        count = count.add(1);\n        if (\n            count == MINERCARD_1 ||\n            count == MINERCARD_2 ||\n            count == MINERCARD_3 ||\n            count == MINERCARD_4 ||\n            count == MINERCARD_5\n        ) {\n            count = count.add(3);\n            return count;\n        }\n\n        return count;\n    }\n\n    function transferERC1155(address _account, uint256 _id) private {\n        minerCards.safeTransferFrom(address(this), _account, _id, 1, \"\");\n    }\n\n    function checkLockAmount(uint256 _lockAmount, uint256 _id)\n        private\n        pure\n        returns (bool)\n    {\n        uint256 _amount = _lockAmount.div(10**uint256(6));\n        if (validateTokenType((_amount)) == true && _amount == _id) {\n            return true;\n        }\n\n        return false;\n    }\n\n    /**\n     * @dev calculate dividends for `_lockAmount`\n     */\n    function calcDividends(uint256 _lockAmount) private view returns (uint256) {\n        uint256 r = rate.mul(_lockAmount);\n        return r.div(100);\n    }\n\n    function releaseTime() external view returns (uint256) {\n        return _releaseTime;\n    }\n\n    function getRate() external view returns (uint256) {\n        return rate;\n    }\n\n    function balance(uint256 _id) external view returns (uint256) {\n        return minerCards.getAmountLocked(_id);\n    }\n\n    function sufficientFunds(uint256 _dividends) private view returns (bool) {\n        uint256 _balance = token.balanceOf(address(this));\n        uint256 r = _balance.sub(_lockedFunds);\n        if (r > 0 && r >= _dividends) {\n            return true;\n        }\n\n        return false;\n    }\n}\n",
  "sourcePath": "contracts/MinerCardRewards.sol",
  "abi": [
    {
      "inputs": [
        {
          "internalType": "uint256",
          "name": "_time",
          "type": "uint256"
        },
        {
          "internalType": "uint256",
          "name": "_rate",
          "type": "uint256"
        },
        {
          "internalType": "address",
          "name": "__minerCardsAddress",
          "type": "address"
        },
        {
          "internalType": "address",
          "name": "_tokenAddress",
          "type": "address"
        }
      ],
      "stateMutability": "nonpayable",
      "type": "constructor"
    },
    {
      "anonymous": false,
      "inputs": [
        {
          "indexed": true,
          "internalType": "address",
          "name": "_account",
          "type": "address"
        },
        {
          "indexed": true,
          "internalType": "uint256",
          "name": "_id",
          "type": "uint256"
        }
      ],
      "name": "IssueNFT",
      "type": "event"
    },
    {
      "anonymous": false,
      "inputs": [
        {
          "indexed": true,
          "internalType": "address",
          "name": "_account",
          "type": "address"
        },
        {
          "indexed": true,
          "internalType": "uint256",
          "name": "_tokenType",
          "type": "uint256"
        },
        {
          "indexed": false,
          "internalType": "uint256",
          "name": "_lockAmount",
          "type": "uint256"
        }
      ],
      "name": "LockFund",
      "type": "event"
    },
    {
      "anonymous": false,
      "inputs": [
        {
          "indexed": true,
          "internalType": "address",
          "name": "_account",
          "type": "address"
        },
        {
          "indexed": true,
          "internalType": "uint256",
          "name": "_lockAmount",
          "type": "uint256"
        }
      ],
      "name": "Release",
      "type": "event"
    },
    {
      "anonymous": false,
      "inputs": [
        {
          "indexed": true,
          "internalType": "address",
          "name": "_account",
          "type": "address"
        },
        {
          "indexed": true,
          "internalType": "uint256",
          "name": "_lockAmount",
          "type": "uint256"
        },
        {
          "indexed": false,
          "internalType": "uint256",
          "name": "_dividends",
          "type": "uint256"
        }
      ],
      "name": "Withdraw",
      "type": "event"
    },
    {
      "inputs": [],
      "name": "MINERCARD_1",
      "outputs": [
        {
          "internalType": "uint256",
          "name": "",
          "type": "uint256"
        }
      ],
      "stateMutability": "view",
      "type": "function"
    },
    {
      "inputs": [],
      "name": "MINERCARD_2",
      "outputs": [
        {
          "internalType": "uint256",
          "name": "",
          "type": "uint256"
        }
      ],
      "stateMutability": "view",
      "type": "function"
    },
    {
      "inputs": [],
      "name": "MINERCARD_3",
      "outputs": [
        {
          "internalType": "uint256",
          "name": "",
          "type": "uint256"
        }
      ],
      "stateMutability": "view",
      "type": "function"
    },
    {
      "inputs": [],
      "name": "MINERCARD_4",
      "outputs": [
        {
          "internalType": "uint256",
          "name": "",
          "type": "uint256"
        }
      ],
      "stateMutability": "view",
      "type": "function"
    },
    {
      "inputs": [],
      "name": "MINERCARD_5",
      "outputs": [
        {
          "internalType": "uint256",
          "name": "",
          "type": "uint256"
        }
      ],
      "stateMutability": "view",
      "type": "function"
    },
    {
      "inputs": [
        {
          "internalType": "uint256",
          "name": "_id",
          "type": "uint256"
        }
      ],
      "name": "balance",
      "outputs": [
        {
          "internalType": "uint256",
          "name": "",
          "type": "uint256"
        }
      ],
      "stateMutability": "view",
      "type": "function"
    },
    {
      "inputs": [
        {
          "internalType": "address",
          "name": "_account",
          "type": "address"
        },
        {
          "internalType": "uint256",
          "name": "_id",
          "type": "uint256"
        }
      ],
      "name": "certToken",
      "outputs": [
        {
          "internalType": "uint256",
          "name": "",
          "type": "uint256"
        }
      ],
      "stateMutability": "view",
      "type": "function"
    },
    {
      "inputs": [],
      "name": "getRate",
      "outputs": [
        {
          "internalType": "uint256",
          "name": "",
          "type": "uint256"
        }
      ],
      "stateMutability": "view",
      "type": "function"
    },
    {
      "inputs": [
        {
          "internalType": "uint256",
          "name": "_id",
          "type": "uint256"
        },
        {
          "internalType": "uint256",
          "name": "_lockAmount",
          "type": "uint256"
        }
      ],
      "name": "lockFunds",
      "outputs": [
        {
          "internalType": "bool",
          "name": "",
          "type": "bool"
        }
      ],
      "stateMutability": "nonpayable",
      "type": "function"
    },
    {
      "inputs": [
        {
          "internalType": "address",
          "name": "",
          "type": "address"
        },
        {
          "internalType": "address",
          "name": "",
          "type": "address"
        },
        {
          "internalType": "uint256[]",
          "name": "",
          "type": "uint256[]"
        },
        {
          "internalType": "uint256[]",
          "name": "",
          "type": "uint256[]"
        },
        {
          "internalType": "bytes",
          "name": "",
          "type": "bytes"
        }
      ],
      "name": "onERC1155BatchReceived",
      "outputs": [
        {
          "internalType": "bytes4",
          "name": "",
          "type": "bytes4"
        }
      ],
      "stateMutability": "nonpayable",
      "type": "function"
    },
    {
      "inputs": [
        {
          "internalType": "address",
          "name": "",
          "type": "address"
        },
        {
          "internalType": "address",
          "name": "",
          "type": "address"
        },
        {
          "internalType": "uint256",
          "name": "",
          "type": "uint256"
        },
        {
          "internalType": "uint256",
          "name": "",
          "type": "uint256"
        },
        {
          "internalType": "bytes",
          "name": "",
          "type": "bytes"
        }
      ],
      "name": "onERC1155Received",
      "outputs": [
        {
          "internalType": "bytes4",
          "name": "",
          "type": "bytes4"
        }
      ],
      "stateMutability": "nonpayable",
      "type": "function"
    },
    {
      "inputs": [
        {
          "internalType": "uint256",
          "name": "_id",
          "type": "uint256"
        }
      ],
      "name": "release",
      "outputs": [
        {
          "internalType": "bool",
          "name": "",
          "type": "bool"
        }
      ],
      "stateMutability": "nonpayable",
      "type": "function"
    },
    {
      "inputs": [],
      "name": "releaseTime",
      "outputs": [
        {
          "internalType": "uint256",
          "name": "",
          "type": "uint256"
        }
      ],
      "stateMutability": "view",
      "type": "function"
    },
    {
      "inputs": [
        {
          "internalType": "bytes4",
          "name": "interfaceId",
          "type": "bytes4"
        }
      ],
      "name": "supportsInterface",
      "outputs": [
        {
          "internalType": "bool",
          "name": "",
          "type": "bool"
        }
      ],
      "stateMutability": "view",
      "type": "function"
    },
    {
      "inputs": [
        {
          "internalType": "uint256",
          "name": "_id",
          "type": "uint256"
        }
      ],
      "name": "withdraw",
      "outputs": [
        {
          "internalType": "bool",
          "name": "",
          "type": "bool"
        }
      ],
      "stateMutability": "nonpayable",
      "type": "function"
    }
  ],
  "bytecode": "0x608060405260006001553480156200001657600080fd5b506040516200294838038062002948833981810160405260808110156200003c57600080fd5b8101908080519060200190929190805190602001909291908051906020019092919080519060200190929190505050620000836301ffc9a760e01b6200013e60201b60201c565b620000a463bc197c8160e01b63f23a6e6160e01b186200013e60201b60201c565b836004819055508260058190555081600360006101000a81548173ffffffffffffffffffffffffffffffffffffffff021916908373ffffffffffffffffffffffffffffffffffffffff16021790555080600260006101000a81548173ffffffffffffffffffffffffffffffffffffffff021916908373ffffffffffffffffffffffffffffffffffffffff1602179055505050505062000247565b63ffffffff60e01b817bffffffffffffffffffffffffffffffffffffffffffffffffffffffff19161415620001db576040517f08c379a000000000000000000000000000000000000000000000000000000000815260040180806020018281038252601c8152602001807f4552433136353a20696e76616c696420696e746572666163652069640000000081525060200191505060405180910390fd5b6001600080837bffffffffffffffffffffffffffffffffffffffffffffffffffffffff19167bffffffffffffffffffffffffffffffffffffffffffffffffffffffff1916815260200190815260200160002060006101000a81548160ff02191690831515021790555050565b6126f180620002576000396000f3fe608060405234801561001057600080fd5b50600436106100f55760003560e01c8063922fa55211610097578063ced9ae4011610066578063ced9ae4014610561578063ebb4ff821461057f578063f23a6e61146105e1578063fee45c7e14610723576100f5565b8063922fa552146102b1578063a1849e60146102cf578063b91d4001146102ed578063bc197c811461030b576100f5565b806337bdc99b116100d357806337bdc99b146101ef57806347bb89f01461023357806349f1147d14610275578063679aefce14610293576100f5565b806301ffc9a7146100fa5780632e1a7d4d1461015d5780633287db4b146101a1575b600080fd5b6101456004803603602081101561011057600080fd5b8101908080357bffffffffffffffffffffffffffffffffffffffffffffffffffffffff19169060200190929190505050610741565b60405180821515815260200191505060405180910390f35b6101896004803603602081101561017357600080fd5b81019080803590602001909291905050506107a8565b60405180821515815260200191505060405180910390f35b6101d7600480360360408110156101b757600080fd5b810190808035906020019092919080359060200190929190505050610eb8565b60405180821515815260200191505060405180910390f35b61021b6004803603602081101561020557600080fd5b810190808035906020019092919050505061170e565b60405180821515815260200191505060405180910390f35b61025f6004803603602081101561024957600080fd5b8101908080359060200190929190505050611c88565b6040518082815260200191505060405180910390f35b61027d611d3f565b6040518082815260200191505060405180910390f35b61029b611d44565b6040518082815260200191505060405180910390f35b6102b9611d4e565b6040518082815260200191505060405180910390f35b6102d7611d53565b6040518082815260200191505060405180910390f35b6102f5611d59565b6040518082815260200191505060405180910390f35b61052c600480360360a081101561032157600080fd5b81019080803573ffffffffffffffffffffffffffffffffffffffff169060200190929190803573ffffffffffffffffffffffffffffffffffffffff1690602001909291908035906020019064010000000081111561037e57600080fd5b82018360208201111561039057600080fd5b803590602001918460208302840111640100000000831117156103b257600080fd5b919080806020026020016040519081016040528093929190818152602001838360200280828437600081840152601f19601f8201169050808301925050505050505091929192908035906020019064010000000081111561041257600080fd5b82018360208201111561042457600080fd5b8035906020019184602083028401116401000000008311171561044657600080fd5b919080806020026020016040519081016040528093929190818152602001838360200280828437600081840152601f19601f820116905080830192505050505050509192919290803590602001906401000000008111156104a657600080fd5b8201836020820111156104b857600080fd5b803590602001918460018302840111640100000000831117156104da57600080fd5b91908080601f016020809104026020016040519081016040528093929190818152602001838380828437600081840152601f19601f820116905080830192505050505050509192919290505050611d63565b60405180827bffffffffffffffffffffffffffffffffffffffffffffffffffffffff1916815260200191505060405180910390f35b610569611d78565b6040518082815260200191505060405180910390f35b6105cb6004803603604081101561059557600080fd5b81019080803573ffffffffffffffffffffffffffffffffffffffff16906020019092919080359060200190929190505050611d7d565b6040518082815260200191505060405180910390f35b6106ee600480360360a08110156105f757600080fd5b81019080803573ffffffffffffffffffffffffffffffffffffffff169060200190929190803573ffffffffffffffffffffffffffffffffffffffff16906020019092919080359060200190929190803590602001909291908035906020019064010000000081111561066857600080fd5b82018360208201111561067a57600080fd5b8035906020019184600183028401116401000000008311171561069c57600080fd5b91908080601f016020809104026020016040519081016040528093929190818152602001838380828437600081840152601f19601f820116905080830192505050505050509192919290505050611dd8565b60405180827bffffffffffffffffffffffffffffffffffffffffffffffffffffffff1916815260200191505060405180910390f35b61072b611ded565b6040518082815260200191505060405180910390f35b6000806000837bffffffffffffffffffffffffffffffffffffffffffffffffffffffff19167bffffffffffffffffffffffffffffffffffffffffffffffffffffffff1916815260200190815260200160002060009054906101000a900460ff169050919050565b60008160011515600360009054906101000a900473ffffffffffffffffffffffffffffffffffffffff1673ffffffffffffffffffffffffffffffffffffffff166382afd23b836040518263ffffffff1660e01b81526004018082815260200191505060206040518083038186803b15801561082257600080fd5b505afa158015610836573d6000803e3d6000fd5b505050506040513d602081101561084c57600080fd5b81019080805190602001909291905050501515146108b5576040517f08c379a00000000000000000000000000000000000000000000000000000000081526004018080602001828103825260218152602001806125206021913960400191505060405180910390fd5b6000600360009054906101000a900473ffffffffffffffffffffffffffffffffffffffff1673ffffffffffffffffffffffffffffffffffffffff1662fdd58e33866040518363ffffffff1660e01b8152600401808373ffffffffffffffffffffffffffffffffffffffff1681526020018281526020019250505060206040518083038186803b15801561094757600080fd5b505afa15801561095b573d6000803e3d6000fd5b505050506040513d602081101561097157600080fd5b81019080805190602001909291905050509050600081116109dd576040517f08c379a00000000000000000000000000000000000000000000000000000000081526004018080602001828103825260438152602001806125416043913960600191505060405180910390fd5b600360009054906101000a900473ffffffffffffffffffffffffffffffffffffffff1673ffffffffffffffffffffffffffffffffffffffff166338a641ac856040518263ffffffff1660e01b81526004018082815260200191505060206040518083038186803b158015610a5057600080fd5b505afa158015610a64573d6000803e3d6000fd5b505050506040513d6020811015610a7a57600080fd5b8101908080519060200190929190505050421015610ae3576040517f08c379a00000000000000000000000000000000000000000000000000000000081526004018080602001828103825260358152602001806125c76035913960400191505060405180910390fd5b6000600360009054906101000a900473ffffffffffffffffffffffffffffffffffffffff1673ffffffffffffffffffffffffffffffffffffffff166345d5ae5a866040518263ffffffff1660e01b81526004018082815260200191505060206040518083038186803b158015610b5857600080fd5b505afa158015610b6c573d6000803e3d6000fd5b505050506040513d6020811015610b8257600080fd5b810190808051906020019092919050505090506000610ba082611df2565b905060011515610baf82611e28565b151514610c07576040517f08c379a00000000000000000000000000000000000000000000000000000000081526004018080602001828103825260358152602001806125fc6035913960400191505060405180910390fd5b60011515600260009054906101000a900473ffffffffffffffffffffffffffffffffffffffff1673ffffffffffffffffffffffffffffffffffffffff1663a9059cbb33610c5d8587611f3690919063ffffffff16565b6040518363ffffffff1660e01b8152600401808373ffffffffffffffffffffffffffffffffffffffff16815260200182815260200192505050602060405180830381600087803b158015610cb057600080fd5b505af1158015610cc4573d6000803e3d6000fd5b505050506040513d6020811015610cda57600080fd5b8101908080519060200190929190505050151514610cf757600080fd5b600360009054906101000a900473ffffffffffffffffffffffffffffffffffffffff1673ffffffffffffffffffffffffffffffffffffffff16631ea1afdb876040518263ffffffff1660e01b815260040180828152602001915050600060405180830381600087803b158015610d6c57600080fd5b505af1158015610d80573d6000803e3d6000fd5b505050506000600360009054906101000a900473ffffffffffffffffffffffffffffffffffffffff1673ffffffffffffffffffffffffffffffffffffffff166392689519886040518263ffffffff1660e01b81526004018082815260200191505060206040518083038186803b158015610df957600080fd5b505afa158015610e0d573d6000803e3d6000fd5b505050506040513d6020811015610e2357600080fd5b81019080805190602001909291905050509050610e403382611fbe565b610e55836007546120a890919063ffffffff16565b600781905550823373ffffffffffffffffffffffffffffffffffffffff167ff279e6a1f5e320cca91135676d9cb6e44ca8a08c0b88342bcdb1144f6511b568846040518082815260200191505060405180910390a3600195505050505050919050565b60008033905060011515610ecb856120f2565b151514610f23576040517f08c379a00000000000000000000000000000000000000000000000000000000081526004018080602001828103825260228152602001806125a56022913960400191505060405180910390fd5b6000600360009054906101000a900473ffffffffffffffffffffffffffffffffffffffff1673ffffffffffffffffffffffffffffffffffffffff1662fdd58e83876040518363ffffffff1660e01b8152600401808373ffffffffffffffffffffffffffffffffffffffff1681526020018281526020019250505060206040518083038186803b158015610fb557600080fd5b505afa158015610fc9573d6000803e3d6000fd5b505050506040513d6020811015610fdf57600080fd5b810190808051906020019092919050505090506000811161104b576040517f08c379a000000000000000000000000000000000000000000000000000000000815260040180806020018281038252604d815260200180612472604d913960600191505060405180910390fd5b6000600260009054906101000a900473ffffffffffffffffffffffffffffffffffffffff1673ffffffffffffffffffffffffffffffffffffffff1663dd62ed3e84306040518363ffffffff1660e01b8152600401808373ffffffffffffffffffffffffffffffffffffffff1681526020018273ffffffffffffffffffffffffffffffffffffffff1681526020019250505060206040518083038186803b1580156110f457600080fd5b505afa158015611108573d6000803e3d6000fd5b505050506040513d602081101561111e57600080fd5b810190808051906020019092919050505090508481101561118a576040517f08c379a00000000000000000000000000000000000000000000000000000000081526004018080602001828103825260468152602001806126766046913960600191505060405180910390fd5b60011515611198868861213d565b1515146111f0576040517f08c379a000000000000000000000000000000000000000000000000000000000815260040180806020018281038252602a8152602001806124bf602a913960400191505060405180910390fd5b60011515600360009054906101000a900473ffffffffffffffffffffffffffffffffffffffff1673ffffffffffffffffffffffffffffffffffffffff1663e985e9c585306040518363ffffffff1660e01b8152600401808373ffffffffffffffffffffffffffffffffffffffff1681526020018273ffffffffffffffffffffffffffffffffffffffff1681526020019250505060206040518083038186803b15801561129b57600080fd5b505afa1580156112af573d6000803e3d6000fd5b505050506040513d60208110156112c557600080fd5b810190808051906020019092919050505015151461132e576040517f08c379a00000000000000000000000000000000000000000000000000000000081526004018080602001828103825260458152602001806126316045913960600191505060405180910390fd5b600061133861218f565b9050600360009054906101000a900473ffffffffffffffffffffffffffffffffffffffff1673ffffffffffffffffffffffffffffffffffffffff1663f242432a85308a60016040518563ffffffff1660e01b8152600401808573ffffffffffffffffffffffffffffffffffffffff1681526020018473ffffffffffffffffffffffffffffffffffffffff1681526020018381526020018281526020018060200182810382526000815260200160200195505050505050600060405180830381600087803b15801561140857600080fd5b505af115801561141c573d6000803e3d6000fd5b5050505060011515600260009054906101000a900473ffffffffffffffffffffffffffffffffffffffff1673ffffffffffffffffffffffffffffffffffffffff166323b872dd86308a6040518463ffffffff1660e01b8152600401808473ffffffffffffffffffffffffffffffffffffffff1681526020018373ffffffffffffffffffffffffffffffffffffffff1681526020018281526020019350505050602060405180830381600087803b1580156114d557600080fd5b505af11580156114e9573d6000803e3d6000fd5b505050506040513d60208110156114ff57600080fd5b810190808051906020019092919050505015151461151c57600080fd5b600360009054906101000a900473ffffffffffffffffffffffffffffffffffffffff1673ffffffffffffffffffffffffffffffffffffffff1663dfc8fff685838960045461157560045442611f3690919063ffffffff16565b8d6040518763ffffffff1660e01b8152600401808773ffffffffffffffffffffffffffffffffffffffff1681526020018681526020018581526020018481526020018381526020018281526020019650505050505050600060405180830381600087803b1580156115e557600080fd5b505af11580156115f9573d6000803e3d6000fd5b5050505080600660008673ffffffffffffffffffffffffffffffffffffffff1673ffffffffffffffffffffffffffffffffffffffff168152602001908152602001600020600089815260200190815260200160002081905550808473ffffffffffffffffffffffffffffffffffffffff167f3e4d40fc81d95f3ec5c58fddb0303e88d043adbb3138b031f6eb0dd62ef3302660405160405180910390a36116ab86600754611f3690919063ffffffff16565b600781905550868473ffffffffffffffffffffffffffffffffffffffff167fb2918ab7bbce88c5d881690a22a6cafe802664274a5044c300c3e3cacf7363e2886040518082815260200191505060405180910390a3600194505050505092915050565b60008160011515600360009054906101000a900473ffffffffffffffffffffffffffffffffffffffff1673ffffffffffffffffffffffffffffffffffffffff166382afd23b836040518263ffffffff1660e01b81526004018082815260200191505060206040518083038186803b15801561178857600080fd5b505afa15801561179c573d6000803e3d6000fd5b505050506040513d60208110156117b257600080fd5b810190808051906020019092919050505015151461181b576040517f08c379a00000000000000000000000000000000000000000000000000000000081526004018080602001828103825260218152602001806125206021913960400191505060405180910390fd5b6000600360009054906101000a900473ffffffffffffffffffffffffffffffffffffffff1673ffffffffffffffffffffffffffffffffffffffff1662fdd58e33866040518363ffffffff1660e01b8152600401808373ffffffffffffffffffffffffffffffffffffffff1681526020018281526020019250505060206040518083038186803b1580156118ad57600080fd5b505afa1580156118c1573d6000803e3d6000fd5b505050506040513d60208110156118d757600080fd5b8101908080519060200190929190505050905060008111611943576040517f08c379a00000000000000000000000000000000000000000000000000000000081526004018080602001828103825260378152602001806124e96037913960400191505060405180910390fd5b600360009054906101000a900473ffffffffffffffffffffffffffffffffffffffff1673ffffffffffffffffffffffffffffffffffffffff16631ea1afdb856040518263ffffffff1660e01b815260040180828152602001915050600060405180830381600087803b1580156119b857600080fd5b505af11580156119cc573d6000803e3d6000fd5b505050506000600360009054906101000a900473ffffffffffffffffffffffffffffffffffffffff1673ffffffffffffffffffffffffffffffffffffffff166345d5ae5a866040518263ffffffff1660e01b81526004018082815260200191505060206040518083038186803b158015611a4557600080fd5b505afa158015611a59573d6000803e3d6000fd5b505050506040513d6020811015611a6f57600080fd5b8101908080519060200190929190505050905060011515600260009054906101000a900473ffffffffffffffffffffffffffffffffffffffff1673ffffffffffffffffffffffffffffffffffffffff1663a9059cbb33846040518363ffffffff1660e01b8152600401808373ffffffffffffffffffffffffffffffffffffffff16815260200182815260200192505050602060405180830381600087803b158015611b1957600080fd5b505af1158015611b2d573d6000803e3d6000fd5b505050506040513d6020811015611b4357600080fd5b8101908080519060200190929190505050151514611b6057600080fd5b6000600360009054906101000a900473ffffffffffffffffffffffffffffffffffffffff1673ffffffffffffffffffffffffffffffffffffffff166392689519876040518263ffffffff1660e01b81526004018082815260200191505060206040518083038186803b158015611bd557600080fd5b505afa158015611be9573d6000803e3d6000fd5b505050506040513d6020811015611bff57600080fd5b81019080805190602001909291905050509050611c1c3382611fbe565b611c31826007546120a890919063ffffffff16565b600781905550813373ffffffffffffffffffffffffffffffffffffffff167ff6334794522b9db534a812aaae1af828a2e96aac68473b58e36d7d0bfd67477b60405160405180910390a36001945050505050919050565b6000600360009054906101000a900473ffffffffffffffffffffffffffffffffffffffff1673ffffffffffffffffffffffffffffffffffffffff166345d5ae5a836040518263ffffffff1660e01b81526004018082815260200191505060206040518083038186803b158015611cfd57600080fd5b505afa158015611d11573d6000803e3d6000fd5b505050506040513d6020811015611d2757600080fd5b81019080805190602001909291905050509050919050565b606481565b6000600554905090565b603281565b6103e881565b6000600454905090565b600063bc197c8160e01b905095945050505050565b60fa81565b6000600660008473ffffffffffffffffffffffffffffffffffffffff1673ffffffffffffffffffffffffffffffffffffffff168152602001908152602001600020600083815260200190815260200160002054905092915050565b600063f23a6e6160e01b905095945050505050565b601981565b600080611e0a8360055461221b90919063ffffffff16565b9050611e206064826122a190919063ffffffff16565b915050919050565b600080600260009054906101000a900473ffffffffffffffffffffffffffffffffffffffff1673ffffffffffffffffffffffffffffffffffffffff166370a08231306040518263ffffffff1660e01b8152600401808273ffffffffffffffffffffffffffffffffffffffff16815260200191505060206040518083038186803b158015611eb457600080fd5b505afa158015611ec8573d6000803e3d6000fd5b505050506040513d6020811015611ede57600080fd5b810190808051906020019092919050505090506000611f08600754836120a890919063ffffffff16565b9050600081118015611f1a5750838110155b15611f2a57600192505050611f31565b6000925050505b919050565b600080828401905083811015611fb4576040517f08c379a000000000000000000000000000000000000000000000000000000000815260040180806020018281038252601b8152602001807f536166654d6174683a206164646974696f6e206f766572666c6f77000000000081525060200191505060405180910390fd5b8091505092915050565b600360009054906101000a900473ffffffffffffffffffffffffffffffffffffffff1673ffffffffffffffffffffffffffffffffffffffff1663f242432a30848460016040518563ffffffff1660e01b8152600401808573ffffffffffffffffffffffffffffffffffffffff1681526020018473ffffffffffffffffffffffffffffffffffffffff1681526020018381526020018281526020018060200182810382526000815260200160200195505050505050600060405180830381600087803b15801561208c57600080fd5b505af11580156120a0573d6000803e3d6000fd5b505050505050565b60006120ea83836040518060400160405280601e81526020017f536166654d6174683a207375627472616374696f6e206f766572666c6f7700008152506122eb565b905092915050565b600060198214806121035750603282145b8061210e5750606482145b80612119575060fa82145b8061212557506103e882145b156121335760019050612138565b600090505b919050565b6000806121576006600a0a856122a190919063ffffffff16565b905060011515612166826120f2565b151514801561217457508281145b15612183576001915050612189565b60009150505b92915050565b60006121a660018054611f3690919063ffffffff16565b600181905550601960015414806121bf57506032600154145b806121cc57506064600154145b806121d9575060fa600154145b806121e757506103e8600154145b15612212576122026003600154611f3690919063ffffffff16565b6001819055506001549050612218565b60015490505b90565b60008083141561222e576000905061229b565b600082840290508284828161223f57fe5b0414612296576040517f08c379a00000000000000000000000000000000000000000000000000000000081526004018080602001828103825260218152602001806125846021913960400191505060405180910390fd5b809150505b92915050565b60006122e383836040518060400160405280601a81526020017f536166654d6174683a206469766973696f6e206279207a65726f0000000000008152506123ab565b905092915050565b6000838311158290612398576040517f08c379a00000000000000000000000000000000000000000000000000000000081526004018080602001828103825283818151815260200191508051906020019080838360005b8381101561235d578082015181840152602081019050612342565b50505050905090810190601f16801561238a5780820380516001836020036101000a031916815260200191505b509250505060405180910390fd5b5060008385039050809150509392505050565b60008083118290612457576040517f08c379a00000000000000000000000000000000000000000000000000000000081526004018080602001828103825283818151815260200191508051906020019080838360005b8381101561241c578082015181840152602081019050612401565b50505050905090810190601f1680156124495780820380516001836020036101000a031916815260200191505b509250505060405180910390fd5b50600083858161246357fe5b04905080915050939250505056fe4d696e657243617264526577617264733a204163636f756e742068617320696e73756666696369656e74204552432d31313535206d696e657220636172647320746f206c6f636b2066756e64734d696e657243617264526577617264733a20496e76616c696420616d6f756e742070726f76696465642e4d696e657243617264526577617264733a204163636f756e7420686173206e6f206365727420746f2077697468647261772066756e64734d696e657243617264526577617264733a206e6f2066756e6473206c6f636b65644d696e657243617264526577617264733a204163636f756e7420686173206e6f206365727420746f2077697468647261772066756e6473202b206469766964656e6473536166654d6174683a206d756c7469706c69636174696f6e206f766572666c6f774d696e657243617264526577617264733a20496e76616c696420746f6b656e2049444d696e657243617264526577617264733a2063757272656e742074696d65206973206265666f72652072656c656173652074696d654d696e657243617264526577617264733a20496e73756666696369656e742066756e647320746f20706179206469766964656e64734d696e657243617264526577617264733a20736574417070726f76616c466f72416c6c206e6f742073657420666f72204d696e65725265776172647320436f6e74726163744d696e657243617264526577617264733a20496e73756666696369656e7420616c6c6f77616e63652073657420666f72204d696e65725265776172647320436f6e7472616374a264697066735822122022caec8379e8366638bb6dcc5d69db0c28e7af0d39ffa1d186ccd6ec37a15c3e64736f6c634300060c0033",
  "compiler": {
    "name": "solc",
    "version": "0.6.12+commit.27d51765.Emscripten.clang",
    "optimizer": {
      "enabled": false,
      "runs": 200
    },
    "evmVersion": "petersburg"
  }
}