{
  "fileName": "MinerCardRewards.sol",
  "contractName": "MinerCardRewards",
  "source": "// SPDX-License-Identifier: MIT\n\npragma solidity ^0.6.0;\n\nimport \"./MinerCards.sol\";\nimport \"@openzeppelin/contracts/token/ERC20/IERC20.sol\";\nimport \"@openzeppelin/contracts-ethereum-package/contracts/Initializable.sol\";\n\ncontract MinerCardRewards is Initializable {\n    using SafeMath for uint256;\n\n    IERC20 private token;\n    MinerCards private minerCards;\n    uint256 private time;\n    uint256 private rate;\n\n    // mapping from address to time\n    mapping(address => uint256) private timeLock;\n\n    // mapping from address to lockAmount\n    mapping(address => uint256) private balances;\n\n    /* uint256 private constant MINERCARD_1 = 25;\n    uint256 private constant MINERCARD_2 = 50;\n    uint256 private constant MINERCARD_3 = 100;\n    uint256 private constant MINERCARD_4 = 250;\n    uint256 private constant MINERCARD_5 = 1000; */\n\n    // Emitted when funds is locked.\n    event LockFund(\n        address indexed _account,\n        uint256 indexed _tokenType,\n        uint256 _lockAmount\n    );\n\n    // Emitted when funds and dividends is withdrawn.\n    event Withdraw(\n        address indexed _account,\n        uint256 indexed _lockAmount,\n        uint256 _dividends\n    );\n\n    // Emitted when only lock fund is withdrwan.\n    event Release(address indexed _account, uint256 indexed _lockAmount);\n\n    /**\n     * @dev  Initializer function (replaces constructor)\n     * Sets the initializes {naMinerCards}, {Exgold} token, and sets value fo\n     r {time}\n     *\n     * All three of these values are immutable: they can only be set once during\n     * construction.\n     */\n    function initialize(\n        address _minerCards,\n        address _tokenAddress,\n        uint256 _time,\n        uint256 _rate\n    ) public initializer {\n        time = _time;\n        rate = _rate;\n        minerCards = MinerCards(_minerCards);\n        token = IERC20(_tokenAddress);\n    }\n\n    /**\n     * @dev  Locks `_account` funds\n     * Contract transfers the lock amount from `_account` to contract.\n     * Sets the lock time and balances.\n     * Emits `LockFund` event.\n     */\n    function lockFunds(\n        address _account,\n        uint256 _id,\n        uint256 _lockAmount\n    ) public {\n        uint256 balance = minerCards.balanceOf(_account, _id);\n        require(\n            balance > 0,\n            \"MinerCardRewards: Account has insufficient miner card token to lock funds.\"\n        );\n        uint256 allowance = token.allowance(_account, address(this));\n        require(\n            allowance >= _lockAmount,\n            \"MinerCardRewards: lockAmount exceeds allowance.\"\n        );\n        require(\n            _id == _lockAmount,\n            \"MinerCardRewards: id not equal to lock amount.\"\n        );\n        token.transferFrom(_account, address(this), _lockAmount);\n        balances[_account] = balances[_account].add(_lockAmount);\n        timeLock[_account] = block.timestamp;\n        emit LockFund(_account, _id, _lockAmount);\n    }\n\n    /**\n     * @dev  release locked funds excluding dividends.\n     * Calling this function releases the locked funds to `msg.sender`.\n     * Note: Calling this function assumes the lock time has not been met.\n     * Emits `Release` event.\n     */\n    function release() public {\n        require(\n            timeLock[msg.sender] != 0 && balances[msg.sender] != 0,\n            \"MinerCardRewards: no funds locked.\"\n        );\n        uint256 balance = balances[msg.sender];\n        token.transfer(msg.sender, balance);\n        balances[msg.sender] = balances[msg.sender].sub(balance);\n        emit Release(msg.sender, balance);\n    }\n\n    /**\n     * @dev  release locked funds plus dividends.\n     * Dividends is 5% of amount locked\n     * Emits `Withdraw` event.\n     */\n    function withdraw() public {\n        require(\n            block.timestamp >= timeLock[msg.sender],\n            \"MinerCardRewards: current time is before release time.\"\n        );\n        require(\n            timeLock[msg.sender] != 0 && balances[msg.sender] != 0,\n            \"MinerCardRewards: no funds locked.\"\n        );\n\n        uint256 _balance = balances[msg.sender];\n        uint256 dividends = calcDividends(_balance, timeLock[msg.sender]);\n        require(\n            token.balanceOf(address(this)) >= dividends,\n            \"MinerCardRewards: Insufficient funds to pay dividends\"\n        );\n        token.transfer(msg.sender, _balance.add(dividends));\n        balances[msg.sender] = balances[msg.sender].sub(_balance);\n        emit Release(msg.sender, _balance);\n    }\n\n    /**\n     * @dev calculate dividends for `_lockAmount`\n     */\n    function calcDividends(uint256 _lockAmount, uint256 _lockTime)\n        private\n        returns (uint256)\n    {\n        uint256 a = rate.div(100);\n        return a.mul(_lockAmount);\n    }\n}\n",
  "sourcePath": "contracts/MinerCardRewards.sol",
  "abi": [
    {
      "anonymous": false,
      "inputs": [
        {
          "indexed": true,
          "internalType": "address",
          "name": "_account",
          "type": "address"
        },
        {
          "indexed": true,
          "internalType": "uint256",
          "name": "_tokenType",
          "type": "uint256"
        },
        {
          "indexed": false,
          "internalType": "uint256",
          "name": "_lockAmount",
          "type": "uint256"
        }
      ],
      "name": "LockFund",
      "type": "event"
    },
    {
      "anonymous": false,
      "inputs": [
        {
          "indexed": true,
          "internalType": "address",
          "name": "_account",
          "type": "address"
        },
        {
          "indexed": true,
          "internalType": "uint256",
          "name": "_lockAmount",
          "type": "uint256"
        }
      ],
      "name": "Release",
      "type": "event"
    },
    {
      "anonymous": false,
      "inputs": [
        {
          "indexed": true,
          "internalType": "address",
          "name": "_account",
          "type": "address"
        },
        {
          "indexed": true,
          "internalType": "uint256",
          "name": "_lockAmount",
          "type": "uint256"
        },
        {
          "indexed": false,
          "internalType": "uint256",
          "name": "_dividends",
          "type": "uint256"
        }
      ],
      "name": "Withdraw",
      "type": "event"
    },
    {
      "inputs": [
        {
          "internalType": "address",
          "name": "_minerCards",
          "type": "address"
        },
        {
          "internalType": "address",
          "name": "_tokenAddress",
          "type": "address"
        },
        {
          "internalType": "uint256",
          "name": "_time",
          "type": "uint256"
        },
        {
          "internalType": "uint256",
          "name": "_rate",
          "type": "uint256"
        }
      ],
      "name": "initialize",
      "outputs": [],
      "stateMutability": "nonpayable",
      "type": "function"
    },
    {
      "inputs": [
        {
          "internalType": "address",
          "name": "_account",
          "type": "address"
        },
        {
          "internalType": "uint256",
          "name": "_id",
          "type": "uint256"
        },
        {
          "internalType": "uint256",
          "name": "_lockAmount",
          "type": "uint256"
        }
      ],
      "name": "lockFunds",
      "outputs": [],
      "stateMutability": "nonpayable",
      "type": "function"
    },
    {
      "inputs": [],
      "name": "release",
      "outputs": [],
      "stateMutability": "nonpayable",
      "type": "function"
    },
    {
      "inputs": [],
      "name": "withdraw",
      "outputs": [],
      "stateMutability": "nonpayable",
      "type": "function"
    }
  ],
  "bytecode": "0x608060405234801561001057600080fd5b5061148d806100206000396000f3fe608060405234801561001057600080fd5b506004361061004c5760003560e01c80633ccfd60b1461005157806386d1a69f1461005b578063babac77e14610065578063eb990c59146100bd575b600080fd5b610059610135565b005b61006361061d565b005b6100bb6004803603606081101561007b57600080fd5b81019080803573ffffffffffffffffffffffffffffffffffffffff16906020019092919080359060200190929190803590602001909291905050506108f1565b005b610133600480360360808110156100d357600080fd5b81019080803573ffffffffffffffffffffffffffffffffffffffff169060200190929190803573ffffffffffffffffffffffffffffffffffffffff1690602001909291908035906020019092919080359060200190929190505050610dcc565b005b603760003373ffffffffffffffffffffffffffffffffffffffff1673ffffffffffffffffffffffffffffffffffffffff168152602001908152602001600020544210156101cd576040517f08c379a00000000000000000000000000000000000000000000000000000000081526004018080602001828103825260368152602001806113036036913960400191505060405180910390fd5b6000603760003373ffffffffffffffffffffffffffffffffffffffff1673ffffffffffffffffffffffffffffffffffffffff168152602001908152602001600020541415801561025d57506000603860003373ffffffffffffffffffffffffffffffffffffffff1673ffffffffffffffffffffffffffffffffffffffff1681526020019081526020016000205414155b6102b2576040517f08c379a00000000000000000000000000000000000000000000000000000000081526004018080602001828103825260228152602001806113686022913960400191505060405180910390fd5b6000603860003373ffffffffffffffffffffffffffffffffffffffff1673ffffffffffffffffffffffffffffffffffffffff168152602001908152602001600020549050600061034182603760003373ffffffffffffffffffffffffffffffffffffffff1673ffffffffffffffffffffffffffffffffffffffff16815260200190815260200160002054610f5e565b905080603360009054906101000a900473ffffffffffffffffffffffffffffffffffffffff1673ffffffffffffffffffffffffffffffffffffffff166370a08231306040518263ffffffff1660e01b8152600401808273ffffffffffffffffffffffffffffffffffffffff16815260200191505060206040518083038186803b1580156103cd57600080fd5b505afa1580156103e1573d6000803e3d6000fd5b505050506040513d60208110156103f757600080fd5b8101908080519060200190929190505050101561045f576040517f08c379a00000000000000000000000000000000000000000000000000000000081526004018080602001828103825260358152602001806113d96035913960400191505060405180910390fd5b603360009054906101000a900473ffffffffffffffffffffffffffffffffffffffff1673ffffffffffffffffffffffffffffffffffffffff1663a9059cbb336104b18486610f9590919063ffffffff16565b6040518363ffffffff1660e01b8152600401808373ffffffffffffffffffffffffffffffffffffffff16815260200182815260200192505050602060405180830381600087803b15801561050457600080fd5b505af1158015610518573d6000803e3d6000fd5b505050506040513d602081101561052e57600080fd5b81019080805190602001909291905050505061059282603860003373ffffffffffffffffffffffffffffffffffffffff1673ffffffffffffffffffffffffffffffffffffffff1681526020019081526020016000205461101d90919063ffffffff16565b603860003373ffffffffffffffffffffffffffffffffffffffff1673ffffffffffffffffffffffffffffffffffffffff16815260200190815260200160002081905550813373ffffffffffffffffffffffffffffffffffffffff167ff6334794522b9db534a812aaae1af828a2e96aac68473b58e36d7d0bfd67477b60405160405180910390a35050565b6000603760003373ffffffffffffffffffffffffffffffffffffffff1673ffffffffffffffffffffffffffffffffffffffff16815260200190815260200160002054141580156106ad57506000603860003373ffffffffffffffffffffffffffffffffffffffff1673ffffffffffffffffffffffffffffffffffffffff1681526020019081526020016000205414155b610702576040517f08c379a00000000000000000000000000000000000000000000000000000000081526004018080602001828103825260228152602001806113686022913960400191505060405180910390fd5b6000603860003373ffffffffffffffffffffffffffffffffffffffff1673ffffffffffffffffffffffffffffffffffffffff168152602001908152602001600020549050603360009054906101000a900473ffffffffffffffffffffffffffffffffffffffff1673ffffffffffffffffffffffffffffffffffffffff1663a9059cbb33836040518363ffffffff1660e01b8152600401808373ffffffffffffffffffffffffffffffffffffffff16815260200182815260200192505050602060405180830381600087803b1580156107d957600080fd5b505af11580156107ed573d6000803e3d6000fd5b505050506040513d602081101561080357600080fd5b81019080805190602001909291905050505061086781603860003373ffffffffffffffffffffffffffffffffffffffff1673ffffffffffffffffffffffffffffffffffffffff1681526020019081526020016000205461101d90919063ffffffff16565b603860003373ffffffffffffffffffffffffffffffffffffffff1673ffffffffffffffffffffffffffffffffffffffff16815260200190815260200160002081905550803373ffffffffffffffffffffffffffffffffffffffff167ff6334794522b9db534a812aaae1af828a2e96aac68473b58e36d7d0bfd67477b60405160405180910390a350565b6000603460009054906101000a900473ffffffffffffffffffffffffffffffffffffffff1673ffffffffffffffffffffffffffffffffffffffff1662fdd58e85856040518363ffffffff1660e01b8152600401808373ffffffffffffffffffffffffffffffffffffffff1681526020018281526020019250505060206040518083038186803b15801561098357600080fd5b505afa158015610997573d6000803e3d6000fd5b505050506040513d60208110156109ad57600080fd5b8101908080519060200190929190505050905060008111610a19576040517f08c379a000000000000000000000000000000000000000000000000000000000815260040180806020018281038252604a81526020018061140e604a913960600191505060405180910390fd5b6000603360009054906101000a900473ffffffffffffffffffffffffffffffffffffffff1673ffffffffffffffffffffffffffffffffffffffff1663dd62ed3e86306040518363ffffffff1660e01b8152600401808373ffffffffffffffffffffffffffffffffffffffff1681526020018273ffffffffffffffffffffffffffffffffffffffff1681526020019250505060206040518083038186803b158015610ac257600080fd5b505afa158015610ad6573d6000803e3d6000fd5b505050506040513d6020811015610aec57600080fd5b8101908080519060200190929190505050905082811015610b58576040517f08c379a000000000000000000000000000000000000000000000000000000000815260040180806020018281038252602f815260200180611339602f913960400191505060405180910390fd5b828414610bb0576040517f08c379a000000000000000000000000000000000000000000000000000000000815260040180806020018281038252602e8152602001806112d5602e913960400191505060405180910390fd5b603360009054906101000a900473ffffffffffffffffffffffffffffffffffffffff1673ffffffffffffffffffffffffffffffffffffffff166323b872dd8630866040518463ffffffff1660e01b8152600401808473ffffffffffffffffffffffffffffffffffffffff1681526020018373ffffffffffffffffffffffffffffffffffffffff1681526020018281526020019350505050602060405180830381600087803b158015610c6157600080fd5b505af1158015610c75573d6000803e3d6000fd5b505050506040513d6020811015610c8b57600080fd5b810190808051906020019092919050505050610cef83603860008873ffffffffffffffffffffffffffffffffffffffff1673ffffffffffffffffffffffffffffffffffffffff16815260200190815260200160002054610f9590919063ffffffff16565b603860008773ffffffffffffffffffffffffffffffffffffffff1673ffffffffffffffffffffffffffffffffffffffff1681526020019081526020016000208190555042603760008773ffffffffffffffffffffffffffffffffffffffff1673ffffffffffffffffffffffffffffffffffffffff16815260200190815260200160002081905550838573ffffffffffffffffffffffffffffffffffffffff167fb2918ab7bbce88c5d881690a22a6cafe802664274a5044c300c3e3cacf7363e2856040518082815260200191505060405180910390a35050505050565b600060019054906101000a900460ff1680610deb5750610dea611067565b5b80610e01575060008054906101000a900460ff16155b610e56576040517f08c379a000000000000000000000000000000000000000000000000000000000815260040180806020018281038252602e8152602001806113ab602e913960400191505060405180910390fd5b60008060019054906101000a900460ff161590508015610ea6576001600060016101000a81548160ff02191690831515021790555060016000806101000a81548160ff0219169083151502179055505b826035819055508160368190555084603460006101000a81548173ffffffffffffffffffffffffffffffffffffffff021916908373ffffffffffffffffffffffffffffffffffffffff16021790555083603360006101000a81548173ffffffffffffffffffffffffffffffffffffffff021916908373ffffffffffffffffffffffffffffffffffffffff1602179055508015610f575760008060016101000a81548160ff0219169083151502179055505b5050505050565b600080610f77606460365461107e90919063ffffffff16565b9050610f8c84826110c890919063ffffffff16565b91505092915050565b600080828401905083811015611013576040517f08c379a000000000000000000000000000000000000000000000000000000000815260040180806020018281038252601b8152602001807f536166654d6174683a206164646974696f6e206f766572666c6f77000000000081525060200191505060405180910390fd5b8091505092915050565b600061105f83836040518060400160405280601e81526020017f536166654d6174683a207375627472616374696f6e206f766572666c6f77000081525061114e565b905092915050565b6000803090506000813b9050600081149250505090565b60006110c083836040518060400160405280601a81526020017f536166654d6174683a206469766973696f6e206279207a65726f00000000000081525061120e565b905092915050565b6000808314156110db5760009050611148565b60008284029050828482816110ec57fe5b0414611143576040517f08c379a000000000000000000000000000000000000000000000000000000000815260040180806020018281038252602181526020018061138a6021913960400191505060405180910390fd5b809150505b92915050565b60008383111582906111fb576040517f08c379a00000000000000000000000000000000000000000000000000000000081526004018080602001828103825283818151815260200191508051906020019080838360005b838110156111c05780820151818401526020810190506111a5565b50505050905090810190601f1680156111ed5780820380516001836020036101000a031916815260200191505b509250505060405180910390fd5b5060008385039050809150509392505050565b600080831182906112ba576040517f08c379a00000000000000000000000000000000000000000000000000000000081526004018080602001828103825283818151815260200191508051906020019080838360005b8381101561127f578082015181840152602081019050611264565b50505050905090810190601f1680156112ac5780820380516001836020036101000a031916815260200191505b509250505060405180910390fd5b5060008385816112c657fe5b04905080915050939250505056fe4d696e657243617264526577617264733a206964206e6f7420657175616c20746f206c6f636b20616d6f756e742e4d696e657243617264526577617264733a2063757272656e742074696d65206973206265666f72652072656c656173652074696d652e4d696e657243617264526577617264733a206c6f636b416d6f756e74206578636565647320616c6c6f77616e63652e4d696e657243617264526577617264733a206e6f2066756e6473206c6f636b65642e536166654d6174683a206d756c7469706c69636174696f6e206f766572666c6f77436f6e747261637420696e7374616e63652068617320616c7265616479206265656e20696e697469616c697a65644d696e657243617264526577617264733a20496e73756666696369656e742066756e647320746f20706179206469766964656e64734d696e657243617264526577617264733a204163636f756e742068617320696e73756666696369656e74206d696e6572206361726420746f6b656e20746f206c6f636b2066756e64732ea264697066735822122055de6f6f2d5ef8110540b89123dd28a47a51182bc766429b5c95af453fc8275764736f6c634300060c0033",
  "compiler": {
    "name": "solc",
    "version": "0.6.12+commit.27d51765.Emscripten.clang",
    "optimizer": {
      "enabled": false,
      "runs": 200
    },
    "evmVersion": "petersburg"
  }
}