{
  "fileName": "MinerCardRewards.sol",
  "contractName": "MinerCardRewards",
  "source": "// SPDX-License-Identifier: MIT\n\npragma solidity ^0.6.0;\n\nimport \"./MinerCards.sol\";\nimport \"@openzeppelin/contracts-ethereum-package/contracts/token/ERC20/IERC20.sol\";\nimport \"@openzeppelin/contracts/token/ERC1155/ERC1155Holder.sol\";\n\ncontract MinerCardRewards is ERC1155Holder {\n    using SafeMath for uint256;\n\n    uint256 private count = 0;\n    uint256 public constant MINERCARD_1 = 25;\n    uint256 public constant MINERCARD_2 = 50;\n    uint256 public constant MINERCARD_3 = 100;\n    uint256 public constant MINERCARD_4 = 250;\n    uint256 public constant MINERCARD_5 = 1000;\n\n    IERC20 private token;\n    MinerCards private minerCards;\n    uint256 private _releaseTime;\n    uint256 private rate;\n\n    // mapping from address to time\n    mapping(address => uint256) private unLockDates;\n\n    // mapping from address to lockAmount\n    mapping(address => uint256) private balances;\n\n    // mapping from ID of ERC-721 to original owner\n    mapping(uint256 => address) private _idToAccount;\n\n    mapping(address => mapping(uint256 => uint256)) private _certNft;\n\n    // mapping from id of ERC-721 to amount locked\n    mapping(uint256 => uint256) private _idToLockedAmount;\n\n    // total amount locked\n    uint256 private _lockedFunds;\n\n    // Emitted when funds is locked.\n    event LockFund(\n        address indexed _account,\n        uint256 indexed _tokenType,\n        uint256 _lockAmount\n    );\n\n    // Emitted when funds and dividends is withdrawn.\n    event Withdraw(\n        address indexed _account,\n        uint256 indexed _lockAmount,\n        uint256 _dividends\n    );\n\n    // Emitted when funds and dividends is withdrawn.\n    event IssueNFT(address indexed _account, uint256 indexed _id);\n\n    // Emitted when only lock fund is withdrwan.\n    event Release(address indexed _account, uint256 indexed _lockAmount);\n\n    /**\n     * @dev Require funds to be locked\n     */\n    modifier fundsLocked(uint256 _id) {\n        require(\n            _idToLockedAmount[_id] != 0 && _idToAccount[_id] != address(0),\n            \"MinerCardRewards: no funds locked\"\n        );\n        _;\n    }\n\n    /**\n     * @dev  Initializer function (replaces constructor)\n     * Sets the initializes {naMinerCards}, {Exgold} token, and sets value fo\n     r {time}\n     *\n     * All three of these values are immutable: they can only be set once during\n     * construction.\n     */\n    constructor(\n        uint256 _time,\n        uint256 _rate,\n        address __minerCardsAddress,\n        address _tokenAddress\n    ) public {\n        _releaseTime = _time;\n        rate = _rate;\n        minerCards = MinerCards(__minerCardsAddress);\n        token = IERC20(_tokenAddress);\n    }\n\n    /**\n     * @dev  Locks `_account` funds and Issues NFT\n     * Contract transfers the lock amount from `_account` to contract.\n     * `_account` must set (ERC-20) allowance for contract address, else transaction reverts\n     * `_account` must set (ERC-1155) setApprovalForAll for contract address, else transaction fails\n     * Sets the lock time and balances.\n     * Emits `LockFund`  and IssueNFT event\n     */\n    function lockFunds(uint256 _id, uint256 _lockAmount) public {\n        address _account = msg.sender;\n        require(\n            validateTokenType(_id) == true,\n            \"MinerCardRewards: Invalid token ID\"\n        );\n        uint256 balance = minerCards.balanceOf(_account, _id);\n        require(\n            balance > 0,\n            \"MinerCardRewards: Account has insufficient miner cards to lock funds\"\n        );\n        uint256 allowance = token.allowance(_account, address(this));\n        require(\n            allowance >= _lockAmount,\n            \"MinerCardRewards: Insufficient allowance set for MinerRewards Contract\"\n        );\n\n        require(\n            checkLockAmount(_lockAmount, _id) == true,\n            \"MinerCardRewards: Invalid amount provided.\"\n        );\n\n        require(\n            minerCards.isApprovedForAll(_account, address(this)) == true,\n            \"MinerCardRewards: setApprovalForAll not set for MinerRewards Contract\"\n        );\n\n        uint256 id = getId();\n        minerCards.safeTransferFrom(_account, address(this), _id, 1, \"\");\n        token.transferFrom(_account, address(this), _lockAmount);\n        minerCards.mint(_account, id);\n        _idToAccount[id] = _account;\n        _idToLockedAmount[id] = _lockAmount;\n        _certNft[_account][_id] = id;\n        emit IssueNFT(_account, id);\n        balances[_account] = balances[_account].add(_lockAmount);\n        _lockedFunds = _lockedFunds.add(_lockAmount);\n        unLockDates[_account] = block.timestamp.add(_releaseTime);\n        emit LockFund(_account, _id, _lockAmount);\n    }\n\n    /**\n     * @dev  release locked funds excluding dividends.\n     * `_id` is ID of ERC-721 token issued during locking funds\n     * Calling this function releases the locked funds to `msg.sender`.\n     * Note: Calling this function assumes the lock time has not been met.\n     * Emits `Release` event.\n     */\n    function release(uint256 _id) public fundsLocked(_id) {\n        uint256 balance = minerCards.balanceOf(msg.sender, _id);\n        require(\n            balance > 0,\n            \"MinerCardRewards: Account has no cert to withdraw funds\"\n        );\n\n        uint256 _amountLocked = _idToLockedAmount[_id];\n        token.transfer(msg.sender, _amountLocked);\n        uint256 nftId = _amountLocked.div(10**uint256(6));\n        transferERC1155(msg.sender, nftId);\n        _idToLockedAmount[_id] = 0;\n        _idToAccount[_id] = address(0);\n        _lockedFunds = _lockedFunds.sub(_amountLocked);\n        balances[msg.sender] = balances[msg.sender].sub(_amountLocked);\n        emit Release(msg.sender, _amountLocked);\n    }\n\n    /**\n     * @dev  release locked funds plus dividends.\n     * Dividends is 5% of amount locked\n     * Emits `Withdraw` event.\n     */\n    function withdraw(uint256 _id) public fundsLocked(_id) {\n        uint256 balance = minerCards.balanceOf(msg.sender, _id);\n        require(\n            balance > 0,\n            \"MinerCardRewards: Account has no cert to withdraw funds + dividends\"\n        );\n        require(\n            block.timestamp >= unLockDates[_idToAccount[_id]],\n            \"MinerCardRewards: current time is before release time\"\n        );\n\n        uint256 _amountLocked = _idToLockedAmount[_id];\n        uint256 dividends = calcDividends(_amountLocked);\n        require(\n            sufficientFunds(dividends) == true,\n            \"MinerCardRewards: Insufficient funds to pay dividends\"\n        );\n        token.transfer(msg.sender, _amountLocked.add(dividends));\n        uint256 nftId = _amountLocked.div(10**uint256(6));\n        transferERC1155(msg.sender, nftId);\n        _idToLockedAmount[_id] = 0;\n        _idToAccount[_id] = address(0);\n        balances[msg.sender] = balances[msg.sender].sub(_amountLocked);\n        _lockedFunds = _lockedFunds.sub(_amountLocked);\n        emit Withdraw(msg.sender, _amountLocked, dividends);\n    }\n\n    function idToLockedAmount(uint256 id) public view returns (uint256) {\n        return _idToLockedAmount[id];\n    }\n\n    function idToAccount(uint256 id) public view returns (address) {\n        return _idToAccount[id];\n    }\n\n    function certToken(address _account, uint256 _id)\n        public\n        view\n        returns (uint256)\n    {\n        return _certNft[_account][_id];\n    }\n\n    // checks if `_id` is a valid token type\n    function validateTokenType(uint256 _id) internal pure returns (bool) {\n        if (\n            _id == MINERCARD_1 ||\n            _id == MINERCARD_2 ||\n            _id == MINERCARD_3 ||\n            _id == MINERCARD_4 ||\n            _id == MINERCARD_5\n        ) {\n            return true;\n        }\n\n        return false;\n    }\n\n    function getId() public returns (uint256) {\n        count = count.add(1);\n        if (\n            count == MINERCARD_1 ||\n            count == MINERCARD_2 ||\n            count == MINERCARD_3 ||\n            count == MINERCARD_4 ||\n            count == MINERCARD_5\n        ) {\n            count = count.add(3);\n            return count;\n        }\n\n        return count;\n    }\n\n    function transferERC1155(address _account, uint256 _id) public {\n        minerCards.safeTransferFrom(address(this), _account, _id, 1, \"\");\n    }\n\n    function checkLockAmount(uint256 _lockAmount, uint256 _id)\n        public\n        pure\n        returns (bool)\n    {\n        uint256 _amount = _lockAmount.div(10**uint256(6));\n        if (validateTokenType((_amount)) == true && _amount == _id) {\n            return true;\n        }\n\n        return false;\n    }\n\n    /**\n     * @dev calculate dividends for `_lockAmount`\n     */\n    function calcDividends(uint256 _lockAmount) private view returns (uint256) {\n        uint256 r = rate.mul(_lockAmount);\n        return r.div(100);\n    }\n\n    function releaseTime() public view returns (uint256) {\n        return _releaseTime;\n    }\n\n    function getRate() public view returns (uint256) {\n        return rate;\n    }\n\n    function accountReleaseTime(address _account)\n        public\n        view\n        returns (uint256)\n    {\n        return unLockDates[_account];\n    }\n\n    function balance(address _account) public view returns (uint256) {\n        return balances[_account];\n    }\n\n    function sufficientFunds(uint256 _dividends) private view returns (bool) {\n        uint256 _balance = token.balanceOf(address(this));\n        uint256 r = _balance.sub(_lockedFunds);\n        if (r > 0 && r >= _dividends) {\n            return true;\n        }\n\n        return false;\n    }\n}\n",
  "sourcePath": "contracts/MinerCardRewards.sol",
  "abi": [
    {
      "inputs": [
        {
          "internalType": "uint256",
          "name": "_time",
          "type": "uint256"
        },
        {
          "internalType": "uint256",
          "name": "_rate",
          "type": "uint256"
        },
        {
          "internalType": "address",
          "name": "__minerCardsAddress",
          "type": "address"
        },
        {
          "internalType": "address",
          "name": "_tokenAddress",
          "type": "address"
        }
      ],
      "stateMutability": "nonpayable",
      "type": "constructor"
    },
    {
      "anonymous": false,
      "inputs": [
        {
          "indexed": true,
          "internalType": "address",
          "name": "_account",
          "type": "address"
        },
        {
          "indexed": true,
          "internalType": "uint256",
          "name": "_id",
          "type": "uint256"
        }
      ],
      "name": "IssueNFT",
      "type": "event"
    },
    {
      "anonymous": false,
      "inputs": [
        {
          "indexed": true,
          "internalType": "address",
          "name": "_account",
          "type": "address"
        },
        {
          "indexed": true,
          "internalType": "uint256",
          "name": "_tokenType",
          "type": "uint256"
        },
        {
          "indexed": false,
          "internalType": "uint256",
          "name": "_lockAmount",
          "type": "uint256"
        }
      ],
      "name": "LockFund",
      "type": "event"
    },
    {
      "anonymous": false,
      "inputs": [
        {
          "indexed": true,
          "internalType": "address",
          "name": "_account",
          "type": "address"
        },
        {
          "indexed": true,
          "internalType": "uint256",
          "name": "_lockAmount",
          "type": "uint256"
        }
      ],
      "name": "Release",
      "type": "event"
    },
    {
      "anonymous": false,
      "inputs": [
        {
          "indexed": true,
          "internalType": "address",
          "name": "_account",
          "type": "address"
        },
        {
          "indexed": true,
          "internalType": "uint256",
          "name": "_lockAmount",
          "type": "uint256"
        },
        {
          "indexed": false,
          "internalType": "uint256",
          "name": "_dividends",
          "type": "uint256"
        }
      ],
      "name": "Withdraw",
      "type": "event"
    },
    {
      "inputs": [],
      "name": "MINERCARD_1",
      "outputs": [
        {
          "internalType": "uint256",
          "name": "",
          "type": "uint256"
        }
      ],
      "stateMutability": "view",
      "type": "function"
    },
    {
      "inputs": [],
      "name": "MINERCARD_2",
      "outputs": [
        {
          "internalType": "uint256",
          "name": "",
          "type": "uint256"
        }
      ],
      "stateMutability": "view",
      "type": "function"
    },
    {
      "inputs": [],
      "name": "MINERCARD_3",
      "outputs": [
        {
          "internalType": "uint256",
          "name": "",
          "type": "uint256"
        }
      ],
      "stateMutability": "view",
      "type": "function"
    },
    {
      "inputs": [],
      "name": "MINERCARD_4",
      "outputs": [
        {
          "internalType": "uint256",
          "name": "",
          "type": "uint256"
        }
      ],
      "stateMutability": "view",
      "type": "function"
    },
    {
      "inputs": [],
      "name": "MINERCARD_5",
      "outputs": [
        {
          "internalType": "uint256",
          "name": "",
          "type": "uint256"
        }
      ],
      "stateMutability": "view",
      "type": "function"
    },
    {
      "inputs": [
        {
          "internalType": "address",
          "name": "_account",
          "type": "address"
        }
      ],
      "name": "accountReleaseTime",
      "outputs": [
        {
          "internalType": "uint256",
          "name": "",
          "type": "uint256"
        }
      ],
      "stateMutability": "view",
      "type": "function"
    },
    {
      "inputs": [
        {
          "internalType": "address",
          "name": "_account",
          "type": "address"
        }
      ],
      "name": "balance",
      "outputs": [
        {
          "internalType": "uint256",
          "name": "",
          "type": "uint256"
        }
      ],
      "stateMutability": "view",
      "type": "function"
    },
    {
      "inputs": [
        {
          "internalType": "address",
          "name": "_account",
          "type": "address"
        },
        {
          "internalType": "uint256",
          "name": "_id",
          "type": "uint256"
        }
      ],
      "name": "certToken",
      "outputs": [
        {
          "internalType": "uint256",
          "name": "",
          "type": "uint256"
        }
      ],
      "stateMutability": "view",
      "type": "function"
    },
    {
      "inputs": [
        {
          "internalType": "uint256",
          "name": "_lockAmount",
          "type": "uint256"
        },
        {
          "internalType": "uint256",
          "name": "_id",
          "type": "uint256"
        }
      ],
      "name": "checkLockAmount",
      "outputs": [
        {
          "internalType": "bool",
          "name": "",
          "type": "bool"
        }
      ],
      "stateMutability": "pure",
      "type": "function"
    },
    {
      "inputs": [],
      "name": "getId",
      "outputs": [
        {
          "internalType": "uint256",
          "name": "",
          "type": "uint256"
        }
      ],
      "stateMutability": "nonpayable",
      "type": "function"
    },
    {
      "inputs": [],
      "name": "getRate",
      "outputs": [
        {
          "internalType": "uint256",
          "name": "",
          "type": "uint256"
        }
      ],
      "stateMutability": "view",
      "type": "function"
    },
    {
      "inputs": [
        {
          "internalType": "uint256",
          "name": "id",
          "type": "uint256"
        }
      ],
      "name": "idToAccount",
      "outputs": [
        {
          "internalType": "address",
          "name": "",
          "type": "address"
        }
      ],
      "stateMutability": "view",
      "type": "function"
    },
    {
      "inputs": [
        {
          "internalType": "uint256",
          "name": "id",
          "type": "uint256"
        }
      ],
      "name": "idToLockedAmount",
      "outputs": [
        {
          "internalType": "uint256",
          "name": "",
          "type": "uint256"
        }
      ],
      "stateMutability": "view",
      "type": "function"
    },
    {
      "inputs": [
        {
          "internalType": "uint256",
          "name": "_id",
          "type": "uint256"
        },
        {
          "internalType": "uint256",
          "name": "_lockAmount",
          "type": "uint256"
        }
      ],
      "name": "lockFunds",
      "outputs": [],
      "stateMutability": "nonpayable",
      "type": "function"
    },
    {
      "inputs": [
        {
          "internalType": "address",
          "name": "",
          "type": "address"
        },
        {
          "internalType": "address",
          "name": "",
          "type": "address"
        },
        {
          "internalType": "uint256[]",
          "name": "",
          "type": "uint256[]"
        },
        {
          "internalType": "uint256[]",
          "name": "",
          "type": "uint256[]"
        },
        {
          "internalType": "bytes",
          "name": "",
          "type": "bytes"
        }
      ],
      "name": "onERC1155BatchReceived",
      "outputs": [
        {
          "internalType": "bytes4",
          "name": "",
          "type": "bytes4"
        }
      ],
      "stateMutability": "nonpayable",
      "type": "function"
    },
    {
      "inputs": [
        {
          "internalType": "address",
          "name": "",
          "type": "address"
        },
        {
          "internalType": "address",
          "name": "",
          "type": "address"
        },
        {
          "internalType": "uint256",
          "name": "",
          "type": "uint256"
        },
        {
          "internalType": "uint256",
          "name": "",
          "type": "uint256"
        },
        {
          "internalType": "bytes",
          "name": "",
          "type": "bytes"
        }
      ],
      "name": "onERC1155Received",
      "outputs": [
        {
          "internalType": "bytes4",
          "name": "",
          "type": "bytes4"
        }
      ],
      "stateMutability": "nonpayable",
      "type": "function"
    },
    {
      "inputs": [
        {
          "internalType": "uint256",
          "name": "_id",
          "type": "uint256"
        }
      ],
      "name": "release",
      "outputs": [],
      "stateMutability": "nonpayable",
      "type": "function"
    },
    {
      "inputs": [],
      "name": "releaseTime",
      "outputs": [
        {
          "internalType": "uint256",
          "name": "",
          "type": "uint256"
        }
      ],
      "stateMutability": "view",
      "type": "function"
    },
    {
      "inputs": [
        {
          "internalType": "bytes4",
          "name": "interfaceId",
          "type": "bytes4"
        }
      ],
      "name": "supportsInterface",
      "outputs": [
        {
          "internalType": "bool",
          "name": "",
          "type": "bool"
        }
      ],
      "stateMutability": "view",
      "type": "function"
    },
    {
      "inputs": [
        {
          "internalType": "address",
          "name": "_account",
          "type": "address"
        },
        {
          "internalType": "uint256",
          "name": "_id",
          "type": "uint256"
        }
      ],
      "name": "transferERC1155",
      "outputs": [],
      "stateMutability": "nonpayable",
      "type": "function"
    },
    {
      "inputs": [
        {
          "internalType": "uint256",
          "name": "_id",
          "type": "uint256"
        }
      ],
      "name": "withdraw",
      "outputs": [],
      "stateMutability": "nonpayable",
      "type": "function"
    }
  ],
  "bytecode": "0x608060405260006001553480156200001657600080fd5b50604051620029fc380380620029fc833981810160405260808110156200003c57600080fd5b8101908080519060200190929190805190602001909291908051906020019092919080519060200190929190505050620000836301ffc9a760e01b6200013e60201b60201c565b620000a463bc197c8160e01b63f23a6e6160e01b186200013e60201b60201c565b836004819055508260058190555081600360006101000a81548173ffffffffffffffffffffffffffffffffffffffff021916908373ffffffffffffffffffffffffffffffffffffffff16021790555080600260006101000a81548173ffffffffffffffffffffffffffffffffffffffff021916908373ffffffffffffffffffffffffffffffffffffffff1602179055505050505062000247565b63ffffffff60e01b817bffffffffffffffffffffffffffffffffffffffffffffffffffffffff19161415620001db576040517f08c379a000000000000000000000000000000000000000000000000000000000815260040180806020018281038252601c8152602001807f4552433136353a20696e76616c696420696e746572666163652069640000000081525060200191505060405180910390fd5b6001600080837bffffffffffffffffffffffffffffffffffffffffffffffffffffffff19167bffffffffffffffffffffffffffffffffffffffffffffffffffffffff1916815260200190815260200160002060006101000a81548160ff02191690831515021790555050565b6127a580620002576000396000f3fe608060405234801561001057600080fd5b50600436106101375760003560e01c80638db8e035116100b8578063ced9ae401161007c578063ced9ae4014610673578063e3d670d714610691578063ebb4ff82146106e9578063ed236a1c1461074b578063f23a6e61146107a3578063fee45c7e146108e557610137565b80638db8e03514610375578063922fa552146103c3578063a1849e60146103e1578063b91d4001146103ff578063bc197c811461041d57610137565b806337bdc99b116100ff57806337bdc99b1461029f57806349f1147d146102cd5780635d1ca631146102eb578063679aefce14610309578063758718c31461032757610137565b806301ffc9a71461013c5780630e4038871461019f57806317787ae7146101f75780632e1a7d4d146102395780633287db4b14610267575b600080fd5b6101876004803603602081101561015257600080fd5b8101908080357bffffffffffffffffffffffffffffffffffffffffffffffffffffffff19169060200190929190505050610903565b60405180821515815260200191505060405180910390f35b6101cb600480360360208110156101b557600080fd5b810190808035906020019092919050505061096a565b604051808273ffffffffffffffffffffffffffffffffffffffff16815260200191505060405180910390f35b6102236004803603602081101561020d57600080fd5b81019080803590602001909291905050506109a7565b6040518082815260200191505060405180910390f35b6102656004803603602081101561024f57600080fd5b81019080803590602001909291905050506109c4565b005b61029d6004803603604081101561027d57600080fd5b810190808035906020019092919080359060200190929190505050610f94565b005b6102cb600480360360208110156102b557600080fd5b81019080803590602001909291905050506118f5565b005b6102d5611d6a565b6040518082815260200191505060405180910390f35b6102f3611d6f565b6040518082815260200191505060405180910390f35b610311611dfb565b6040518082815260200191505060405180910390f35b61035d6004803603604081101561033d57600080fd5b810190808035906020019092919080359060200190929190505050611e05565b60405180821515815260200191505060405180910390f35b6103c16004803603604081101561038b57600080fd5b81019080803573ffffffffffffffffffffffffffffffffffffffff16906020019092919080359060200190929190505050611e57565b005b6103cb611f41565b6040518082815260200191505060405180910390f35b6103e9611f46565b6040518082815260200191505060405180910390f35b610407611f4c565b6040518082815260200191505060405180910390f35b61063e600480360360a081101561043357600080fd5b81019080803573ffffffffffffffffffffffffffffffffffffffff169060200190929190803573ffffffffffffffffffffffffffffffffffffffff1690602001909291908035906020019064010000000081111561049057600080fd5b8201836020820111156104a257600080fd5b803590602001918460208302840111640100000000831117156104c457600080fd5b919080806020026020016040519081016040528093929190818152602001838360200280828437600081840152601f19601f8201169050808301925050505050505091929192908035906020019064010000000081111561052457600080fd5b82018360208201111561053657600080fd5b8035906020019184602083028401116401000000008311171561055857600080fd5b919080806020026020016040519081016040528093929190818152602001838360200280828437600081840152601f19601f820116905080830192505050505050509192919290803590602001906401000000008111156105b857600080fd5b8201836020820111156105ca57600080fd5b803590602001918460018302840111640100000000831117156105ec57600080fd5b91908080601f016020809104026020016040519081016040528093929190818152602001838380828437600081840152601f19601f820116905080830192505050505050509192919290505050611f56565b60405180827bffffffffffffffffffffffffffffffffffffffffffffffffffffffff1916815260200191505060405180910390f35b61067b611f6b565b6040518082815260200191505060405180910390f35b6106d3600480360360208110156106a757600080fd5b81019080803573ffffffffffffffffffffffffffffffffffffffff169060200190929190505050611f70565b6040518082815260200191505060405180910390f35b610735600480360360408110156106ff57600080fd5b81019080803573ffffffffffffffffffffffffffffffffffffffff16906020019092919080359060200190929190505050611fb9565b6040518082815260200191505060405180910390f35b61078d6004803603602081101561076157600080fd5b81019080803573ffffffffffffffffffffffffffffffffffffffff169060200190929190505050612014565b6040518082815260200191505060405180910390f35b6108b0600480360360a08110156107b957600080fd5b81019080803573ffffffffffffffffffffffffffffffffffffffff169060200190929190803573ffffffffffffffffffffffffffffffffffffffff16906020019092919080359060200190929190803590602001909291908035906020019064010000000081111561082a57600080fd5b82018360208201111561083c57600080fd5b8035906020019184600183028401116401000000008311171561085e57600080fd5b91908080601f016020809104026020016040519081016040528093929190818152602001838380828437600081840152601f19601f82011690508083019250505050505050919291929050505061205d565b60405180827bffffffffffffffffffffffffffffffffffffffffffffffffffffffff1916815260200191505060405180910390f35b6108ed612072565b6040518082815260200191505060405180910390f35b6000806000837bffffffffffffffffffffffffffffffffffffffffffffffffffffffff19167bffffffffffffffffffffffffffffffffffffffffffffffffffffffff1916815260200190815260200160002060009054906101000a900460ff169050919050565b60006008600083815260200190815260200160002060009054906101000a900473ffffffffffffffffffffffffffffffffffffffff169050919050565b6000600a6000838152602001908152602001600020549050919050565b806000600a60008381526020019081526020016000205414158015610a495750600073ffffffffffffffffffffffffffffffffffffffff166008600083815260200190815260200160002060009054906101000a900473ffffffffffffffffffffffffffffffffffffffff1673ffffffffffffffffffffffffffffffffffffffff1614155b610a9e576040517f08c379a00000000000000000000000000000000000000000000000000000000081526004018080602001828103825260218152602001806125906021913960400191505060405180910390fd5b6000600360009054906101000a900473ffffffffffffffffffffffffffffffffffffffff1673ffffffffffffffffffffffffffffffffffffffff1662fdd58e33856040518363ffffffff1660e01b8152600401808373ffffffffffffffffffffffffffffffffffffffff1681526020018281526020019250505060206040518083038186803b158015610b3057600080fd5b505afa158015610b44573d6000803e3d6000fd5b505050506040513d6020811015610b5a57600080fd5b8101908080519060200190929190505050905060008111610bc6576040517f08c379a00000000000000000000000000000000000000000000000000000000081526004018080602001828103825260438152602001806125b16043913960600191505060405180910390fd5b600660006008600086815260200190815260200160002060009054906101000a900473ffffffffffffffffffffffffffffffffffffffff1673ffffffffffffffffffffffffffffffffffffffff1673ffffffffffffffffffffffffffffffffffffffff16815260200190815260200160002054421015610c91576040517f08c379a00000000000000000000000000000000000000000000000000000000081526004018080602001828103825260358152602001806126376035913960400191505060405180910390fd5b6000600a60008581526020019081526020016000205490506000610cb482612077565b905060011515610cc3826120ad565b151514610d1b576040517f08c379a00000000000000000000000000000000000000000000000000000000081526004018080602001828103825260358152602001806126b06035913960400191505060405180910390fd5b600260009054906101000a900473ffffffffffffffffffffffffffffffffffffffff1673ffffffffffffffffffffffffffffffffffffffff1663a9059cbb33610d6d84866121bb90919063ffffffff16565b6040518363ffffffff1660e01b8152600401808373ffffffffffffffffffffffffffffffffffffffff16815260200182815260200192505050602060405180830381600087803b158015610dc057600080fd5b505af1158015610dd4573d6000803e3d6000fd5b505050506040513d6020811015610dea57600080fd5b8101908080519060200190929190505050506000610e156006600a0a8461224390919063ffffffff16565b9050610e213382611e57565b6000600a60008881526020019081526020016000208190555060006008600088815260200190815260200160002060006101000a81548173ffffffffffffffffffffffffffffffffffffffff021916908373ffffffffffffffffffffffffffffffffffffffff160217905550610edf83600760003373ffffffffffffffffffffffffffffffffffffffff1673ffffffffffffffffffffffffffffffffffffffff1681526020019081526020016000205461228d90919063ffffffff16565b600760003373ffffffffffffffffffffffffffffffffffffffff1673ffffffffffffffffffffffffffffffffffffffff16815260200190815260200160002081905550610f3783600b5461228d90919063ffffffff16565b600b81905550823373ffffffffffffffffffffffffffffffffffffffff167ff279e6a1f5e320cca91135676d9cb6e44ca8a08c0b88342bcdb1144f6511b568846040518082815260200191505060405180910390a3505050505050565b600033905060011515610fa6846122d7565b151514610ffe576040517f08c379a00000000000000000000000000000000000000000000000000000000081526004018080602001828103825260228152602001806126156022913960400191505060405180910390fd5b6000600360009054906101000a900473ffffffffffffffffffffffffffffffffffffffff1673ffffffffffffffffffffffffffffffffffffffff1662fdd58e83866040518363ffffffff1660e01b8152600401808373ffffffffffffffffffffffffffffffffffffffff1681526020018281526020019250505060206040518083038186803b15801561109057600080fd5b505afa1580156110a4573d6000803e3d6000fd5b505050506040513d60208110156110ba57600080fd5b8101908080519060200190929190505050905060008111611126576040517f08c379a000000000000000000000000000000000000000000000000000000000815260040180806020018281038252604481526020018061266c6044913960600191505060405180910390fd5b6000600260009054906101000a900473ffffffffffffffffffffffffffffffffffffffff1673ffffffffffffffffffffffffffffffffffffffff1663dd62ed3e84306040518363ffffffff1660e01b8152600401808373ffffffffffffffffffffffffffffffffffffffff1681526020018273ffffffffffffffffffffffffffffffffffffffff1681526020019250505060206040518083038186803b1580156111cf57600080fd5b505afa1580156111e3573d6000803e3d6000fd5b505050506040513d60208110156111f957600080fd5b8101908080519060200190929190505050905083811015611265576040517f08c379a000000000000000000000000000000000000000000000000000000000815260040180806020018281038252604681526020018061272a6046913960600191505060405180910390fd5b600115156112738587611e05565b1515146112cb576040517f08c379a000000000000000000000000000000000000000000000000000000000815260040180806020018281038252602a81526020018061252f602a913960400191505060405180910390fd5b60011515600360009054906101000a900473ffffffffffffffffffffffffffffffffffffffff1673ffffffffffffffffffffffffffffffffffffffff1663e985e9c585306040518363ffffffff1660e01b8152600401808373ffffffffffffffffffffffffffffffffffffffff1681526020018273ffffffffffffffffffffffffffffffffffffffff1681526020019250505060206040518083038186803b15801561137657600080fd5b505afa15801561138a573d6000803e3d6000fd5b505050506040513d60208110156113a057600080fd5b8101908080519060200190929190505050151514611409576040517f08c379a00000000000000000000000000000000000000000000000000000000081526004018080602001828103825260458152602001806126e56045913960600191505060405180910390fd5b6000611413611d6f565b9050600360009054906101000a900473ffffffffffffffffffffffffffffffffffffffff1673ffffffffffffffffffffffffffffffffffffffff1663f242432a85308960016040518563ffffffff1660e01b8152600401808573ffffffffffffffffffffffffffffffffffffffff1681526020018473ffffffffffffffffffffffffffffffffffffffff1681526020018381526020018281526020018060200182810382526000815260200160200195505050505050600060405180830381600087803b1580156114e357600080fd5b505af11580156114f7573d6000803e3d6000fd5b50505050600260009054906101000a900473ffffffffffffffffffffffffffffffffffffffff1673ffffffffffffffffffffffffffffffffffffffff166323b872dd8530886040518463ffffffff1660e01b8152600401808473ffffffffffffffffffffffffffffffffffffffff1681526020018373ffffffffffffffffffffffffffffffffffffffff1681526020018281526020019350505050602060405180830381600087803b1580156115ac57600080fd5b505af11580156115c0573d6000803e3d6000fd5b505050506040513d60208110156115d657600080fd5b810190808051906020019092919050505050600360009054906101000a900473ffffffffffffffffffffffffffffffffffffffff1673ffffffffffffffffffffffffffffffffffffffff166340c10f1985836040518363ffffffff1660e01b8152600401808373ffffffffffffffffffffffffffffffffffffffff16815260200182815260200192505050600060405180830381600087803b15801561167b57600080fd5b505af115801561168f573d6000803e3d6000fd5b50505050836008600083815260200190815260200160002060006101000a81548173ffffffffffffffffffffffffffffffffffffffff021916908373ffffffffffffffffffffffffffffffffffffffff16021790555084600a60008381526020019081526020016000208190555080600960008673ffffffffffffffffffffffffffffffffffffffff1673ffffffffffffffffffffffffffffffffffffffff168152602001908152602001600020600088815260200190815260200160002081905550808473ffffffffffffffffffffffffffffffffffffffff167f3e4d40fc81d95f3ec5c58fddb0303e88d043adbb3138b031f6eb0dd62ef3302660405160405180910390a36117e885600760008773ffffffffffffffffffffffffffffffffffffffff1673ffffffffffffffffffffffffffffffffffffffff168152602001908152602001600020546121bb90919063ffffffff16565b600760008673ffffffffffffffffffffffffffffffffffffffff1673ffffffffffffffffffffffffffffffffffffffff1681526020019081526020016000208190555061184085600b546121bb90919063ffffffff16565b600b8190555061185b600454426121bb90919063ffffffff16565b600660008673ffffffffffffffffffffffffffffffffffffffff1673ffffffffffffffffffffffffffffffffffffffff16815260200190815260200160002081905550858473ffffffffffffffffffffffffffffffffffffffff167fb2918ab7bbce88c5d881690a22a6cafe802664274a5044c300c3e3cacf7363e2876040518082815260200191505060405180910390a3505050505050565b806000600a6000838152602001908152602001600020541415801561197a5750600073ffffffffffffffffffffffffffffffffffffffff166008600083815260200190815260200160002060009054906101000a900473ffffffffffffffffffffffffffffffffffffffff1673ffffffffffffffffffffffffffffffffffffffff1614155b6119cf576040517f08c379a00000000000000000000000000000000000000000000000000000000081526004018080602001828103825260218152602001806125906021913960400191505060405180910390fd5b6000600360009054906101000a900473ffffffffffffffffffffffffffffffffffffffff1673ffffffffffffffffffffffffffffffffffffffff1662fdd58e33856040518363ffffffff1660e01b8152600401808373ffffffffffffffffffffffffffffffffffffffff1681526020018281526020019250505060206040518083038186803b158015611a6157600080fd5b505afa158015611a75573d6000803e3d6000fd5b505050506040513d6020811015611a8b57600080fd5b8101908080519060200190929190505050905060008111611af7576040517f08c379a00000000000000000000000000000000000000000000000000000000081526004018080602001828103825260378152602001806125596037913960400191505060405180910390fd5b6000600a6000858152602001908152602001600020549050600260009054906101000a900473ffffffffffffffffffffffffffffffffffffffff1673ffffffffffffffffffffffffffffffffffffffff1663a9059cbb33836040518363ffffffff1660e01b8152600401808373ffffffffffffffffffffffffffffffffffffffff16815260200182815260200192505050602060405180830381600087803b158015611ba257600080fd5b505af1158015611bb6573d6000803e3d6000fd5b505050506040513d6020811015611bcc57600080fd5b8101908080519060200190929190505050506000611bf76006600a0a8361224390919063ffffffff16565b9050611c033382611e57565b6000600a60008781526020019081526020016000208190555060006008600087815260200190815260200160002060006101000a81548173ffffffffffffffffffffffffffffffffffffffff021916908373ffffffffffffffffffffffffffffffffffffffff160217905550611c8482600b5461228d90919063ffffffff16565b600b81905550611cdc82600760003373ffffffffffffffffffffffffffffffffffffffff1673ffffffffffffffffffffffffffffffffffffffff1681526020019081526020016000205461228d90919063ffffffff16565b600760003373ffffffffffffffffffffffffffffffffffffffff1673ffffffffffffffffffffffffffffffffffffffff16815260200190815260200160002081905550813373ffffffffffffffffffffffffffffffffffffffff167ff6334794522b9db534a812aaae1af828a2e96aac68473b58e36d7d0bfd67477b60405160405180910390a35050505050565b606481565b6000611d86600180546121bb90919063ffffffff16565b60018190555060196001541480611d9f57506032600154145b80611dac57506064600154145b80611db9575060fa600154145b80611dc757506103e8600154145b15611df257611de260036001546121bb90919063ffffffff16565b6001819055506001549050611df8565b60015490505b90565b6000600554905090565b600080611e1f6006600a0a8561224390919063ffffffff16565b905060011515611e2e826122d7565b1515148015611e3c57508281145b15611e4b576001915050611e51565b60009150505b92915050565b600360009054906101000a900473ffffffffffffffffffffffffffffffffffffffff1673ffffffffffffffffffffffffffffffffffffffff1663f242432a30848460016040518563ffffffff1660e01b8152600401808573ffffffffffffffffffffffffffffffffffffffff1681526020018473ffffffffffffffffffffffffffffffffffffffff1681526020018381526020018281526020018060200182810382526000815260200160200195505050505050600060405180830381600087803b158015611f2557600080fd5b505af1158015611f39573d6000803e3d6000fd5b505050505050565b603281565b6103e881565b6000600454905090565b600063bc197c8160e01b905095945050505050565b60fa81565b6000600760008373ffffffffffffffffffffffffffffffffffffffff1673ffffffffffffffffffffffffffffffffffffffff168152602001908152602001600020549050919050565b6000600960008473ffffffffffffffffffffffffffffffffffffffff1673ffffffffffffffffffffffffffffffffffffffff168152602001908152602001600020600083815260200190815260200160002054905092915050565b6000600660008373ffffffffffffffffffffffffffffffffffffffff1673ffffffffffffffffffffffffffffffffffffffff168152602001908152602001600020549050919050565b600063f23a6e6160e01b905095945050505050565b601981565b60008061208f8360055461232290919063ffffffff16565b90506120a560648261224390919063ffffffff16565b915050919050565b600080600260009054906101000a900473ffffffffffffffffffffffffffffffffffffffff1673ffffffffffffffffffffffffffffffffffffffff166370a08231306040518263ffffffff1660e01b8152600401808273ffffffffffffffffffffffffffffffffffffffff16815260200191505060206040518083038186803b15801561213957600080fd5b505afa15801561214d573d6000803e3d6000fd5b505050506040513d602081101561216357600080fd5b81019080805190602001909291905050509050600061218d600b548361228d90919063ffffffff16565b905060008111801561219f5750838110155b156121af576001925050506121b6565b6000925050505b919050565b600080828401905083811015612239576040517f08c379a000000000000000000000000000000000000000000000000000000000815260040180806020018281038252601b8152602001807f536166654d6174683a206164646974696f6e206f766572666c6f77000000000081525060200191505060405180910390fd5b8091505092915050565b600061228583836040518060400160405280601a81526020017f536166654d6174683a206469766973696f6e206279207a65726f0000000000008152506123a8565b905092915050565b60006122cf83836040518060400160405280601e81526020017f536166654d6174683a207375627472616374696f6e206f766572666c6f77000081525061246e565b905092915050565b600060198214806122e85750603282145b806122f35750606482145b806122fe575060fa82145b8061230a57506103e882145b15612318576001905061231d565b600090505b919050565b60008083141561233557600090506123a2565b600082840290508284828161234657fe5b041461239d576040517f08c379a00000000000000000000000000000000000000000000000000000000081526004018080602001828103825260218152602001806125f46021913960400191505060405180910390fd5b809150505b92915050565b60008083118290612454576040517f08c379a00000000000000000000000000000000000000000000000000000000081526004018080602001828103825283818151815260200191508051906020019080838360005b838110156124195780820151818401526020810190506123fe565b50505050905090810190601f1680156124465780820380516001836020036101000a031916815260200191505b509250505060405180910390fd5b50600083858161246057fe5b049050809150509392505050565b600083831115829061251b576040517f08c379a00000000000000000000000000000000000000000000000000000000081526004018080602001828103825283818151815260200191508051906020019080838360005b838110156124e05780820151818401526020810190506124c5565b50505050905090810190601f16801561250d5780820380516001836020036101000a031916815260200191505b509250505060405180910390fd5b506000838503905080915050939250505056fe4d696e657243617264526577617264733a20496e76616c696420616d6f756e742070726f76696465642e4d696e657243617264526577617264733a204163636f756e7420686173206e6f206365727420746f2077697468647261772066756e64734d696e657243617264526577617264733a206e6f2066756e6473206c6f636b65644d696e657243617264526577617264733a204163636f756e7420686173206e6f206365727420746f2077697468647261772066756e6473202b206469766964656e6473536166654d6174683a206d756c7469706c69636174696f6e206f766572666c6f774d696e657243617264526577617264733a20496e76616c696420746f6b656e2049444d696e657243617264526577617264733a2063757272656e742074696d65206973206265666f72652072656c656173652074696d654d696e657243617264526577617264733a204163636f756e742068617320696e73756666696369656e74206d696e657220636172647320746f206c6f636b2066756e64734d696e657243617264526577617264733a20496e73756666696369656e742066756e647320746f20706179206469766964656e64734d696e657243617264526577617264733a20736574417070726f76616c466f72416c6c206e6f742073657420666f72204d696e65725265776172647320436f6e74726163744d696e657243617264526577617264733a20496e73756666696369656e7420616c6c6f77616e63652073657420666f72204d696e65725265776172647320436f6e7472616374a26469706673582212206250a45dc1e0baa3fd2a9dd84e66ee34439dcc474f1c098e8637a3583adab99f64736f6c634300060c0033",
  "compiler": {
    "name": "solc",
    "version": "0.6.12+commit.27d51765.Emscripten.clang",
    "optimizer": {
      "enabled": false,
      "runs": 200
    },
    "evmVersion": "petersburg"
  }
}